S0100000484F53545F5553422E737265638D
S21440000008F40120CD8B40009D8C40009D8C400024
S2144000109D8C40009D8C40009D8C40000000000060
S214400020000000000000000000000000DD16400058
S2144000309D8C400000000000DD174000A195400068
S2144000409D8C40009D8C40009D8C40009D8C4000C7
S2144000509D8C40009D8C40009D8C400081984000C7
S214400060550840009D8C400000000000316540006F
S214400070496540009D8C40009D8C40009D8C400012
S2144000809D8C40009D8C40009D8C40009D8C400087
S2144000909D8C40009D8C40009D8C40009D8C400077
S2144000A09D8C40009D8C40009D8C40009D8C400067
S2144000B09D8C40009D8C40009D8C400000000000C0
S2144000C000000000000000000000000000000000EB
S2144000D000000000000000000000000000000000DB
S2144000E000000000000000000000000000000000CB
S2144000F0000000000000000000000000757B40008B
S2144001009D8C40009D8C40000000000000000000D8
S214400110000000000000000000000000000000009A
S214400120000000000000000000000000000000008A
S214400130000000000000000000000000000000007A
S214400140000000000000000010B5054C237833B9CD
S214400150044B13B10448AFF300800123237010BD55
S214400160000A0020000000002CD64000084B10B5C6
S2144001701BB108480849AFF300800848036803B934
S21440018010BD074B002BFBD0BDE81040184700BF02
S214400190000000002CD64000040A00202CD6400068
S2144001A00000000080B483B000AF78607B68072B07
S2144001B025D801A252F823F0D9014000DF014000C3
S2144001C0E5014000EB014000EF014000F301400034
S2144001D0F7014000FB0140004FF4FA4310E04FF4B3
S2144001E000430DE04FF400430AE0084B08E0084B9C
S2144001F006E0084B04E0002302E0002300E0002372
S21440020018460C37BD465DF8047B704700127A00EE
S2144002100024F40000366E0180B500AF0120044B88
S2144002209847024640F6723303FB02F3184680BDF9
S214400230A501400080B500AF024B984703461846DC
S21440024080BD00BF1902400080B500AF044B984700
S2144002500246044BA3FB02235B0B034A136080BD9C
S214400260350240005917B7D11C0A002080B588B027
S21440027000AF1E4B984702461D4BA3FB02239B092B
S214400280013B7B611B4B3B611B4BFB604FF080632C
S214400290BB603B691B687A69D31AFB61174B98476A
S2144002A0B861174B98477860FB681A68BB6813407C
S2144002B0002B07D0BB690133BB613B691B687A6979
S2144002C0D31AFB61BA6913469B0013445B007B60FC
S2144002D00C4B1B68FA69B2FBF3F37A6813447B60F5
S2144002E07B6818462037BD4680BD00BF35024000BB
S2144002F0D34D621018E000E004ED00E0092740000E
S214400300C11740001C0A002080B483B000AF0346EB
S214400310FB71084997F907305B09FA7902F01F022A
S214400320012000FA02F241F823200C37BD465DF862
S214400330047B704700E100E080B483B000AF034622
S2144003403960FB7197F90730002B0BDA0D49FB79C2
S21440035003F00F03043B3A68D2B21201D2B20B4408
S2144003601A7609E0084997F907303A68D2B212017E
S214400370D2B20B4483F800230C37BD465DF8047BAD
S214400380704700BF00ED00E000E100E080B483B0BD
S21440039000AF78607B68072B25D801A252F823F07F
S2144003A0C1034000C7034000CD034000D3034000D4
S2144003B0D7034000DB034000DF034000E303400078
S2144003C04FF4FA4310E04FF400430DE04FF400437F
S2144003D00AE0084B08E0084B06E0084B04E0002320
S2144003E002E0002300E0002318460C37BD465DF8C7
S2144003F0047B704700127A000024F40000366E0139
S21440040080B500AF0120044B9847024640F6723351
S21440041003FB02F3184680BD8D03400080B500AF55
S214400420024B98470346184680BD00BF0104400073
S21440043080B500AF024B98470346184680BD00BFC4
S2144004400104400080B48BB000AF78600B46FB7070
S2144004507B687B62FB7887F823307B6AFB61FB69AD
S214400460BB61BB695B097B617B6903F5001303F2E3
S21440047007735B023B6197F82330002B09D07B6AF9
S214400480FB60FB6803F01F0301229A403B691A6336
S21440049008E07B6ABB60BB6803F01F0301229A40FA
S2144004A03B695A632C37BD465DF8047B704700BFF6
S2144004B080B489B000AF78607B68FB61FB69BB6144
S2144004C0BB697B617B695B093B613B6903F5001354
S2144004D003F207735B02DA6BFB69FB60FB6803F0B1
S2144004E01F03012101FA03F31340002B14BF01231D
S2144004F00023DBB218462437BD465DF8047B7047C0
S21440050080B48BB000AF78607B687B627B6A3B626E
S2144005103B6AFB61FB695B09BB61BB6903F5001382
S21440052003F207735B027B617B6A3B613B6903F0C6
S2144005301F03012202FA03F3FB607B69DA6B7B6AD6
S214400540BB60BB6803F01F03012101FA03F31340AD
S214400550002B03D07B69FA685A6302E07B69FA682D
S2144005601A632C37BD465DF8047B70472DE9F84F7B
S21440057000AF212000214A4B98474A4B98470346F4
S21440058018464FF0000102460B46921843EB030311
S214400590121843EB01034FEA431B4BEAD26B4FEA78
S2144005A0421A12EB0A0243EB0B03121843EB010309
S2144005B043F2AF604FF00001121843EB01033A4E8E
S2144005C01046194643F2B0624FF00003B047024669
S2144005D00B4613461846354B9847324B98470346CA
S2144005E018464FF0000102460B46921843EB0303B1
S2144005F0121843EB01034FEA431949EAD2694FEA1E
S214400600421812EB080243EB0903121843EB0103AE
S21440061043F2AF604FF00001121843EB0103224E45
S2144006201046194643F2B0624FF00003B047024608
S2144006300B46134618461D4B984721200121184B60
S2144006409847184B9847034618464FF00001024615
S2144006500B46921843EB0303121843EB01035D016C
S21440066045EAD2655401121943EB0503121843EBD1
S214400670010343F2AF604FF00001121843EB010351
S214400680094C1046194643F2B0624FF00003A047AB
S21440069002460B4613461846044B9847BDE8F88F6B
S2144006A0450440001D044000259B400001000020FA
S2144006B0B0B58AB000AFF860B9607A603B60254B51
S2144006C007F110041D460FCD0FC42B68237000237E
S2144006D07B62786800213A681F4B9847BB685A008F
S2144006E03B689A4203D93B68013B5B08BB600023EA
S2144006F07B621FE07B685A1C7A60FA68127812099F
S214400700D2B207F128010A4412F8182C1A707B68F6
S2144007105A1C7A60FA68127802F00F0207F1280134
S2144007200A4412F8182C1A70FB680133FB607B6A87
S21440073001337B627A6ABB689A42DBD37B685A1C79
S2144007407A6000221A70BB685B0018462837BD46A0
S214400750B0BD00BF28CC400015A8400080B58AB088
S21440076000AF78607B685B00284AA2FB03239B09A6
S2144007707B6207F10C0300221A60043300221A60E1
S214400780043300221A60043300221A600433002225
S2144007901A60043300221A6004337B68FB60C0236F
S2144007A03B614FF400637B6119481A4B98471848E1
S2144007B00121194B9847194B9847024607F10C03FD
S2144007C017481946174B98471548796A164B984765
S2144007D008200E21154B98470820154B984710487F
S2144007E040F20111134B9847134B144A1A60144BAE
S2144007F0144A1A600A48144B98470948134B9847BE
S2144008000748134B98472837BD4680BDD34D6210E6
S21440081000C0004065604000CD61400031044000AB
S21440082000C200405188400009894000390340001A
S214400830090340002589400038120020300A002075
S2144008403C120020340E0020A989400091884000C8
S214400850D988400090B587B000AF00237B61002365
S2144008603B6100237B603648364B9847F860FB6810
S21440087003F00103002B1AD007F10803304819464D
S214400880314B98470346002B56D1304B1B68B3F587
S214400890806F51D22E4B1A682C4B1B68B968C9B270
S2144008A0D1542A4B1B680133284A136044E0FB6846
S2144008B003F48073002B24D0254B1B683B61254BEB
S2144008C01B68234A1360234A3B691360214B1B680D
S2144008D01E4A1268C3F800241C4B00221A601848AF
S2144008E01D4B98471D4B1A683B1D104619491A4622
S2144008F000231B4CA0477B68002B1DD0194B984704
S2144009001AE0FB6803F01003002B0DD00C48164B82
S2144009109847786178694FF40071144B98470848B7
S2144009201021134B984707E0FB6803F00803002BA1
S21440093002D01048104B98471C37BD4690BD00BFAC
S21440094000C2004075894000158A400040120020D1
S214400950381200203C120020A9894000200A0020BE
S214400960211E400065174000498A40004D14400053
S214400970418940003CCC400011A1400080B485B085
S21440098000AF78600B46FB700023BB730023FB73FD
S21440099009E0FB7B7A6813441A78BB7B1344BB732D
S2144009A0FB7B0133FB73FA7BFB789A42F1D3BB7B2C
S2144009B018461437BD465DF8047B704780B586B050
S2144009C000AFB9607B600346FB731346BB737B681E
S2144009D07B617B695A1C7A617E221A707B695A1C3D
S2144009E07A6100221A707B695A1C7A61BA7B01329E
S2144009F0D2B21A707B695A1C7A61FA7B1A70BB684D
S214400A00002B0CD0BB7B002B09D0BB7B7869B96828
S214400A101A460E4B9847BB7B7A6913447B617A69CA
S214400A207B68D31ADBB278681946094B9847034669
S214400A301A467B691A707B6901337B617A697B68E9
S214400A40D31A9BB218461837BD4680BDE1A6400073
S214400A507D09400090B585B000AF03460A46FB715D
S214400A601346BB711D4BFB60FB685A1CFA607E2226
S214400A701A70FB685A1CFA6002221A70FB685A1CED
S214400A80FA60FA791A70FB685A1CFA60BA791A70DA
S214400A90FB68124A9B1ADBB210481946104B98471F
S214400AA003461A46FB681A70FB680133FB600D4B21
S214400AB01B680A4A1A600B4B1B68FA680749521AA9
S214400AC05A60094B1B68184606494FF47A72002351
S214400AD0064CA0471437BD4690BD00BF50120020BC
S214400AE07D09400014010020240A0020A91C400073
S214400AF080B400AFBD465DF8047B704780B500AF5C
S214400B000348044B9847FF20034B984780BD00BFDF
S214400B1054CC400011A140008537400080B584B0D9
S214400B2000AF03463960FB711346BB710023FB6080
S214400B30FB79A12B00F08780A12B1DDC812B00F0D8
S214400B40D680812B0BDC0A2B43D00A2B02DC032BEE
S214400B5059D0F1E00B2B4CD00C2B3DD0ECE0842B45
S214400B6000F0DA80842B02DC822B7DD0E4E0892BF7
S214400B7076D0A02B40D0DFE0F82B00F0B480F82BE6
S214400B800EDCCB2B00F0C080CB2B02DCA62B76D025
S214400B90D2E0CC2B00F0BC80CD2B00F0C980CBE05F
S214400BA0FC2B00F08E80FC2B04DCF92B07D0FA2BB4
S214400BB04DD0C1E0FD2B72D0FE2B6CD0BCE063481C
S214400BC0634B9847634B01221A70634B03221A709B
S214400BD0B8E0624B9847B5E03B681B7860481946DA
S214400BE05B4B98473B681B789BB218465D4B9847D3
S214400BF0A8E05D4B9847A5E03B681B785B481946E4
S214400C00534B98479EE03B681B78FB72FB7A002B61
S214400C1003D157484E4B984714E0FB7A012B03D13B
S214400C2054484B4B98470DE0FB7A022B03D1524871
S214400C30474B984706E0FB7A032B03D14F48444B7B
S214400C4098477FE07EE04E48414B98477AE04D4BD0
S214400C501B6801334B4A13604B483D4B984771E045
S214400C604A483B4B98476DE01E200121484B984729
S214400C70484B01221A704848354B984762E03B681B
S214400C801B78002B03D14548314B98475AE04448DF
S214400C902F4B984756E043482D4B984752E03B68C9
S214400CA00133FB60F868404B984703463B813B89DD
S214400CB00133FA6813443D48F9681A46244B98476E
S214400CC040E03B680133FB60F868374B9847034683
S214400CD03B813B890133FA6813443548F9681A4624
S214400CE01B4B98472EE03348194B98472AE032482A
S214400CF0174B9847314B1B78012B04D14FF4964045
S214400D002F4B98471EE01DE02E48114B984719E0A0
S214400D102D480F4B984715E03B681B78002B03D1B6
S214400D202A480B4B98470DE02948094B984709E05D
S214400D302848074B984705E0FB7927481946044B57
S214400D40984700BF1037BD4680BD00BF74CC4000FA
S214400D5011A140004A12002010010020F10A400074
S214400D608CCC400055384000FD0A4000B0CC4000D6
S214400D70DCCC4000F0CC400010CD400038CD4000E8
S214400D805CCD40004C1200207CCD400094CD40000D
S214400D904504400044120020A8CD4000C4CD400089
S214400DA0D4CD4000E8CD400051AA400000CE4000DF
S214400DB020CE400048CE400064CE4000481200207E
S214400DC05D07400084CE4000A4CE4000BCCE40002C
S214400DD0CCCE4000DCCE4000F4CE400090B587B08C
S214400DE000AF78600B46FB707B687B6100233B61FD
S214400DF00023FB73FB7878681946354A4FF48073B6
S214400E00344CA047FB7834481946314A334B984710
S214400E1056E07B691B787E2B12D0314B1B78002B1B
S214400E2000D151E00123FB737B691B782D4819469E
S214400E302A4B9847FB7BA02019462B4B984743E00C
S214400E407B6902331B780333BB73BB7B78691946D7
S214400E50264B984703467B73BB7B7A6913441B78C3
S214400E607A7B9A420DD00223FB73BB7B7A6913448C
S214400E701B781A467B7B1E4811461A46174B9847E6
S214400E8022E07B69DB783B737B6904333B617B699B
S214400E9002331B78013BBB733A7BBB7B10463969F8
S214400EA01A46144B98477B6902331B780433BB734E
S214400EB0BB7B7A6913447B61FA78BB7BD31AFB70A1
S214400EC0FB78032BA5D800BF1C37BD4690BD00BF9E
S214400ED07C9E0120B106400010CF400011A140008A
S214400EE04A12002024CF4000550A40007D094000A9
S214400EF048CF40001D0B400090B585B000AF7860ED
S214400F000023FB600023BB600D4B98470D480E4BFB
S214400F1098470E4B1A6807F10803104619464FF0DB
S214400F20FF3200230A4CA047BB681A46BB68D3F87A
S214400F300034DBB210461946064B9847E9E700BF37
S214400F406D05400084CF400011A14000200A0020DB
S214400F50E91E4000DD0D400080B582B000AF7860ED
S214400F601F4B1B78013B032B36D801A252F823F0C7
S214400F70810F4000AD0F4000C30F4000970F400068
S214400F801020184B9847184B1B7883F00103DAB2B1
S214400F90154B1A7021E01020124B9847124B1B78C5
S214400FA083F00103DAB2104B1A7016E010200021CD
S214400FB00E4B98470C4B00221A70094B00221A70B1
S214400FC00BE010200121094B9847074B01221A706D
S214400FD0034B00221A7000E000BF0837BD4680BDB4
S214400FE01001002001054000441200204504400046
S214400FF090B587B002AF7860374BFB60374B984769
S214401000374B1B780133DAB2354B1A70354B98475D
S2144010102020354B9847034683F00103DBB2002B74
S21440102014D02F4B1B78042B09D93048304B9847A7
S214401030304B00221A70304B03221A7049E02F487A
S2144010402B4B98472B4B01221A7042E0294B1B78BA
S214401050002B21D12A48264B9847274B01221A704D
S214401060022000210022274B274CA04703461A4661
S214401070264B1A80FB68234A1A60FB68234A12886C
S2144010805A60234B1A6807F10C0310461946002293
S2144010900023204CA04708E0164B1B78012B04D1B8
S2144010A01D48134B98471D4B98470C4B98470C4B85
S2144010B000221A700B4B98470E4B01221A70184BA1
S2144010C01A68002300931046012100220023154C85
S2144010D0A0471437BD4690BD641200207D174000DF
S2144010E07012002099174000B10440009CCF400089
S2144010F011A140001801002010010020B0CF400090
S214401100CCCF400074120020BD094000841200205D
S214401110240A0020A91C4000E4CF4000FD0A4000FD
S214401120280A00204932400090B5ABB004AF786042
S2144011300023C7F894300023C7F888304B4B009301
S2144011404B484FF47A71012200234A4CA04702468E
S214401150494B1A60484B1B68002B02D14748484B06
S2144011609847484B0093484840F6C4110122002354
S214401170404CA0470246454B1A60444B1B68002B28
S2144011800CD0424B1C68424B9847024600230093C3
S2144011902046002100233F4CA04702E03E48384B03
S2144011A098473E48364B98470120042100223C4B46
S2144011B0984702463B4B1A603A4B1B68002B02D1BD
S2144011C039482F4B9847012004210022344B98473A
S2144011D00246364B1A60354B1B68002B02D134480A
S2144011E0274B98470523009300230193002302933F
S2144011F0002303932F4830494FF4806200232F4C3E
S214401200A0472F482F4B9847C7F89400274B1A689B
S21440121007F18803104619464FF0FF3200232A4C48
S214401220A047D7F888305B6828481946144B98473B
S214401230D7F888301B68C7F88C30D7F888305B689A
S214401240C7F8903007F18C03D7F89400194600226F
S2144012501F4B9847D7F894004FF480711D4B984722
S214401260174810211C4B9847CBE700BFF10F4000B2
S21440127000D04000C9314000280A002010D040006D
S21440128011A14000590F400030D040002C0A0020E9
S214401290DD264000493240003CD040005CD0400053
S2144012A00D1C4000200A002078D04000240A002070
S2144012B098D04000F90E4000BCD04000512340007A
S2144012C000C20040498A4000E91E4000C4D04000A9
S2144012D0E91340002D14400025894000B0B584B085
S2144012E002AF00237B600A4B1D680A4B98470246B4
S2144012F03C1D00230093284600212346064CA04769
S2144013007B68002B01D0054B98470837BD46B0BDDB
S214401310280A00200927400049324000651740004F
S21440132080B586B000AFF860B9607A6000237B6114
S214401330FB68002B02D04FF0FF3314E00FE00C4B5D
S2144013401B680C4A12681046B9689847BB68013358
S214401350BB607B6901337B617B68013B7B607B685C
S214401360002BECDC7B6918461837BD4680BD00BFB5
S214401370849F01208C9F012080B586B000AFF86026
S214401380B9607A6000237B61FB68012B08D0FB685C
S214401390022B05D0FB68032B02D04FF0FF331AE038
S2144013A015E00F4B1A680F4B1868BB68591CB9609C
S2144013B01B78194690470346002B02DA4FF0FF335E
S2144013C009E07B6901337B617B68013B7B607B681E
S2144013D0002BE6D17B6918461837BD4680BD00BF56
S2144013E0889F01208C9F012080B485B000AFF860B4
S2144013F0B9607A60BB68002B07D0BB681A68FB6888
S2144014009A60BB685A68FB68DA607B68002B07D036
S2144014107B681A68FB689A617B685A68FB68DA6181
S2144014201437BD465DF8047B704700BF80B483B078
S21440143000AF786039603A6840F2011313407A682A
S21440144013620C37BD465DF8047B704780B483B0AA
S21440145000AF786039603A6840F2022313407A68F9
S21440146013620C37BD465DF8047B704780B483B08A
S21440147000AF78607B6803F108027B685A607B683F
S2144014804FF0FF329A607B6803F108027B68DA60AF
S2144014907B6803F108027B681A617B6800221A6049
S2144014A00C37BD465DF8047B704700BF80B483B000
S2144014B000AF78607B6800221A610C37BD465DF845
S2144014C0047B704780B485B000AF786039607B6835
S2144014D05B68FB60FB685A683B685A607B685A6882
S2144014E03B689A60FB685B683A689A60FB683A6853
S2144014F05A607B683A685A603B687A681A617B68CB
S2144015001B685A1C7B681A601437BD465DF8047B1E
S214401510704700BF80B485B000AF786039603B68E4
S2144015201B68BB60BB68B3F1FF3F03D17B681B6998
S214401530FB600CE07B680833FB6002E0FB685B689E
S214401540FB60FB685B681A68BB689A42F6D9FB6822
S2144015505A683B685A603B685B683A689A603B6882
S214401560FA689A60FB683A685A603B687A681A611B
S2144015707B681B685A1C7B681A601437BD465DF84A
S214401580047B704780B485B000AF78607B685B684A
S2144015907A6892689A607B689B687A6852685A60F4
S2144015A07B681B69FB60FB685A687B689A4203D17C
S2144015B07B689A68FB685A607B6800221A61FB6801
S2144015C01B685A1EFB681A60FB681B68184614376F
S2144015D0BD465DF8047B704780B483B000AF78604A
S2144015E07B68072B25D801A252F823F00D16400041
S2144015F013164000191640001F16400023164000E0
S214401600271640002B1640002F1640004FF4FA4392
S21440161010E04FF400430DE04FF400430AE0084B5F
S21440162008E0084B06E0084B04E0002302E00023F5
S21440163000E0002318460C37BD465DF8047B704733
S21440164000127A000024F40000366E0180B500AF28
S2144016500120044B9847024640F6723303FB02F3E0
S214401660184680BDD915400080B500AF024B98475C
S2144016700346184680BD00BF4D16400080B485B076
S21440168000AFF860B9607A60FB68043BFB60FB68BB
S2144016904FF080721A60FB68043BFB60BA68FB68D8
S2144016A01A60FB68043BFB60FB6800221A60FB681C
S2144016B0143BFB607A68FB681A60FB68043BFB607F
S2144016C0FB686FF002021A60FB68203BFB60FB6819
S2144016D018461437BD465DF8047B7047054B1968BD
S2144016E00868B0E8F04F80F309884FF0000080F3B8
S2144016F0118870479492012003480068006880F380
S214401700088862B600DF00BF08ED00E080B500AF95
S2144017100E4A0E4B1B6843F4700313600B4A0B4B88
S2144017201B6843F070431360094B9847094B0022EF
S2144017301A60094B9847094A084B1B6843F04043D8
S2144017401360074B98470023184680BD20ED00E005
S214401750591840001C0100208918400034EF00E072
S214401760F916400080B400AF034B4FF080521A6029
S214401770BD465DF8047B704704ED00E080B500AFE1
S214401780034B9847034B1B680133024A136080BDE6
S214401790C11740001C01002080B500AF064B1B68F7
S2144017A0013B054A1360044B1B68002B02D1002006
S2144017B0024B984780BD00BF1C010020D517400053
S2144017C0EFF311804FF0500181F3118870470023EA
S2144017D0184600BF80F31188704700BFEFF30980BA
S2144017E0114B1A681EF0100F08BF20ED108A20E932
S2144017F0F04F10602DE908404FF0500080F31188FC
S21440180001F042F84FF0000080F31188BDE8084030
S21440181019680868B0E8F04F1EF0100F08BFB0EC2B
S214401820108A80F3098870479492012080B500AFF3
S214401830054B4FF080521A60044B9847044B98472C
S2144018400020044B984780BD04ED00E0C1174000DF
S21440185039274000D517400098B500AF064C074BD7
S21440186098470246064BA3FB02239B09013B236095
S214401870044B07221A6098BD14E000E06916400049
S214401880D34D621010E000E0DFF80C00016841F430
S214401890700101607047000088ED00E080B586B0BA
S2144018A000AF78600023FB60374B9847374B1B6888
S2144018B0002B01D1364B98477B68002B0ED0102367
S2144018C01A467B6813447B607B6803F00703002B53
S2144018D004D07B6823F0070308337B607B68002BCB
S2144018E045D04FF4C0327B68934240D2294B3B618F
S2144018F0284B1B687B6104E07B693B617B691B6806
S2144019007B617B695A687B689A4203D27B691B6815
S214401910002BF1D11D4B1B687A699A4227D03B6950
S2144019201B6810221344FB607B691A683B691A6087
S2144019307B695A687B68D31A1022520093420FD9AB
S2144019407A697B681344BB607B695A687B68D21AA5
S214401950BB685A607B697A685A60B8680E4B98478D
S2144019600E4B1A687B695B68D31A0C4A13600C4BA3
S2144019709847FB68002B01D10A4B9847FB681846EE
S2144019801837BD4680BD00BF952540009092012087
S214401990FD19400088920120911A40002001002045
S2144019A0B1254000CD95400080B584B000AF78604A
S2144019B07B68FB607B68002B14D010235B42FA6880
S2144019C01344FB60FB68BB60084B9847BB685A688B
S2144019D0074B1B681344064A1360B868054B984784
S2144019E0054B98471037BD4680BD00BF9525400043
S2144019F020010020911A4000B125400080B582B0F9
S214401A0000AF1D4B1D4A1A601B4B00225A604FF414
S214401A10C0321A4B13447B6010235B427A681344EF
S214401A207B60174A7B681360154B1B6803F00703FF
S214401A30002B04D013484FF49271134B9847104B29
S214401A401B6800225A600E4B1B6800221A600B4B24
S214401A503B604FF4C03310229A1A3B685A60084BDA
S214401A601A683B681A60094B1B6810229B1A074A83
S214401A7013600837BD4680BD88920120881200203A
S214401A8090920120D8D040000597400020010020C9
S214401A9080B485B000AF7860274BFB6002E0FB68FF
S214401AA01B68FB60FB681A687B689A42F7D3FB6842
S214401AB0BB60FB685B68BA681A447B689A4208D188
S214401AC0FB685A687B685B681A44FB685A60FB6828
S214401AD07B607B68BB607B685B68BA681A44FB685F
S214401AE01B689A4218D1FB681A68144B1B689A42C6
S214401AF00DD07B685A68FB681B685B681A447B6835
S214401B005A60FB681B681A687B681A6008E00B4BD3
S214401B101A687B681A6003E0FB681A687B681A607C
S214401B20FA687B689A4202D0FB687A681A60143773
S214401B30BD465DF8047B7047889201209092012054
S214401B4080B582B000AF786039607B68002B04D1E6
S214401B50274840F21B11274B9847274B98477B68EE
S214401B601A687B68DB6B7968096C01FB03F31A44DF
S214401B707B685A607B6800229A637B681A687B6839
S214401B809A607B681A687B68DB6B013B7968096CF6
S214401B9001FB03F31A447B68DA607B684FF0FF3240
S214401BA05A647B684FF0FF329A643B68002B0ED134
S214401BB07B681B69002B14D07B68103318460F4B8C
S214401BC098470346012B0CD10D4B984709E07B689C
S214401BD0103318460B4B98477B6824331846094BFE
S214401BE09847094B9847012318460837BD4680BD9D
S214401BF028D14000059740007D174000DD2A400070
S214401C00651740006D1440009917400080B588B0B5
S214401C1000AFF860B9601346FB710023FB61FB68B8
S214401C20002B2AD050201B4B9847B861BB69002B2D
S214401C3023D0FB68BA6802FB03F301337B61786903
S214401C40144B98470246BB691A60BB691B68002B59
S214401C5010D0BB69FA68DA63BB69BA681A64B869B7
S214401C6001210D4B9847BB69FA7983F84D20BB6933
S214401C70FB6102E0B869094B9847FB69002B04D129
S214401C80074840F27111074B9847FB6918462037C2
S214401C90BD4680BD9D184000411B4000A91940002C
S214401CA028D140000597400080B588B000AFF86066
S214401CB0B9607A603B600023FB61FB68002B04D16F
S214401CC049484FF41271494B9847BB68002B03D1E3
S214401CD0FB681B6C002B01D1012300E00023002B86
S214401CE004D1414840F24921404B9847404B9847E1
S214401CF0FB689A6BFB68DB6B9A4216D2F868B96849
S214401D003A683C4B9847FB685B6A002B09D0FB68F7
S214401D1024331846384B98470346012B01D1374B9E
S214401D209847374B9847012359E07B68002B03D1EF
S214401D30334B9847002352E0FB69002B06D107F14E
S214401D40140318462F4B98470123FB612C4B9847AA
S214401D502D4B9847264B9847FB685B6CB3F1FF3F8B
S214401D6002D1FB6800225A64FB689B6CB3F1FF3FCC
S214401D7002D1FB6800229A64214B984707F114026F
S214401D803B1D10461946214B98470346002B1ED153
S214401D90F8681F4B98470346002B12D0FB6803F1A8
S214401DA010027B68104619461A4B9847F8681A4B3B
S214401DB098471A4B98470346002B0FD10F4B98472E
S214401DC00CE0F868144B9847144B98478EE7F86831
S214401DD0114B9847114B9847002300E086E718467A
S214401DE02037BD4680BD00BF28D140000597400043
S214401DF07D174000C9204000DD2A4000651740009E
S214401E0099174000A12B400095254000E12B40004B
S214401E10B5224000AD294000D9214000B125400000
S214401E2080B586B000AFF860B9607A603B60FB680A
S214401E30002B04D1264840F28F31264B9847BB688A
S214401E40002B03D1FB681B6C002B01D1012300E063
S214401E500023002B04D11E484FF464711D4B984755
S214401E601D4B98473861FB689A6BFB68DB6B9A4260
S214401E7024D2F868B9683A68184B9847FB689B6C58
S214401E80B3F1FF3F12D1FB685B6A002B13D0FB68AF
S214401E9024331846124B98470346002B0BD07B68DA
S214401EA0002B08D07B6801221A6004E0FB689B6C1C
S214401EB05A1CFB689A6401237B6101E000237B6126
S214401EC03869084B98477B6918461837BD4680BD29
S214401ED028D1400005974000C1174000C920400067
S214401EE0DD2A4000D517400080B588B000AFF860C6
S214401EF0B9607A603B600023FB61FB68002B04D12D
S214401F00614840F2CB31614B9847BB68002B03D108
S214401F10FB681B6C002B01D1012300E00023002B43
S214401F2004D159484FF47371584B9847584B9847CB
S214401F30FB689B6B002B3BD0FB68DB68BB61F8689B
S214401F40B968544B98473B68002B1CD1FB689B6B89
S214401F505A1EFB689A63FB681B68002B04D14E4BE5
S214401F6098470246FB685A60FB681B69002B1BD0EB
S214401F70FB6810331846494B98470346012B13D14C
S214401F80474B984710E0FB68BA69DA60FB685B6AC3
S214401F90002B09D0FB6824331846404B984703462D
S214401FA0002B01D03E4B98473E4B9847012366E0B6
S214401FB07B68002B03D13B4B984700235FE0FB69CF
S214401FC0002B06D107F110031846374B98470123DC
S214401FD0FB61344B9847354B98472D4B9847FB68E9
S214401FE05B6CB3F1FF3F02D1FB6800225A64FB688A
S214401FF09B6CB3F1FF3F02D1FB6800229A64294BE9
S214402000984707F110023B1D10461946284B984743
S2144020100346002B2BD1F868264B98470346002BE7
S2144020201FD0FB681B68002B08D1194B9847FB68EC
S2144020305B681846204B98471A4B9847FB6803F155
S21440204024027B68104619461C4B9847F8681C4B80
S21440205098471C4B98470346002B0FD1104B984788
S2144020600CE0F868164B9847164B98475EE7F868BA
S214402070134B9847134B9847002300E056E7184603
S2144020802037BD4680BD00BF28D1400005974000A0
S2144020907D17400089214000652F4000DD2A400022
S2144020A06517400099174000A12B40009525400039
S2144020B0E12B400081224000C12F4000AD29400066
S2144020C0D9214000B125400080B584B000AFF8600B
S2144020D0B9607A60FB681B6C002B0CD1FB681B68F0
S2144020E0002B45D1FB685B681846254B9847FB6834
S2144020F000225A603CE07B68002B1AD1FB689A6845
S214402100FB681B6C1046B9681A461E4B9847FB681E
S2144021109A68FB681B6C1A44FB689A60FB689A686E
S214402120FB685B689A4223D3FB681A68FB689A6030
S2144021301EE0FB68DA68FB681B6C1046B9681A46F6
S214402140104B9847FB68DA68FB681B6C5B421A4486
S214402150FB68DA60FB68DA68FB681B689A4207D25D
S214402160FB685A68FB681B6C5B421A44FB68DA6083
S214402170FB689B6B5A1CFB689A631037BD4680BD54
S214402180A5304000E1A6400080B582B000AF786040
S21440219039607B681B68002B19D07B68DA687B68DF
S2144021A01B6C1A447B68DA607B68DA687B685B681D
S2144021B09A4203D37B681A687B68DA607B68DA6881
S2144021C07B681B6C386811461A46024B984708379E
S2144021D0BD4680BDE1A6400080B582B000AF7860C5
S2144021E0234B984714E07B685B6A002B0FD07B68D4
S2144021F0243318461F4B98470346002B01D01E4BEE
S21440220098477B689B6C5A1E7B689A6400E003E0A4
S2144022107B689B6C002BE6DC7B684FF0FF329A6451
S214402220164B9847124B984714E07B681B69002B67
S2144022300FD07B68103318460E4B98470346002B4A
S21440224001D00D4B98477B685B6C5A1E7B685A647E
S21440225000E003E07B685B6C002BE6DC7B684FF0BD
S214402260FF325A64054B98470837BD4680BD00BFCD
S2144022707D174000DD2A40009D2C40009917400005
S21440228080B584B000AF7860084B98477B689B6BFE
S214402290002B0CBF01230023DBB2FB60044B9847A6
S2144022A0FB6818461037BD4680BD00BF7D1740000E
S2144022B09917400080B584B000AF7860094B9847C6
S2144022C07B689A6B7B68DB6B9A420CBF01230023CA
S2144022D0DBB2FB60044B9847FB6818461037BD4698
S2144022E080BD00BF7D1740009917400080B582B082
S2144022F000AF78603960124B98477B685B6CB3F1EF
S214402300FF3F02D17B6800225A647B689B6CB3F126
S214402310FF3F02D17B6800229A640A4B98477B684D
S2144023209B6B002B05D17B68243318463968064BD7
S21440233098477868054B98470837BD4680BD00BF2C
S2144023407D17400099174000552A4000D92140008B
S21440235090B58BB002AFF860B9603B601346FB8027
S214402360FB68002B04D1564840F2EB11554B98477A
S2144023703B6B0E2B04D952484FF4F671514B98479D
S214402380FB881846B96B504B9847B861BB69002B21
S2144023907FD0BB691A6BFB8803F18043013B9B00EF
S2144023A013447B617B6923F007037B617B6903F001
S2144023B00703002B04D0424840F20E21414B984779
S2144023C0FB880093B869B9683A6BFB6B3F4CA047F3
S2144023D07869F9683A683E4B98470246BB691A6086
S2144023E07B6B002B02D07B6BBA691A60394B9847DF
S2144023F0394B1B680133384A1360384B1B68002B37
S21440240009D1364ABB691360334B1B68012B0FD189
S214402410334B98470CE0334B1B68002B08D12F4BAF
S2144024201B68DA6A3B6B9A4202D82C4ABB69136037
S214402430BB69DA6A2C4B1B689A4203D9BB69DB6AD4
S214402440294A1360294B1A68BB691A64274B1B68D4
S2144024500133264A1360BB69DB6A1A46012303FA36
S21440246002F2234B1B681343214A1360BB69DA6AA6
S21440247013469B0013449B001E4A1A44BB69043310
S214402480104619461C4B98470123FB611B4B984747
S21440249002E04FF0FF33FB61FB69012B0BD1114B80
S2144024A01B68002B07D00D4B1B68DA6A3B6B9A42C1
S2144024B001D2134B9847FB6918462437BD4690BD5A
S2144024C068D1400005974000D12E4000DD2C4000EA
S2144024D07D1640007D1740003494012094920120E0
S2144024E0552D4000449401203C94012058940120EE
S2144024F04094012098920120C5144000991740004E
S2144025006517400090B587B004AF002300930023C2
S2144025100193002302930023039313481349822216
S2144025200023134CA04778607B68012B02D1114BE7
S214402530984778607B68012B0BD10F4B98470F4B21
S21440254001221A600E4B00221A600E4B98470E4B23
S21440255098477B68002B04D10C4840F213510C4B33
S21440256098470C37BD4690BDB52C4000A8D14000DA
S214402570512340005D314000C11740004494012083
S21440258038940120490240000D17400068D14000B1
S2144025900597400080B400AF044B1B680133034AE4
S2144025A01360BD465DF8047B704700BF4894012029
S2144025B090B583B000AF00237B60384B1B68002B80
S2144025C004D1374840F24D51364B9847364B9847E2
S2144025D0324B1B68013B314A1360304B1B68002B63
S2144025E054D1324B1B68002B50D000233B6029E06F
S2144025F02F4BDB68DC6804F1180318462D4B9847D0
S214402600231D18462B4B9847E36A1A46012303FAC4
S21440261002F2294B1B681343274A1360E26A1346AB
S2144026209B0013449B00254A1A44231D1046194616
S214402630234B9847E26A234B1B68DB6A9A4201D3D6
S21440264001233B601A4B1B68002BD1D11E4B1B68E5
S214402650002B0DD006E01D4B98471B4B1B68013BDB
S214402660194A1360184B1B68002BF4D101233B60BA
S2144026703B68012B03D0164B1B68012B06D1012368
S2144026807B60134B00221A60124B9847124B9847B8
S2144026907B6818460C37BD4690BD00BF4894012065
S2144026A068D14000059740007D17400034940120D3
S2144026B0F493012085154000409401209892012013
S2144026C0C5144000949201204C94012039274000C4
S2144026D050940120651740009917400080B582B09D
S2144026E000AF064B9847064B1B687B60054B9847E8
S2144026F07B6818460837BD4680BD00BF7D17400042
S214402700389401209917400080B582B000AF074B3F
S21440271098477860064B1B683B607868054B98473F
S2144027203B6818460837BD4680BD00BFC11740000D
S21440273038940120D517400080B584B000AF454B93
S2144027401B68002B7ED1444B1B680133424A136002
S214402750414B1B68002B2BD1404B1B681B68002B42
S21440276004D03F4840F28C613E4B98473B4B1B6839
S214402770FB603D4B1B68394A13603B4AFB6813605D
S2144027803A4B1B680133394A1360344B1B681B684D
S214402790002B04D1364B4FF0FF321A6008E02F4B27
S2144027A01B68DB68DB68BB60BB685B68304A1360ED
S2144027B0294B1A682E4B1B689A4242D3274B1B68FC
S2144027C01B68002B04D12A4B4FF0FF321A6038E0CA
S2144027D0224B1B68DB68DB68BB60BB685B687B6062
S2144027E01D4B1A687B689A4203D2214A7B68136065
S2144027F027E0BB68043318461E4B9847BB689B6A65
S214402800002B04D0BB68183318461A4B9847BB6851
S214402810DB6A1A46012303FA02F2174B1B6813437E
S214402820154A1360BB68DA6A13469B0013449B0044
S214402830124A1A44BB68043310461946104B984750
S214402840BCE704E00F4B1B6801330E4A1360103799
S214402850BD4680BD4894012038940120EC93012069
S21440286068D1400005974000F09301205494012021
S21440287024010020851540004094012098920120B4
S214402880C51440004C94012080B586B000AF3B4B49
S2144028901B68002B03D03A4B01221A606AE0394B82
S2144028A098477861384B1B68D96C384A1268786903
S2144028B0821A0A44DA64354A7B691360324B1B68D5
S2144028C01A68314B1B681B6B9A4208D82E4B1A6805
S2144028D02D4B1B683433104619462D4B98472A4BD0
S2144028E01B681B6B18462B4914222B4B98470346F4
S2144028F0002B08D0244B1A68234B1B6834331046F1
S2144029001946234B9847254B1B68BB60BB68B3FAF8
S21440291083F3FB71FB79C3F11F033B6120493A699E
S21440292013469B0013449B000B441B68002B04D1AA
S2144029301C4840F23E711C4B98473A6913469B0030
S21440294013449B00164A1344FB60FB685B685A6856
S214402950FB685A60FB685A68FB6808339A4204D1A1
S214402960FB685B685A68FB685A60FB685B68DB68B4
S214402970054A13601837BD4680BD00BF4894012005
S214402980509401206D024000949201205C940120F6
S214402990B1954000F8D140007DA64000409401200B
S2144029A09892012068D140000597400080B584B0D9
S2144029B000AF786039607B68002B04D11B4840F23A
S2144029C049711B4B98471B4B1B6818337868194650
S2144029D0194B9847174B1B6804331846174B9847B4
S2144029E00346002B0BD1134B1B68DB6A1A460123A8
S2144029F09340DA43124B1B681340114A13603B68FE
S214402A00B3F1FF3F07D10B4B1B6804330D48194603
S214402A100D4B984707E00D4B1A683B681344FB6024
S214402A20F8680B4B98471037BD4680BD68D14000CC
S214402A3005974000949201201515400085154000EA
S214402A404094012020940120C51440003894012071
S214402A50612E400080B584B000AF786039607B68F6
S214402A60002B04D1154840F27F71154B9847154B03
S214402A701B68183378681946134B9847114B1B68E8
S214402A8004331846114B98470346002B0BD10D4B89
S214402A901B68DB6A1A4601239340DA430C4B1B68DB
S214402AA013400B4A13600B4B1A683B681344FB6099
S214402AB0F868094B98471037BD4680BD68D140003E
S214402AC00597400094920120C514400085154000AB
S214402AD04094012038940120612E400080B584B097
S214402AE000AF78607B68DB68DB68BB60BB68002B48
S214402AF004D1224840F2B571214B9847BB68183341
S214402B001846204B9847204B1B68002B1ED1BB68AD
S214402B10043318461B4B9847BB68DB6A1A460123AA
S214402B2003FA02F2194B1B681343184A1360BB683A
S214402B30DA6A13469B0013449B00154A1A44BB6846
S214402B40043310461946134B984705E0BB681833C4
S214402B50114819460F4B9847BB68DA6A0F4B1B68FB
S214402B60DB6A9A4202D30123FB6001E00023FB604C
S214402B70FB6818461037BD4680BD00BF68D1400090
S214402B800597400085154000489401204094012058
S214402B9098920120C5144000F4930120949201209D
S214402BA080B582B000AF78607B68002B04D10848BF
S214402BB040F2D771074B9847074B1A687B681A60F4
S214402BC0064B1A687B685A600837BD4680BD00BF12
S214402BD068D1400005974000549401203894012065
S214402BE080B584B000AF786039607B68002B04D134
S214402BF0234840F2E171234B98473B68002B04D1B1
S214402C001F4840F2E2711F4B98471F4B98473B685E
S214402C101B68B3F1FF3F02D10023FB6029E07B68CD
S214402C201A681A4B1B689A4208D07B685A68184B39
S214402C301B689A4202D80123FB601AE0144B1A68BC
S214402C407B685B68D21A3B681B689A420FD2104B6F
S214402C501A687B685B68D31A3A681268D21A3B686F
S214402C601A6078680B4B98470023FB6001E001230D
S214402C70FB60094B9847FB6818461037BD4680BD39
S214402C8068D14000059740007D17400054940120CD
S214402C9038940120A12B40009917400080B400AF23
S214402CA0034B01221A60BD465DF8047B704700BFA7
S214402CB05094012080B582B000AF7860044B9847AE
S214402CC0044B1B68012B01D9034B9847F6E700BF1E
S214402CD0D52D4000989201206517400080B584B0FD
S214402CE000AFF860B9607A603B60FB6834331846E2
S214402CF0B9680A22154B9847FB68002283F83D20A6
S214402D007B680E2B01D90E237B60FB687A68DA62FB
S214402D10FB687A689A64FB68043318460C4B9847FD
S214402D20FB68183318460A4B9847FB68FA681A61DE
S214402D307B68C3F10F02FB689A61FB68FA685A62C7
S214402D40FB680022DA641037BD4680BDADAA40005D
S214402D50AD14400080B582B000AF00237B600CE02D
S214402D607A6813469B0013449B00114A1344184646
S214402D70104B98477B6801337B607B680E2BEFD9FE
S214402D800D480C4B98470D480A4B98470C48094B42
S214402D9098470C48074B98470B48064B98470B4BB1
S214402DA0054A1A600A4B054A1A600837BD4680BD78
S214402DB0989201206D144000C4930120D8930120BE
S214402DC0F49301200894012020940120EC930120E4
S214402DD0F093012080B582B000AF28E0174B9847AB
S214402DE0174B1B68002B0CBF01230023DBB27B6014
S214402DF0144B98477B68002B19D1134B9847104BC0
S214402E00DB68DB683B603B68043318460F4B9847EB
S214402E100F4B1B68013B0E4A13600E4B1B68013B71
S214402E200C4A13600C4B984738680C4B9847094B34
S214402E301B68002BD2D10837BD4680BD9525400083
S214402E4008940120B12540007D17400085154000BC
S214402E50349401201C94012099174000412F4000D3
S214402E6080B582B000AF7860134B1B687A685A60B2
S214402E70124B1B687A689A4209D2114B1A680E4B5D
S214402E801B680433104619460E4B984710E00E4B0D
S214402E901A68094B1B68043310461946094B984775
S214402EA00A4B1B687A689A4202D2084A7B681360CB
S214402EB00837BD4680BD00BF94920120389401205B
S214402EC0F093012015154000EC93012024010020CA
S214402ED080B584B000AF03463960FB805020154B68
S214402EE09847F860FB68002B1FD03B68002B06D144
S214402EF0FB889B0018460F4B9847034600E03B680C
S214402F00FA681363FB681B6B002B05D1F8680A4B05
S214402F1098470023FB6008E0FB681A6BFB889B0021
S214402F201046A5211A46054B9847FB6818461037A9
S214402F30BD4680BD9D184000A919400015A8400018
S214402F4080B582B000AF78607B681B6B1846044B38
S214402F5098477868024B98470837BD4680BD00BF03
S214402F60A919400080B483B000AF054B1B687B6056
S214402F707B6818460C37BD465DF8047B704700BF3B
S214402F809492012080B483B000AF0B4B1B68002B9B
S214402F9002D100237B6008E0084B1B68002B02D15F
S214402FA001237B6001E002237B607B6818460C3778
S214402FB0BD465DF8047B7047449401204894012048
S214402FC080B584B000AF78607B68FB607B68002B80
S214402FD05BD0FB68DA6A2E4B1B68DB6A9A4254D297
S214402FE02B4B1B68DB6AC3F10F02FB689A61FB68D8
S214402FF05969FB68DA6A13469B0013449B00254ACE
S214403000134499423CD1FB6804331846224B9847F8
S2144030100346002B15D1FB68DA6A1E4913469B000F
S21440302013449B000B441B68002B0AD1FB68DB6AE9
S2144030301A4601239340DA43184B1B681340174A3D
S2144030401360134B1B68DA6AFB68DA62FB68DB6A5C
S2144030501A46012303FA02F2104B1B6813430F4A29
S2144030601360FB68DA6A13469B0013449B00094AC8
S2144030701A44FB68043310461946094B984704E047
S214403080034B1B68DA6AFB68DA621037BD4680BDC0
S214403090949201209892012085154000409401208A
S2144030A0C514400080B584B000AF78607B68FB6094
S2144030B07B68002B46D0FB68DA6AFB689B6C9A42BA
S2144030C040D0FB6804331846204B98470346002BF5
S2144030D015D1FB68DA6A1E4913469B0013449B00D1
S2144030E00B441B68002B0AD1FB68DB6A1A46012397
S2144030F09340DA43174B1B681340164A1360FB682D
S2144031009A6CFB68DA62FB68DB6AC3F10F02FB6805
S2144031109A61FB68DB6A1A46012303FA02F20D4BFA
S2144031201B6813430B4A1360FB68DA6A13469B001E
S21440313013449B00064A1A44FB680433104619465B
S214403140054B98471037BD4680BD00BF85154000EB
S2144031509892012040940120C514400090B587B055
S21440316004AF00237B60114B9847114B1B68002B24
S2144031700FD00E23009300230193002302930023D5
S21440318003930C480C494FF4437200230B4CA04762
S21440319078607B68002B03D10948D721094B9847B4
S2144031A07B6818460C37BD4690BD00BF21374000AF
S2144031B090940120693340000CD2400051234000D7
S2144031C014D240000597400080B586B000AFF86046
S2144031D0B9607A603B60BB68002B09D100237B61F5
S2144031E0BB68002B21D11348E421134B98471CE0C1
S2144031F02820124B984778617B69002B15D0104BDE
S21440320098477B69FA681A607B69BA689A617B69F5
S2144032107A68DA617B693A681A627B693A6A5A6206
S2144032207B6904331846074B98477B69184618371E
S214403230BD4680BD14D24000059740009D18400012
S21440324021374000AD14400090B589B000AFF8601B
S214403250B9607A603B600023FB611D4B1B68002B06
S21440326030D0BB683B617B687B61FB68BB613B6879
S214403270002B1CD1174B98470346012B0BD1144B00
S2144032801A6807F11003104619463A6B0023124C91
S214403290A047F86116E00E4B1A6807F11003104677
S2144032A01946002200230C4CA047F8610AE0084B60
S2144032B01A6807F11003104619463A680023074C6F
S2144032C0A047F861FB6918462437BD4690BD00BF4D
S2144032D090940120852F4000A91C4000211E4000EC
S2144032E090B587B002AF78603960194B1B68DB68D1
S2144032F0DB68FB60FB6804331846164B9847FB6850
S214403300DB69012B1DD1FB689A697B681344F8681A
S21440331019463A687B68104CA0470346012B10D1EB
S21440332000230093F86800217A6800230B4CA047DE
S214403330B860BB68002B04D1094840F24F11094BD6
S2144033409847FB685B6AF86898471437BD4690BD57
S2144033508894012085154000B13440004932400031
S21440336014D240000597400080B584B000AF786026
S21440337007F108031846054B9847F860BB68F8689D
S2144033801946034B9847034B9847F1E71D344000D6
S214403390993340003935400080B584B000AF78603E
S2144033A03960174B984707F108031846154B98475E
S2144033B0F860BB68002B1ED13B68002B0AD17A68A8
S2144033C0FB689A4206D8104B98477868F9680F4BC6
S2144033D0984712E00E4B19687A68FB68D31A08467D
S2144033E019460C4B9847084B98470346002B04D188
S2144033F0094B984701E0044B98471037BD4680BDBF
S2144034009525400065344000B1254000E13240003B
S21440341090940120ED2240006517400080B485B0AE
S21440342000AF78600E4B1B681B68002B0CBF012357
S2144034300023DBB21A467B681A607B681B68002B49
S21440344005D1074B1B68DB681B68FB6001E0002367
S214403450FB60FB6818461437BD465DF8047B704732
S2144034608894012080B584B000AF78600D4B9847B3
S214403470F8600D4B1B68FA689A4208D20A4B1B68E4
S21440348018460A4B98477B6801221A6002E07B6820
S21440349000221A60044AFB681360FB68184610371F
S2144034A0BD4680BDDD264000949401205536400040
S2144034B080B586B000AFF860B9607A603B600023A4
S2144034C07B61FB68BA685A60FB68FA681A61BA683A
S2144034D07B689A4212D87A683B68D21AFB689B6926
S2144034E09A4202D301237B611BE0104B1A68FB68AB
S2144034F00433104619460E4B984712E07A683B68EC
S2144035009A4206D2BA683B689A4202D301237B614C
S21440351007E0084B1A68FB68043310461946044B0C
S21440352098477B6918461837BD4680BD8C94012065
S214403530151540008894012090B58BB002AF3B1D16
S21440354018463B4B9847F86162E03B69BB61BB69F4
S214403550002B08D0BB695B69002B04D0BB690433E1
S2144035601846344B9847BB68032B50D801A252F8F4
S21440357023F000BF8535400011364000D935400065
S21440358007364000FA68BB699B691A44FB68B8690D
S2144035901146FA69284CA0470346012B1BD1BB694C
S2144035A05B6AB8699847BB69DB69012B13D1FA6837
S2144035B0BB699B691A4400230093B8690021002325
S2144035C01E4CA04778617B69002B04D11C4840F212
S2144035D026211C4B98471BE0FA68BB699A61BB6979
S2144035E09B69002B04D1164840F23321154B98476F
S2144035F0BB699A69FB691344B8691946FA69FB695D
S2144036000D4CA04704E0B8690F4B984700E000BF58
S2144036100E4B1A6807F1080310461946002200238D
S2144036200B4CA0470346002B8FD12437BD4690BD98
S2144036306534400085154000B134400049324000B2
S21440364014D2400005974000A919400090940120EC
S214403650E91E400090B58BB002AF78603FE0294B42
S2144036601B68DB681B68FB61264B1B68DB68DB68F6
S214403670BB61BB6904331846234B9847BB695B6AFA
S214403680B8699847BB69DB69012B28D1BB699A6941
S214403690FB6913447B617A69FB699A420ED9BB6920
S2144036A07A695A60BB69BA691A61164B1A68BB696F
S2144036B0043310461946154B984710E000230093F4
S2144036C0B8690021FA690023114CA04738613B696C
S2144036D0002B04D10F4840F272210F4B9847094BFC
S2144036E01B681B68002BBAD1064B1B68FB600B4B54
S2144036F01B68044A1360094AFB6813602437BD46BA
S21440370090BD00BF889401208515400015154000E7
S2144037104932400014D24000059740008C94012066
S21440372080B500AF0E4B98470E4B1B68002B13D14D
S2144037300D480E4B98470E480C4B98470D4B0A4A7F
S2144037401A600D4B0A4A1A6005200C2100220B4BCA
S21440375098470246034B1A60094B984780BD00BF06
S2144037607D17400090940120609401206D14400025
S21440377074940120889401208C9401200D1C4000F4
S2144037809917400080B584B000AF0346FB71002314
S214403790FB730020274B9847034683F00103DBB2B8
S2144037A0002B01D0002340E0234B8E221A70224B80
S2144037B000225A70204AFB799370FB79FF2B03D185
S2144037C01E4B00221A7005E0FB79002B02D11B4BE2
S2144037D001221A700023BB730023BB7313E0BB7B2C
S2144037E0154AD35C16481946164B9847BB7B124A77
S2144037F0D35CFA7B10461946134B98470346FB7337
S214403800BB7B0133BB73BB7B022BE8D9BB7B0A492E
S214403810FA7BCA54FB7B0D4819460A4B9847002052
S214403820054904220A4B9847012318461037BD46DF
S21440383080BD00BF5D50400094C301209C94012091
S21440384054D2400011A14000258F40005CD2400079
S2144038507151400080B584B000AF0346FB80002322
S214403860FB730020294B9847034683F00103DBB2E5
S214403870002B01D0002345E0254B8E221A70244BA6
S21440388000225A70224B01229A70FB881B029AB281
S214403890FB881B0A9BB213449AB21D4BA3F8032025
S2144038A01B4B002242F010025A7100229A710023EC
S2144038B0BB730023BB7313E0BB7B154AD35C154830
S2144038C01946154B9847BB7B114AD35CFA7B10468A
S2144038D01946124B98470346FB73BB7B0133BB73B9
S2144038E0BB7B062BE8D9BB7B0949FA7BCA54FB7BDA
S2144038F00B481946084B9847002005490822094BB3
S2144039009847012318461037BD4680BD5D5040009D
S21440391094C3012054D2400011A14000258F40009E
S2144039205CD240007151400090B583B000AF002398
S2144039307B600020084B98470346002B08D0074B77
S2144039401A683B1D104600211A460023044CA04727
S2144039500C37BD4690BD00BF5D4E40009894012098
S214403960211E400090B583B000AF0A4B7B607B6859
S214403970094A1A607B68094A12885A60084B1A68D6
S2144039803B1D1046194600220023064CA0470C3724
S214403990BD4690BDA0940120929F0120909F01209B
S2144039A0240A0020A91C400090B585B000AF78607E
S2144039B00023BB605A4B98475A4B9847012000213A
S2144039C00322594B98470246584B1A60574B1B6880
S2144039D0002B07D0554B1B681846002100220023B9
S2144039E0534CA047514B1B68002B02D15148524BB9
S2144039F098474E4B1B68184600214FF0FF32002375
S214403A004E4CA0474E4800214FF4A0524D4B98478D
S214403A100023BB604C4B984700204C4B9847B860FF
S214403A2000204749BA684A4B98474A4B98474A4805
S214403A30B968414B9847494B1B78012B52D8002315
S214403A40FB8109E0FB893E4AD35C454819463A4B20
S214403A509847FB890133FB81FA89BB689A42F1D3C8
S214403A604048354B9847364B1B788E2B56D1344BB7
S214403A705B78012B19D1324B9B78002B4ED1374BBC
S214403A801B78002B06D138482B4B98470020374BE5
S214403A90984743E0314B1B78012B3FD13448264BA7
S214403AA098470020334B984738E0254B5B78022BED
S214403AB034D1BB68062B31D1214B1B791B029AB2FD
S214403AC01F4B5B799BB213439BB29AB22A4B1A8028
S214403AD0294B1B8829481946174B98471F4B0222EB
S214403AE01A7086E7244B1B881A46BB689A4203D94D
S214403AF02348114B984711E02248002141F2010229
S214403B00104B98471C4B1B881E480D491A461E4BA7
S214403B1098471E48084B98471D4B984769E700BF93
S214403B206D3C4000C55B40000D1C40009894012051
S214403B30A91C400064D2400011A14000E91E40008C
S214403B4094AF012015A840007D174000894E4000E4
S214403B50894F4000991740009CD240009C94012019
S214403B6054D24000B4D24000B8D24000853740001E
S214403B70CCD2400055384000909F0120E8D240000B
S214403B8008D34000929F0120E1A6400028D3400081
S214403B906539400080B48BB000AF78600B46FB7050
S214403BA07B687B62FB7887F823307B6AFB61FB6926
S214403BB0BB61BB695B097B617B6903F5001303F25C
S214403BC007735B023B6197F82330002B09D07B6A72
S214403BD0FB60FB6803F01F0301229A403B691A63AF
S214403BE008E07B6ABB60BB6803F01F0301229A4073
S214403BF03B695A632C37BD465DF8047B704700BF6F
S214403C0080B48BB000AF78607B687B627B6A3B6237
S214403C103B6AFB61FB695B09BB61BB6903F500134B
S214403C2003F207735B027B617B6A3B613B6903F08F
S214403C301F03012202FA03F3FB607B69DA6B7B6A9F
S214403C40BB60BB6803F01F03012101FA03F3134076
S214403C50002B03D07B69FA685A6302E07B69FA68F6
S214403C601A632C37BD465DF8047B704780B400AFBE
S214403C70BD465DF8047B704780B582B000AF786083
S214403C800B46FB70FB7883F00103DBB2002B06D0BB
S214403C901E200121034B9847034B07221A70083712
S214403CA0BD4680BD953B40002801002080B584B0CD
S214403CB000AF78600B46FB701E4AFB7813707B683B
S214403CC0DB7C012B08D0022B0ED11B4B32221A80F4
S214403CD01A481B4B98470FE0174B4FF47A721A80DE
S214403CE01848174B984707E0134B4FF4FA621A8070
S214403CF01548134B984700BF0E4B1B78002B15D129
S214403D00124A07F1080310681860918892799980E2
S214403D109A710F4B984707F1080318460D4B984782
S214403D2007F10803002019460B4B98471037BD464D
S214403D3080BD00BF28010020AC94012040D3400045
S214403D4011A140005CD3400078D3400094D340009B
S214403D50A59A400095994000094E400080B400AFB7
S214403D60BD465DF8047B704780B500AF0E4B1B78B0
S214403D70002B18D10D4B1B8801339AB20B4B1A807F
S214403D800A4B1A880A4B1B889A420CD9074B0022CA
S214403D901A80084B1B7883F00103DBB2002B02D05D
S214403DA01E20054B984780BD28010020B094012076
S214403DB0AC940120AE940120013C400080B500AF99
S214403DC0054B01221A700548054B98471E200121D5
S214403DD0044B984780BD00BFAE9401209CD3400062
S214403DE011A14000953B400080B400AF034B002239
S214403DF01A70BD465DF8047B704700BFAE94012044
S214403E0080B500AF054B01221A700548054B984710
S214403E101E200121044B984780BD00BFAE94012070
S214403E20B0D3400011A14000953B400080B400AFA5
S214403E30034B00221A70BD465DF8047B704700BFF6
S214403E40AE94012080B400AFBD465DF8047B704759
S214403E5080B400AFBD465DF8047B704780B582B045
S214403E6000AF78607B68072B30D801A252F823F069
S214403E70CD3E4000913E4000993E4000A13E40006D
S214403E80A93E4000B13E4000B93E4000C33E40001F
S214403E900020104B984719E001200E4B984715E03C
S214403EA000200D4B984711E010200B4B98470DE033
S214403EB02020094B984709E000203E21074B9847B1
S214403EC004E001203E21054B984700BF0837BD4619
S214403ED080BD00BF69664000D5664000456740002B
S214403EE080B582B000AF78607B68072B26D801A2E9
S214403EF052F823F0153F4000193F4000193F40005C
S214403F002B3F40002B3F40002B3F40002B3F4000C4
S214403F102B3F4000012312E00B4B98470346002BF3
S214403F2014BF01230023DBB209E0084B9847034641
S214403F30002B14BF01230023DBB200E00023184609
S214403F400837BD4680BD00BFA1664000BD67400043
S214403F5080B483B000AF78607B68072B25D801A279
S214403F6052F823F0853F40008B3F4000913F400091
S214403F70973F40009B3F40009F3F4000A33F40008C
S214403F80A73F40004FF4FA4310E04FF400430DE0E3
S214403F904FF400430AE0084B08E0084B06E0084BA5
S214403FA004E0002302E0002300E0002318460C371C
S214403FB0BD465DF8047B704700127A000024F4008A
S214403FC000366E0180B582B000AF0346FB7100BF7D
S214403FD0FB791846054B9847034683F00103DBB24E
S214403FE0002BF5D10837BD4680BD00BFE13E4000FE
S214403FF080B586B000AFF8607A603B600B46FB72D7
S214404000FB7A18460D4B984702467B68B2FBF3F3A3
S2144040107B617B693A6802FB03F37B613B68013B4B
S2144040201A04074B13407A68D2B2134343F47C52C7
S214404030FB681A601837BD4680BD00BF513F400040
S2144040400000FF1F80B582B000AF786039603B68E3
S214404050002B06D1074B9847074A7B681B6893623C
S21440406005E0064B9847044A7B681B68D3620837CE
S214404070BD4680BDD967400000040E400D68400034
S21440408080B582B000AF78607B68002B03D1084BC8
S2144040909847034607E07B68012B03D1054B9847BA
S2144040A0034600E0002318460837BD4680BD00BFE3
S2144040B0F16740002568400080B582B000AF0346F7
S2144040C0FB71FB790033012B08D8FB791846054B6A
S2144040D09847FB791846044B984700E000BF0837DE
S2144040E0BD4680BD5D3E4000C53F400080B582B0C5
S2144040F000AF786000BF7868044B98470346002BB3
S214404100F9D0002318460837BD4680BD81404000A0
S21440411080B500AF0120044B9847024640F6723304
S21440412003FB02F3184680BD513F400080B500AF08
S214404130024B98470346184680BD00BF11414000D9
S21440414090B583B000AF01200D4B98473B461846CC
S2144041500121012240F2B9530A4CA0473B4618467B
S2144041600121094B98470120084B98470020084BEF
S2144041709847084B984700BF0C37BD4690BD00BFD8
S214404180B9404000F13F400045404000ED4040000F
S214404190656940008D69400090B5A7B002AF2148E0
S2144041A0214B98470120214B984707F108031846B2
S2144041B00121012240F672331D4CA04707F1080347
S2144041C0184600211B4B984700201B4B9847002061
S2144041D01A4B98471A4B98471A4B98470346184627
S2144041E0114B9847184B1B68184A934217D8164BE2
S2144041F01B68174A934212D907F10C0420230093F8
S21440420014480E210F222346134CA047FB6C9BB24A
S214404210C7F88C301148D7F88C10114B9847943714
S214404220BD4690BD000E2707CD8D4000B9404000EA
S214404230F13F400045404000ED404000E56540000D
S214404240A58C40002D41400040010020C0EF0B08E7
S2144042503F2C4206000A0E401D00002010140E405F
S214404260A569400080B483B000AFEFF310833B6095
S2144042703B68002B0CBF01230023DBB27B6072B689
S214404280BFF35F8F044B00221A707B6818460C37CA
S214404290BD465DF8047B70473C01002080B483B087
S2144042A000AF78607B68002B14BF01230023DBB28D
S2144042B018460C37BD465DF8047B704780B582B023
S2144042C000AF78607868074B98470346002B05D0C8
S2144042D0054B01221A70BFF35F8F62B60837BD46A2
S2144042E080BD00BF9D4240003C01002080B588B0A4
S2144042F000AF786000233B61A14B1B68002B01D0C8
S2144043000523F4E17B685B699A78DB781B021343EC
S214404310BB837B685B697B61994B00221A7321E003
S2144043207B695B78042B11D17B695B79022B0DD1BD
S2144043307B699B79022B09D17B69DB79012B05D8F8
S2144043408F4B1B7B0133DAB28D4B1A737B691B781C
S2144043509BB2BA8BD31ABB837B691B781A467B69A0
S21440436013447B61BB8B002BDAD1854B1B7B002B28
S21440437001D10123BBE1824B1B7B1A4613461B012E
S2144043809B1A9B0018467F4B984703461A467C4B21
S2144043909A607B4B9B68002B01D10523A7E1002345
S2144043A0BB7653E0764B9968BA7E13461B019B1A40
S2144043B09B000B4400225A72714B9968BA7E134692
S2144043C01B019B1A9B000B44FF221A726C4B996888
S2144043D0BA7E13461B019B1A9B000B4400221A739D
S2144043E0674B9968BA7E13461B019B1A9B000B4489
S2144043F000229A61624B9968BA7E13461B019B1A4B
S2144044009B000B4400221A625D4B9968BA7E1346A5
S2144044101B019B1A9B000B44002283F82420584B18
S2144044209968BA7E13461B019B1A9B000B440022D8
S2144044301A63534B9968BA7E13461B019B1A9B001E
S2144044400B4400229A63BB7E0133BB764C4B1B7BEE
S214404450BA7E9A42A6D37B685B699A78DB781B0261
S2144044601343BB837B685B697B610023FB77002338
S214404470BB770023FB76FEE07B695B78052B6BD031
S214404480242B58D0042B40F0EA807B695B79022BC2
S2144044901AD17B699B79022B16D17B69DB79012B7C
S2144044A012D80123FB77364B9A68FB7E591CF97667
S2144044B019460B461B015B1A9B0013443B617B6904
S2144044C09A783B69DA7101E00023FB777B695B7978
S2144044D00A2B2DD17B699B79002B29D17B69DB790F
S2144044E0002B25D10023BB761BE0254B9968BA7E6E
S2144044F013461B019B1A9B000B443B613B691B7A8E
S214404500FF2B02D10123BB7710E03B691A7A7B6907
S2144045109B789A4202D10123BB7707E0BB7E0133EA
S214404520BB76174B1B7BBA7E9A42DED300BF96E023
S2144045300023BB7793E0FB7F83F00103DBB2002BC5
S21440454000D08CE07B699B78012B04D17B691A797B
S2144045503B691A7283E082E0FB7F002B1CD07B68AD
S2144045609B7C18467969084B9847034683F00103BD
S214404570DBB2002B0CD0054B98470423B7E000BFB6
S214404580B494012039A1400051834000D1474000F7
S2144045907B699A783B695A72BB7F002B5ED07B68FA
S2144045A09B7C18467969544B9847034683F0010331
S2144045B0DBB2002B03D0514B9847042397E07B692E
S2144045C09B78DBB25BB2002B03DA3B690C33FB60B3
S2144045D002E03B692433FB607B699A78FB681A707B
S2144045E0FB6800225A70FB6800221A717B699B8820
S2144045F09BB2B3F5A05F38BF4FF4A0537B81FB68F6
S2144046007A89DA80FB6800221A81FB6800225A8188
S2144046107B8918463A4B984703461A46FB68DA6049
S214404620FB68DB68002B03D1344B984705235EE0DC
S214404630FB6800221A82FB6800225A827B89184651
S2144046402F4B984703461A46FB685A61FB685B69DE
S214404650002B03D1294B9847052348E000BF7B69D0
S2144046601B789BB2BA8BD31ABB837B691B781A46DE
S2144046707B6913447B61BB8B002B7FF4FDAE00232C
S214404680BB7628E01F4B9968BA7E13461B019B1ADF
S2144046909B000B445B7A002B16D01A4B9968BA7E67
S2144046A013461B019B1A9B000B441B7B002B0BD015
S2144046B0144B9968BA7E13461B019B1A9B000B4409
S2144046C093F82430002B03D10C4B984701230EE07F
S2144046D0BB7E0133BB760B4B1B7BBA7E9A42D1D353
S2144046E0084B00221A71074A7B681360002318465D
S2144046F02037BD4680BD00BF51834000D1474000B3
S21440470039A14000B494012080B582B000AF7860F3
S214404710074B1A687B689A4200D005E0044B01229A
S2144047201A710020034B98470837BD4680BD00BF2E
S214404730B49401206547400080B582B000AF7860F1
S214404740064B1A687B689A4200D004E0034B00226E
S2144047501A60034B98470837BD4680BDB494012085
S214404760D147400080B584B000AF0346FB710023BC
S214404770FB73134B1B68002B00D11DE0104B1B79BD
S21440478083F00103DBB2002B00D015E0FB7B5A1C04
S214404790FA7318460B4B9847B860BB68002B00D19D
S2144047A00AE0BB680C331846074B9847BB6824336F
S2144047B01846064B9847E9E71037BD4680BD00BF10
S2144047C0B4940120C9484000154A4000314C40008E
S2144047D080B582B000AF3A4B9B68002B00D16BE0AF
S2144047E00023FB715EE0364B9968FA7913461B014D
S2144047F09B1A9B000B449B69002B0BD0304B99684F
S214404800FA7913461B019B1A9B000B449B6918467A
S2144048102C4B98472A4B9968FA7913461B019B1AEA
S2144048209B000B441B6A002B0BD0254B9968FA79EA
S21440483013461B019B1A9B000B441B6A1846214BD0
S21440484098471F4B9968FA7913461B019B1A9B00A1
S2144048500B441B6B002B0BD0194B9968FA79134607
S2144048601B019B1A9B000B441B6B1846154B984725
S214404870134B9968FA7913461B019B1A9B000B440D
S2144048809B6B002B0BD00E4B9968FA7913461B0195
S2144048909B1A9B000B449B6B18460A4B9847FB7928
S2144048A00133FB71064B1B7BFA799A429BD3044B30
S2144048B09B681846034B98470837BD4680BD00BFE7
S2144048C0B494012049A1400080B483B000AF0346B1
S2144048D0FB710D4B1B68002B01D100230EE00A4BE9
S2144048E01B7BFA799A4201D3002307E0064B99686E
S2144048F0FA7913461B019B1A9B000B4418460C374B
S214404900BD465DF8047B7047B494012090B589B0ED
S21440491002AF03463960FB71FB791846194B98473E
S21440492078617B69002B01D1002327E07B6918461C
S21440493039680722144B984721233B7320237B7307
S2144049400023FB817B69DB799BB23B8207237B821A
S2144049500E4B1B68987C7A6907F10C010023009384
S2144049600023019307230A4CA047034683F0010324
S214404970DBB2002B01D0002300E0012318461C3791
S214404980BD4690BDC9484000E1A64000B494012011
S2144049906984400090B589B002AF03460A46FB7171
S2144049A01346BB80FB791846174B984778617B695E
S2144049B0002B01D1002323E021233B7322237B736A
S2144049C0BB88FB817B69DB799BB23B8200237B8281
S2144049D00E4B1B68997C07F10C02002300930023C2
S2144049E001930846114600220023094CA04703467F
S2144049F083F00103DBB2002B01D0002300E001234B
S214404A0018461C37BD4690BDC9484000B4940120A6
S214404A106984400090B58BB004AF7860444B9847AB
S214404A2038617B685B78002B04D03869414B9847E7
S214404A30002378E07B681B79DBB20133DB007A68C1
S214404A401344FB607B681B79DBB2002B0CBF012351
S214404A500023DBB20133DB007A6813447B61FB68DA
S214404A601A88FB685B889A4205D3FB6800221A8046
S214404A70FB6800225A80FB685B88002B12D17B695A
S214404A805B88002B0ED07B681B79DBB2002B0CBFFB
S214404A9001230023DBB21A467B681A71FB687B61F0
S214404AA0254B98477B695B88002B04D03869214B9F
S214404AB09847002337E0214B1B68DB7C022B0BD149
S214404AC07B685C881E4B984703469C4210D13869E9
S214404AD0184B9847002326E07B685C88194B98471C
S214404AE003469C4204D13869124B984700231AE08B
S214404AF07B6801225A7038690E4B98470F4B1B68EB
S214404B00997C7B681A787B695C687B68DB88009355
S214404B100A2301930C4B0293084611460122234672
S214404B200A4CA047034618461C37BD4690BD00BFFA
S214404B3065424000BD42400029394000B4940120FF
S214404B40818240006D824000514B4000B18540005C
S214404B5080B586B000AF3B600346FB710B46BB7129
S214404B6013467B710023FB75FB7D5A1CFA7518466D
S214404B702A4B984738613B69002B00D14AE03B6995
S214404B800C33FB60FB681B78BA799A4204D100BFAD
S214404B907B79072B05D100E0E6E73B68002B00D089
S214404BA006E07B79002B03D0FB6800225A7031E088
S214404BB0FB68DB881A463B689A4211D0184B1B6844
S214404BC0DB7C022B06D1174B984703461A46FB68F8
S214404BD05A8005E0144B984703461A46FB685A80AD
S214404BE0FB681B79DBB2002B0CBF01230023DBB232
S214404BF00133DB00FA681344BB60BB6800221A80AE
S214404C003B689AB2BB685A80FB6800225A70F868C4
S214404C10064B98471837BD4680BD00BFC948400080
S214404C20B4940120818240006D824000154A4000C5
S214404C3090B589B004AF7860324B9847F8607B688F
S214404C405B78002B04D0F8682F4B9847002354E03D
S214404C502E4B1B68DB7C022B0BD17B685C882C4B75
S214404C60984703469C4210D1F868274B9847002344
S214404C7043E07B685C88274B984703469C4204D1B8
S214404C80F868214B9847002337E07B681B79DBB2F6
S214404C900133DB007A681344BB60BB685B88002B3B
S214404CA004D1F868184B9847002326E07B681B79A8
S214404CB0DBB2002B0CBF01230023DBB21A467B6815
S214404CC01A717B6801225A70F8680F4B98470F4B51
S214404CD01B68997C7B681A78BB685C68BB685B8895
S214404CE000934FF47A7301930B4B02930846114698
S214404CF001222346094CA047034618461437BD46B2
S214404D0090BD00BF65424000BD424000B4940120C3
S214404D10818240006D824000214D4000B1854000B8
S214404D2080B588B000AF3B600346FB710B46BB7155
S214404D3013467B710023FB772C4B9847B861FB7F6B
S214404D405A1CFA7718462A4B984778617B69002B9D
S214404D5003D1B869274B984745E07B6924333B61CC
S214404D603B691B78BA799A4204D100BF7B79002B05
S214404D7008D000E0E3E73B6900225A70B8691D4B53
S214404D80984730E03B69DB881A463B689A4211D028
S214404D90194B1B68DB7C022B06D1184B9847034601
S214404DA01A463B695A8005E0154B984703461A4613
S214404DB03B695A803B691B79DBB2002B0CBF012351
S214404DC00023DBB20133DB003A691344FB60FB6827
S214404DD000225A803B6900225A70B869054B9847B2
S214404DE03869084B98472037BD4680BD654240002D
S214404DF0C9484000BD424000B49401208182400032
S214404E006D824000314C400080B582B000AF034612
S214404E103960FB71FB79184639680E4B9847034654
S214404E2083F00103DBB2002B01D000230DE0FB79B9
S214404E3018460121084B9847034683F00103DBB22E
S214404E40002B01D0002300E0012318460837BD465A
S214404E5080BD00BF0D4940009549400080B582B0F6
S214404E6000AF0346FB71FB791846064B984703464E
S214404E70002B14BF01230023DBB218460837BD467B
S214404E8080BD00BF894E400080B584B000AF034669
S214404E90FB71FB7918460D4B9847F860FB68002B72
S214404EA001D100230EE0FB681B7CDBB20233DB0043
S214404EB0FA6813440433BB60BB685B881A46BB6819
S214404EC01B88D31A18461037BD4680BDC9484000D7
S214404ED080B588B000AF0346FB710023FB61FB79C9
S214404EE01846274B984778617B69002B01D10023F1
S214404EF042E07B690C333B617B699B79092B0CBF95
S214404F0001230023FB763B691B79DBB20133DB00D0
S214404F103A691344FB6000BFFB681A88FB685B88ED
S214404F209A420CD3FB791846154B98470346002BFC
S214404F3001D1002320E03869124B9847E3E7FB682D
S214404F405B68FA68128813441B781A46FB69134359
S214404F50FB61FB681B8801339AB2FB681A8038698C
S214404F60084B9847FB7E002B05D00023FB76FB6959
S214404F701B02FB61C7E7FB6918462037BD4680BD6C
S214404F80C9484000154A400080B588B000AF034687
S214404F90B9607A60FB73FB7B18462D4B9847B86127
S214404FA0BB69002B01D100234DE0BB690C337B610C
S214404FB07B691B79DBB20133DB007A6913443B61C2
S214404FC000BF3B691A883B695B889A420CD3FB7BDF
S214404FD018461F4B98470346002B01D1002332E06A
S214404FE078691C4B9847E3E73B695B881A463B6900
S214404FF01B88D31AFB61FA697B689A4201D97B68A1
S214405000FB613B695B683A6912881344B868194685
S214405010FA69114B98473B691A88FB699BB213445F
S2144050209AB23B691A80BA68FB691344BB607A68D7
S214405030FB69D31A7B607869064B98477B68002BE0
S21440504000D0B5E7002318462037BD4680BD00BFD8
S214405050C9484000154A4000E1A6400080B584B0EB
S21440506000AF0346FB71FB7918460F4B9847F86034
S214405070FB68002B01D1002311E0FB682433BB60A2
S214405080BB68DA88BB681B79DBB2B9680133DB00E2
S2144050900B445B889A4214BF01230023DBB21846B8
S2144050A01037BD4680BD00BFC948400080B588B0B7
S2144050B000AF03463960FB71FB791846294B984789
S2144050C0B861BB69002B01D1002346E0BB6924339D
S2144050D07B61BB699B79092B0CBF01230023FB77BF
S2144050E07B691B79DBB20133DB007A6913443B6191
S2144050F000BF7B69DA883B695B889A4209D1FB79B5
S2144051001846184B98470346002B01D1002324E04D
S214405110E6E7154B9847F8607B691B79DBB20133AD
S214405120DB007A6913443B613B695A683B695B889C
S214405130591C88B23969488013443A68D2B21A700A
S214405140F8680A4B9847FB7F002B05D00023FB7777
S2144051503B681B123B60C3E7012318462037BD4619
S21440516080BD00BFC948400065424000BD42400087
S21440517080B58AB000AF0346B9607A60FB73FB7BAC
S2144051801846344B984738623B6A002B01D10023BF
S2144051905CE03B6A2433FB613B6A9B79092B02D176
S2144051A07B685B007B60FB691B79DBB20133DB000D
S2144051B0FA691344BB6100BFFB69DA88BB695B8848
S2144051C09A4209D1FB7B1846224B98470346002B50
S2144051D001D100233AE0E6E71F4B98477861FB6928
S2144051E01B79DBB20133DB00FA691344BB61FB6910
S2144051F0DB881A46BB695B88D31A7B627A6A7B680F
S2144052009A4201D97B687B62BB695B68BA695288FF
S21440521013441846B9687A6A104B9847BB695A884F
S2144052207B6A9BB213449AB2BB695A8078690C4B2E
S2144052309847BA687B6A1344BB607A687B6AD31A1D
S2144052407B607B68002B00D0ADE7002318462837EC
S214405250BD4680BDC948400065424000E1A64000CA
S214405260BD42400080B483B000AF03463960FB7156
S214405270054A3B681360054AFB7913700C37BD46F8
S2144052805DF8047B704700BFE094012002C4012013
S21440529080B500AF014B984780BD00BFB18240004B
S2144052A080B582B000AF78607868024B9847083780
S2144052B0BD4680BD9182400080B584B000AF0346B5
S2144052C03960FB71FB79002B0FD0204B01221A70FE
S2144052D01F4B00225A611E4B00229A741C48012123
S2144052E01C4B98471C4B98472DE03B68184A934206
S2144052F002D11A4B00221A703B689B7C1846FF214D
S214405300174B98470023FB730AE0FB7B154A1B01AB
S214405310134408331B6838689847FB7B0133FB739C
S214405320FB7B002BF1D0386800210A4B98473B683E
S214405330FF229A743B685B69002B04D03B685B692C
S2144053401846094B98471037BD4680BDDC9401206F
S214405350C4940120793C40006D53400002C40120B3
S214405360458440002C01002049A1400080B500AF94
S2144053700148024B984780BD81534000A1524000EF
S21440538080B500AF14200249024B984780BD00BF4D
S214405390995340006552400080B500AF0148024B2B
S2144053A0984780BDAD534000A152400080B500AF45
S2144053B0054B984703461A46044BDA746420044962
S2144053C0044B984780BD00BF45824000C4940120EE
S2144053D0D95340006552400090B585B002AF802357
S2144053E03B7006237B704FF480737B800023BB802A
S2144053F00823FB8000200021134B984700204021C3
S214405400124B9847034683F00103DBB2002B03D0D0
S21440541004200F4B984714E03A46002300930D4B68
S2144054200193002011460C4A12230C4CA047034619
S21440543083F00103DBB2002B03D00620044B9847D1
S21440544000BF0C37BD4690BD45844000C982400031
S214405450015A400061544000C494012069844000D1
S21440546080B582B000AF0346FB710B46BB71134656
S214405470BB80BB79002B06D1BB88072B03D90A4BD0
S2144054805B78012B09D0BB79012B01D1072300E0C3
S21440549003231846054B984703E014200449054B60
S2144054A098470837BD4680BDC4940120015A400045
S2144054B0B95440006552400080B500AF0148024BE9
S2144054C0984780BDCD544000A152400080B500AF03
S2144054D064200249024B984780BD00BFE554400017
S2144054E06552400090B585B002AF00233B7005235F
S2144054F07B7001237B80194B01229A740023BB806A
S2144055000023FB8000200021154B9847134BDB7986
S21440551000201946134B9847034683F00103DBB23D
S214405520002B03D00420104B984714E03A46002343
S21440553000930E4B019300201146084A12230C4C50
S214405540A047034683F00103DBB2002B03D00620BE
S214405550054B984700BF0C37BD4690BDC49401200C
S21440556045844000C9824000015A400075554000BD
S2144055706984400080B582B000AF0346FB710B469D
S214405580BB711346BB80BB79002B09D0BB79012B7E
S21440559001D1072300E003231846054B984703E054
S2144055A014200449044B98470837BD4680BD00BFC9
S2144055B0015A4000BD5540006552400090B585B048
S2144055C002AF002000211A4B98471A4BDB79012086
S2144055D01946194B9847034683F00103DBB2002B6C
S2144055E003D00420154B98471FE080233B700623CA
S2144055F07B704FF480737B800023BB801223FB803C
S2144056003A46002300930E4B019301201146094A67
S21440561012230C4CA047034683F00103DBB2002B59
S21440562003D00620054B984700BF0C37BD4690BDBB
S21440563045844000C4940120C9824000015A40007D
S214405640495640006984400090B589B002AF034691
S214405650FB710B46BB711346BB80BB79002B06D152
S214405660BB88122B03D1284B5B78012B09D0BB7922
S214405670012B01D1072300E003231846234B98470C
S2144056803FE0214B5B7C012B02D90123FB7501E0F7
S2144056900123FB7509201E4B984703461A461A4BB2
S2144056A05A61194B5B69002B03D10620174B98476C
S2144056B027E080233B7306237B73FB7D9BB2013B35
S2144056C09BB29BB243F400739BB29BB2FB81002318
S2144056D03B8209237B820C4B5A6907F10C0100235D
S2144056E000930C4B0193012009230B4CA047034623
S2144056F083F00103DBB2002B03D00620034B984710
S21440570000BF1C37BD4690BDC4940120015A4000DE
S21440571039A140001D5740006984400090B589B0CB
S21440572002AF0346FB710B46BB711346BB8000239A
S214405730FB82BB79002B07D1BB88092B04D1394BA0
S2144057405B695B78022B09D0BB79012B01D107231B
S21440575000E003231846344B984760E0314B5B69C2
S214405760DB7903F04003002B05D12E4B5B691B7A97
S2144057709BB25B00FB82FB8AB3F5FA7F06DD2948C5
S21440578002212A4B98472A4B984748E0254B5B69AD
S2144057909A78DB781B021343BB82224B5B695B79AA
S2144057A0FB74204B5B691846224B9847BB8A1846C9
S2144057B0214B984703461A461A4B5A61194B5B6968
S2144057C0002B03D10620184B984728E080233B72D5
S2144057D006237B72FB7C9BB2013B9BB29BB243F49D
S2144057E000739BB29BB27B810023BB81BB8AFB814B
S2144057F00C4B5A6907F10801BC8A002300930F4BF3
S2144058000193012023460E4CA047034683F0010334
S214405810DBB2002B03D00620034B984700BF1C3753
S214405820BD4690BDC4940120015A4000AD3C4000A6
S2144058309152400049A1400039A1400045584000DF
S2144058406984400090B589B002AF0346FB710B46B1
S214405850BB711346BB800023FB75BB79002B0ED172
S214405860BB88082B0BD9374B5B695B78022B06D17C
S214405870344B5B695B889BB2BA889A4209D0BB7945
S214405880012B01D1072300E0032318462E4B9847EF
S21440589054E00023BB751EE0BB7D2C4A1B0113441D
S2144058A01B68284898470346002B02D0012B0ED091
S2144058B002E00123FB750BE00120FF21244B9847B3
S2144058C020480421234B9847234B984736E000BF97
