S0100000484F53545F5553422E737265638D
S21440000088060220998E4000698F4000698F400024
S214400010698F4000698F4000698F400000000000F3
S214400020000000000000000000000000051940002D
S214400030698F400000000000151A4000819840007B
S214400040698F4000698F4000698F4000698F40008B
S214400050698F4000698F4000698F400061A0400072
S2144000604D084000698F400000000000C167400016
S214400070D9674000698F4000698F4000698F400013
S214400080698F4000698F4000698F40004D9C40005A
S214400090698F4000698F4000698F4000698F40003B
S2144000A0698F4000698F4000698F4000698F40002B
S2144000B0698F4000698F4000698F40000000000053
S2144000C000000000000000000000000000000000EB
S2144000D000000000000000000000000000000000DB
S2144000E000000000000000000000000000000000CB
S2144000F0000000000000000000000000117E4000EC
S214400100698F4000698F400000000000000000003A
S214400110000000000000000000000000000000009A
S214400120000000000000000000000000000000008A
S214400130000000000000000000000000000000007A
S214400140000000000000000010B5054C237833B9CD
S214400150044B13B10448AFF300800123237010BD55
S214400160000A00200000000094DF4000084B10B555
S2144001701BB108490848AFF300800848036803B934
S21440018010BD074B002BFBD0BDE81040184700BF02
S21440019000000000040A002094DF400094DF400086
S2144001A00000000080B483B000AF78607B68072B07
S2144001B025D801A252F823F0D9014000DF014000C3
S2144001C0E5014000EB014000EF014000F301400034
S2144001D0F7014000FB0140004FF4FA4310E04FF4B3
S2144001E000430DE04FF400430AE0084B08E0084B9C
S2144001F006E0084B04E0002302E0002300E0002372
S21440020018460C37BD465DF8047B704700127A00EE
S2144002100024F40000366E0180B500AF0120044B88
S2144002209847024640F6723303FB02F3184680BDF9
S214400230A501400080B500AF024B984703461846DC
S21440024080BD00BF1902400080B500AF054B9847FF
S2144002500246054BA3FB02235B0B044A136000BF18
S21440026080BD00BF350240005917B7D11C0A002098
S21440027080B588B000AF1E4B984702461D4BA3FB87
S21440028002239B09013B7B611B4B3B611B4BFB6085
S2144002904FF08063BB603B691B687A69D31AFB6189
S2144002A0174B9847B861174B98477860FB681A68B1
S2144002B0BB681340002B07D0BB690133BB613B6969
S2144002C01B687A69D31AFB61BA6913469B001344CC
S2144002D05B007B600C4B1B68FA69B2FBF3F37A68F1
S2144002E013447B607B6818462037BD4680BD00BF00
S2144002F035024000D34D621018E000E004ED00E007
S21440030045294000F91940001C0A002080B483B0FB
S21440031000AF0346FB71094997F907305B09FA7944
S21440032002F01F02012000FA02F241F8232000BF2B
S2144003300C37BD465DF8047B704700BF00E100E027
S21440034080B483B000AF03463960FB7197F907303D
S214400350002B0BDA0D49FB7903F00F03043B3A6898
S214400360D2B21201D2B20B441A7609E0084997F984
S21440037007303A68D2B21201D2B20B4483F8002357
S21440038000BF0C37BD465DF8047B704700ED00E0CB
S21440039000E100E080B483B000AF78607B68072B54
S2144003A025D801A252F823F0C9034000CF034000ED
S2144003B0D5034000DB034000DF034000E30340007A
S2144003C0E7034000EB0340004FF4FA4310E04FF4DD
S2144003D000430DE04FF400430AE0084B08E0084BAA
S2144003E006E0084B04E0002302E0002300E0002380
S2144003F018460C37BD465DF8047B704700127A00FD
S2144004000024F40000366E0180B500AF0120044B96
S2144004109847024640F6723303FB02F3184680BD07
S2144004209503400080B500AF024B984703461846F8
S21440043080BD00BF0904400080B500AF024B98471E
S2144004400346184680BD00BF0904400080B48BB008
S21440045000AF78600B46FB707B687B62FB7887F862
S21440046023307B6AFB61FB69BB61BB695B097B61CF
S2144004707B6903F5001303F207735B023B6197F851
S2144004802330002B09D07B6AFB60FB6803F01F0318
S21440049001229A403B691A6308E07B6ABB60BB68EE
S2144004A003F01F0301229A403B695A6300BF2C3772
S2144004B0BD465DF8047B704780B489B000AF786075
S2144004C07B68FB61FB69BB61BB697B617B695B09E0
S2144004D03B613B6903F5001303F207735B02DA6B7B
S2144004E0FB69FB60FB6803F01F03012101FA03F37D
S2144004F01340002B14BF01230023DBB218462437D9
S214400500BD465DF8047B704780B48BB000AF786022
S2144005107B687B627B6A3B623B6AFB61FB695B098B
S214400520BB61BB6903F5001303F207735B027B6193
S2144005307B6A3B613B6903F01F03012202FA03F327
S214400540FB607B69DA6B7B6ABB60BB6803F01F03AA
S214400550012101FA03F31340002B03D07B69FA68AC
S2144005605A6302E07B69FA681A6300BF2C37BD46BF
S2144005705DF8047B704700BF2DE9F84F00AF0021BF
S21440058021204A4B98474A4B9847034619464FF016
S21440059000020B461446DB1844EB04045B1844EB9D
S2144005A002044FEA441B4BEAD36B4FEA431A13EB61
S2144005B00A0344EB0B045B1844EB020443F2AF61BE
S2144005C04FF0000213EB010A44EB020B504659462B
S2144005D0384C43F2B0624FF00003A04703460C4647
S2144005E01846354B9847324B9847034619464FF0C6
S2144005F000020B461446DB1844EB04045B1844EB3D
S21440060002044FEA441949EAD3694FEA431813EB08
S214400610080344EB09045B1844EB020443F2AF6161
S2144006204FF0000213EB010844EB020940464946EE
S214400630204C43F2B0624FF00003A04703460C46FE
S21440064018461D4B984701212120184B9847184BB8
S2144006509847034619464FF000020B461446DB18EF
S21440066044EB04045B1844EB0204660146EAD36696
S2144006705D015B1944EB06045B1844EB020443F24D
S214400680AF614FF000025D1844EB02062846314643
S214400690084C43F2B0624FF00003A04703460C46B6
S2144006A01846054B984700BFBDE8F88F4D044000FC
S2144006B02504400009A3400001000020B0B58AB0E0
S2144006C000AFF860B9607A603B60254B07F11004D4
S2144006D01D460FCD0FC42B68237000237B623A68FB
S2144006E0002178681F4B9847BB685A003B689A427F
S2144006F003D93B68013B5B08BB6000237B621FE07D
S2144007007B685A1C7A60FA6812781209D2B207F1EE
S21440071028010A4412F8182C1A707B685A1C7A6012
S214400720FA68127802F00F0207F128010A4412F81C
S214400730182C1A70FB680133FB607B6A01337B62BE
S2144007407A6ABB689A42DBD37B685A1C7A6000227E
S2144007501A70BB685B0018462837BD46B0BD00BF60
S214400760C8D44000C1AD400080B58AB000AF7860C4
S2144007707B685B00234AA2FB03239B097B6207F14D
S2144007800C0300221A605A609A60DA601A615A6155
S2144007907B68FB60C0233B614FF400637B611A4873
S2144007A01A4B984701211848194B9847194B9847B8
S2144007B0024607F10C0319461748184B9847796AC2
S2144007C01548174B98470E210820164B9847082087
S2144007D0154B984740F201110F48144B9847144B5D
S2144007E0144A1A60144B154A1A600B48144B984723
S2144007F00948144B98470848134B984700BF28377A
S214400800BD4680BDD34D621000C00040E16240004E
S214400810496440003904400000C20040098B400053
S214400820D58B4000410340000D034000F18B400053
S21440083038120020300A00203C120020340E0020DF
S214400840758C4000498B40009D8B400090B587B02A
S21440085000AF00237B6100233B6100237B6035486B
S214400860354B9847F860FB6803F00103002B1AD01D
S21440087007F1080319462F48304B98470346002B8C
S21440088054D12F4B1B68B3F5806F4FD22D4B1A684F
S2144008902B4B1B68B968C9B2D154294B1B6801332E
S2144008A0274A136042E0FB6803F48073002B22D093
S2144008B0244B1B683B61244B1B68224A1360224A28
S2144008C03B691360204B1B681D4A1268C3F800241E
S2144008D01B4B00221A6017481C4B98471C4B186845
S2144008E03A1D002318491B4CA0477B68002B1DD09F
S2144008F0194B98471AE0FB6803F01003002B0DD005
S2144009000C48164B984778614FF400717869144B41
S214400910984710210748134B984707E0FB6803F0B9
S2144009200803002B02D01048104B984700BF1C37D6
S214400930BD4690BD00C20040418C4000E18C400066
S21440094040120020381200203C120020758C4000D7
S214400950200A00206520400095194000158D400073
S214400960691640000D8C4000DCD4400071A6400063
S21440097080B485B000AF78600B46FB700023BB7335
S2144009800023FB7309E0FB7B7A6813441A78BB7B31
S2144009901344BB73FB7B0133FB73FA7BFB789A42B1
S2144009A0F1D3BB7B18461437BD465DF8047B7047D1
S2144009B080B586B000AFB9607B600346FB731346D4
S2144009C0BB737B687B617B695A1C7A617E221A7096
S2144009D07B695A1C7A6100221A707B695A1C7A61BC
S2144009E0BA7B0132D2B21A707B695A1C7A61FA7BA2
S2144009F01A70BB68002B0CD0BB7B002B09D0BB7B8E
S214400A001A46B96878690E4B9847BB7B7A69134497
S214400A107B617A697B68D31ADBB219467868094BE2
S214400A20984703461A467B691A707B6901337B6197
S214400A307A697B68D31A9BB218461837BD4680BD84
S214400A408DAC40007109400090B585B000AF0346BC
S214400A500A46FB711346BB711D4BFB60FB685A1C74
S214400A60FA607E221A70FB685A1CFA6002221A70DC
S214400A70FB685A1CFA60FA791A70FB685A1CFA60CE
S214400A80BA791A70FB68124A9B1ADBB219461048AC
S214400A90104B984703461A46FB681A70FB680133AA
S214400AA0FB600D4B1B680A4A1A600B4B1B68FA68C2
S214400AB00749521A5A60094B186800234FF47A7255
S214400AC00549074CA04700BF1437BD4690BD00BF40
S214400AD0501200207109400004010020240A002022
S214400AE0F51E400090B585B000AF78600B46FB70B1
S214400AF0284BFB60FB685A1CFA607E221A70FB6823
S214400B005A1CFA6000221A70FB685A1CFA607C2253
S214400B101A70FB685A1CFA608A221A70FB685A1CC4
S214400B20FA60FA781A707B68002B0ED0FB787A222F
S214400B3002FB03F31A467B6813447A221946F86888
S214400B40154B9847FB687A33FB60FB68114A9B1A43
S214400B50DBB219460F48114B984703461A46FB68C6
S214400B601A70FB680133FB600D4B1B68094A1A601C
S214400B700B4B1B68FA680749521A5A60094B1868AB
S214400B8000234FF47A720649074CA04700BF14373B
S214400B90BD4690BD641200208DAC400071094000F7
S214400BA008010020240A0020F51E40002DE9F04FE1
S214400BB087B000AF4748484B98470120474B984777
S214400BC0474B9847034619464FF000020B461446DB
S214400BD04FEA840B4BEA937B4FEA830A53465C46C4
S214400BE04FEA441949EAD3694FEA4318B8EB030879
S214400BF069EB040918EB010849EB02094FEA89033F
S214400C007B617B6943EA98737B614FEA88033B616B
S214400C10D7E9048941464A4643F2AF634FF00004A1
S214400C2011EB030842EB0409404649462D4C43F27B
S214400C30B0624FF00003A04703460C4618462A4BC6
S214400C4098470220254B9847254B98470346194618
S214400C504FF000020B461446A000F860F86840EAE1
S214400C609370F8609B00BB60D7E90234660146EAA1
S214400C70D3665D01ED1A66EB04066D1846EB020678
S214400C80B3007B607B6843EA95737B60AB003B6058
S214400C90D7E900562946324643F2AF634FF0000488
S214400CA0CD1842EB0406284631460E4C43F2B0625D
S214400CB04FF00003A04703460C4618460A4B984799
S214400CC032210020094B984700BF1C37BD46BDE87F
S214400CD0F08F00BFF4D4400071A64000FD9D400058
S214400CE02504400009A3400001000020499E400022
S214400CF080B500AF0348044B9847FF20034B984706
S214400D0000BF80BD18D5400071A64000BD394000E8
S214400D1080B584B000AF03463960FB711346BB71A3
S214400D200023FB60FB79A12B00F0A080A12B21DCE7
S214400D30812B00F0EF80812B0BDC0A2B49D00A2B4D
S214400D4002DC032B72D009E10B2B52D00C2B43D084
S214400D5004E1892B00F09780892B06DC822B00F07B
S214400D609680842B00F0EA80F8E09A2B44D0A02BA3
S214400D7055D0F3E0F82B00F0C980F82B0FDCCB2BD6
S214400D8000F0D480CB2B03DCA62B00F08B80E5E074
S214400D90CC2B00F0CF80CD2B00F0DC80DEE0FC2BAF
S214400DA000F0A280FC2B04DCF92B08D0FA2B61D093
S214400DB0D4E0FD2B00F08680FE2B7FD0CEE06F483F
S214400DC06F4B98476F4B01221A706F4B03221A7075
S214400DD0CFE06E4B9847CCE03B681B7819466C4892
S214400DE0674B98473B681B789BB21846694B9847B9
S214400DF0BFE0694B9847BCE06848614B9847684BF2
S214400E001B78252B00F2B080654B1B785A1CD1B25C
S214400E10634A117019466348634B9847A4E03B68A1
S214400E201B7819466148564B9847A2E03B681B78AA
S214400E30FB72FB7A002B03D15D48514B984795E0F7
S214400E40FB7A012B03D15B484D4B98478EE0FB7AEB
S214400E50022B03D158484A4B984787E0FB7A032B2E
S214400E6040F084805548464B98477FE05448444B72
S214400E7098477EE0534B1B680133524A13605248F2
S214400E803F4B984775E051483D4B984771E00121EC
S214400E901E204F4B98474F4B01221A704E48384BF6
S214400EA0984766E03B681B78002B03D14B48344B91
S214400EB098475EE04A48324B98475AE04948304B9C
S214400EC0984756E03B680133FB60F868464B9847C6
S214400ED003463B813B890133FA6813441A46F96856
S214400EE04248274B984744E03B680133FB60F8682C
S214400EF03D4B984703463B813B890133FA68134490
S214400F001A46F9683A481E4B984732E039481C4B17
S214400F1098472EE038481A4B9847384B1B78012B99
S214400F2026D14FF49640364B984721E03548144B2F
S214400F3098471EE03448124B98471AE03B681B78A7
S214400F40002B03D131480E4B984712E030480C4BEB
S214400F5098470EE02F480A4B98470AE0FB79194617
S214400F602D48074B984704E000BF02E000BF00E072
S214400F7000BF00BF1037BD4680BD00BF38D540001B
S214400F8071A640004A12002000010020AD0B400030
S214400F9050D540008D3A4000F10C400074D54000DA
S214400FA0FC9E012040C50120E50A400090D5400047
S214400FB0BCD54000D0D54000F0D5400018D6400003
S214400FC03CD640004C1200205CD6400074D6400010
S214400FD04D0440004412002088D64000A4D640006D
S214400FE0B4D64000C8D6400081B04000E0D64000AD
S214400FF000D7400028D7400044D740004812002081
S2144010006907400064D7400084D740009CD7400022
S214401010ACD74000BCD74000D4D7400090B587B08E
S21440102000AF78600B46FB707B687B6100233B61BA
S2144010300023FB73F9784FF48073344A7868344C55
S214401040A047FB78314A19463248334B984753E01D
S2144010507B691B787E2B11D0304B1B78002B50D0F1
S2144010600123FB737B691B7819462D482A4B98470A
S214401070FB7B1946A0202B4B984743E07B69023305
S2144010801B780333BB73BB7B19467869264B98475E
S21440109003467B73BB7B7A6913441B787A7B9A4200
S2144010A00CD00223FB73BB7B7A6913441B7819462A
S2144010B07B7B1A461D48184B984723E07B69DB78B4
S2144010C03B737B6904333B617B6902331B78013B8E
S2144010D0BB73BA7B3B7B39691846154B98477B698F
S2144010E002331B780433BB73BB7B7A6913447B6142
S2144010F0FA78BB7BD31AFB70FB78032BA8D800BFCB
S21440110000E000BF1C37BD4690BD00BFB49F012025
S214401110BD064000F0D7400071A640004A120020AD
S21440112004D84000490A40007109400028D84000D1
S214401130110D400090B585B000AF78600023FB608D
S2144011400C4B98470C480D4B98470D4B186807F1C9
S2144011500C0100234FF0FF320A4CA047FB681A46AA
S214401160FB68D3F80034DBB219461046064B984766
S214401170EBE700BF7905400064D8400071A6400008
S214401180200A00202D2140001D10400080B582B06E
S21440119000AF7860204B1B78013B032B36D801A26A
S2144011A052F823F0B5114000E1114000F71140001D
S2144011B0CB1140001020194B9847194B1B7883F0F1
S2144011C00103DAB2164B1A7021E01020134B9847F1
S2144011D0134B1B7883F00103DAB2114B1A7016E0FA
S2144011E0002110200F4B98470D4B00221A700A4BD7
S2144011F000221A700BE0012110200A4B9847084B3A
S21440120001221A70044B00221A7000E000BF00BF93
S2144012100837BD4680BD00BF0001002009054000DC
S214401220441200204D04400090B587B002AF78606D
S214401230364BFB60364B9847364B1B780133DAB259
S214401240344B1A70344B98472020344B984703460B
S21440125083F00103DBB2002B14D02E4B1B78042BFB
S21440126009D92F482F4B98472F4B00221A702F4BE7
S21440127003221A7046E02E482A4B98472A4B0122F2
S2144012801A703FE0284B1B78002B1FD12948254B6E
S2144012909847264B01221A70274B00220021022035
S2144012A0264CA04703461A46254B1A80FB68224A1E
S2144012B01A60FB68224A12885A60224B186807F167
S2144012C00C0100230022204CA04708E0164B1B7858
S2144012D0012B04D11D48134B98471D4B98470C4B88
S2144012E098470C4B00221A700B4B98470E4B012226
S2144012F01A70184B1868002300930023002201211F
S214401300154CA04700BF1437BD4690BD7013002053
S214401310B11940007C130020D1194000B9044000A8
S2144013207CD8400071A640000C010020000100203F
S21440133090D84000ACD8400080130020B10940004F
S21440134090130020240A0020F51E4000C4D8400018
S214401350F10C4000280A00209134400090B58BB034
S21440136004AF786000237B610023BB60464B00934C
S214401370002301224FF47A714448454CA047024668
S214401380444B1A60434B1B68002B02D14248434BE8
S2144013909847434B00930023012240F6C41141482E
S2144013A03B4CA0470246404B1A603F4B1B68002B05
S2144013B00CD03D4B1C683D4B98470246002300939B
S2144013C00023002120463A4CA04702E03948334BE0
S2144013D098473948314B9847002204210120374B23
S2144013E098470246364B1A60354B1B68002B02D195
S2144013F034482A4B98470022042101202F4B984717
S2144014000246314B1A60304B1B68002B02D12F48E6
S214401410224B984700230393002302930023019313
S2144014200523009300234FF48062294929482A4C1B
S214401430A0472A482A4B98477861234B186807F1FB
S214401440080100234FF0FF32264CA047BB685B687C
S21440145019462548114B9847BB681B68FB60BB681C
S2144014605B683B6107F10C030022194678691F4B05
S21440147098474FF4807178691D4B9847102117485C
S2144014801C4B9847D5E700BF29124000E0D84000E3
S21440149011344000280A0020F0D8400071A64000D1
S2144014A08D11400010D940002C0A00201929400018
S2144014B0913440001CD940003CD94000591E4000A1
S2144014C0200A002058D94000240A002078D940003D
S2144014D09CD94000351140009125400000C2004094
S2144014E0158D40002D214000A4D940000116400033
S2144014F045164000F18B400090B585B002AF002302
S2144015007B600B4B1C680B4B984701463A1D0023EB
S214401510009313460A4600212046074CA0477B68A6
S214401520002B01D0054B984700BF0C37BD4690BDF9
S214401530280A002045294000913440009519400073
S21440154080B586B000AFF860B9607A6000237B61F2
S214401550FB68002B12D04FF0FF3313E00B4B1B6899
S2144015600B4A1268B96810469847BB680133BB609F
S2144015707B6901337B617B68013B7B607B68002B2A
S214401580ECDC7B6918461837BD4680BDBCA0012000
S214401590C4A0012080B586B000AFF860B9607A601C
S2144015A000237B61FB68012B1ED0FB68022B1BD0FF
S2144015B0FB68032B18D04FF0FF3319E00E4B1A6828
S2144015C00E4B1868BB68591CB9601B781946904783
S2144015D00346002B02DA4FF0FF3309E07B69013304
S2144015E07B617B68013B7B607B68002BE6D17B6937
S2144015F018461837BD4680BDC0A00120C4A00120B3
S21440160080B485B000AFF860B9607A60BB68002BE4
S21440161007D0BB681A68FB689A60BB685A68FB6864
S214401620DA607B68002B07D07B681A68FB689A6193
S2144016307B685A68FB68DA6100BF1437BD465DF8C0
S214401640047B704780B483B000AF786039603A68F6
S21440165040F2011313407A68136200BF0C37BD4650
S2144016605DF8047B704700BF80B483B000AF7860FD
S21440167039603A6840F2022313407A68136200BF2A
S2144016800C37BD465DF8047B704700BF80B483B01E
S21440169000AF78607B6803F108027B685A607B681D
S2144016A04FF0FF329A607B6803F108027B68DA608D
S2144016B07B6803F108027B681A617B6800221A6027
S2144016C000BF0C37BD465DF8047B704780B483B0DE
S2144016D000AF78607B6800221A6100BF0C37BD46B9
S2144016E05DF8047B704700BF80B485B000AF78607B
S2144016F039607B685B68FB60FB685A683B685A6089
S2144017007B685A683B689A60FB685B683A689A6090
S214401710FB683A685A607B683A685A603B687A6801
S2144017201A617B681B685A1C7B681A6000BF1437B6
S214401730BD465DF8047B704780B485B000AF7860E6
S21440174039603B681B68BB60BB68B3F1FF3F03D1A1
S2144017507B681B69FB600CE07B680833FB6002E03B
S214401760FB685B68FB60FB685B681A68BB689A420C
S214401770F6D9FB685A683B685A603B685B683A68CB
S2144017809A603B68FA689A60FB683A685A603B68B9
S2144017907A681A617B681B685A1C7B681A6000BFAF
S2144017A01437BD465DF8047B704700BF80B485B0F3
S2144017B000AF78607B685B687A6892689A607B68FE
S2144017C09B687A6852685A607B681B69FB60FB6856
S2144017D05A687B689A4203D17B689A68FB685A606D
S2144017E07B6800221A61FB681B685A1EFB681A60F9
S2144017F0FB681B6818461437BD465DF8047B704787
S21440180080B483B000AF78607B68072B25D801A2F0
S21440181052F823F0351840003B184000411840006D
S214401820471840004B1840004F18400053184000DF
S214401830571840004FF4FA4310E04FF400430DE0D1
S2144018404FF400430AE0084B08E0084B06E0084B1C
S21440185004E0002302E0002300E0002318460C3793
S214401860BD465DF8047B704700127A000024F40001
S21440187000366E0180B500AF0120044B9847024603
S21440188040F6723303FB02F3184680BD0118400051
S21440189080B500AF024B98470346184680BD00BF50
S2144018A07518400080B485B000AFF860B9607A60C3
S2144018B0FB68043BFB60FB684FF080721A60FB6875
S2144018C0043BFB60BA68FB681A60FB68043BFB603D
S2144018D0FB6800221A60FB68143BFB607A68FB6872
S2144018E01A60FB68043BFB60FB686FF002021A60FC
S2144018F0FB68203BFB60FB6818461437BD465DF826
S214401900047B7047054B19680868B0E8F04F80F3D1
S21440191009884FF0000080F311887047A493012097
S21440192000BF00BF04480068006880F3088862B6BD
S21440193000DF00BF00BF000008ED00E080B500AF4C
S2144019400E4A0E4B1B6843F4700313600B4A0B4B56
S2144019501B6843F070431360094B9847094B0022BD
S2144019601A60094B9847094A084B1B6843F04043A6
S2144019701360074B98470023184680BD20ED00E0D3
S214401980991A400010010020CD1A400034EF00E0C4
S2144019902519400080B400AF044B4FF080521A60C7
S2144019A000BFBD465DF8047B704700BF04ED00E015
S2144019B080B500AF044B9847044B1B680133034A7D
S2144019C0136000BF80BD00BFF91940001001002021
S2144019D080B500AF064B1B68013B054A1360044BBD
S2144019E01B68002B02D10020024B984700BF80BDE9
S2144019F0100100200D1A4000EFF311804FF0500107
S214401A0081F3118870470023184600BF80F3118881
S214401A10704700BFEFF30980114B1A681EF0100F95
S214401A2008BF20ED108A20E9F04F10602DE90840ED
S214401A304FF0500080F3118801F044F84FF000005A
S214401A4080F31188BDE8084019680868B0E8F04F90
S214401A501EF0100F08BFB0EC108A80F3098870475C
S214401A60A493012000BF00BF80B500AF064B4FF0E7
S214401A7080521A60054B9847054B98470020054B07
S214401A80984700BF80BD00BF04ED00E0F919400054
S214401A90752940000D1A400098B500AF074C084B1A
S214401AA098470246074BA3FB02239B09013B236052
S214401AB0054B07221A6000BF98BD00BF14E000E047
S214401AC091184000D34D621010E000E0DFF80C00A3
S214401AD0016841F470010160704700BF88ED00E086
S214401AE080B586B000AF78600023FB60374B9847E0
S214401AF0374B1B68002B01D1364B98477B68002B31
S214401B000ED010231A467B6813447B607B6803F034
S214401B100703002B04D07B6823F0070308337B6061
S214401B207B68002B45D04FF4C0327B68934240D24E
S214401B30294B3B61284B1B687B6104E07B693B611A
S214401B407B691B687B617B695A687B689A4203D2D3
S214401B507B691B68002BF1D11D4B1B687A699A4242
S214401B6027D03B691B6810221344FB607B691A68C8
S214401B703B691A607B695A687B68D31A1022520008
S214401B8093420FD97A697B681344BB607B695A6875
S214401B907B68D21ABB685A607B697A685A60B868B4
S214401BA00E4B98470E4B1A687B695B68D31A0C4AF3
S214401BB013600C4B9847FB68002B01D10A4B9847A3
S214401BC0FB6818461837BD4680BD00BFD527400085
S214401BD0A0930120411C400098930120D91C40004E
S214401BE014010020F1274000AD98400080B584B035
S214401BF000AF78607B68FB607B68002B14D01023B6
S214401C005B42FA681344FB60FB68BB60084B98472E
S214401C10BB685A68074B1B681344064A1360B8688B
S214401C20054B9847054B984700BF1037BD4680BDCB
S214401C30D527400014010020D91C4000F127400061
S214401C4080B582B000AF1E4B1E4A1A601C4B002265
S214401C505A604FF4C0321B4B13447B6010235B42E8
S214401C607A6813447B60184A7B681360164B1B687F
S214401C7003F00703002B04D04FF492711348144B23
S214401C809847114B1B6800225A600F4B1B68002276
S214401C901A600C4B3B604FF4C03310229A1A3B68D4
S214401CA05A60094B1A683B681A600A4B1B68102238
S214401CB09B1A084A136000BF0837BD4680BD00BF68
S214401CC09893012098130020A0930120B8D9400093
S214401CD0259A40001401002080B485B000AF78609B
S214401CE0284BFB6002E0FB681B68FB60FB681A68D9
S214401CF07B689A42F7D3FB68BB60FB685B68BA6850
S214401D001A447B689A4208D1FB685A687B685B68CD
S214401D101A44FB685A60FB687B607B68BB607B68E4
S214401D205B68BA681A44FB681B689A4218D1FB681D
S214401D301A68154B1B689A420DD07B685A68FB6838
S214401D401B685B681A447B685A60FB681B681A68A5
S214401D507B681A6008E00C4B1A687B681A6003E0E0
S214401D60FB681A687B681A60FA687B689A4202D0F9
S214401D70FB687A681A6000BF1437BD465DF8047B7E
S214401D80704700BF98930120A093012080B582B091
S214401D9000AF786039607B68002B04D140F21B119D
S214401DA02648274B9847274B98477B681A687B6896
S214401DB0DB6B7968096C01FB03F31A447B685A6055
S214401DC07B6800229A637B681A687B689A607B68A7
S214401DD01A687B68DB6B013B7968096C01FB03F38F
S214401DE01A447B68DA607B684FF0FF325A647B683F
S214401DF04FF0FF329A643B68002B0ED17B681B691C
S214401E00002B14D07B68103318460F4B9847034678
S214401E10012B0CD10D4B984709E07B6810331846D0
S214401E200B4B98477B6824331846094B9847094B19
S214401E309847012318460837BD4680BD08DA40005B
S214401E40259A4000B1194000212D400095194000C8
S214401E508D164000D119400080B588B000AFF860BC
S214401E60B9601346FB710023FB61FB68002B2AD048
S214401E7050201B4B9847B861BB69002B23D0FB68AA
S214401E80BA6802FB03F301337B617869144B9847C9
S214401E900246BB691A60BB691B68002B10D0BB6941
S214401EA0FA68DA63BB69BA681A640121B8690D4BEF
S214401EB09847BB69FA7983F84D20BB69FB6102E01D
S214401EC0B869094B9847FB69002B04D140F2711161
S214401ED00648074B9847FB6918462037BD4680BDE5
S214401EE0E11A40008D1D4000ED1B400008DA40001E
S214401EF0259A400080B588B000AFF860B9607A6037
S214401F003B600023FB61FB68002B04D14FF4127149
S214401F104648474B9847BB68002B03D1FB681B6C71
S214401F20002B01D1012300E00023002B04D140F216
S214401F3049213E483E4B98473E4B9847FB689A6B34
S214401F40FB68DB6B9A4216D23A68B968F8683A4B37
S214401F509847FB685B6A002B09D0FB682433184619
S214401F60364B98470346012B01D1354B9847354BA6
S214401F709847012356E07B68002B03D1314B9847A6
S214401F8000234FE0FB69002B06D107F114031846E7
S214401F902D4B98470123FB612A4B98472B4B98477C
S214401FA0244B9847FB685B6CB3F1FF3F02D1FB685C
S214401FB000225A64FB689B6CB3F1FF3F02D1FB687A
S214401FC000229A641F4B98473A1D07F114031146A6
S214401FD018461F4B98470346002B1DD1F8681D4BEB
S214401FE098470346002B11D0FB6810337A68114699
S214401FF01846194B9847F868184B9847184B984717
S2144020000346002B98D10E4B984795E7F868134B3C
S2144020109847134B98478FE7F868104B9847104BF4
S2144020209847002318462037BD4680BD08DA400052
S214402030259A4000B119400009234000212D400058
S21440204095194000D1194000E12D4000D5274000A9
S214402050212E4000F5244000E92B40001924400082
S214402060F127400080B586B000AFF860B9607A606E
S2144020703B60FB68002B04D140F28F312548264B4D
S2144020809847BB68002B03D1FB681B6C002B01D123
S214402090012300E00023002B04D14FF464711D4857
S2144020A01D4B98471D4B98473861FB689A6BFB68F9
S2144020B0DB6B9A4224D23A68B968F868184B98475E
S2144020C0FB689B6CB3F1FF3F12D1FB685B6A002B49
S2144020D013D0FB6824331846124B98470346002B10
S2144020E00BD07B68002B08D07B6801221A6004E086
S2144020F0FB689B6C5A1CFB689A6401237B6101E079
S21440210000237B613869084B98477B691846183727
S214402110BD4680BD08DA4000259A4000F9194000C7
S21440212009234000212D40000D1A400080B588B09C
S21440213000AFF860B9607A603B600023FB61FB68E3
S214402140002B04D140F2CB315F48604B9847BB68C8
S214402150002B03D1FB681B6C002B01D1012300E050
S2144021600023002B04D14FF473715748574B9847C0
S214402170574B9847FB689B6B002B3BD0FB68DB6854
S214402180BB61B968F868534B98473B68002B1CD135
S214402190FB689B6B5A1EFB689A63FB681B68002BA8
S2144021A004D14D4B98470246FB685A60FB681B6952
S2144021B0002B1BD0FB6810331846484B9847034605
S2144021C0012B13D1464B984710E0FB68BA69DA609A
S2144021D0FB685B6A002B09D0FB68243318463F4BEC
S2144021E098470346002B01D03D4B98473D4B9847B8
S2144021F0012364E07B68002B03D13A4B98470023C9
S2144022005DE0FB69002B06D107F110031846364BFC
S21440221098470123FB61334B9847344B98472C4BE8
S2144022209847FB685B6CB3F1FF3F02D1FB68002226
S2144022305A64FB689B6CB3F1FF3F02D1FB680022F7
S2144022409A64284B98473A1D07F1100311461846E2
S214402250274B98470346002B2BD1F868254B9847C9
S2144022600346002B1FD0FB681B68002B08D1184B79
S2144022709847FB685B6818461F4B9847194B98472A
S214402280FB6824337A68114618461C4B9847F86812
S2144022901B4B98471B4B98470346002B7FF468AF71
S2144022A00F4B984764E7F868154B9847154B984787
S2144022B05EE7F868124B9847124B9847002318463B
S2144022C02037BD4680BD00BF08DA4000259A400052
S2144022D0B1194000C9234000B1314000212D4000D3
S2144022E095194000D1194000E12D4000D527400007
S2144022F0212E4000C12440000D324000E92B400012
S21440230019244000F127400080B584B000AFF86043
S214402310B9607A60FB681B6C002B0CD1FB681B68AD
S214402320002B43D1FB685B681846254B9847FB68F3
S21440233000225A603AE07B68002B19D1FB68986807
S214402340FB681B6C1A46B9681E4B9847FB689A6830
S214402350FB681B6C1A44FB689A60FB689A68FB68CB
S2144023605B689A4222D3FB681A68FB689A601DE055
S214402370FB68D868FB681B6C1A46B968114B9847CF
S214402380FB68DA68FB681B6C5B421A44FB68DA60E1
S214402390FB68DA68FB681B689A4207D2FB685A6893
S2144023A0FB681B6C5B421A44FB68DA60FB689B6BFD
S2144023B05A1CFB689A6300BF1037BD4680BD00BFFD
S2144023C0F13240008DAC400080B582B000AF7860FE
S2144023D039607B681B68002B18D07B68DA687B689E
S2144023E01B6C1A447B68DA607B68DA687B685B68DB
S2144023F09A4203D37B681A687B68DA607B68D96840
S2144024007B681B6C1A463868024B984700BF0837F3
S214402410BD4680BD8DAC400080B582B000AF7860D0
S214402420234B984712E07B685B6A002B13D07B688F
S214402430243318461F4B98470346002B01D01E4BAB
S21440244098477B689B6C5A1E7B689A647B689B6C3B
S214402450002BE8DC00E000BF7B684FF0FF329A6458
S214402460164B9847124B984712E07B681B69002B27
S21440247013D07B68103318460E4B98470346002B04
S21440248001D00D4B98477B685B6C5A1E7B685A643C
S2144024907B685B6C002BE8DC00E000BF7B684FF09D
S2144024A0FF325A64054B984700BF0837BD4680BD8B
S2144024B0B1194000212D4000DD2E4000D1194000CA
S2144024C080B584B000AF7860084B98477B689B6BBC
S2144024D0002B0CBF01230023DBB2FB60044B984764
S2144024E0FB6818461037BD4680BD00BFB119400096
S2144024F0D119400080B584B000AF7860094B98474A
S2144025007B689A6B7B68DB6B9A420CBF0123002387
S214402510DBB2FB60044B9847FB6818461037BD4655
S21440252080BD00BFB1194000D119400080B582B0CF
S21440253000AF78603960124B98477B685B6CB3F1AC
S214402540FF3F02D17B6800225A647B689B6CB3F1E4
S214402550FF3F02D17B6800229A640A4B98477B680B
S2144025609B6B002B05D17B68243339681846064B95
S21440257098477868054B984700BF0837BD4680BDEA
S214402580B1194000D1194000952C40001924400054
S21440259090B58BB002AFF860B9603B601346FB80E5
S2144025A0FB68002B04D140F2EB115448544B98473B
S2144025B03B6B0E2B04D94FF4F6715048504B98475E
S2144025C0FB88B96B18464F4B9847B861BB69002BE0
S2144025D07DD0BB691A6BFB8803F18043013B9B00AF
S2144025E013447B617B6923F007037B617B6903F0BF
S2144025F00703002B04D040F20E214048404B98473A
S214402600FB880093FB6B3A6BB968B8693E4CA047B1
S2144026103A68F96878693D4B98470246BB691A6044
S2144026207B6B002B02D07B6BBA691A60384B98479D
S214402630384B1B680133374A1360374B1B68002BF7
S21440264009D1354ABB691360324B1B68012B0FD149
S214402650324B98470CE0324B1B68002B08D12E4B70
S2144026601B68DA6A3B6B9A4202D82B4ABB691360F6
S214402670BB69DA6A2B4B1B689A4203D9BB69DB6A93
S214402680284A1360284B1A68BB691A64264B1B6895
S2144026900133254A1360BB69DB6A01229A40234B0B
S2144026A01B681343214A1360BB69DA6A13469B00D2
S2144026B013449B001E4A1A44BB690433194610460D
S2144026C01C4B98470123FB611B4B984702E04FF099
S2144026D0FF33FB61FB69012B0BD1114B1B68002BB1
S2144026E007D00D4B1B68DA6A3B6B9A4201D2134BFC
S2144026F09847FB6918462437BD4690BD48DA4000E7
S214402700259A40001D3140001D2F4000A51840006E
S214402710B119400044950120A4930120992F400010
S214402720549501204C950120689501205095012034
S214402730A8930120E9164000D119400095194000A1
S21440274090B587B004AF0023039300230293002381
S2144027500193002300930023822213491348144C0C
S214402760A04778607B68012B02D1124B984778606F
S2144027707B68012B0BD1104B9847104B01221A60F7
S2144027800F4B00221A600F4B98470F4B98477B68B9
S214402790002B04D140F213510C480D4B984700BF14
S2144027A00C37BD4690BD00BF88DA4000F52E40008D
S2144027B091254000A5334000F9194000549501206A
S2144027C048950120490240003D19400048DA400043
S2144027D0259A400080B400AF044B1B680133034A7F
S2144027E0136000BFBD465DF8047B704758950120D6
S2144027F090B583B000AF00237B60374B1B68002B3F
S21440280004D140F24D513548354B9847354B9847A3
S214402810314B1B68013B304A13602F4B1B68002B23
S21440282052D1314B1B68002B4ED000233B6027E033
S2144028302E4BDB68DC6804F1180318462C4B98478F
S214402840231D18462A4B9847E36A01229A40294B93
S2144028501B681343274A1360E26A13469B001344DF
S2144028609B00254A1344221D11461846234B984781
S214402870E26A234B1B68DB6A9A4201D301233B6022
S2144028801A4B1B68002BD3D11E4B1B68002B0DD058
S21440289006E01D4B98471B4B1B68013B194A1360CB
S2144028A0184B1B68002BF4D101233B603B68012B7F
S2144028B003D0164B1B68012B06D101237B60134BBC
S2144028C000221A60124B9847124B98477B6818466E
S2144028D00C37BD4690BD00BF5895012048DA4000F1
S2144028E0259A4000B11940004495012004950120E6
S2144028F0AD17400050950120A8930120E9164000EE
S214402900A49301205C950120752940006095012024
S21440291095194000D119400080B582B000AF064BF3
S2144029209847064B1B687B60054B98477B68184664
S2144029300837BD4680BD00BFB1194000489501200C
S214402940D119400080B582B000AF074B98477860F9
S214402950064B1B683B607868054B98473B681846B3
S2144029600837BD4680BD00BFF91940004895012094
S2144029700D1A400080B584B000AF454B1B68002B55
S2144029807BD1444B1B680133424A1360414B1B6862
S214402990002B2BD1404B1B681B68002B04D040F209
S2144029A08C613E483E4B98473B4B1B68FB603D4B1B
S2144029B01B68394A13603B4AFB6813603A4B1B68F6
S2144029C00133394A1360344B1B681B68002B04D113
S2144029D0364B4FF0FF321A6008E02F4B1B68DB681F
S2144029E0DB68BB60BB685B68304A1360294B1A687B
S2144029F02E4B1B689A4246D3274B1B681B68002BFE
S214402A0004D12A4B4FF0FF321A603CE0224B1B6841
S214402A10DB68DB68BB60BB685B687B601D4B1A6825
S214402A207B689A4203D2214A7B6813602BE0BB68DE
S214402A30043318461E4B9847BB689B6A002B04D04D
S214402A40BB68183318461A4B9847BB68DB6A0122A6
S214402A509A40184B1B681343164A1360BB68DA6AE1
S214402A6013469B0013449B00134A1A44BB68043326
S214402A7019461046114B9847BEE7114B1B68013369
S214402A800F4A1360FFE700BF1037BD4680BD00BF4A
S214402A905895012048950120FC94012048DA4000D2
S214402AA0259A4000009501206495012018010020D9
S214402AB0AD17400050950120A8930120E91640002C
S214402AC05C95012080B586B000AF3B4B1B68002B61
S214402AD003D03A4B01221A606AE0394B9847786136
S214402AE0384B1B68D96C384A12687869821A0A448F
S214402AF0DA64354A7B691360324B1B681A68314B7F
S214402B001B681B6B9A4208D82E4B1A682D4B1B68C5
S214402B103433194610462D4B98472A4B1B681B6B7F
S214402B2014222B4918462B4B98470346002B08D0B7
S214402B30244B1A68234B1B68343319461046234BE4
S214402B409847254B1B68BB60BB68B3FA83F3FB71A1
S214402B50FB79C3F11F033B6120493A6913469B004A
S214402B6013449B000B441B68002B04D140F23E717B
S214402B701B481C4B98473A6913469B0013449B00DE
S214402B80164A1344FB60FB685B685A68FB685A60E9
S214402B90FB685A68FB6808339A4204D1FB685B6856
S214402BA05A68FB685A60FB685B68DB68054A1360D6
S214402BB000BF1837BD4680BD58950120609501205E
S214402BC071024000A49301206C950120919840002A
S214402BD0D8DA400029AC400050950120A893012047
S214402BE048DA4000259A400080B584B000AF78604F
S214402BF039607B68002B04D140F249711B481C4B5E
S214402C0098471C4B1B681833194678681A4B9847E8
S214402C10184B1B6804331846184B98470346002B3E
S214402C200BD1144B1B68DB6A012202FA03F3DA432A
S214402C30134B1B681340124A13603B68B3F1FF3FC7
S214402C4007D10C4B1B68043319460E480E4B984769
S214402C5007E00E4B1A683B681344FB60F8680C4B61
S214402C60984700BF1037BD4680BD00BF48DA4000D9
S214402C70259A4000A493012039174000AD17400024
S214402C805095012030950120E916400048950120D6
S214402C90AD30400080B584B000AF786039607B6866
S214402CA0002B04D140F27F711548164B9847164BBF
S214402CB01B68183319467868144B9847124B1B68A4
S214402CC004331846124B98470346002B0BD10E4B45
S214402CD01B68DB6A012202FA03F3DA430D4B1B68DA
S214402CE013400C4A13600C4B1A683B681344FB6055
S214402CF0F8680A4B984700BF1037BD4680BD00BFF6
S214402D0048DA4000259A4000A4930120E916400086
S214402D10AD1740005095012048950120AD30400049
S214402D2080B584B000AF78607B68DB68DB68BB60EA
S214402D30BB68002B04D140F2B5712048204B984721
S214402D40BB68183318461F4B98471F4B1B68002B11
S214402D501CD1BB68043318461A4B9847BB68DB6ADD
S214402D6001229A40194B1B681343184A1360BB68EC
S214402D70DA6A13469B0013449B00154A1A44BB6804
S214402D80043319461046134B984705E0BB68183382
S214402D90194611480F4B9847BB68DA6A0F4B1B68B9
S214402DA0DB6A9A4202D30123FB6001E00023FB600A
S214402DB0FB6818461037BD4680BD00BF48DA400065
S214402DC0259A4000AD1740005895012050950120A7
S214402DD0A8930120E916400004950120A493012001
S214402DE080B582B000AF78607B68002B04D140F29B
S214402DF0D7710748074B9847074B1A687B681A6095
S214402E00064B1A687B685A6000BF0837BD4680BDCF
S214402E1048DA4000259A40006495012048950120F4
S214402E2080B584B000AF786039607B68002B04D1F1
S214402E3040F2E1712248234B98473B68002B04D16F
S214402E4040F2E2711E481F4B98471F4B98473B681D
S214402E501B68B3F1FF3F02D10023FB6029E07B688B
S214402E601A681A4B1B689A4208D07B685A68184BF7
S214402E701B689A4202D80123FB601AE0144B1A687A
S214402E807B685B68D21A3B681B689A420FD2104B2D
S214402E901A687B685B68D31A3A681268D21A3B682D
S214402EA01A6078680B4B98470023FB6001E00123CB
S214402EB0FB60094B9847FB6818461037BD4680BDF7
S214402EC048DA4000259A4000B11940006495012038
S214402ED048950120E12D4000D119400080B400AF54
S214402EE0034B01221A6000BFBD465DF8047B704765
S214402EF06095012080B582B000AF7860044B98475B
S214402F00044B1B68012BF9D9034B9847F6E700BFE3
S214402F101D304000A89301209519400080B584B02C
S214402F2000AFF860B9607A603B60FB6834330A22D1
S214402F30B9681846164B9847FB68002283F83D2030
S214402F407B680E2B01D90E237B60FB687A68DA62B9
S214402F50FB687A689A64FB68043318460D4B9847BA
S214402F60FB68183318460B4B9847FB68FA681A619B
S214402F707B68C3F10F02FB689A61FB68FA685A6285
S214402F80FB680022DA6400BF1037BD4680BD00BF34
S214402F905DB14000CD16400080B582B000AF002342
S214402FA07B600CE07A6813469B0013449B00124AF1
S214402FB013441846114B98477B6801337B607B6807
S214402FC00E2BEFD90E480D4B98470E480B4B9847A3
S214402FD00D480A4B98470D48084B98470C48074BF6
S214402FE098470C4B064A1A600B4B064A1A6000BFBD
S214402FF00837BD4680BD00BFA89301208D1640000F
S214403000D4940120E89401200495012018950120CD
S21440301030950120FC9401200095012080B582B0B7
S21440302000AF28E0184B9847184B1B68002B0CBF86
S21440303001230023DBB27B60154B98477B68002B4F
S21440304019D1144B9847114BDB68DB683B603B68F3
S21440305004331846104B9847104B1B68013B0F4AE9
S21440306013600F4B1B68013B0D4A13600D4B98478E
S21440307038680D4B98470A4B1B68002BD2D100BFCF
S2144030800837BD4680BD00BFD527400018950120B3
S214403090F1274000B1194000AD174000449501208B
S2144030A02C950120D11940008D31400080B582B06A
S2144030B000AF7860134B1B687A685A60124B1B68E7
S2144030C07A689A4209D2114B1A680E4B1B68043331
S2144030D0194610460E4B984710E00E4B1A68094B9F
S2144030E01B68043319461046094B98470A4B1B6821
S2144030F07A689A4202D2084A7B68136000BF083753
S214403100BD4680BDA493012048950120009501202E
S21440311039174000FC9401201801002080B584B087
S21440312000AF03463960FB805020154B9847F86047
S214403130FB68002B1ED03B68002B06D1FB889B000B
S21440314018460F4B9847034600E03B68FA681363FF
S214403150FB681B6B002B05D1F8680A4B9847002389
S214403160FB6007E0FB68186BFB889B001A46A521AE
S214403170054B9847FB6818461037BD4680BD00BFD4
S214403180E11A4000ED1B4000C1AD400080B582B062
S21440319000AF78607B681B6B1846044B984778688E
S2144031A0024B984700BF0837BD4680BDED1B400028
S2144031B080B483B000AF054B1B687B607B681846C5
S2144031C00C37BD465DF8047B704700BFA4930120D2
S2144031D080B483B000AF0B4B1B68002B02D100239A
S2144031E07B6008E0084B1B68002B02D101237B6004
S2144031F001E002237B607B6818460C37BD465DF8CD
S214403200047B7047549501205895012080B584B0C2
S21440321000AF78607B68FB607B68002B59D0FB680A
S214403220DA6A2E4B1B68DB6A9A4252D22B4B1B68DB
S214403230DB6AC3F10F02FB689A61FB685969FB6859
S214403240DA6A13469B0013449B00254A134499426E
S2144032503AD1FB6804331846224B98470346002B66
S21440326015D1FB68DA6A1E4913469B0013449B003F
S2144032700B441B68002B0AD1FB68DB6A012202FA6A
S21440328003F3DA43184B1B681340174A1360134B7B
S2144032901B68DA6AFB68DA62FB68DB6A01229A40DE
S2144032A0114B1B681343104A1360FB68DA6A1346D7
S2144032B09B0013449B000A4A1A44FB680433194691
S2144032C010460A4B984704E0044B1B68DA6AFB68D2
S2144032D0DA6200BF1037BD4680BD00BFA493012010
S2144032E0A8930120AD17400050950120E9164000F4
S2144032F080B584B000AF78607B68FB607B68002B4D
S21440330044D0FB68DA6AFB689B6C9A423ED0FB6806
S214403310043318461F4B98470346002B15D1FB68CD
S214403320DA6A1D4913469B0013449B000B441B68F6
S214403330002B0AD1FB68DB6A012202FA03F3DA4368
S214403340164B1B681340154A1360FB689A6CFB6863
S214403350DA62FB68DB6AC3F10F02FB689A61FB68BE
S214403360DB6A01229A400D4B1B6813430B4A1360DD
S214403370FB68DA6A13469B0013449B00064A1A44CD
S214403380FB68043319461046054B984700BF103774
S214403390BD4680BDAD174000A89301205095012042
S2144033A0E916400090B587B004AF00237B60114B10
S2144033B09847114B1B68002B0FD000230393002324
S2144033C00293002301930E23009300234FF443728D
S2144033D00A490B480B4CA04778607B68002B03D10A
S2144033E0D7210948094B98477B6818460C37BD4695
S2144033F090BD00BF59394000A0950120ECDA40004E
S214403400A535400091254000F4DA4000259A40005A
S21440341080B586B000AFF860B9607A603B60BB6844
S214403420002B09D100237B61BB68002B21D1E4210E
S2144034301248134B98471CE02820124B9847786157
S2144034407B69002B15D0104B98477B69FA681A6049
S2144034507B69BA689A617B697A68DA617B693A689F
S2144034601A627B693A6A5A627B6904331846074B8C
S21440347098477B6918461837BD4680BDF4DA400049
S214403480259A4000E11A400059394000CD164000C8
S21440349090B589B000AFF860B9607A603B600023B1
S2144034A0FB611A4B1B68002B2AD0BB683B617B68CC
S2144034B07B61FB68BB613B68002B18D1144B984777
S2144034C00346012B09D1114B186807F11001002360
S2144034D03A6B104CA047F86112E00C4B186807F1A5
S2144034E01001002300220B4CA047F86108E0074B70
S2144034F0186807F1100100233A68074CA047F861A6
S214403500FB6918462437BD4690BD00BFA0950120F4
S214403510D1314000F51E40006520400090B587B090
S21440352002AF78603960194B1B68DB68DB68FB606C
S214403530FB6804331846164B9847FB68DB69012B3B
S2144035401CD1FB689A697B68D1187B683A68F86832
S214403550104CA0470346012B10D1002300930023B4
S2144035607A680021F8680C4CA047B860BB68002B0E
S21440357004D140F24F110948094B9847FB685B6AF3
S214403580F868984700BF1437BD4690BD989501200F
S214403590AD174000ED36400091344000F4DA40006C
S2144035A0259A400080B584B000AF786007F10803E4
S2144035B01846054B9847F860BB681946F868034BB1
S2144035C09847034B9847F1E759364000D5354000B9
S2144035D07537400080B584B000AF78603960174BCF
S2144035E0984707F108031846154B9847F860BB689C
S2144035F0002B1DD13B68002B0AD17A68FB689A42A3
S21440360006D8104B9847F96878680F4B984711E0F2
S2144036100E4B18687A68FB68D31A19460C4B9847C5
S214403620084B98470346002B04D10A4B984701E0C5
S214403630044B984700BF1037BD4680BDD527400095
S214403640A1364000F12740001D354000A0950120DE
S2144036502D2540009519400080B485B000AF7860B5
S2144036600E4B1B681B68002B0CBF01230023DBB2EC
S2144036701A467B681A607B681B68002B05D1074B8F
S2144036801B68DB681B68FB6001E00023FB60FB688F
S21440369018461437BD465DF8047B70479895012060
S2144036A080B584B000AF78600D4B9847F8600D4BFE
S2144036B01B68FA689A4208D20A4B1B6818460A4B9F
S2144036C098477B6801221A6002E07B6800221A60F5
S2144036D0044AFB681360FB6818461037BD4680BD39
S2144036E019294000A49501208D38400080B586B049
S2144036F000AFF860B9607A603B6000237B61FB688E
S214403700BA685A60FB68FA681A61BA687B689A4277
S21440371012D87A683B68D21AFB689B699A4202D3F1
S21440372001237B611BE0104B1A68FB680433194683
S21440373010460E4B984712E07A683B689A4206D28B
S214403740BA683B689A4202D301237B6107E0084B84
S2144037501A68FB68043319461046044B98477B6941
S21440376018461837BD4680BD9C9501203917400045
S2144037709895012090B58BB002AF3B1D18463A4B4A
S2144037809847F86160E03B69BB61BB69002B08D095
S214403790BB695B69002B04D0BB6904331846334BC6
S2144037A09847BB68032B4ED801A252F823F000BFBF
S2144037B0C137400049384000133840003F38400089
S2144037C0FA68BB699B69D118FB68FA69B869284CE6
S2144037D0A0470346012B37D1BB695B6AB869984757
S2144037E0BB69DB69012B2FD1FA68BB699B691A4418
S2144037F00023009300230021B8691E4CA04778613F
S2144038007B69002B20D140F226211B481B4B984752
S2144038101AE0FA68BB699A61BB699B69002B04D1C0
S21440382040F233211448154B9847BB699A69FB69A7
S214403830D118FB69FA69B8690D4CA04704E0B8692D
S2144038400F4B984700E000BF0E4B186807F1080181
S214403850002300220C4CA0470346002B93D100BF08
S2144038602437BD4690BD00BFA1364000AD1740008E
S214403870ED36400091344000F4DA4000259A40008E
S214403880ED1B4000A09501202D21400090B58BB047
S21440389002AF78603FE0294B1B68DB681B68FB6122
S2144038A0264B1B68DB68DB68BB61BB690433184684
S2144038B0234B9847BB695B6AB8699847BB69DB6925
S2144038C0012B28D1BB699A69FB6913447B617A69ED
S2144038D0FB699A420ED9BB697A695A60BB69BA6974
S2144038E01A61164B1A68BB69043319461046154BC5
S2144038F0984710E0002300930023FA690021B86936
S214403900114CA04738613B69002B04D140F272212C
S2144039100E480F4B9847094B1B681B68002BBAD1C3
S214403920064B1B68FB600B4B1B68044A1360094A36
S214403930FB68136000BF2437BD4690BD98950120B4
S214403940AD1740003917400091344000F4DA40008B
S214403950259A40009C95012080B500AF0E4B9847B5
S2144039600E4B1B68002B13D10D480E4B98470E4844
S2144039700C4B98470D4B0A4A1A600D4B0A4A1A6080
S21440398000220C2105200B4B98470246034B1A6039
S214403990094B984700BF80BDB1194000A095012053
S2144039A0709501208D164000849501209895012041
S2144039B09C950120591E4000D119400080B584B026
S2144039C000AF0346FB710023FB730020274B98474C
S2144039D0034683F00103DBB2002B01D0002340E016
S2144039E0234B8E221A70224B00225A70204AFB79B3
S2144039F09370FB79FF2B03D11E4B00221A7005E013
S214403A00FB79002B02D11B4B01221A700023BB739B
S214403A100023BB7313E0BB7B154AD35C194616489C
S214403A20164B9847BB7B124AD25CFB7B1146184626
S214403A30134B98470346FB73BB7B0133BB73BB7B7F
S214403A40022BE8D9BB7B0A49FA7BCA54FB7B194652
S214403A500C480A4B98470422054900200A4B9847D1
S214403A60012318461037BD4680BD00BFAD5240000A
S214403A70CCC40120AC95012034DB400071A6400048
S214403A80F59140003CDB4000BD53400080B584B01B
S214403A9000AF0346FB800023FB730020294B98476A
S214403AA0034683F00103DBB2002B01D0002345E040
S214403AB0254B8E221A70244B00225A70224B01222C
S214403AC09A70FB881B029AB2FB881B0A9BB213446F
S214403AD09AB21D4BA3F803201B4B002242F0100263
S214403AE05A7100229A710023BB730023BB7313E004
S214403AF0BB7B154AD35C19461448154B9847BB7B8D
S214403B00114AD25CFB7B11461846124B9847034637
S214403B10FB73BB7B0133BB73BB7B062BE8D9BB7BFC
S214403B200949FA7BCA54FB7B19460B48084B984711
S214403B30082205490020094B9847012318461037AC
S214403B40BD4680BDAD524000CCC4012034DB4000B1
S214403B5071A64000F59140003CDB4000BD5340005C
S214403B6090B583B000AF00237B600020074B98479A
S214403B700346002B06D0064B18683A1D002300214A
S214403B80044CA04700BF0C37BD4690BDAD5040002A
S214403B90A89501206520400090B583B000AF0A4B41
S214403BA07B607B68094A1A607B68094A12885A60BB
S214403BB0084B1868391D00230022074CA04700BF59
S214403BC00C37BD4690BD00BFB0950120CAA001206D
S214403BD0C8A00120240A0020F51E400090B585B0FC
S214403BE000AF78600023BB60594B9847594B9847C5
S214403BF0032200210120584B98470246574B1A6033
S214403C00564B1B68002B06D0544B186800230022E6
S214403C100021534CA047514B1B68002B02D1514802
S214403C20514B98474D4B186800234FF0FF32002108
S214403C304E4CA0474FF4A05200214D484D4B98475C
S214403C400023BB604C4B984700204C4B9847B860CD
S214403C50BA68474900204A4B98474A4B9847B96844
S214403C604948414B9847494B1B78012B52D8002373
S214403C70FB8109E0FB893E4AD35C194644483A4BEF
S214403C809847FB890133FB81FA89BB689A42F1D396
S214403C904048354B9847364B1B788E2BC2D1344B19
S214403CA05B78012B19D1324B9B78002BBAD1374B1E
S214403CB01B78002B06D138482B4B98470020374BB3
S214403CC09847AFE7314B1B78012BABD13448264B96
S214403CD098470020334B9847A4E7254B5B78022B48
S214403CE0A0D1BB68062B9DD1214B1B791B021AB273
S214403CF01F4B5B791BB213431BB29AB22A4B1A80F6
S214403D00294B1B8819462948174B98471F4B0222B8
S214403D101A7087E7244B1B881A46BB689A4203D919
S214403D202348114B98477DE741F201020021214884
S214403D30104B98471C4B1B881A460D491D481E4B76
S214403D4098471E48084B98471D4B98476AE700BF60
S214403D50A13E4000295E4000591E4000A895012023
S214403D60F51E400044DB400071A640002D21400077
S214403D70CCB00120C1AD4000B1194000D950400040
S214403D80D9514000D11940007CDB4000AC95012061
S214403D9034DB400094DB400098DB4000BD394000F7
S214403DA0ACDB40008D3A4000C8A00120C8DB400094
S214403DB0E8DB4000CAA001208DAC400008DC400093
S214403DC0993B400080B48BB000AF78600B46FB70E8
S214403DD07B687B62FB7887F823307B6AFB61FB69F4
S214403DE0BB61BB695B097B617B6903F5001303F22A
S214403DF007735B023B6197F82330002B09D07B6A40
S214403E00FB60FB6803F01F0301229A403B691A637C
S214403E1008E07B6ABB60BB6803F01F0301229A4040
S214403E203B695A6300BF2C37BD465DF8047B70473C
S214403E3080B48BB000AF78607B687B627B6A3B6205
S214403E403B6AFB61FB695B09BB61BB6903F5001319
S214403E5003F207735B027B617B6A3B613B6903F05D
S214403E601F03012202FA03F3FB607B69DA6B7B6A6D
S214403E70BB60BB6803F01F03012101FA03F3134044
S214403E80002B03D07B69FA685A6302E07B69FA68C4
S214403E901A6300BF2C37BD465DF8047B704700BFF1
S214403EA080B400AF00BFBD465DF8047B704700BFDE
S214403EB080B582B000AF78600B46FB70FB7883F02D
S214403EC00103DBB2002B06D001211E20044B98478D
S214403ED0044B07221A7000BF0837BD4680BD00BF9E
S214403EE0C53D40001C01002080B584B000AF78601E
S214403EF00B46FB701E4AFB7813707B68DB7C012BFD
S214403F0008D0022B0ED11B4B32221A801A481B4B6C
S214403F1098470FE0174B4FF47A721A801848174BA1
S214403F20984707E0134B4FF4FA621A801548134B34
S214403F30984700BF0E4B1B78002B15D1124A07F14D
S214403F400803106818609188927999809A710F4B8F
S214403F50984707F1080318460D4B984707F10803A2
S214403F60194600200B4B984700BF1037BD4680BD12
S214403F701C010020BC95012020DC400071A64000BA
S214403F803CDC400058DC400074DC400085A2400029
S214403F9075A140005950400080B400AF00BFBD46F8
S214403FA05DF8047B704700BF80B500AF0F4B1B78B1
S214403FB0002B18D10E4B1B8801339AB20C4B1A803B
S214403FC00B4B1A880B4B1B889A420CD9084B002285
S214403FD01A80094B1B7883F00103DBB2002B02D01A
S214403FE01E20064B984700BF80BD00BF1C01002026
S214403FF0C0950120BC950120BE950120313E400071
S21440400080B500AF054B01221A700548054B98470E
S21440401001211E20044B984700BF80BDBE9501205D
S2144040207CDC400071A64000C53D400080B400AF37
S214404030034B00221A7000BFBD465DF8047B7047F4
S214404040BE95012080B500AF054B01221A70054889
S214404050054B984701211E20044B984700BF80BD62
S214404060BE95012090DC400071A64000C53D400052
S21440407080B400AF034B00221A7000BFBD465DF807
S214404080047B7047BE95012080B400AF00BFBD469C
S2144040905DF8047B704700BF80B400AF00BFBD46EC
S2144040A05DF8047B704700BF80B582B000AF786093
S2144040B07B68072B31D801A252F823F01941400003
S2144040C0DD404000E5404000ED404000F540400007
S2144040D0FD404000054140000F4140000020114B8C
S2144040E098471AE001200F4B984716E000200E4BE9
S2144040F0984712E010200C4B98470EE020200A4BC1
S21440410098470AE03E210020084B984705E03E21AC
S2144041100120064B984700E000BF00BF0837BD4669
S21440412080BD00BFF968400065694000D569400021
S21440413080B582B000AF78607B68072B26D801A296
S21440414052F823F065414000694140006941400013
S2144041507B4140007B4140007B4140007B4140002A
S2144041607B414000012312E00B4B98470346002B4F
S21440417014BF01230023DBB209E0084B98470346EF
S214404180002B14BF01230023DBB200E000231846B7
S2144041900837BD4680BD00BF316940004D6A4000CB
S2144041A080B483B000AF78607B68072B25D801A227
S2144041B052F823F0D5414000DB414000E141400049
S2144041C0E7414000EB414000EF414000F3414000F2
S2144041D0F74140004FF4FA4310E04FF400430DE03F
S2144041E04FF400430AE0084B08E0084B06E0084B53
S2144041F004E0002302E0002300E0002318460C37CA
S214404200BD465DF8047B704700127A000024F40037
S21440421000366E0180B582B000AF0346FB7100BF2A
S214404220FB791846054B9847034683F00103DBB2FB
S214404230002BF5D100BF0837BD4680BD3141400058
S21440424080B586B000AFF8607A603B600B46FB7284
S214404250FB7A18460D4B984702467B68B2FBF3F351
S2144042607B617B693A6802FB03F37B613B68013BF9
S2144042701A04074B13407A68D2B2134343F47C5275
S214404280FB681A6000BF1837BD4680BDA14140009C
S2144042900000FF1F80B582B000AF786039603B6891
S2144042A0002B06D1084B9847084A7B681B689362E8
S2144042B005E0074B9847054A7B681B68D36200BFFA
S2144042C00837BD4680BD00BF696A400000040E4006
S2144042D09D6A400080B582B000AF78607B68002B56
S2144042E003D1084B9847034607E07B68012B03D170
S2144042F0054B9847034600E0002318460837BD465E
S21440430080BD00BF816A4000B56A400080B582B07B
S21440431000AF0346FB71FB790033012B08D8FB79CD
S2144043201846064B9847FB791846054B984700E0D9
S21440433000BF00BF0837BD4680BD00BFA940400053
S2144043401542400080B582B000AF786000BF786804
S214404350044B98470346002BF9D0002318460837ED
S214404360BD4680BDD542400080B500AF0120044B1D
S2144043709847024640F6723303FB02F3184680BD68
S214404380A141400080B500AF024B9847034618460F
S21440439080BD00BF6943400090B583B000AF0120A8
S2144043A00C4B9847384640F2B953012201210A4C3B
S2144043B0A0473B4601211846084B98470120084B2A
S2144043C098470020074B9847074B984700BF0C3745
S2144043D0BD4690BD0D4340004142400095424000DE
S2144043E045434000FD6B4000256C400090B5A7B0AB
S2144043F002AF2148214B98470120214B984707F1AF
S214404400080040F67233012201211E4CA04707F1F6
S2144044100803002118461C4B984700201B4B984722
S21440442000201B4B98471B4B98471B4B984703460F
S2144044301846124B9847194B1B68194A934217D88F
S214404440164B1B68174A934212D907F10C022023D9
S214404450009313460F220E211348144CA047FB6CC2
S2144044609BB2C7F88C30D7F88C101148114B984740
S21440447000BF9437BD4690BD000E27079990400078
S2144044800D434000414240009542400045434000B5
S21440449075684000718F400085434000340100201D
S2144044A0C0EF0B083F2C4206000A0E400D000020CD
S2144044B010140E403D6C400080B483B000AFEFF364
S2144044C010833B603B68002B0CBF01230023DBB20C
S2144044D07B6072B6BFF35F8F044B00221A707B6816
S2144044E018460C37BD465DF8047B70473001002007
S2144044F080B483B000AF78607B68002B14BF012384
S2144045000023DBB218460C37BD465DF8047B704787
S21440451080B582B000AF78607868074B984703460E
S214404520002B05D0054B01221A70BFF35F8F62B691
S21440453000BF0837BD4680BDF14440003001002032
S21440454080B588B000AF786000233B61A14B1B6804
S214404550002B01D00523F7E17B685B699A78DB780E
S2144045601B021343BB837B685B697B61994B0022CC
S2144045701A7321E07B695B78042B11D17B695B79E8
S214404580022B0DD17B699B79022B09D17B69DB79A4
S214404590012B05D88F4B1B7B0133DAB28D4B1A7338
S2144045A07B691B789BB2BA8BD31ABB837B691B781B
S2144045B01A467B6913447B61BB8B002BDAD1854B53
S2144045C01B7B002B01D10123BEE1824B1B7B1A468D
S2144045D013461B019B1A9B0018467F4B9847034681
S2144045E01A467C4B9A607B4B9B68002B01D1052377
S2144045F0AAE10023BB7653E0764B9968BA7E134611
S2144046001B019B1A9B000B4400225A72714B9968FF
S214404610BA7E13461B019B1A9B000B44FF221A725C
S2144046206C4B9968BA7E13461B019B1A9B000B4441
S21440463000221A73674B9968BA7E13461B019B1A71
S2144046409B000B4400229A61624B9968BA7E1346DF
S2144046501B019B1A9B000B4400221A625D4B996813
S214404660BA7E13461B019B1A9B000B44002283F81C
S2144046702420584B9968BA7E13461B019B1A9B0010
S2144046800B4400221A63534B9968BA7E13461B01AB
S2144046909B1A9B000B4400229A63BB7E0133BB7679
S2144046A04C4B1B7BBA7E9A42A6D37B685B699A7852
S2144046B0DB781B021343BB837B685B697B6100230B
S2144046C0FB770023BB770023FB7601E17B695B78B1
S2144046D0052B6CD0242B59D0042B40F0ED807B6901
S2144046E05B79022B1AD17B699B79022B16D17B69A9
S2144046F0DB79012B12D80123FB77364B9A68FB7E79
S214404700591CF97619460B461B015B1A9B0013444D
S2144047103B617B699A783B69DA7101E00023FB775D
S2144047207B695B790A2B2DD17B699B79002B29D13C
S2144047307B69DB79002B25D10023BB761BE0254B1C
S2144047409968BA7E13461B019B1A9B000B443B613B
S2144047503B691B7AFF2B02D10123BB7711E03B69F3
S2144047601A7A7B699B789A4202D10123BB7708E08C
S214404770BB7E0133BB76174B1B7BBA7E9A42DED399
S21440478003E002E00023BB7796E095E0FB7F83F0F2
S2144047900103DBB2002B40F08A807B699B78012BBB
S2144047A040F087807B691A793B691A7281E0FB7F0B
S2144047B0002B1BD07B689B7C79691846074B984733
S2144047C0034683F00103DBB2002B0BD0044B984723
S2144047D00423B9E0C495012099A64000098640000C
S2144047E0314A40007B699A783B695A72BB7F002BFE
S2144047F061D07B689B7C79691846554B9847034641
S21440480083F00103DBB2002B03D0524B98470423BE
S2144048109AE07B699B785BB2002B03DA3B690C33EA
S214404820FB6002E03B692433FB607B699A78FB6857
S2144048301A70FB6800225A70FB6800221A717B6966
S2144048409B889BB2B3F5A05F38BF4FF4A0537B81E3
S214404850FB687A89DA80FB6800221A81FB680022AE
S2144048605A817B8918463C4B984703461A46FB6854
S214404870DA60FB68DB68002B03D1364B984705238C
S21440488062E0FB6800221A82FB6800225A827B891B
S2144048901846314B984703461A46FB685A61FB68F0
S2144048A05B69002B07D12B4B984705234CE000BF94
S2144048B002E000BF00E000BF7B691B789BB2BA8B6A
S2144048C0D31ABB837B691B781A467B6913447B618A
S2144048D0BB8B002B7FF4FAAE0023BB7628E01F4B41
S2144048E09968BA7E13461B019B1A9B000B445B7A61
S2144048F0002B16D0194B9968BA7E13461B019B1A9B
S2144049009B000B441B7B002B0BD0144B9968BA7E44
S21440491013461B019B1A9B000B4493F82430002B34
S21440492003D10C4B984701230EE0BB7E0133BB7688
S2144049300A4B1B7BBA7E9A42D1D3084B00221A718F
S214404940064A7B681360002318462037BD4680BD64
S21440495009864000314A400099A64000C49501208F
S21440496080B582B000AF7860074B1A687B689A4281
S21440497006D1054B01221A710020044B984700E0EF
S21440498000BF0837BD4680BDC4950120C1494000E0
S21440499080B582B000AF7860074B1A687B689A4251
S2144049A005D1054B00221A60044B984700E000BF33
S2144049B00837BD4680BD00BFC4950120314A40003F
S2144049C080B584B000AF0346FB710023FB73144BE5
S2144049D01B68002B1BD0124B1B7983F00103DBB204
S2144049E0002B16D1FB7B5A1CFA7318460D4B984782
S2144049F0B860BB68002B0ED0BB680C3318460A4B19
S214404A009847BB6824331846084B9847EAE700BFE8
S214404A1002E000BF00E000BF1037BD4680BD00BFCB
S214404A20C4950120294B4000714C4000854E400003
S214404A3080B582B000AF3A4B9B68002B6CD0002309
S214404A40FB715EE0364B9968FA7913461B019B1A58
S214404A509B000B449B69002B0BD0314B9968FA792D
S214404A6013461B019B1A9B000B449B6918462D4B13
S214404A7098472B4B9968FA7913461B019B1A9B0063
S214404A800B441B6A002B0BD0254B9968FA791346CA
S214404A901B019B1A9B000B441B6A1846214B9847E8
S214404AA01F4B9968FA7913461B019B1A9B000B44CF
S214404AB01B6B002B0BD01A4B9968FA7913461B01D7
S214404AC09B1A9B000B441B6B1846164B9847144B7F
S214404AD09968FA7913461B019B1A9B000B449B6B03
S214404AE0002B0BD00E4B9968FA7913461B019B1A84
S214404AF09B000B449B6B18460A4B9847FB79013347
S214404B00FB71074B1B7BFA799A429BD3044B9B68FD
S214404B101846044B984700E000BF0837BD4680BDA6
S214404B20C4950120A9A6400080B483B000AF0346D8
S214404B30FB710D4B1B68002B01D100230EE00A4B86
S214404B401B7BFA799A4201D3002307E0064B99680B
S214404B50FA7913461B019B1A9B000B4418460C37E8
S214404B60BD465DF8047B7047C495012090B589B07A
S214404B7002AF03463960FB71FB791846194B9847DC
S214404B8078617B69002B01D1002327E07B690722EF
S214404B9039681846144B984721233B7320237B7370
S214404BA00023FB817B69DB799BB23B8207237B82B8
S214404BB00E4B1B68987C7A6907F10C010023019321
S214404BC00023009307230A4CA047034683F00103C3
S214404BD0DBB2002B01D0002300E0012318461C372F
S214404BE0BD4690BD294B40008DAC4000C495012089
S214404BF01D87400090B589B002AF03460A46FB7158
S214404C001346BB80FB791846164B984778617B69FC
S214404C10002B01D1002321E021233B7322237B7309
S214404C20BB88FB817B69DB799BB23B8200237B821E
S214404C300D4B1B68987C07F10C0100230193002361
S214404C40009300230022094CA047034683F001034B
S214404C50DBB2002B01D0002300E0012318461C37AE
S214404C60BD4690BD294B4000C49501201D8740009D
S214404C7090B58BB004AF7860434B984738617B68FB
S214404C805B78002B04D03869404B9847002377E088
S214404C907B681B79DBB20133DB007A681344FB6028
S214404CA07B681B79DBB2002B0CBF01230023DBB2F1
S214404CB00133DB007A6813447B61FB681A88FB6823
S214404CC05B889A4205D3FB6800221A80FB68002264
S214404CD05A80FB685B88002B12D17B695B88002B6F
S214404CE00ED07B681B79DBB2002B0CBF0123002360
S214404CF0DBB21A467B681A71FB687B61244B984787
S214404D007B695B88002B04D03869204B984700238A
S214404D1036E0204B1B68DB7C022B0BD17B685C8823
S214404D201D4B984703469C4210D13869174B98470D
S214404D30002325E07B685C88184B984703469C42D6
S214404D4004D13869114B9847002319E07B6801224B
S214404D505A7038690D4B98470E4B1B68987C7B6899
S214404D6019787B695A687B68DB881C460C4B029333
S214404D700A2301930094134601220A4CA047034697
S214404D8018461C37BD4690BDB9444000114540000A
S214404D90613B4000C4950120358540002185400098
S214404DA0A94D40006588400080B586B000AF3B60A6
S214404DB00346FB710B46BB7113467B710023FB75A4
S214404DC0FB7D5A1CFA751846294B984738613B6953
S214404DD0002B49D03B690C33FB60FB681B78BA79E3
S214404DE09A4200D0ECE700BF7B79072B02D13B68A4
S214404DF0002B06D17B79002B03D0FB6800225A702B
S214404E0033E0FB68DB881A463B689A4211D0194B60
S214404E101B68DB7C022B06D1174B984703461A4685
S214404E20FB685A8005E0154B984703461A46FB68D0
S214404E305A80FB681B79DBB2002B0CBF0123002392
S214404E40DBB20133DB00FA681344BB60BB68002268
S214404E501A803B689AB2BB685A80FB6800225A7038
S214404E60F868074B984700E000BF1837BD4680BD3E
S214404E70294B4000C49501203585400021854000DF
S214404E80714C400090B589B004AF7860314B98477C
S214404E90F8607B685B78002B04D0F8682E4B984708
S214404EA0002353E02D4B1B68DB7C022B0BD17B6829
S214404EB05C882B4B984703469C4210D1F868264B9B
S214404EC09847002342E07B685C88264B9847034619
S214404ED09C4204D1F868204B9847002336E07B6814
S214404EE01B79DBB20133DB007A681344BB60BB68D6
S214404EF05B88002B04D1F868174B9847002325E0C1
S214404F007B681B79DBB2002B0CBF01230023DBB28E
S214404F101A467B681A717B6801225A70F8680E4BF5
S214404F2098470E4B1B68987C7B681978BB685A6814
S214404F30BB685B881C460C4B02934FF47A73019314
S214404F40009413460122094CA047034618461437DE
S214404F50BD4690BDB944400011454000C49501206F
S214404F603585400021854000714F400065884000EF
S214404F7080B588B000AF3B600346FB710B46BB7103
S214404F8013467B710023FB772C4B9847B861FB7F19
S214404F905A1CFA7718462A4B984778617B69002B4B
S214404FA003D1B869274B984744E07B6924333B617B
S214404FB03B691B78BA799A4200D0E8E700BF7B7914
S214404FC0002B06D03B6900225A70B8691D4B9847A3
S214404FD030E03B69DB881A463B689A4211D01A4B50
S214404FE01B68DB7C022B06D1184B984703461A46B3
S214404FF03B695A8005E0164B984703461A463B697C
S2144050005A803B691B79DBB2002B0CBF012300237F
S214405010DBB20133DB003A691344FB60FB680022D5
S2144050205A803B6900225A70B869064B98473869DF
S214405030084B98472037BD4680BD00BFB944400066
S214405040294B400011454000C4950120358540005D
S21440505021854000854E400080B582B000AF0346B3
S2144050603960FB71FB79396818460E4B9847034602
S21440507083F00103DBB2002B01D000230DE0FB7967
S21440508001211846084B9847034683F00103DBB2DC
S214405090002B01D0002300E0012318460837BD4608
S2144050A080BD00BF6D4B4000F54B400080B582B0E0
S2144050B000AF0346FB71FB791846064B98470346FC
S2144050C0002B14BF01230023DBB218460837BD4629
S2144050D080BD00BFD950400080B584B000AF0346C5
S2144050E0FB71FB7918460D4B9847F860FB68002B20
S2144050F001D100230EE0FB681B7CDBB20233DB00F1
S214405100FA6813440433BB60BB685B881A46BB68C6
S2144051101B88D31A18461037BD4680BD294B400021
S21440512080B588B000AF0346FB710023FB61FB7976
S2144051301846274B984778617B69002B01D100239E
S21440514042E07B690C333B617B699B79092B0CBF42
S21440515001230023FB763B691B79DBB20133DB007E
S2144051603A691344FB6000BFFB681A88FB685B889B
S2144051709A420CD3FB791846154B98470346002BAA
S21440518001D1002320E03869124B9847E3E7FB68DB
S2144051905B68FA68128813441B781A46FB69134307
S2144051A0FB61FB681B8801339AB2FB681A8038693A
S2144051B0084B9847FB7E002B05D00023FB76FB6907
S2144051C01B02FB61C7E7FB6918462037BD4680BD1A
S2144051D0294B4000714C400080B588B000AF034674
S2144051E0B9607A60FB73FB7B18462D4B9847B861D5
S2144051F0BB69002B01D100234DE0BB690C337B61BA
S2144052007B691B79DBB20133DB007A6913443B616F
S21440521000BF3B691A883B695B889A420CD3FB7B8C
S21440522018461F4B98470346002B01D1002332E017
S21440523078691C4B9847E3E73B695B881A463B69AD
S2144052401B88D31AFB61FA697B689A4201D97B684E
S214405250FB613B695B683A6912881344FA691946F0
S214405260B868114B98473B691A88FB699BB2134450
S2144052709AB23B691A80BA68FB691344BB607A6885
S214405280FB69D31A7B607869064B98477B68002B8E
S21440529000D0B5E7002318462037BD4680BD00BF86
S2144052A0294B4000714C40008DAC400080B584B026
S2144052B000AF0346FB71FB7918460F4B9847F860E2
S2144052C0FB68002B01D1002311E0FB682433BB6050
S2144052D0BB68DA88BB681B79DBB2B9680133DB0090
S2144052E00B445B889A4214BF01230023DBB2184666
S2144052F01037BD4680BD00BF294B400080B588B002
S21440530000AF03463960FB71FB791846284B984737
S214405310B861BB69002B01D1002345E0BB6924334B
S2144053207B61BB699B79092B0CBF01230023FB776C
S2144053307B691B79DBB20133DB007A6913443B613E
S21440534000BF7B69DA883B695B889A4208D1FB7963
S2144053501846174B98470346002BE9D1002323E015
S214405360144B9847F8607B691B79DBB20133DB004E
S2144053707A6913443B613B695A683B695B88591CB0
S21440538088B23969488013443A68D2B21A70F868CD
S214405390094B9847FB7F002B05D00023FB773B68E3
S2144053A01B123B60C4E7012318462037BD4680BD2C
S2144053B0294B4000B94440001145400080B58AB0B2
S2144053C000AF0346B9607A60FB73FB7B1846344BEC
S2144053D0984738623B6A002B01D100235BE03B6A6A
S2144053E02433FB613B6A9B79092B02D17B685B00C7
S2144053F07B60FB691B79DBB20133DB00FA6913443F
S214405400BB6100BFFB69DA88BB695B889A4208D1FA
S214405410FB7B1846224B98470346002BE9D10023D6
S21440542039E0204B98477861FB691B79DBB2013342
S214405430DB00FA691344BB61FB69DB881A46BB692B
S2144054405B88D31A7B627A6A7B689A4201D97B680A
S2144054507B62BB695B68BA69528813447A6AB968EA
S2144054601846114B9847BB695A887B6A9BB21344CF
S2144054709AB2BB695A8078690C4B9847BA687B6A7F
S2144054801344BB607A687B6AD31A7B607B68002BC8
S21440549000D0AEE7002318462837BD4680BD00BF83
S2144054A0294B4000B94440008DAC400011454000B7
S2144054B080B483B000AF03463960FB71054A3B6851
S2144054C01360054AFB79137000BF0C37BD465DF884
S2144054D0047B7047F09501203AC5012080B500AFA7
S2144054E0014B984700BF80BD6985400080B582B0BB
S2144054F000AF78607868034B984700BF0837BD46D2
S21440550080BD00BF4585400080B584B000AF0346EF
S2144055103960FB71FB79002B0FD0214B01221A70AA
S214405520204B00225A611F4B00229A7401211D48CD
S2144055301D4B98471D4B98472DE03B68194A9342B0
S21440554002D11B4B00221A703B689B7CFF211846F9
S214405550184B98470023FB730AE0FB7B164A1B0157
S214405560134408331B6838689847FB7B0133FB734A
S214405570FB7B002BF1D0002138680B4B98473B68EB
S214405580FF229A743B685B69002B04D03B685B69DA
S21440559018460A4B984700BF1037BD4680BD00BF2F
S2144055A0EC950120D4950120B13E4000C155400005
S2144055B03AC50120F986400020010020A9A64000F7
S2144055C080B500AF0248034B984700BF80BD00BF80
S2144055D0D9554000ED54400080B500AF0249142034
S2144055E0024B984700BF80BDF1554000B154400083
S2144055F080B500AF0248034B984700BF80BD00BF50
S21440560009564000ED54400080B500AF054B984722
S21440561003461A46044BDA7404496420044B984700
S21440562000BF80BDF9844000D49501203556400027
S214405630B154400090B585B002AF80233B7006233E
S2144056407B704FF480737B800023BB800823FB80F5
S21440565000210020134B984740210020124B9847CA
S214405660034683F00103DBB2002B03D004200F4B2C
S214405670984713E039460E4B0193002300931223BC
S2144056800C4A00200C4CA047034683F00103DBB2D3
S214405690002B03D00620054B984700BF0C37BD466D
S2144056A090BD00BFF986400081854000615C4000A7
S2144056B0BD564000D49501201D87400080B582B07D
S2144056C000AF0346FB710B46BB711346BB80BB79EC
S2144056D0002B06D1BB88072B03D90A4B5B78012BDE
S2144056E009D0BB79012B01D1072300E003231846DC
S2144056F0054B984703E005491420054B9847083763
S214405700BD4680BDD4950120615C400015574000E1
S214405710B154400080B500AF0248034B984700BFE5
S21440572080BD00BF2D574000ED54400080B500AF0F
S21440573002496420024B984700BF80BD4557400051
S214405740B154400090B585B002AF00233B700523AE
S2144057507B7001237B80194B01229A740023BB8007
S2144057600023FB8000210020154B9847134BDB7924
S21440577019460020134B9847034683F00103DBB2DB
S214405780002B03D00420104B984713E039460F4BAC
S2144057900193002300931223084A00200C4CA04794
S2144057A0034683F00103DBB2002B03D00620064BF2
S2144057B0984700BF0C37BD4690BD00BFD49501202A
S2144057C0F986400081854000615C4000D557400026
S2144057D01D87400080B582B000AF0346FB710B4684
S2144057E0BB711346BB80BB79002B09D0BB79012B1C
S2144057F001D1072300E003231846054B984703E0F2
S21440580004491420044B98470837BD4680BD00BF66
S214405810615C40001D584000B154400090B585B0D2
S21440582002AF002100201A4B98471A4BDB791946E5
S2144058300120194B9847034683F00103DBB2002B47
S21440584003D00420154B98471EE080233B70062368
S2144058507B704FF480737B800023BB801223FB80D9
S21440586039460F4B0193002300931223094A012027
S2144058700C4CA047034683F00103DBB2002B03D059
S2144058800620064B984700BF0C37BD4690BD00BF6C
S214405890F9864000D495012081854000615C400037
S2144058A0A95840001D87400090B589B002AF034616
S2144058B0FB710B46BB711346BB80BB79002B06D1F0
S2144058C0BB88122B03D1284B5B78012B09D0BB79C0
