S0100000484F53545F5553422E737265638D
S21440000080E601208D7240005D7340005D734000C5
S2144000105D7340005D7340005D734000000000006B
S21440002000000000000000000000000061054000E5
S2144000305D7340000000000061064000A17C400067
S2144000405D7340005D7340005D7340005D7340002B
S2144000505D7340005D7340005D7340003D8A400024
S2144000605D7340005D73400000000000B54C4000EA
S214400070CD4C40005D7340005D7340005D734000B2
S2144000805D7340005D7340005D734000A98440008E
S2144000905D7340005D7340005D7340005D734000DB
S2144000A05D7340005D7340005D7340005D734000CB
S2144000B05D7340005D7340005D73400000000000CB
S2144000C000000000000000000000000000000000EB
S2144000D000000000000000000000000000000000DB
S2144000E000000000000000000000000000000000CB
S2144000F000000000000000000000000075624000A4
S2144001005D7340005D73400000000000000000008A
S214400110000000000000000000000000000000009A
S214400120000000000000000000000000000000008A
S214400130000000000000000000000000000000007A
S214400140000000000000000010B5054C237833B9CD
S214400150044B13B10448AFF300800123237010BD55
S214400160000A002000000000CCC14000084B10B53B
S2144001701BB108480849AFF300800848036803B934
S21440018010BD074B002BFBD0BDE81040184700BF02
S21440019000000000CCC14000040A0020CCC1400052
S2144001A00000000080B586B000AFF860B9607A60A5
S2144001B000237B61FB68002B02D04FF0FF3314E036
S2144001C00FE00C4B1B680C4A12681046B9689847FB
S2144001D0BB680133BB607B6901337B617B68013B55
S2144001E07B607B68002BECDC7B6918461837BD4685
S2144001F080BD00BF60DC002068DC002080B586B093
S21440020000AFF860B9607A6000237B61FB68012B21
S21440021008D0FB68022B05D0FB68032B02D04FF0BA
S214400220FF331AE015E00F4B1A680F4B1868BB688F
S214400230591CB9601B78194690470346002B02DAD2
S2144002404FF0FF3309E07B6901337B617B68013BFC
S2144002507B607B68002BE6D17B6918461837BD4625
S21440026080BD00BF64DC002068DC002080B485B020
S21440027000AFF860B9607A60BB68002B07D0BB68F7
S2144002801A68FB689A60BB685A68FB68DA607B68E5
S214400290002B07D07B681A68FB689A617B685A68AF
S2144002A0FB68DA611437BD465DF8047B704700BFD3
S2144002B080B483B000AF786039603A6840F201138A
S2144002C013407A6813620C37BD465DF8047B70476E
S2144002D080B483B000AF786039603A6840F2022359
S2144002E013407A6813620C37BD465DF8047B70474E
S2144002F080B483B000AF78607B6803F108027B6807
S2144003005A607B684FF0FF329A607B6803F10802C0
S2144003107B68DA607B6803F108027B681A617B6859
S21440032000221A600C37BD465DF8047B704700BF5C
S21440033080B483B000AF78607B6800221A610C37C7
S214400340BD465DF8047B704780B485B000AF7860EA
S21440035039607B685B68FB60FB685A683B685A603C
S2144003607B685A683B689A60FB685B683A689A6044
S214400370FB683A685A607B683A685A603B687A68B5
S2144003801A617B681B685A1C7B681A601437BD4626
S2144003905DF8047B704700BF80B485B000AF7860DE
S2144003A039603B681B68BB60BB68B3F1FF3F03D155
S2144003B07B681B69FB600CE07B680833FB6002E0EF
S2144003C0FB685B68FB60FB685B681A68BB689A42C0
S2144003D0F6D9FB685A683B685A603B685B683A687F
S2144003E09A603B68FA689A60FB683A685A603B686D
S2144003F07A681A617B681B685A1C7B681A601437D7
S214400400BD465DF8047B704780B485B000AF786029
S2144004107B685B687A6892689A607B689B687A6853
S21440042052685A607B681B69FB60FB685A687B6849
S2144004309A4203D17B689A68FB685A607B680022C0
S2144004401A61FB681B685A1EFB681A60FB681B68CB
S21440045018461437BD465DF8047B704780B483B0B9
S21440046000AF78607B68072B25D801A252F823F0AE
S21440047091044000970440009D044000A3044000BF
S214400480A7044000AB044000AF044000B304400063
S2144004904FF4FA4310E04FF400430DE04FF40043AE
S2144004A00AE0084B08E0084B06E0084B04E000234F
S2144004B002E0002300E0002318460C37BD465DF8F6
S2144004C0047B704700127A000024F40000366E0168
S2144004D080B500AF0120044B9847024640F6723381
S2144004E003FB02F3184680BD5D04400080B500AFB4
S2144004F0024B98470346184680BD00BFD1044000D3
S21440050080B485B000AFF860B9607A60FB68043BA1
S214400510FB60FB684FF080721A60FB68043BFB6030
S214400520BA68FB681A60FB68043BFB60FB68002205
S2144005301A60FB68143BFB607A68FB681A60FB68CD
S214400540043BFB60FB686FF002021A60FB68203BCE
S214400550FB60FB6818461437BD465DF8047B704761
S214400560054B19680868B0E8F04F80F309884FF0EB
S214400570000080F3118870472CAA002003480068CA
S214400580006880F3088862B600DF00BF08ED00E030
S21440059080B500AF0E4A0E4B1B6843F470031360E1
S2144005A00B4A0B4B1B6843F070431360094B98474C
S2144005B0094B00221A60094B9847094A084B1B68AA
S2144005C043F040431360074B98470023184680BDCE
S2144005D020ED00E0DD064000100100200D07400041
S2144005E034EF00E07D05400080B400AF034B4FF091
S2144005F080521A60BD465DF8047B704704ED00E00B
S21440060080B500AF034B9847034B1B680133024A43
S214400610136080BD450640001001002080B500AF45
S214400620064B1B68013B054A1360044B1B68002BB6
S21440063002D10020024B984780BD00BF1001002029
S21440064059064000EFF311804FF0A00181F3118866
S21440065070470023184600BF80F31188704700BFDC
S214400660EFF30980114B1A681EF0100F08BF20EDFB
S214400670108A20E9F04F10602DE908404FF0A000A6
S21440068080F3118800F0FEFF4FF0000080F31188E1
S214400690BDE8084019680868B0E8F04F1EF0100F33
S2144006A008BFB0EC108A80F3098870472CAA002057
S2144006B080B500AF054B4FF080521A60044B984708
S2144006C0044B98470020044B984780BD04ED00E05B
S2144006D0450640003D1540005906400098B500AF1D
S2144006E0064C074B98470246064BA3FB02239B0942
S2144006F0013B2360044B07221A6098BD14E000E0DB
S214400700ED044000D34D621010E000E0DFF80C002E
S214400710016841F4700101607047000088ED00E018
S21440072080B586B000AF78600023FB60374B9847B3
S214400730374B1B68002B01D1364B98477B68002B04
S2144007400ED010231A467B6813447B607B6803F008
S2144007500703002B04D07B6823F0070308337B6035
S2144007607B68002B45D04FF420427B68934240D2B2
S214400770294B3B61284B1B687B6104E07B693B61EE
S2144007807B691B687B617B695A687B689A4203D2A7
S2144007907B691B68002BF1D11D4B1B687A699A4216
S2144007A027D03B691B6810221344FB607B691A689C
S2144007B03B691A607B695A687B68D31A10225200DC
S2144007C093420FD97A697B681344BB607B695A6849
S2144007D07B68D21ABB685A607B697A685A60B86888
S2144007E00E4B98470E4B1A687B695B68D31A0C4AC7
S2144007F013600C4B9847FB68002B01D10A4B984777
S214400800FB6818461837BD4680BD00BFD51340006C
S21440081028AA00208108400020AA00201109400094
S21440082014010020F1134000B17C400080B584B034
S21440083000AF78607B68FB607B68002B14D0102389
S2144008405B42FA681344FB60FB68BB60084B984702
S214400850BB685A68074B1B681344064A1360B8685F
S214400860054B9847054B98471037BD4680BD00BF9F
S214400870D51340001401002011094000F113400038
S21440088080B582B000AF1D4B1D4A1A601B4B00223C
S2144008905A604FF420421A4B13447B6010235B424D
S2144008A07A6813447B60174A7B681360154B1B6855
S2144008B003F00703002B03D0134B984700BFFDE718
S2144008C0104B1B6800225A600E4B1B6800221A60B1
S2144008D00B4B3B604FF4204310229A1A3B685A60F9
S2144008E0084B1A683B681A60084B1B6810229B1A14
S2144008F0064A13600837BD4680BD00BF20AA0020C8
S214400900200A002028AA00204506400014010020A6
S21440091080B485B000AF7860274BFB6002E0FB6890
S2144009201B68FB60FB681A687B689A42F7D3FB68D3
S214400930BB60FB685B68BA681A447B689A4208D119
S214400940FB685A687B685B681A44FB685A60FB68B9
S2144009507B607B68BB607B685B68BA681A44FB68F0
S2144009601B689A4218D1FB681A68144B1B689A4257
S2144009700DD07B685A68FB681B685B681A447B68C6
S2144009805A60FB681B681A687B681A6008E00B4B65
S2144009901A687B681A6003E0FB681A687B681A600E
S2144009A0FA687B689A4202D0FB687A681A60143705
S2144009B0BD465DF8047B704720AA002028AA002088
S2144009C080B582B000AF786039607B68002B03D179
S2144009D0274B984700BFFDE7264B98477B681A6829
S2144009E07B68DB6B7968096C01FB03F31A447B6810
S2144009F05A607B6800229A637B681A687B689A60B4
S214400A007B681A687B68DB6B013B7968096C01FB85
S214400A1003F31A447B68DA607B684FF0FF325A640F
S214400A207B684FF0FF329A643B68002B0ED17B68A0
S214400A301B69002B14D07B68103318460E4B984722
S214400A400346012B0CD10D4B984709E07B681033C9
S214400A5018460B4B98477B6824331846084B9847F4
S214400A60084B9847012318460837BD4680BD00BF4F
S214400A70450640000106400009184000E9054000D0
S214400A80F10240001D06400080B588B000AFF86017
S214400A90B9601346FB710023FB61FB68002B2AD02C
S214400AA050201B4B9847B861BB69002B23D0FB688E
S214400AB0BA6802FB03F301337B617869144B9847AD
S214400AC00246BB691A60BB691B68002B10D0BB6925
S214400AD0FA68DA63BB69BA681A64B86901210D4BD3
S214400AE09847BB69FA7983F84D20BB69FB6102E001
S214400AF0B869094B9847FB69002B03D1074B9847C9
S214400B0000BFFDE7FB6918462037BD4680BD00BFE5
S214400B1021074000C10940002D084000450640001E
S214400B2080B588B000AFF860B9607A603B6000235B
S214400B30FB61FB68002B03D1484B984700BFFDE79D
S214400B40BB68002B03D1FB681B6C002B01D1012333
S214400B5000E00023002B03D1404B984700BFFDE741
S214400B603F4B9847FB689A6BFB68DB6B9A4216D202
S214400B70F868B9683A683B4B9847FB685B6A002B55
S214400B8009D0FB6824331846374B98470346012B59
S214400B9001D1364B9847364B9847012359E07B683E
S214400BA0002B03D1324B9847002352E0FB69002BC1
S214400BB006D107F1140318462E4B98470123FB61D4
S214400BC02B4B98472C4B9847254B9847FB685B6CBC
S214400BD0B3F1FF3F02D1FB6800225A64FB689B6C6E
S214400BE0B3F1FF3F02D1FB6800229A64204B98473E
S214400BF007F114023B1D10461946204B9847034602
S214400C00002B1ED1F8681E4B98470346002B12D087
S214400C10FB6803F110027B6810461946194B98474B
S214400C20F868194B9847194B98470346002B0FD145
S214400C300E4B98470CE0F868134B9847134B984771
S214400C408EE7F868104B9847104B9847002300E013
S214400C5086E718462037BD4680BD00BF45064000A3
S214400C6001064000250F400009184000E9054000F5
S214400C701D064000C5184000D5134000FD18400032
S214400C80111140002917400035104000F113400074
S214400C9080B586B000AFF860B9607A603B60FB68AC
S214400CA0002B03D1254B984700BFFDE7BB68002BC0
S214400CB003D1FB681B6C002B01D1012300E000230D
S214400CC0002B03D11D4B984700BFFDE71B4B9847B1
S214400CD03861FB689A6BFB68DB6B9A4224D2F868F3
S214400CE0B9683A68164B9847FB689B6CB3F1FF3F70
S214400CF012D1FB685B6A002B13D0FB68243318467E
S214400D00104B98470346002B0BD07B68002B08D02F
S214400D107B6801221A6004E0FB689B6C5A1CFB68E7
S214400D209A6401237B6101E000237B613869064BAE
S214400D3098477B6918461837BD4680BD4506400033
S214400D40250F4000091840005906400080B588B07D
S214400D5000AFF860B9607A603B600023FB61FB68D7
S214400D60002B03D1604B984700BFFDE7BB68002BC4
S214400D7003D1FB681B6C002B01D1012300E000234C
S214400D80002B03D1584B984700BFFDE7574B984779
S214400D90FB689B6B002B3BD0FB68DB68BB61F8684D
S214400DA0B968534B98473B68002B1CD1FB689B6B3C
S214400DB05A1EFB689A63FB681B68002B04D14D4B98
S214400DC098470246FB685A60FB681B69002B1BD09D
S214400DD0FB6810331846484B98470346012B13D1FF
S214400DE0464B984710E0FB68BA69DA60FB685B6A76
S214400DF0002B09D0FB68243318463F4B98470346E0
S214400E00002B01D03D4B98473D4B9847012366E069
S214400E107B68002B03D13A4B984700235FE0FB6981
S214400E20002B06D107F110031846364B984701238E
S214400E30FB61334B9847344B98472C4B9847FB689D
S214400E405B6CB3F1FF3F02D1FB6800225A64FB683B
S214400E509B6CB3F1FF3F02D1FB6800229A64284B9B
S214400E60984707F110023B1D10461946274B9847F6
S214400E700346002B2BD1F868254B98470346002B9A
S214400E801FD0FB681B68002B08D1184B9847FB689F
S214400E905B6818461F4B9847194B9847FB6803F109
S214400EA024027B68104619461B4B9847F8681B4B34
S214400EB098471B4B98470346002B0FD10F4B98473C
S214400EC00CE0F868154B9847154B98475EE7F8686E
S214400ED0124B9847124B9847002300E056E71846B7
S214400EE02037BD4680BD00BF450640000106400095
S214400EF0E50F4000751C400009184000E905400019
S214400F001D064000C5184000D5134000FD1840009F
S214400F10DD104000D11C400029174000351040002D
S214400F20F113400080B584B000AFF860B9607A60D5
S214400F30FB681B6C002B0CD1FB681B68002B45D153
S214400F40FB685B681846254B9847FB6800225A604A
S214400F503CE07B68002B1AD1FB689A68FB681B6CE8
S214400F601046B9681A461E4B9847FB689A68FB6855
S214400F701B6C1A44FB689A60FB689A68FB685B685F
S214400F809A4223D3FB681A68FB689A601EE0FB68A7
S214400F90DA68FB681B6C1046B9681A46104B9847CF
S214400FA0FB68DA68FB681B6C5B421A44FB68DA60D5
S214400FB0FB68DA68FB681B689A4207D2FB685A6887
S214400FC0FB681B6C5B421A44FB68DA60FB689B6BF1
S214400FD05A1CFB689A631037BD4680BD811D400091
S214400FE03998400080B582B000AF786039607B6841
S214400FF01B68002B19D07B68DA687B681B6C1A4428
S2144010007B68DA607B68DA687B685B689A4203D301
S2144010107B681A687B68DA607B68DA687B681B6C7A
S214401020386811461A46024B98470837BD4680BD79
S2144010303998400080B582B000AF7860234B98471F
S21440104014E07B685B6A002B0FD07B68243318461D
S2144010501F4B98470346002B01D01E4B98477B6892
S2144010609B6C5A1E7B689A6400E003E07B689B6C2E
S214401070002BE6DC7B684FF0FF329A64164B9847AD
S214401080124B984714E07B681B69002B0FD07B6897
S214401090103318460E4B98470346002B01D00D4B95
S2144010A098477B685B6C5A1E7B685A6400E003E096
S2144010B07B685B6C002BE6DC7B684FF0FF325A6443
S2144010C0054B98470837BD4680BD00BF0106400027
S2144010D009184000B11940001D06400080B584B094
S2144010E000AF7860084B98477B689B6B002B0CBF23
S2144010F001230023DBB2FB60044B9847FB6818468D
S2144011001037BD4680BD00BF010640001D064000AA
S21440111080B584B000AF7860094B98477B689A6B7F
S2144011207B68DB6B9A420CBF01230023DBB2FB607B
S214401130044B9847FB6818461037BD4680BD00BF35
S214401140010640001D06400080B582B000AF7860C2
S2144011503960124B98477B685B6CB3F1FF3F02D116
S2144011607B6800225A647B689B6CB3F1FF3F02D1D8
S2144011707B6800229A640A4B98477B689B6B002BDF
S21440118005D17B68243318463968064B98477868FB
S214401190054B98470837BD4680BD00BF0106400056
S2144011A01D064000A91740003510400090B58BB092
S2144011B002AFF860B9603B601346FB80FB68002BCB
S2144011C003D1544B984700BFFDE73B6B042B03D934
S2144011D0504B984700BFFDE7FB881846B96B4E4B0F
S2144011E09847B861BB69002B7DD0BB691A6BFB88FA
S2144011F003F18043013B9B0013447B617B6923F0F2
S21440120007037B617B6903F00703002B03D0414B48
S214401210984700BFFDE7FB880093B869B9683A6B0A
S214401220FB6B3E4CA0477869F9683A683C4B984758
S2144012300246BB691A607B6B002B02D07B6BBA6997
S2144012401A60384B9847384B1B680133364A136050
S214401250364B1B68002B09D1344ABB691360324BAE
S2144012601B68012B0FD1324B98470CE0314B1B6863
S214401270002B08D12D4B1B68DA6A3B6B9A4202D88A
S2144012802A4ABB691360BB69DA6A2B4B1B689A42D1
S21440129003D9BB69DB6A284A1360284B1A68BB69C6
S2144012A01A64264B1B680133244A1360BB69DA6A0A
S2144012B0234B1B689A4203D9BB69DB6A204A1360FA
S2144012C0BB69DA6A13469B0013449B001D4A1A44C6
S2144012D0BB690433104619461B4B98470123FB61F4
S2144012E01A4B984702E04FF0FF33FB61FB69012B36
S2144012F00BD1104B1B68002B07D00C4B1B68DA6ACF
S2144013003B6B9A4201D2124B9847FB6918462437EA
S214401310BD4690BD45064000E11B4000F119400027
S214401320010540000106400004AB00202CAA002026
S214401330651A400014AB00200CAB002028AB002000
S21440134010AB002030AA0020490340001D06400094
S214401350E905400090B587B004AF00230093002312
S21440136001930023029300230393124812498222DA
S2144013700023124CA04778607B68012B02D1104BAB
S214401380984778607B68012B09D10E4B98470E4BE7
S21440139001221A600D4B00221A600D4B98477B685D
S2144013A0002B03D1074B984700BFFDE70C37BD46DF
S2144013B090BD00BFC919400080BD4000AD1140003F
S2144013C0051E40004506400014AB002008AB002038
S2144013D09105400080B400AF044B1B680133034ABC
S2144013E01360BD465DF8047B704700BF18AB002015
S2144013F090B583B000AF00237B60364B1B68002B54
S21440140003D1354B984700BFFDE7344B9847314BE7
S2144014101B68013B2F4A13602E4B1B68002B52D192
S2144014202F4B1B68002B4ED000233B6027E02D4BF4
S214401430DB68DC6804F1180318462B4B9847231DDD
S2144014401846294B9847E26A284B1B689A4202D9AD
S214401450E36A264A1360E26A13469B0013449B00E5
S214401460234A1A44231D10461946224B9847E26ADF
S214401470214B1B68DB6A9A4201D301233B60194B20
S2144014801B68002BD3D11D4B1B68002B0DD006E0EC
S2144014901B4B9847194B1B68013B184A1360174B68
S2144014A01B68002BF4D101233B603B68012B03D023
S2144014B0144B1B68012B06D101237B60114B002285
S2144014C01A60114B9847114B98477B6818460C3763
S2144014D0BD4690BD18AB00204506400001064000C2
S2144014E004AB0020C4AA00200904400010AB002032
S2144014F030AA0020490340002CAA00201CAB002044
S2144015003D15400020AB0020E90540001D06400088
S21440151080B582B000AF064B9847064B1B687B6091
S214401520054B98477B6818460837BD4680BD00BFC8
S2144015300106400008AB00201D06400080B584B080
S21440154000AF444B1B68002B7CD1434B1B680133D8
S214401550414A1360404B1B68002B2AD13F4B1B6807
S2144015601B68002B03D03E4B984700BFFDE73B4B24
S2144015701B68FB603B4B1B68384A1360394AFB6864
S2144015801360394B1B680133374A1360334B1B6873
S2144015901B68002B04D1354B4FF0FF321A6008E031
S2144015A02E4B1B68DB68DB68BB60BB685B682F4AFA
S2144015B01360294B1A682D4B1B689A4241D3274B20
S2144015C01B681B68002B04D1284B4FF0FF321A6073
S2144015D037E0224B1B68DB68DB68BB60BB685B6838
S2144015E07B601D4B1A687B689A4203D21F4A7B6811
S2144015F0136026E0BB68043318461D4B9847BB680B
S2144016009B6A002B04D0BB6818331846184B984783
S214401610BB68DA6A174B1B689A4203D9BB68DB6A19
S214401620144A1360BB68DA6A13469B0013449B0057
S214401630114A1A44BB680433104619460F4B984764
S214401640BDE704E00E4B1B6801330D4A13601037AC
S214401650BD4680BD18AB002008AB0020BCAA0020C9
S21440166045064000C0AA002024AB002018010020F8
S2144016700904400010AB002030AA00204903400077
S2144016801CAB002080B582B000AF214B1B68002BFE
S21440169003D0204B01221A6036E00CE01E4B1B683C
S2144016A0002B03D11D4B984700BFFDE71A4B1B6824
S2144016B0013B194A1360184B1A68194913469B0098
S2144016C013449B000B441B68002BE7D0124B1A6850
S2144016D013469B0013449B00114A13447B607B686F
S2144016E05B685A687B685A607B685A687B680833D0
S2144016F09A4204D17B685B685A687B685A607B680C
S2144017005B68DB68074A13600837BD4680BD00BF8C
S21440171018AB002020AB002010AB00204506400050
S21440172030AA00202CAA002080B584B000AF786094
S21440173039607B68002B03D1134B984700BFFDE709
S214401740124B1B68183378681946114B98470F4B55
S2144017501B68043318460F4B98473B68B3F1FF3F6E
S21440176007D10A4B1B6804330B4819460B4B984766
S21440177007E00B4B1A683B681344FB60F868094B5C
S21440178098471037BD4680BD450640002CAA00202D
S2144017909903400009044000F0AA00204903400095
S2144017A008AB0020711B400080B584B000AF786065
S2144017B039607B68002B03D10D4B984700BFFDE78F
S2144017C00C4B1B681833786819460B4B9847094BE7
S2144017D01B6804331846094B9847094B1A683B6800
S2144017E01344FB60F868074B98471037BD4680BDEA
S2144017F0450640002CAA002049034000090440004A
S21440180008AB0020711B400080B584B000AF786004
S2144018107B68DB68DB68BB60BB68002B03D1214B71
S214401820984700BFFDE7BB68183318461E4B9847DD
S2144018301E4B1B68002B1DD1BB68043318461A4B41
S2144018409847BB68DA6A1A4B1B689A4203D9BB684A
S214401850DB6A174A1360BB68DA6A13469B00134478
S2144018609B00144A1A44BB68043310461946124B70
S214401870984705E0BB681833104819460E4B984702
S214401880BB68DA6A0E4B1B68DB6A9A4202D30123B6
S214401890FB6001E00023FB60FB6818461037BD463E
S2144018A080BD00BF450640000904400018AB00203C
S2144018B010AB002030AA002049034000C4AA0020F4
S2144018C02CAA002080B582B000AF78607B68002BE1
S2144018D003D1074B984700BFFDE7064B1A687B6865
S2144018E01A60054B1A687B685A600837BD4680BD4B
S2144018F04506400024AB002008AB002080B584B0ED
S21440190000AF786039607B68002B03D1224B984744
S21440191000BFFDE73B68002B03D11F4B984700BF35
S214401920FDE71E4B98473B681B68B3F1FF3F02D16B
S2144019300023FB6029E07B681A68194B1B689A42B3
S21440194008D07B685A68174B1B689A4202D8012316
S214401950FB601AE0134B1A687B685B68D21A3B68D8
S2144019601B689A420FD20F4B1A687B685B68D31A83
S2144019703A681268D21A3B681A6078680A4B9847E9
S2144019800023FB6001E00123FB60084B9847FB689F
S21440199018461037BD4680BD45064000010640004B
S2144019A024AB002008AB0020C51840001D064000B0
S2144019B080B400AF034B01221A60BD465DF8047B3D
S2144019C0704700BF20AB002080B582B000AF786083
S2144019D0044B9847044B1B68012B01D9034B98478F
S2144019E0F6E700BFE51A400030AA0020E9054000AF
S2144019F080B584B000AFF860B9607A603B60FB6841
S214401A0034331846B9680A22144B9847FB680022BC
S214401A1083F83D207B68042B01D904237B60FB6858
S214401A207A68DA62FB687A689A64FB680433184618
S214401A300B4B9847FB6818331846094B9847FB688A
S214401A40FA681A617B68C3F10502FB689A61FB6815
S214401A50FA685A621037BD4680BD00BF059C4000FC
S214401A603103400080B582B000AF00237B600CE0BD
S214401A707A6813469B0013449B00114A1344184649
S214401A80104B98477B6801337B607B68042BEFD90B
S214401A900D480C4B98470D480A4B98470C48094B45
S214401AA098470C48074B98470B48064B98470B4BB4
S214401AB0054A1A600A4B054A1A600837BD4680BD7B
S214401AC030AA0020F102400094AA0020A8AA0020D4
S214401AD0C4AA0020D8AA0020F0AA0020BCAA002051
S214401AE0C0AA002080B582B000AF28E0174B9847C8
S214401AF0174B1B68002B0CBF01230023DBB27B6017
S214401B00144B98477B68002B19D1134B9847104BC2
S214401B10DB68DB683B603B68043318460F4B9847EE
S214401B200F4B1B68013B0E4A13600E4B1B68013B74
S214401B300C4A13600C4B984738680C4B9847094B37
S214401B401B68002BD2D10837BD4680BDD513400058
S214401B50D8AA0020F11340000106400009044000C6
S214401B6004AB0020ECAA00201D064000511C40009B
S214401B7080B582B000AF7860134B1B687A685A60B5
S214401B80124B1B687A689A4209D2114B1A680E4B60
S214401B901B680433104619460E4B984710E00E4B10
S214401BA01A68094B1B68043310461946094B984778
S214401BB00A4B1B687A689A4202D2084A7B681360CE
S214401BC00837BD4680BD00BF2CAA002008AB0020C9
S214401BD0C0AA002099034000BCAA0020180100209B
S214401BE080B584B000AF03463960FB804C20154B6F
S214401BF09847F860FB68002B1FD03B68002B06D147
S214401C00FB889B0018460F4B9847034600E03B680E
S214401C10FA681363FB681B6B002B05D1F8680A4B08
S214401C2098470023FB6008E0FB681A6BFB889B0024
S214401C301046A5211A46054B9847FB6818461037AC
S214401C40BD4680BD210740002D0840006D994000EC
S214401C5080B582B000AF78607B681B6B1846044B3B
S214401C6098477868024B98470837BD4680BD00BF06
S214401C702D08400080B483B000AF054B1B687B60E6
S214401C807B6818460C37BD465DF8047B704700BF3E
S214401C902CAA002080B483B000AF0B4B1B68002BEF
S214401CA002D100237B6008E0084B1B68002B02D162
S214401CB001237B6001E002237B607B6818460C377B
S214401CC0BD465DF8047B704714AB002018AB00207F
S214401CD080B584B000AF78607B68FB607B68002B83
S214401CE041D0FB68DA6A214B1B68DB6A9A423AD2DB
S214401CF01E4B1B68DB6AC3F10502FB689A61FB68F2
S214401D005969FB68DA6A13469B0013449B00184ADD
S214401D101344994222D1FB6804331846154B984722
S214401D20124B1B68DA6AFB68DA62FB68DA6A124BA7
S214401D301B689A4203D9FB68DB6A0F4A1360FB684C
S214401D40DA6A13469B0013449B00094A1A44FB6810
S214401D50043310461946094B984704E0034B1B686A
S214401D60DA6AFB68DA621037BD4680BD2CAA0020CE
S214401D7030AA00200904400010AB00204903400070
S214401D8080B584B000AF78607B68FB607B68002BD2
S214401D902CD0FB68DA6AFB689B6C9A4226D0FB68BC
S214401DA004331846134B9847FB689A6CFB68DA6214
S214401DB0FB68DB6AC3F10502FB689A61FB68DA6A76
S214401DC00D4B1B689A4203D9FB68DB6A0A4A1360CC
S214401DD0FB68DA6A13469B0013449B00074A1A4482
S214401DE0FB68043310461946054B98471037BD46E6
S214401DF080BD00BF0904400010AB002030AA002080
S214401E004903400090B587B004AF00237B60114B78
S214401E109847114B1B68002B0FD0042300930023D8
S214401E20019300230293002303930C480C494FF47C
S214401E30827200230B4CA04778607B68002B03D14E
S214401E40094B984700BFFDE77B6818460C37BD46F0
S214401E5090BD00BFAD2340005CAB00200520400095
S214401E60A0BD4000AD1140004506400080B586B09C
S214401E7000AFF860B9607A603B60BB68002B08D161
S214401E8000237B61BB68002B20D1134B984700BFD3
S214401E90FDE72820114B984778617B69002B15D0C9
S214401EA00F4B98477B69FA681A607B69BA689A61F3
S214401EB07B697A68DA617B693A681A627B693A6A52
S214401EC05A627B6904331846064B98477B69184626
S214401ED01837BD4680BD00BF45064000210740007C
S214401EE0AD2340003103400090B589B000AFF860A4
S214401EF0B9607A603B600023FB611D4B1B68002B7A
S214401F0030D0BB683B617B687B61FB68BB613B68EC
S214401F10002B1CD1174B98470346012B0BD1144B73
S214401F201A6807F11003104619463A6B0023124C04
S214401F30A047F86116E00E4B1A6807F110031046EA
S214401F401946002200230C4CA047F8610AE0084BD3
S214401F501A6807F11003104619463A680023074CE2
S214401F60A047F861FB6918462437BD4690BD00BFC0
S214401F705CAB0020951C4000210B4000910C4000BB
S214401F8090B587B002AF78603960194B1B68DB6844
S214401F90DB68FB60FB6804331846164B9847FB68C3
S214401FA0DB69012B1CD1FB689A697B681344F8688F
S214401FB019463A687B68104CA0470346012B0FD160
S214401FC000230093F86800217A6800230B4CA04752
S214401FD0B860BB68002B03D1094B984700BFFDE7AC
S214401FE0FB685B6AF86898471437BD4690BD00BFEB
S214401FF054AB0020090440004D214000E91E40003B
S2144020004506400080B584B000AF786007F108030D
S2144020101846054B9847F860BB68F8681946034B66
S2144020209847034B9847F1E7B920400035204000D9
S214402030D521400080B584B000AF78603960174B3A
S214402040984707F108031846154B9847F860BB6851
S214402050002B1ED13B68002B0AD17A68FB689A4257
S21440206006D8104B98477868F9680F4B984712E0A7
S2144020700E4B19687A68FB68D31A084619460C4B0B
S2144020809847084B98470346002B04D1094B98477E
S21440209001E0044B98471037BD4680BDD51340003D
S2144020A001214000F1134000811F40005CAB00203E
S2144020B049114000E905400080B485B000AF786023
S2144020C00E4B1B681B68002B0CBF01230023DBB2A2
S2144020D01A467B681A607B681B68002B05D1074B45
S2144020E01B68DB681B68FB6001E00023FB60FB6845
S2144020F018461437BD465DF8047B704754AB002045
S21440210080B584B000AF78600D4B9847F8600D4BB3
S2144021101B68FA689A4208D20A4B1B6818460A4B54
S21440212098477B6801221A6002E07B6800221A60AA
S214402130044AFB681360FB6818461037BD4680BDEE
S2144021401115400060AB0020E922400080B586B003
S21440215000AFF860B9607A603B6000237B61FB6843
S214402160BA685A60FB68FA681A61BA687B689A422D
S21440217012D87A683B68D21AFB689B699A4202D3A7
S21440218001237B611BE0104B1A68FB680433104642
S21440219019460E4B984712E07A683B689A4206D238
S2144021A0BA683B689A4202D301237B6107E0084B3A
S2144021B01A68FB68043310461946044B98477B69F7
S2144021C018461837BD4680BD58AB002099034000DE
S2144021D054AB002090B58BB002AF3B1D18463A4B2F
S2144021E09847F86160E03B69BB61BB69002B08D04B
S2144021F0BB695B69002B04D0BB6904331846334B7C
S2144022009847BB68032B4ED801A252F823F000BF74
S21440221021224000A9224000732240009F22400015
S214402220FA68BB699B691A44FB68B8691146FA6943
S214402230274CA0470346012B1AD1BB695B6AB86995
S2144022409847BB69DB69012B12D1FA68BB699B6969
S2144022501A4400230093B869002100231D4CA04770
S21440226078617B69002B03D11B4B984700BFFDE785
S2144022701AE0FA68BB699A61BB699B69002B03D177
S214402280154B984700BFFDE7BB699A69FB69134445
S214402290B8691946FA69FB690D4CA04704E0B8696D
S2144022A00E4B984700E000BF0D4B1A6807F1080335
S2144022B010461946002200230A4CA0470346002B2E
S2144022C091D12437BD4690BD01214000090440000D
S2144022D04D214000E91E4000450640002D084000C4
S2144022E05CAB00204D0D400090B58BB002AF7860DF
S2144022F03EE0284B1B68DB681B68FB61254B1B6870
S214402300DB68DB68BB61BB6904331846224B9847E1
S214402310BB695B6AB8699847BB69DB69012B27D103
S214402320BB699A69FB6913447B617A69FB699A4287
S2144023300ED9BB697A695A60BB69BA691A61154B8E
S2144023401A68BB69043310461946144B98470FE089
S21440235000230093B8690021FA690023104CA04777
S21440236038613B69002B03D10E4B984700BFFDE711
S214402370084B1B681B68002BBBD1064B1B68FB60D9
S214402380094B1B68034A1360074AFB6813602437EF
S214402390BD4690BD54AB0020090440009903400060
S2144023A0E91E40004506400058AB002080B500AF0F
S2144023B00E4B98470E4B1B68002B13D10D480E4B07
S2144023C098470E480C4B98470D4B0A4A1A600D4BDF
S2144023D00A4A1A6005200C2100220B4B98470246F9
S2144023E0034B1A60094B984780BD00BF010640006A
S2144023F05CAB00202CAB0020F102400040AB00203C
S21440240054AB002058AB0020890A40001D0640000F
S21440241090B583B000AF00233B600020A24B9847A6
S2144024200346002B00F039810020A04B9847786087
S2144024309F4B1B78082B00F22B8101A252F823F009
S214402440652440009B244000ED2440002F2540009A
S2144024505F254000A3254000D125400013264000BC
S214402460532640007B688E2B16D1914B01221A7062
S2144024707B68DBB2002019468E4B984703461A46C7
S2144024808D4B1A708D4B03F54843063300221A7065
S2144024908B4B00221A60FFE0FEE07B68012B03D1E5
S2144024A0834B02221A7010E07B68022B0AD1804BC5
S2144024B003221A70814B4FF6FF725A80804B0022DF
S2144024C01A6002E07A4B00221A707B68DAB27B4BC5
S2144024D01A71794B1A787B68DBB210461946754BF1
S2144024E0984703461A46744B1A70D5E07B68002B13
S2144024F006D07B68012B03D06D4B00221A7009E092
S2144025006B4B08221A707B68DAB26C4B03F5484373
S21440251006331A70684B1A787B68DBB21046194649
S214402520644B984703461A46634B1A70B4E07B6880
S2144025300B2B04DC7B689AB2604B5A8002E05C4B03
S21440254000221A705C4B1A787B68DBB2104619463C
S214402550584B984703461A46574B1A709CE0574BC1
S2144025605B881B029AB27B689BB213449AB2534B69
S2144025705A80524B5B880B2B03D94D4B00221A7066
S21440258002E04B4B05221A704B4B1A787B68DBB245
S21440259010461946474B984703461A46464B1A700C
S2144025A07AE07B68002B03D1414B06221A7002E08A
S2144025B03F4B00221A70404B1A787B68DBB21046BD
S2144025C019463C4B984703461A463B4B1A7063E005
S2144025D07B68B3F5484F0CD1354B07221A70374B02
S2144025E003F54843053301221A70354B00221A6022
S2144025F002E02F4B00221A702F4B1A787B68DBB212
S214402600104619462B4B984703461A462A4B1A70D3
S21440261042E02B4B1B685A1C29490A607A68D1B2A3
S214402620264A13440A465A71254B1B68B3F5484F51
S21440263002D31F4B08221A701F4B1A787B68DBB2F6
S214402640104619461B4B984703461A461A4B1A70B3
S21440265022E0194B1B781A467B689A4217D1174BD3
S2144026601B79012B13D0154B1B79022B0FD1134B23
S21440267003F54843053300221A70124B1A683B464E
S214402680104600211A4600230F4CA04704E003E002
S214402690074B00221A7000BF02E0054B00221A705A
S2144026A00C37BD4690BD00BF853A4000CD3940004E
S2144026B064AB0020E575400065AB00206CDC002074
S2144026C068AB0020E8B40020910C400080B48BB08A
S2144026D000AF78600B46FB707B687B62FB7887F8C0
S2144026E023307B6AFB61FB69BB61BB695B097B612D
S2144026F07B6903F5001303F207735B023B6197F8AF
S2144027002330002B09D07B6AFB60FB6803F01F0375
S21440271001229A403B691A6308E07B6ABB60BB684B
S21440272003F01F0301229A403B695A632C37BD468B
S2144027305DF8047B704700BF80B48BB000AF786014
S2144027407B687B627B6A3B623B6AFB61FB695B0939
S214402750BB61BB6903F5001303F207735B027B6141
S2144027607B6A3B613B6903F01F03012202FA03F3D5
S214402770FB607B69DA6B7B6ABB60BB6803F01F0358
S214402780012101FA03F31340002B03D07B69FA685A
S2144027905A6302E07B69FA681A632C37BD465DF8D7
S2144027A0047B704780B500AF06200021014B984758
S2144027B080BD00BFCD26400080B582B000AF7860B7
S2144027C00B46FB70FB7883F00103DBB2002B06D090
S2144027D006200021034B9847034B07221A70083700
S2144027E0BD4680BDCD2640001C01002080B584B08B
S2144027F000AF78600B46FB70194AFB7813707B6815
S214402800DB7C012B05D0022B08D1164BFA221A800E
S21440281009E0144B4FF4FA721A8004E0114B4FF45F
S2144028207A721A8000BF0E4B1B78002B15D10E4AC9
S21440283007F10803106818609188927999809A7118
S2144028400A4B984707F108031846094B984707F183
S214402850080300201946074B98471037BD4680BDF1
S2144028601C0100206CAB0020A8BD4000618C4000DD
S214402870518B40000539400080B400AFBD465DF83E
S214402880047B704780B500AF0E4B1B78002B18D1E9
S2144028900D4B1B8801339AB20B4B1A800A4B1A8891
S2144028A00A4B1B889A420CD9074B00221A80084BC9
S2144028B01B7883F00103DBB2002B02D00620054BC9
S2144028C0984780BD1C01002070AB00206CAB0020F8
S2144028D06EAB00203927400080B500AF034B012285
S2144028E01A7006200021024B984780BD6EAB002030
S2144028F0CD26400080B400AF034B00221A70BD4680
S2144029005DF8047B704700BF6EAB002080B500AF1B
S214402910034B01221A7006200021024B984780BDC7
S2144029206EAB0020CD26400080B400AF034B0022A3
S2144029301A70BD465DF8047B704700BF6EAB002042
S21440294080B400AFBD465DF8047B704780B400AFEE
S214402950BD465DF8047B704780B582B000AF7860B6
S2144029607B68072B30D801A252F823F0C9294000D3
S2144029708D294000952940009D294000A52940000A
S214402980AD294000B5294000BF2940000020104B2B
S214402990984719E001200E4B984715E000200D4B54
S2144029A0984711E010200B4B98470DE02020094B2C
S2144029B0984709E000203E21074B984704E0012055
S2144029C03E21054B984700BF0837BD4680BD00BF37
S2144029D0694D4000D54D4000454E400080B582B020
S2144029E000AF78607B68072B26D801A252F823F008
S2144029F0112A4000152A4000152A4000272A400088
S214402A00272A4000272A4000272A4000272A40003D
S214402A10012312E00B4B98470346002B14BF0123BB
S214402A200023DBB209E0084B98470346002B14BF4F
S214402A3001230023DBB200E0002318460837BD46DA
S214402A4080BD00BFA14D4000BD4E400080B483B065
S214402A5000AF78607B68072B25D801A252F823F098
S214402A60812A4000872A40008D2A4000932A400051
S214402A70972A40009B2A40009F2A4000A32A4000F5
S214402A804FF4FA4310E04FF400430DE04FF4004398
S214402A900AE0084B08E0084B06E0084B04E0002339
S214402AA002E0002300E0002318460C37BD465DF8E0
S214402AB0047B704700127A000024F40000366E0152
S214402AC080B582B000AF0346FB7100BFFB79184665
S214402AD0054B9847034683F00103DBB2002BF5D144
S214402AE00837BD4680BD00BFDD29400080B586B0B2
S214402AF000AFF8607A603B600B46FB72FB7A184684
S214402B000D4B984702467B68B2FBF3F37B617B69CB
S214402B103A6802FB03F37B613B68013B1A04074BB0
S214402B2013407A68D2B2134343F47C52FB681A606F
S214402B301837BD4680BD00BF4D2A40000000FF1F2D
S214402B4080B582B000AF786039603B68002B06D114
S214402B50074B9847074A7B681B68936205E0064B1D
S214402B609847044A7B681B68D3620837BD4680BDD9
S214402B70D94E400000040E400D4F400080B582B054
S214402B8000AF78607B68002B03D1084B984703461C
S214402B9007E07B68012B03D1054B9847034600E0CE
S214402BA0002318460837BD4680BD00BFF14E4000A2
S214402BB0254F400080B582B000AF0346FB71FB79DD
S214402BC00033012B08D8FB791846054B9847FB790C
S214402BD01846044B984700E000BF0837BD4680BD06
S214402BE059294000C12A400080B582B000AF7860C5
S214402BF000BF7868044B98470346002BF9D0002363
S214402C0018460837BD4680BD7D2B400080B500AFD6
S214402C100120044B9847024640F6723303FB02F30A
S214402C20184680BD4D2A400080B500AF024B9847FD
S214402C300346184680BD00BF0D2C400090B583B0BB
S214402C4000AF01200D4B98473B4618460121012214
S214402C5040F2B9530A4CA0473B4618460121094B5F
S214402C6098470120084B98470020084B9847084B48
S214402C70984700BF0C37BD4690BD00BFB52B4000FF
S214402C80ED2A4000412B4000E92B400065504000B3
S214402C908D50400090B5A7B002AF2148214B9847D1
S214402CA00120214B984707F10803184601210122CD
S214402CB040F672331D4CA04707F108031846002122
S214402CC01B4B984700201B4B984700201A4B9847B1
S214402CD01A4B98471A4B984703461846114B984745
S214402CE0184B1B68184A934217D8164B1B68174A4E
S214402CF0934212D907F10C042023009314480E2166
S214402D000F222346134CA047FB6C9BB2C7F88C306F
S214402D101148D7F88C10114B98479437BD4690BD54
S214402D20000E27078D744000B52B4000ED2A40006A
S214402D30412B4000E92B4000E54C400065734000C5
S214402D40292C400034010020C0EF0B083F2C4206DF
S214402D50000A0E401D00002010140E40A5504000F2
S214402D6080B483B000AFEFF310833B603B68002B2A
S214402D700CBF01230023DBB27B6072B6BFF35F8FCC
S214402D80044B00221A707B6818460C37BD465DF827
S214402D90047B70473001002080B483B000AF786079
S214402DA07B68002B14BF01230023DBB218460C3788
S214402DB0BD465DF8047B704780B582B000AF786052
S214402DC07868074B98470346002B05D0054B0122F1
S214402DD01A70BFF35F8F62B60837BD4680BD00BF2E
S214402DE0992D40003001002080B588B000AF786053
S214402DF000233B61A14B1B68002B01D00523F4E167
S214402E007B685B699A78DB781B021343BB837B68DD
S214402E105B697B61994B00221A7321E07B695B7882
S214402E20042B11D17B695B79022B0DD17B699B7991
S214402E30022B09D17B69DB79012B05D88F4B1B7B95
S214402E400133DAB28D4B1A737B691B789BB2BA8B0F
S214402E50D31ABB837B691B781A467B6913447B6114
S214402E60BB8B002BDAD1854B1B7B002B01D101237A
S214402E70BBE1824B1B7B1A4613461B019B1A9B00E9
S214402E8018467F4B984703461A467C4B9A607B4BC6
S214402E909B68002B01D10523A7E10023BB7653E0B6
S214402EA0764B9968BA7E13461B019B1A9B000B44CF
S214402EB000225A72714B9968BA7E13461B019B1AC0
S214402EC09B000B44FF221A726C4B9968BA7E1346DD
S214402ED01B019B1A9B000B4400221A73674B996890
S214402EE0BA7E13461B019B1A9B000B4400229A6134
S214402EF0624B9968BA7E13461B019B1A9B000B4493
S214402F0000221A625D4B9968BA7E13461B019B1AD3
S214402F109B000B44002283F82420584B9968BA7EC5
S214402F2013461B019B1A9B000B4400221A63534B0B
S214402F309968BA7E13461B019B1A9B000B440022DD
S214402F409A63BB7E0133BB764C4B1B7BBA7E9A4260
S214402F50A6D37B685B699A78DB781B021343BB83F6
S214402F607B685B697B610023FB770023BB7700238C
S214402F70FB76FEE07B695B78052B6BD0242B58D024
S214402F80042B40F0EA807B695B79022B1AD17B697F
S214402F909B79022B16D17B69DB79012B12D8012352
S214402FA0FB77364B9A68FB7E591CF97619460B46DA
S214402FB01B015B1A9B0013443B617B699A783B6913
S214402FC0DA7101E00023FB777B695B790A2B2DD110
S214402FD07B699B79002B29D17B69DB79002B25D136
S214402FE00023BB761BE0254B9968BA7E13461B012F
S214402FF09B1A9B000B443B613B691B7AFF2B02D11B
S2144030000123BB7710E03B691A7A7B699B789A422A
S21440301002D10123BB7707E0BB7E0133BB76174B5B
S2144030201B7BBA7E9A42DED300BF96E00023BB7776
S21440303093E0FB7F83F00103DBB2002B00D08CE0F3
S2144030407B699B78012B04D17B691A793B691A729C
S21440305083E082E0FB7F002B1CD07B689B7C18467D
S2144030607969084B9847034683F00103DBB2002B8F
S2144030700CD0054B98470423B7E000BF74AB002044
S214403080F5924000516A4000CD3240007B699A7804
S2144030903B695A72BB7F002B5ED07B689B7C184690
S2144030A07969544B9847034683F00103DBB2002B03
S2144030B003D0514B9847042397E07B699B78DBB25B
S2144030C05BB2002B03DA3B690C33FB6002E03B69E2
S2144030D02433FB607B699A78FB681A70FB68002291
S2144030E05A70FB6800221A717B699B889BB2B3F5C5
S2144030F0A07F38BF4FF4A0737B81FB687A89DA8063
S214403100FB6800221A81FB6800225A817B89184698
S2144031103A4B984703461A46FB68DA60FB68DB681A
S214403120002B03D1344B984705235EE0FB68002212
S2144031301A82FB6800225A827B8918462F4B984792
S21440314003461A46FB685A61FB685B69002B03D14D
S214403150294B9847052348E000BF7B691B789BB204
S214403160BA8BD31ABB837B691B781A467B69134498
S2144031707B61BB8B002B7FF4FDAE0023BB7628E043
S2144031801F4B9968BA7E13461B019B1A9B000B4443
S2144031905B7A002B16D01A4B9968BA7E13461B01F1
S2144031A09B1A9B000B441B7B002B0BD0144B99683F
S2144031B0BA7E13461B019B1A9B000B4493F824309F
S2144031C0002B03D10C4B984701230EE0BB7E013306
S2144031D0BB760B4B1B7BBA7E9A42D1D3084B002260
S2144031E01A71074A7B681360002318462037BD468D
S2144031F080BD00BF516A4000CD324000F59240008D
S21440320074AB002080B582B000AF7860074B1A6878
S2144032107B689A4200D005E0044B01221A710020D8
S214403220034B98470837BD4680BD00BF74AB0020AF
S2144032306132400080B582B000AF7860064B1A68B5
S2144032407B689A4200D004E0034B00221A60034B8E
S21440325098470837BD4680BD74AB0020CD3240004D
S21440326080B584B000AF0346FB710023FB73134B5D
S2144032701B68002B00D11DE0104B1B7983F0010327
S214403280DBB2002B00D015E0FB7B5A1CFA731846C5
S2144032900B4B9847B860BB68002B00D10AE0BB6870
S2144032A00C331846074B9847BB6824331846064BE2
S2144032B09847E9E71037BD4680BD00BF74AB002095
S2144032C0C5334000113540002D37400080B582B0F0
S2144032D000AF3A4B9B68002B00D16BE00023FB719C
S2144032E05EE0364B9968FA7913461B019B1A9B00A1
S2144032F00B449B69002B0BD0304B9968FA791346E8
S2144033001B019B1A9B000B449B6918462C4B984705
S2144033102A4B9968FA7913461B019B1A9B000B446B
S2144033201B6A002B0BD0254B9968FA7913461B0174
S2144033309B1A9B000B441B6A1846214B98471F4B11
S2144033409968FA7913461B019B1A9B000B441B6B2A
S214403350002B0BD0194B9968FA7913461B019B1A20
S2144033609B000B441B6B1846154B9847134B9968AC
S214403370FA7913461B019B1A9B000B449B6B002B50
S2144033800BD00E4B9968FA7913461B019B1A9B008B
S2144033900B449B6B18460A4B9847FB790133FB71ED
S2144033A0064B1B7BFA799A429BD3044B9B68184684
S2144033B0034B98470837BD4680BD00BF74AB00201E
S2144033C00593400080B483B000AF0346FB710D4BBD
S2144033D01B68002B01D100230EE00A4B1B7BFA79B9
S2144033E09A4201D3002307E0064B9968FA791346C0
S2144033F01B019B1A9B000B4418460C37BD465DF8D4
S214403400047B704774AB002090B589B002AF03468A
S2144034103960FB71FB791846194B984778617B6990
S214403420002B01D1002327E07B6918463968072224
S214403430144B984721233B7320237B730023FB8147
S2144034407B69DB799BB23B8207237B820E4B1B68F2
S214403450987C7A6907F10C010023009300230193BE
S21440346007230A4CA047034683F00103DBB2002B38
S21440347001D0002300E0012318461C37BD4690BD0E
S214403480C53340003998400074AB0020696B40005B
S21440349090B589B002AF03460A46FB711346BB801F
S2144034A0FB791846174B984778617B69002B01D10A
S2144034B0002323E021233B7322237B73BB88FB81BD
S2144034C07B69DB799BB23B8200237B820E4B1B6879
S2144034D0997C07F10C0200230093002301930846D1
S2144034E0114600220023094CA047034683F00103FF
S2144034F0DBB2002B01D0002300E0012318461C3726
S214403500BD4690BDC533400074AB0020696B40009B
S21440351090B58BB004AF7860444B984738617B6871
S2144035205B78002B04D03869414B9847002378E0FD
S2144035307B681B79DBB20133DB007A681344FB609F
S2144035407B681B79DBB2002B0CBF01230023DBB268
S2144035500133DB007A6813447B61FB681A88FB689A
S2144035605B889A4205D3FB6800221A80FB680022DB
S2144035705A80FB685B88002B12D17B695B88002BE6
S2144035800ED07B681B79DBB2002B0CBF01230023D7
S214403590DBB21A467B681A71FB687B61254B9847FD
S2144035A07B695B88002B04D03869214B9847002301
S2144035B037E0214B1B68DB7C022B0BD17B685C8899
S2144035C01E4B984703469C4210D13869184B984783
S2144035D0002326E07B685C88194B984703469C424C
S2144035E004D13869124B984700231AE07B680122C1
S2144035F05A7038690E4B98470F4B1B68997C7B680E
S2144036001A787B695C687B68DB8800930A230193A1
S2144036100C4B029308461146012223460A4CA0470B
S214403620034618461C37BD4690BD00BF612D40007E
S214403630B92D40001124400074AB00208169400041
S2144036406D6940004D364000B16C400080B586B094
S21440365000AF3B600346FB710B46BB7113467B7164
S2144036600023FB75FB7D5A1CFA7518462A4B984773
S21440367038613B69002B00D14AE03B690C33FB6064
S214403680FB681B78BA799A4204D100BF7B79072B36
S21440369005D100E0E6E73B68002B00D006E07B79EA
S2144036A0002B03D0FB6800225A7031E0FB68DB88B1
S2144036B01A463B689A4211D0184B1B68DB7C022B9B
S2144036C006D1174B984703461A46FB685A8005E0D2
S2144036D0144B984703461A46FB685A80FB681B798A
S2144036E0DBB2002B0CBF01230023DBB20133DB002F
S2144036F0FA681344BB60BB6800221A803B689AB2E3
S214403700BB685A80FB6800225A70F868064B984798
S2144037101837BD4680BD00BFC533400074AB00209F
S214403720816940006D6940001135400090B589B010
S21440373004AF7860324B9847F8607B685B78002B24
S21440374004D0F8682F4B9847002354E02E4B1B6854
S214403750DB7C022B0BD17B685C882C4B984703465E
S2144037609C4210D1F868274B9847002343E07B687B
S2144037705C88274B984703469C4204D1F868214B07
S2144037809847002337E07B681B79DBB20133DB00C8
S2144037907A681344BB60BB685B88002B04D1F8682A
S2144037A0184B9847002326E07B681B79DBB2002B3A
S2144037B00CBF01230023DBB21A467B681A717B6874
S2144037C001225A70F8680F4B98470F4B1B68997C3C
S2144037D07B681A78BB685C68BB685B8800934FF46C
S2144037E07A7301930B4B02930846114601222346F7
S2144037F0094CA047034618461437BD4690BD00BF47
S214403800612D4000B92D400074AB00208169400016
S2144038106D6940001D384000B16C400080B588B0EE
S21440382000AF3B600346FB710B46BB7113467B7192
S2144038300023FB772C4B9847B861FB7F5A1CFA77DE
S21440384018462A4B984778617B69002B03D1B869A4
S214403850274B984745E07B6924333B613B691B789F
S214403860BA799A4204D100BF7B79002B08D000E099
S214403870E3E73B6900225A70B8691D4B984730E031
S2144038803B69DB881A463B689A4211D0194B1B6845
S214403890DB7C022B06D1184B984703461A463B69F9
S2144038A05A8005E0154B984703461A463B695A80AE
S2144038B03B691B79DBB2002B0CBF01230023DBB234
S2144038C00133DB003A691344FB60FB6800225A80F0
S2144038D03B6900225A70B869054B98473869084BCF
S2144038E098472037BD4680BD612D4000C533400017
S2144038F0B92D400074AB0020816940006D694000DE
S2144039002D37400080B582B000AF03463960FB716A
S214403910FB79184639680E4B9847034683F00103F7
S214403920DBB2002B01D000230DE0FB7918460121C5
S214403930084B9847034683F00103DBB2002B01D0C7
S214403940002300E0012318460837BD4680BD00BF6F
S214403950093440009134400080B582B000AF034641
S214403960FB71FB791846064B98470346002B14BF5D
S21440397001230023DBB218460837BD4680BD00BF92
S2144039808539400080B584B000AF0346FB71FB79B3
S21440399018460D4B9847F860FB68002B01D1002372
S2144039A00EE0FB681B7CDBB20233DB00FA68134494
S2144039B00433BB60BB685B881A46BB681B88D31A57
S2144039C018461037BD4680BDC533400080B588B028
S2144039D000AF0346FB710023FB61FB791846274B7B
S2144039E0984778617B69002B01D1002342E07B69D0
S2144039F00C333B617B699B79092B0CBF0123002369
S214403A00FB763B691B79DBB20133DB003A69134432
S214403A10FB6000BFFB681A88FB685B889A420CD341
S214403A20FB791846154B98470346002B01D10023D7
S214403A3020E03869124B9847E3E7FB685B68FA6812
S214403A40128813441B781A46FB691343FB61FB68D4
S214403A501B8801339AB2FB681A803869084B98472E
S214403A60FB7E002B05D00023FB76FB691B02FB6127
S214403A70C7E7FB6918462037BD4680BDC5334000C2
S214403A801135400080B584B000AF0346FB71FB792A
S214403A9018460F4B9847F860FB68002B01D100236F
S214403AA011E0FB682433BB60BB68DA88BB681B79CF
S214403AB0DBB2B9680133DB000B445B889A4214BF23
S214403AC001230023DBB218461037BD4680BD00BF39
S214403AD0C533400080B588B000AF03463960FB71FF
S214403AE0FB791846294B9847B861BB69002B01D132
S214403AF0002346E0BB6924337B61BB699B79092B75
S214403B000CBF01230023FB777B691B79DBB20133B3
S214403B10DB007A6913443B6100BF7B69DA883B6906
S214403B205B889A4209D1FB791846184B984703465A
S214403B30002B01D1002324E0E6E7154B9847F860B8
S214403B407B691B79DBB20133DB007A6913443B6146
S214403B503B695A683B695B88591C88B2396948801A
S214403B6013443A68D2B21A70F8680A4B9847FB7FFB
S214403B70002B05D00023FB773B681B123B60C3E756
S214403B80012318462037BD4680BD00BFC5334000E0
S214403B90612D4000B92D400080B483B000AF03468D
S214403BA03960FB71054A3B681360054AFB79137020
S214403BB00C37BD465DF8047B704700BFA0AB0020C5
S214403BC0E2A4012080B500AF014B984780BD00BFFE
S214403BD0B169400080B582B000AF78607868024B2B
S214403BE098470837BD4680BD9169400080B584B08F
S214403BF000AF03463960FB71FB79002B0FD0204B9A
S214403C0001221A701F4B00225A611E4B00229A74E2
S214403C101C4801211C4B98471C4B98472DE03B689D
S214403C20184A934202D11A4B00221A703B689B7C7A
S214403C301846FF21174B98470023FB730AE0FB7B8F
S214403C40154A1B01134408331B6838689847FB7BAA
S214403C500133FB73FB7B002BF1D0386800210A4B05
S214403C6098473B68FF229A743B685B69002B04D0F8
S214403C703B685B691846094B98471037BD4680BD80
S214403C809CAB002084AB0020B9274000A13C4000FC
S214403C90E2A40120456B400020010020059340002F
S214403CA080B500AF0148024B984780BDB53C400008
S214403CB0D53B400080B500AF14200249024B9847E0
S214403CC080BD00BFCD3C4000993B400080B500AF72
S214403CD00148024B984780BDE13C4000D53B400040
S214403CE080B500AF054B984703461A46044BDA7436
S214403CF064200449044B984780BD00BF4569400096
S214403D0084AB00200D3D4000993B400090B585B007
S214403D1002AF80233B7006237B704FF480737B801A
S214403D200023BB800823FB8000200021134B9847CC
S214403D3000204021124B9847034683F00103DBB234
S214403D40002B03D004200F4B984714E03A4600233C
S214403D5000930D4B0193002011460C4A12230C4C45
S214403D60A047034683F00103DBB2002B03D00620B6
S214403D70044B984700BF0C37BD4690BD456B40008E
S214403D80C969400035434000953D400084AB002063
S214403D90696B400080B582B000AF0346FB710B46AE
S214403DA0BB711346BB80BB79002B06D1BB88072B63
S214403DB003D90A4B5B78012B09D0BB79012B01D183
S214403DC0072300E003231846054B984703E01420DA
S214403DD00449054B98470837BD4680BD84AB002054
S214403DE035434000ED3D4000993B400080B500AF74
S214403DF00148024B984780BD013E4000D53B4000FD
S214403E0080B500AF64200249024B984780BD00BF92
S214403E10193E4000993B400090B585B002AF002364
S214403E203B7005237B7001237B80194B01229A74DB
S214403E300023BB800023FB8000200021154B9847C1
S214403E40134BDB7900201946134B9847034683F003
S214403E500103DBB2002B03D00420104B984714E03C
S214403E603A46002300930E4B019300201146084A21
S214403E7012230C4CA047034683F00103DBB2002B11
S214403E8003D00620054B984700BF0C37BD4690BD73
S214403E9084AB0020456B4000C96940003543400074
S214403EA0A93E4000696B400080B582B000AF034633
S214403EB0FB710B46BB711346BB80BB79002B09D008
S214403EC0BB79012B01D1072300E003231846054B9D
S214403ED0984703E014200449044B98470837BD46EA
S214403EE080BD00BF35434000F13E4000993B400056
S214403EF090B585B002AF002000211A4B98471A4B68
S214403F00DB7901201946194B9847034683F0010395
S214403F10DBB2002B03D00420154B98471FE08023CC
S214403F203B7006237B704FF480737B800023BB80FE
S214403F301223FB803A46002300930E4B0193012048
S214403F401146094A12230C4CA047034683F001034E
S214403F50DBB2002B03D00620054B984700BF0C373A
S214403F60BD4690BD456B400084AB0020C96940000B
S214403F70354340007D3F4000696B400090B589B0B6
S214403F8002AF0346FB710B46BB711346BB80BB7941
S214403F90002B06D1BB88122B03D1284B5B78012B14
S214403FA009D0BB79012B01D1072300E00323184633
S214403FB0234B98473FE0214B5B7C012B02D90123E2
S214403FC0FB7501E00123FB7509201E4B984703460D
S214403FD01A461A4B5A61194B5B69002B03D10620CF
S214403FE0174B984727E080233B7306237B73FB7D64
S214403FF09BB2013B9BB29BB243F400739BB29BB215
S214404000FB8100233B8209237B820C4B5A6907F1D4
S2144040100C01002300930C4B0193012009230B4C09
S214404020A047034683F00103DBB2002B03D00620F3
S214404030034B984700BF1C37BD4690BD84AB00205D
S21440404035434000F592400051404000696B4000C7
S21440405090B589B002AF0346FB710B46BB71134661
S214404060BB800023FB82BB79002B07D1BB88092B82
S21440407004D1394B5B695B78022B09D0BB79012BA5
S21440408001D1072300E003231846344B984760E0ED
S214404090314B5B69DB7903F04003002B05D12E4B97
S2144040A05B691B7A9BB25B00FB82FB8AB3F5FA7FA7
S2144040B006DD294802212A4B98472A4B984748E074
S2144040C0254B5B699A78DB781B021343BB82224BF5
S2144040D05B695B79FB74204B5B691846224B9847BB
S2144040E0BB8A1846214B984703461A461A4B5A61D4
S2144040F0194B5B69002B03D10620184B984728E0E4
S21440410080233B7206237B72FB7C9BB2013B9BB2B7
S2144041109BB243F400739BB29BB27B810023BB816E
S214404120BB8AFB810C4B5A6907F10801BC8A002305
S21440413000930F4B0193012023460E4CA0470346A5
S21440414083F00103DBB2002B03D00620034B9847D5
S21440415000BF1C37BD4690BD84AB002035434000B1
S214404160ED274000C53B400005934000F5924000D7
S21440417079414000696B400090B589B002AF034674
S214404180FB710B46BB711346BB800023FB75BB79A6
S214404190002B0ED1BB88082B0BD9374B5B695B785D
S2144041A0022B06D1344B5B695B889BB2BA889A4235
S2144041B009D0BB79012B01D1072300E00323184621
S2144041C02E4B984754E00023BB751EE0BB7D2C4A1F
S2144041D01B0113441B68284898470346002B02D00F
S2144041E0012B0ED002E00123FB750BE00120FF21DE
S2144041F0244B984720480421234B9847234B984705
S21440420036E000BFBB7D0133BB75BB7D002BDDD0E8
S214404210FB7D83F00103DBB2002B06D0164801215C
S214404220194B9847194B984722E000233B730923C4
S2144042307B73114B5B695B799BB2FB8100233B82AE
S21440424000237B8207F10C0200230093104B01935E
S21440425001201146002200230E4CA047034683F05F
S2144042600103DBB2002B03D00620044B984700BF67
S2144042701C37BD4690BD00BF84AB00203543400090
S21440428020010020456B4000ED274000C53B400024
S21440429099424000696B400080B584B000AF034649
S2144042A0FB710B46BB711346BB80BB79002B02D11A
S2144042B0BB88002B1AD00023FB730AE0FB7B184A0E
S2144042C01B01134408331B6816489847FB7B013391
S2144042D0FB73FB7B002BF1D0BB79012B01D107236D
S2144042E000E003231846104B984716E00023BB73A4
S2144042F009E0BB7B0A4A1B0113445B6809489847A0
S214404300BB7B0133BB73BB7B002BF2D0074B002239
S2144043101A7004480021064B98471037BD4680BDAA
S2144043202001002084AB0020354340009CAB002099
S214404330ED27400080B582B000AF0346FB71FB79A5
S214404340072B03D1184B00221A7029E0174B9B7C91
S2144043501846FF21164B9847144B5B69002B07D035
S214404360124B5B691846134B9847104B00225A6114
S2144043700E4B00229A740C4B1B785A1CD1B20A4A38
S2144043801170032B02D80C4B984709E00B4B98470B
S214404390FB79064819460A4B9847034B00221A7089
S2144043A00837BD4680BD00BF9CAB002084AB0020D4
S2144043B0456B400005934000A13C4000C53B400093
S2144043C0ED27400090B589B002AF0346FB71154B10
S2144043D07B617B695B69DB7903F02003002B1DD092
S2144043E0FB79002B02D003237B7301E001237B7310
S2144043F000233B730123FB8100233B8200237B8207
S2144044007B69997C07F10C020023009300230193FB
S2144044100846114600220023034CA04700BF1C3725
S214404420BD4690BD84AB0020696B400080B582B02D
S21440443000AF0346FB71FB79002B04D1064B9B7CF7
S214404440FF2B00D104E0FB7918460349034B9847FD
S2144044500837BD4680BD00BF84AB0020ED3B400022
S21440446080B584B000AF0346FB710023FB7313E0B6
S214404470FB7B184A1B01134408335B68002B08D0AB
S214404480FB7B144A1B01134408335B68FA791046D9
S2144044909847FB7B0133FB73FB7B002BE8D0FB7913
S2144044A083F00103DBB2002B10D00B4B1B78002BA4
S2144044B00CD0094B1B78013BDAB2074B1A70064BFF
S2144044C01B78002B02D1054B1B6898471037BD461A
S2144044D080BD00BF20010020E2A40120A0AB002048
S2144044E080B500AF0020024B9847024B984780BDEE
S2144044F0C54340007928400080B500AF044BFF22FA
S2144045009A74044B00221A70034B984780BD00BF34
S21440451084AB0020E2A401209968400080B582B0B8
S21440452000AF78607868024B98470837BD4680BD34
S214404530414F400080B500AF0B20034B98470C20FE
S214404540014B984780BD00BF1D45400080B487B0F2
S21440455000AF786039607B687B613B683B617B6914
S214404560FB60FB6803F5001303F207735B021A4611
S2144045703B6953601C37BD465DF8047B704700BFFF
S21440458080B48BB000AFF860B9607A60FB687B623D
S214404590BB683B627B68FB617B6ABB61BB6903F5BA
S2144045A0001303F207735B027B61FB6903F00803A9
S2144045B0002B03D07B693A6A5A6602E07B693A6A06
S2144045C01A66FB6903F01003002B04D07B693A6A35
S2144045D0C3F8942003E07B693A6AC3F89020FB69ED
S2144045E003F02003002B03D07B693A6A1A6502E089
S2144045F07B693A6A5A65FB6903F0C003002B03D017
S2144046007B693A6A1A6202E07B693A6A5A62FB69D7
S21440461003F08003002B04D07B693A6AC3F88420F9
S21440462003E07B693A6AC3F88020FB6903F0010324
S214404630002B06D07B691A6F3B6A1A437B691A6760
S21440464006E07B691A6F3B6ADB431A407B691A6750
S214404650FB6903F00203002B06D07B695A6F3B6A66
S2144046601A437B695A6706E07B695A6F3B6ADB43AD
S2144046701A407B695A672C37BD465DF8047B704705
S21440468080B48DB000AF786039607B68FB623B6871
S214404690BB62FB6A7B627B6A5A09FB6A3B623B6A87
S2144046A003F01F03012101FA03F3FA61BB61BB6A01
S2144046B07B61FB693B613B6903F5001303F20773BB
S2144046C05B02FB607B6903F00803002B03D0FB68AA
S2144046D0BA695A6602E0FB68BA691A667B6903F0F3
S2144046E01003002B04D0FB68BA69C3F8942003E09B
S2144046F0FB68BA69C3F890207B6903F02003002B5F
S21440470003D0FB68BA691A6502E0FB68BA695A6565
S2144047107B6903F0C003002B03D0FB68BA691A62BA
S21440472002E0FB68BA695A627B6903F08003002B9B
S21440473004D0FB68BA69C3F8842003E0FB68BA6912
S214404740C3F880207B6903F00103002B06D0FB688A
S2144047501A6FBB691A43FB681A6706E0FB681A6F54
S214404760BB69DB431A40FB681A677B6903F00203A8
S214404770002B06D0FB685A6FBB691A43FB685A6722
S21440478006E0FB685A6FBB69DB431A40FB685A6712
S2144047903437BD465DF8047B704700BF80B48DB0AB
S2144047A000AF78600B46FB707B68FB62FB7887F84F
S2144047B02B30FB6A7B627B6A3B623B6A5B09FB6130
S2144047C0FB6903F5001303F207735B02BB6197F8BE
S2144047D02B30012B09D1FB6A7B617B6903F01F03F9
S2144047E001229A40BB691A610CE097F82B30002BE7
S2144047F008D1FB6A3B613B6903F01F0301229A40E4
S214404800BB695A61FB6AFB60FB6803F01F03012229
S2144048109A40BB69C3F8A0203437BD465DF8047B98
S214404820704700BF80B48BB000AF78600B46FB701B
S2144048307B687B62FB7887F823307B6AFB61FB6989
S214404840BB61BB695B097B617B6903F5001303F2BF
S21440485007735B023B6197F82330002B09D07B6AD5
S214404860FB60FB6803F01F0301229A403B691A6312
S21440487008E07B6ABB60BB6803F01F0301229A40D6
S2144048803B695A632C37BD465DF8047B704700BFD2
S21440489080B500AF214B4FF400425A60204B9847FA
S2144048A0062001211F4B9847062001211E4B9847A2
S2144048B0022000211B4B9847022008211B4B98479B
S2144048C001200121184B984701200121154B98479C
S2144048D02D200121144B98472D200121114B98473C
S2144048E02F200121104B98472F2001210D4B984730
S2144048F000204FF0C05101220D4B984700204FF04A
S214404900C0510C4B9847002018210022084B98476E
S21440491000201821074B984780BD00BF50140E401A
S214404920354540009D4740002548400081464000B0
S214404930814540004D45400080B483B000AFEFF362
S21440494010833B603B68002B0CBF01230023DBB287
S2144049507B6072B6BFF35F8F044B00221A707B6891
S21440496018460C37BD465DF8047B70473001002082
S21440497080B483B000AF78607B68002B14BF0123FF
S2144049800023DBB218460C37BD465DF8047B704703
S21440499080B582B000AF78607868074B984703468A
S2144049A0002B05D0054B01221A70BFF35F8F62B60D
S2144049B00837BD4680BD00BF714940003001002029
S2144049C080B582B000AF78607868024B9847083769
S2144049D0BD4680BD414F400080B584B000AF034621
S2144049E0FB71FB790A4AD35CFF2B00D1FEE7094BEB
S2144049F09847F860FB79064AD25C0132D1B2044A45
S214404A00D154F868044B98471037BD4680BD00BF68
S214404A10DCA40120394940009149400080B582B06D
S214404A2000AF786000204A4B98477B68494A9342DB
S214404A300DD10720484B98470720484B98470720FA
S214404A400021474B98470720464B98477CE07B68B9
S214404A50454A93420DD116203F4B984707203F4B7F
S214404A609847072000213E4B984707203D4B9847E4
S214404A706AE07B683D4A93420DD11520364B9847F5
S214404A800720364B984707200021354B984707208C
S214404A90344B984758E07B68354A93420DD11420F2
S214404AA02D4B984707202D4B9847072000212C4B2D
S214404AB0984707202B4B984746E07B682D4A934201
S214404AC00DD11320244B98470620244B98470620A8
S214404AD00021234B98470620224B984734E07B68BA
S214404AE0254A93420DD10E201B4B984706201B4B60
S214404AF09847062000211A4B98470620194B98479E
S214404B0022E07B681D4A93420DD10920124B9847FC
S214404B100620124B984706200021114B9847062046
S214404B20104B984710E07B68154A93420CD10820FA
S214404B30094B98470620094B984706200021084B0A
S214404B4098470620074B98470837BD4680BD00BFAC
S214404B50D949400000400340C14940004150400010
S214404B60C54F40001D5040000000044000800040FB
S214404B7000C001400080014000400240000002406A
S214404B8000C0004080B483B000AF78600B46FB7036
S214404B90FA787B681A600C37BD465DF8047B704730
S214404BA080B483B000AF0B4B7B607B68D3F8143186
S214404BB023F440627B68C3F814217B68D3F8203125
S214404BC023F001027B68C3F820210C37BD465DF810
S214404BD0047B704700020E4080B483B000AF78601C
S214404BE07B68DB6C18460C37BD465DF8047B704727
S214404BF080B483B000AF78607B689B6C18460C37F7
S214404C00BD465DF8047B704780B584B000AF7860E1
S214404C1039607868244B9847F8607868234B984703
S214404C200246FB681340FB60FB68002B38D000232D
S214404C30BB6032E01E4ABB681B0113441A683B68DF
S214404C409A4223D11A4ABB681B0113445A68FB6830
S214404C501340002B1AD0164ABB681B011344083376
S214404C605B681349BA6812010A4410681049BA686A
S214404C7012010A445268114698470D4ABB681B0108
S214404C8013445B68DB43FA681340FB60BB68013340
S214404C90BB60BB68062B00D902E0FB68002BC9D17D
S214404CA01037BD4680BD00BFD94B4000F14B400099
S214404CB0A4AB002080B500AF02480B21024B9847BA
S214404CC080BD00BF000E0E40094C400080B500AFCE
S214404CD002480C21024B984780BD00BF00100E4092
S214404CE0094C400080B485B000AF78601D491D4B2C
S214404CF01B6B23F070027B6813430B634FF4006317
S214404D00FB6007E0FB68002B01D1012323E0FB6832
S214404D10013BFB60134B9B6E03F00803002BF1D066
S214404D20104A104B1B6B23F0030343F0020313633C
S214404D304FF40063FB6007E0FB68002B01D10123C2
S214404D4009E0FB68013BFB60064B9B6E03F00803E3
S214404D50002BF1D0002318461437BD465DF8047B7F
S214404D60704700BF00040E4080B483B000AF786048
S214404D707B68012B07D1084A074B9B6843F02543C5
S214404D8043F480139360044B044A1A600C37BD46C4
S214404D905DF8047B704700BF10140E40080000A565
S214404DA080B400AF094B5B6903F08003002B07D04B
S214404DB0074B9B6E03F08003002B01D0012300E0DD
S214404DC000231846BD465DF8047B704710140E401D
S214404DD000040E4080B483B000AF7860184A184B89
S214404DE01B6A43F45C1343F00803136200BF144B82
S214404DF09B6E03F40033002BF9D01149104B1B6A0D
S214404E0023F45C1323F070037A68134343F45C1373
S214404E100B6200BF0A4B9B6E03F40033002BF9D0A5
S214404E20074A074B1B6A23F09B7323F4803343F4F3
S214404E305C1313620C37BD465DF8047B704700BFB9
S214404E4000040E4080B483B000AF786039607B6861
S214404E50002B08D01649164B1B6A164A1A40164BAA
S214404E6013430B621EE01249114B1B6A23F45C137A
S214404E7023F003033A68120292B2134343F45C13DE
S214404E8043F001030B6200BF094B9B6E03F0010326
S214404E90002BF9D0064A064B1B6A43F09B7343F43B
S214404EA0803313620C37BD465DF8047B704700BF05
S214404EB000040E40FCFFC8FE0200370180B400AF7D
S214404EC0044B9B6E03F480331846BD465DF8047B66
S214404ED0704700BF00040E4080B400AF034B002272
S214404EE09A62BD465DF8047B704700BF00040E40E2
S214404EF080B400AF044B9B6E03F002031846BD46D9
S214404F005DF8047B704700BF00040E4080B400AFDD
S214404F10034B0022DA62BD465DF8047B704700BF53
S214404F2000040E4080B400AF044B9B6E03F00403B5
S214404F301846BD465DF8047B704700BF00040E402F
S214404F4080B483B000AF78607B68322B01D90123F0
S214404F502FE07B681F2B13D8194B9A697B68012179
S214404F6001FA03F31A407B68012101FA03F39A42DF
S214404F701ED0134A7B68012101FA03F3136117E040
S214404F807B68203B7B600E4BD3F808217B68012171
S214404F9001FA03F31A407B68012101FA03F39A42AF
S214404FA006D0074A7B68012101FA03F3C2F80031B4
S214404FB0002318460C37BD465DF8047B704700BF9B
S214404FC000040E4080B485B000AF78603960124966
S214404FD03B6843F004027B68103341F823204FF4CB
S214404FE00063FB6007E0FB68002B01D101230DE066
S214404FF0FB68013BFB60084B9A6E7B684FF4807100
S21440500001FA03F31340002BEDD000231846143763
S214405010BD465DF8047B704700040E4080B483B004
S21440502000AF7860054A7B684FF4807101FA03F35D
S21440503013600C37BD465DF8047B704700040E4095
S21440504080B483B000AF7860054A7B684FF48071C7
S21440505001FA03F353600C37BD465DF8047B704796
S21440506000040E4080B483B000AF7860064A7B6888
S2144050701B0203F4706343F0010393630C37BD4691
S2144050805DF8047B704700BF00040E4080B400AF5C
S214405090034B40221A60BD465DF8047B704700BF54
S2144050A000040E4080B485B000AF786039607B68FD
S2144050B0DB6923F4F053FB603B6803F00F035A02AE
S2144050C0FB68134343F0B44343F480737A68D36178
S2144050D01437BD465DF8047B704700BF80B483B08C
S2144050E000AF78607B68072B25D801A252F823F0E2
S2144050F011514000175140001D51400023514000BF
S214405100275140002B5140002F5140003351400062
S2144051104FF4FA4310E04FF400430DE04FF40043E1
S2144051200AE0084B08E0084B06E0084B04E0002382
S21440513002E0002300E0002318460C37BD465DF829
S214405140047B704700127A000024F40000366E019B
S21440515080B500AF0120044B9847024640F67233B4
S21440516003FB02F3184680BDDD50400080B500AF1B
S214405170024B98470346184680BD00BF5151400039
S2144051802DE9F04383B000AF00237B6007E0964AEA
S2144051907B68002142F823107B6801337B607B6884
S2144051A0072BF4D9914800214FF48072904B9847D2
S2144051B09048002110228E4B984700237B602FE0BA
S2144051C07B681B018C4A1344184600211022884BEA
S2144051D098477B681B01894A1344184600211022D1
S2144051E0834B98477B681B01854A13441846002129
S2144051F010227F4B98477B681B01824A134418460F
S214405200002110227A4B98477B681B017E4A134444
S214405210184600211022764B98477B6801337B6006
S2144052207B68072BCCD9794800211022704B9847D1
S2144052307748002110226E4B9847764800218022FE
S2144052406B4B9847744800218022694B98477348B7
S21440525000214FF48072664B9847714800214FF406
S2144052608072634B98474FF0015301229A6000BF0B
S2144052704FF001539B6803F00103002BF8D14FF029
S2144052800153684A5A634FF0015342F62F221A647C
S2144052904FF001535B683B603B6823F0C0033B60C4
S2144052A03B6843F080033B604FF001523B685360DD
S2144052B04FF001524FF001535B6843F004035360D4
S2144052C04FF001524FF001535B6843F008035360C0
S2144052D04FF00153454A9A614FF00153DB684FF057
S2144052E001514FF00152D2681343CB604FF0015347
S2144052F04D4A1A614D4B9847034618464FF00001F9
S21440530002460B46921843EB0303121843EB010385
S2144053104FEAC30949EA52794FEAC20842464B4629
S214405320121843EB0103921843EB03031046194649
S21440533043F2AF624FF00003121843EB01033C4EBA
S2144053401046194643F2B0624FF00003B04702469B
S2144053500B4613461846374B98474FF001534FF4C9
S21440536080321A654FF0015310225A6500BF4FF045
S21440537001535B6D03F01003002BF8D12B4B98477D
S214405380034618464FF0000102460B46921843EB80
S2144053900303121843EB01035D0145EAD26554014D
S2144053A0121943EB0503121843EB010343F2AF60B7
S2144053B04FF00001121843EB01031D4C10461946EE
S2144053C043F2B0624FF00003A04702460B46134636
S2144053D01846184B98474FF001534FF480125A65C1
S2144053E00C37BD46BDE8F083E0B3002000AD00209A
S2144053F06D99400000AE002030AE0020C0AF0020C7
S21440540050B10020C0AE002040AF002010AE0020BB
S21440541020AE002050B00020D0B00020E0B10020E8
S214405420E0B20020DF2E78A74E0000806D5140008D
S214405430E18C40000100002080B400AF4FF00153E3
S2144054405B6D03F40073002B01D0012300E00023C2
S2144054501846BD465DF8047B704700BF80B400AF79
S214405460044BB3F880309BB21846BD465DF8047BCB
S214405470704700BF00AD0020B0B500AF4FF00153FD
S21440548010225A6500BF4FF001535B6D03F01003C6
S214405490002BF8D11A4B9847034618464FF00001A8
S2144054A002460B46921843EB0303121843EB0103E4
S2144054B05D0145EAD2655401121943EB0503121803
S2144054C043EB010343F2AF604FF00001121843EB89
S2144054D001030C4C1046194643F2B0624FF00003ED
S2144054E0A04702460B4613461846074B98474FF0D0
S2144054F001534FF480125A65044B01221A60B0BD26
S2144055006D514000E18C40000100002004B40020B2
S21440551080B483B000AF4FF001524FF001535B6848
S21440552043F4806353604FF001535B687B607B6855
S21440553023F0C0037B607B6843F0C0037B604FF082
S21440554001527B6853604FF001534FF400421A6596
S2144055500C37BD465DF8047B704700BFB0B582B0DF
S21440556000AF4FF001534FF000421A654FF0015321
S2144055705B687B607B6823F0C0037B607B6843F09E
S21440558040037B604FF001527B685360254B984741
S214405590034618464FF0000102460B46921843EB6E
S2144055A00303121843EB0103DD0045EA5275D400AD
S2144055B022462B46121843EB0103921843EB030393
S2144055C01046194643F2AF624FF00003121843EB01
S2144055D00103154C1046194643F2B0624FF00003E3
S2144055E0A04702460B4613461846104B98474FF0C6
S2144055F001535B687B607B6823F0C0037B607B68FD
S21440560043F080037B604FF001527B6853604FF05D
S21440561001524FF001535B6823F4806353600837B0
S214405620BD46B0BD6D514000E18C400001000020F9
S21440563080B582B000AF7860084800211022084B41
S21440564098474FF00153054A1A627B681B68034A25
S2144056501360012318460837BD4680BD00AE0020C3
S2144056606D99400080B586B000AF786000237B61BE
S2144056702AE0324B1B78DBB21A467B6942FA03F3C8
S21440568003F00103002B1CD17B69012202FA03F3CD
S214405690DAB22A4B1B78DBB2DBB21343DBB2DAB2A8
S2144056A0264B1A707B691B01254A13441846002175
S2144056B01022244B98477B691B01214A1344FB6008
S2144056C005E07B6901337B617B69072BD1D97B6918
S2144056D0082B01D100232DE04FF001539B6A3B611C
S2144056E03B69002B08D17B681A68FB681A604FF04C
S2144056F00152FB6893621CE010E03B691B88C3F3D1
S214405700C313DAB27B681B88C3F3C313DBB29A4277
S21440571001D100230EE03B69DB683B613B69DB68F7
S214405720002BEAD13B69FA68DA607B681A68FB6846
S2144057301A60012318461837BD4680BDB0AE00201B
S21440574030AE00206D99400080B586B000AF7860DE
S2144057507B685B7823F07F03DBB2002B55D00023B9
S2144057603B612AE0644B1B78DBB21A463B6942FA3F
S21440577003F303F00103002B1CD13B69012202FA1C
S21440578003F3DAB25C4B1B78DBB2DBB21343DBB21B
S214405790DAB2594B1A703B691B01584A13441846F3
S2144057A000211022564B98473B691B01534A13442D
S2144057B0FB6005E03B6901333B613B69072BD1D970
S2144057C03B69082B01D1002392E07B681A68FB688E
S2144057D01A6000237B6113E04A4A7B6952F8233003
S2144057E0BB60BB68002B05D1FA6846497B6941F827
S2144057F0232002E0BB68FA68DA607B6901337B618C
S2144058007B691F2BE8D9012372E000233B612AE025
S2144058103D4B1B78DBB21A463B6942FA03F303F072
S2144058200103002B1CD13B69012202FA03F3DAB2D2
S214405830354B1B78DBB2DBB21343DBB2DAB2324B0A
S2144058401A703B691B01314A134418460021102246
S2144058502B4B98473B691B012C4A1344FB6005E0E1
S2144058603B6901333B613B69072BD1D93B69082B28
S21440587001D100233CE000237B6135E0214A7B696F
S21440588052F82330BB60BB68002B1CD17B681A687B
S214405890FB681A60FA681B497B6941F823207B69DC
S2144058A00833FA68174941F823207B691033FA68B1
S2144058B0144941F823207B691833FA68114941F8A6
S2144058C02320012314E0BB681B88C3F3C313DAB25A
