:020000040040BA
:10000000700A0220F9154000F5154000F515400072
:10001000F5154000F5154000F51540000000000002
:10002000000000000000000000000000B9194000BE
:10003000F515400000000000311A4000811A400010
:10004000F5154000F5154000F5154000F515400088
:10005000F5154000F5154000F5154000D1014000B0
:1000600095344000F515400000000000DD1140000F
:10007000F1114000F5154000F5154000F515400060
:10008000F5154000F5154000F5154000E930400039
:10009000F5154000F5154000F5154000F515400038
:1000A000F5154000F5154000F5154000F515400028
:1000B000F5154000F5154000F51540000000000062
:1000C0000000000000000000000000000000000030
:1000D0000000000000000000000000000000000020
:1000E0000000000000000000000000000000000010
:1000F000000000000000000000000000210A400095
:10010000F5154000F515400000000000000000005B
:1001100000000000000000000000000000000000DF
:1001200000000000000000000000000000000000CF
:1001300000000000000000000000000000000000BF
:10014000000000000000000010B5054C237833B912
:10015000044B13B10448AFF300800123237010BD9A
:100160000009002000000000C4894000084B10B5C1
:100170001BB108480849AFF300800848036803B979
:1001800010BD074B002BFBD0BDE81040184700BF47
:1001900000000000C489400004090020C489400018
:1001A0000000000010B582B000200190054B984778
:1001B00030B1054B1868002101AA0B46034CA0473B
:1001C00002B010BDB50440001C090020B11F400062
:1001D00010B582B02248234B9847044610F0010F17
:1001E00020D0214B98471E4801A9204B984710B9B1
:1001F00014F4E07F08D01A4C20461D4B9847204647
:100200001C4B98471C4B984700201C4B984710B933
:100210001B4B984703E0002001991A4B98471A4B53
:1002200098471AE010F0020F17D00020174B98479C
:1002300048B1174B98470020164B9847014608488D
:10024000154B984709E0064C2046144B984720462A
:100250000221134B9847134B984702B010BD00BFC3
:10026000004203403515400035064000551540005A
:100270002115400019154000690640004505400061
:100280006D064000690540005D064000B504400071
:1002900001064000C904400041154000111540000E
:1002A0003115400029064000084B1B6853B1074B2D
:1002B0001B7B834208D9C0EB0010044B9B6803EB07
:1002C0008000704700207047002070472009002000
:1002D0002DE9F04184B0EFF31085B5FA85F56D098D
:1002E00072B6BFF35F8F0022404B1A70467846B15A
:1002F000002D75D001221A70BFF35F8F62B6002601
:100300006FE004460379DBB2027912F0FF0F0BBFF6
:100310000121002110270827074400EBC302508960
:10032000B2F808E0864503D300201081508100E038
:1003300080B9013104EBC1014A885AB15F1C04EB5A
:10034000C707237913F0FF0F0CBF0123002323718C
:10035000274B98477B8843B1002D42D00122234B85
:100360001A70BFF35F8F62B63BE0224B1B68DB7CE9
:10037000022B0ED1B4F802801F4B9847804516D14E
:10038000002D2ED00122194B1A70BFF35F8F62B679
:1003900027E0B4F80280194B9847804507D105B390
:1003A0000122124B1A70BFF35F8F62B619E001236E
:1003B00063702DB11A460D4B1A70BFF35F8F62B692
:1003C0000C4B1B68987C21787B68E28800920A229B
:1003D00001920B4A029201220A4CA047064600E015
:1003E0000026304604B0BDE8F08100BF0C000020BC
:1003F000A5014000200900205D0B4000510B40008A
:1004000009044000610B40002DE9F8430F46904677
:10041000994600241A4EE0B2B047054600282DD078
:100420000134037BBB42F6D1B8F1070F03D1B9F118
:10043000000F07D102E0B8F1000F03D000236B7367
:10044000BDE8F8836B8A4B4508D00E4B1B68DB7CFC
:10045000022B0CBF0C4B0D4B9847E8812B7C13F003
:10046000FF0F0CBF082300232B4400229A82A3F81D
:1004700016906A7305F10C00054B9847BDE8F883A8
:10048000A9024000200900205D0B4000510B4000F4
:10049000D102400008B5064B984730B1027C00EB12
:1004A000C203DA8A988A101A08BD002008BD00BF6E
:1004B000A902400008B5034B9847003018BF01203F
:1004C00008BD00BF950440002DE9F84F80461B4B46
:1004D000984748B3044600F10C0990F806A0BAF119
:1004E000090F14BF4FF0000A4FF0010A0025144E07
:1004F000AB46124F237C04EBC3039A8AD98A9142FC
:1005000005D84046B84790B14846B047F2E79969E8
:10051000885C054301329A824846B047BAF1000F21
:1005200008D02D02DA46E5E70020BDE8F88F00206C
:10053000BDE8F88F2846BDE8F88F00BFA90240004B
:10054000D102400008B5074B984748B190F82820E1
:1005500000EBC202438DD08D181A18BF012008BDD0
:10056000002008BDA90240002DE9F84F82460D4643
:10057000214B9847002835D004468679092E14BFB0
:1005800000260126DFF8748000274FF00109DFF80C
:1005900068B094F8283004EBC303628DDB8D9A4277
:1005A00004D15046D8470028F3D11EE0EFF3108263
:1005B00072B6BFF35F8F88F8007094F8283004EBB0
:1005C000C303186BD98D01F1010EA3F82EE0455439
:1005D00022B988F80090BFF35F8F62B646B12D1242
:1005E0003E46D6E70020BDE8F88F0020BDE8F88F32
:1005F0000120BDE8F88F00BFA90240000C000020D8
:1006000008B50122044B1A700448054B98474FF077
:100610008042044B1A6308BD3009002098814000D5
:10062000A1504000000E0E400022014B1A7070478E
:100630003009002008B50122044B1A700448054B0C
:1006400098474FF08042044B1A6308BD30090020E0
:10065000AC814000A1504000000E0E400022014B32
:100660001A70704730090020704700BF704700BF04
:10067000024BB3F8800080B2704700BF000D00202D
:1006800010B54FF001544FF000432365636823F029
:10069000C00343F0400363600648074B9847636814
:1006A00023F0C00343F080036360636823F4806336
:1006B000636010BD0F8A0600010000202DE9F041A3
:1006C00044B2002CB4BF0227012700F00F004FF006
:1006D0000154A46A002C7FD000262588C5F3C315D9
:1006E000854274D16578C5F3C105BD426FD1A0685C
:1006F00020F00F08606820F00F0CBD4DBD48C5F814
:100700000080C0F800C0D5F800E00768BE45F6D10B
:10071000B948360100EB060E00258551CEF804508D
:100720000EF1080747F8045B3D60DFF8DCC20CEB14
:1007300006074CF806507D60083747F8045B3D60BB
:10074000875947F480278751875947F4C017875145
:10075000875927F460078751875927F040778751D9
:10076000875927F040678751875927F0704787518D
:10077000CEF80410CEF80850013A1144CEF80C100F
:10078000A26812F0010F40F04581994AC2F800E0DA
:10079000116821F00F01116011681960A168954B73
:1007A0001960196801F00F0119601B6811680B438B
:1007B00013601368A36065604FF0015304229A60D0
:1007C0005A6842F020025A600120BDE8F081E468D6
:1007D0000136002C81D100E00024DFF828E25EF829
:1007E00024603588C5F3C315854240F0FA807578DA
:1007F000C5F3C105BD4240F0F480707810F0800F61
:100800007BD1B06820F00F08706820F00F0C784D95
:100810007848C5F80080C0F800C0D5F800E0076847
:10082000BE45F6D14FF00150456825F004054560FE
:10083000456825F0080545607048240100EB040E6A
:1008400000250551CEF804500EF1080747F8045B67
:100850003D60DFF8B8C10CEB04074CF804507D6034
:10086000083747F8045B3D60075947F48027075174
:10087000075947F4C0170751075927F46007075174
:10088000075927F040770751075927F0406707516C
:10089000075927F070470751CEF80410CEF80850DA
:1008A000013A1144CEF80C10B26812F0010F40F07A
:1008B000B4804F4AC2F800E0116821F00F011160C6
:1008C00011681960B1684B4B1960196801F00F018C
:1008D00019601B6811680B4313601368B36075607F
:1008E0004FF001535A6842F004025A605A6842F0CD
:1008F00008025A600120BDE8F081B36823F00F0CB4
:10090000736823F00F0E3A483A4BC0F800C0C3F8A2
:1009100000E007681D68AF42F7D14FF001577B68D0
:1009200023F004037B607B6823F008037B60344D75
:10093000640105EB040E00232B51CEF804300EF1B8
:10094000080040F8043B40F8043B40F8043B40F802
:10095000043B40F8043B0360DFF8B4C00CEB040038
:100960004CF804304360083040F8043B40F8043B46
:1009700040F8043B40F8043B40F8043B0360214846
:10098000B0F88000033080B255F804C04FEA1C4C28
:100990004FEA0C4C4CEA00002851285920F4600022
:1009A0002851285920F0E0602851285920F0704043
:1009B0002851CEF80410CEF80830013A1144CEF890
:1009C0000C10AEF81030C6F808E073607B6843F096
:1009D00004037B607B6843F008037B600120BDE873
:1009E000F0810134082C7FF4FAAE0020BDE8F081DC
:1009F000640C0020000E0020C00A002040090020E6
:100A0000400B0020000D0020100E0020900E002052
:100A1000C00900200020BDE8F0810020BDE8F08181
:100A200070B54FF001531E6D5D6DDA681C6914409E
:100A300014F0020F1AD0404BD3F8841002224FF06A
:100A40000153DA6021F00F023C4B23F00F039A426E
:100A500008BF42F000423A4B1A603948CA7803682E
:100A600043EA12130360374B5B68984714F0080F92
:100A700009D008224FF00153DA60334B9847314BCD
:100A8000DB682F48984714F0400F33D02F4B1B687A
:100A900083B14FF001534FF480125A654022DA605F
:100AA00000222A4B1A60264802230360254B9B69CB
:100AB00098471FE015F4803F15D04FF001534FF4D5
:100AC00080325A654022DA6016F4004F12D115F0D8
:100AD000010F14BF00220122194B1A60194B9B69A8
:100AE0001748984706E040224FF00153DA60FF2292
:100AF000134B1A6014F0040F07D004224FF0015377
:100B0000DA60104B9B680E48984714F0010F07D02D
:100B100001224FF00153DA600A4B1B6808489847DE
:100B200014F0100F07D010224FF00153DA60054B7C
:100B30001B690348984770BD000D0020500C002031
:100B4000400C0020100F002081064000600C0020A7
:100B500008B5014B984708BD71064000002070475A
:100B60002DE9F04180460F461E46334B1B7C2BB1CE
:100B7000314B012493F8242092B900E000242E4840
:100B800004EB840189004318002242505A60083364
:100B900043F8042B43F8042B1A60082C07D142E0D9
:100BA00001341433082CE5D10020BDE8F081EFF3C7
:100BB0001085B5FA85F56D0972B6BFF35F8F002217
:100BC0001E4B1A7004EB84031B4A02EB8303384666
:100BD0003146069A0833DFF868C0E04740B92DB3C4
:100BE0000122164B1A70BFF35F8F62B6BDE8F08129
:100BF000114BA000011989005A1803F801805770A1
:100C00000021917056600899D160044403EB84047C
:100C1000012323746DB11846084B1870BFF35F8F22
:100C200062B6BDE8F0810020BDE8F0810020BDE89B
:100C3000F0810120BDE8F081300F00200C00002081
:100C4000BD06400010B50E480E4B984700200E4BD5
:100C500098470E4CA0470028FCD00D4B98470D4AF2
:100C60000D4B9A620D4CA0470028FCD000200C4B85
:100C700098470C4B98470C48024B984710BD00BF53
:100C8000000E2707C5174000ED1240001113400069
:100C900031134000013F4D0E00040E403D13400053
:100CA00085124000DD16400000002707A8B92DE995
:100CB000F0410C469046002A0ADD8F18084E094D77
:100CC000306821462B6898470134BC42F8D101E0D6
:100CD0004FF000084046BDE8F0814FF0FF3070470C
:100CE00094C701208CC701200138022818D82DE9AB
:100CF000F0410E46144682B10D46DFF838800C4FA5
:100D0000D8F8000015F8011B3B68984700280ADB5B
:100D1000A81B013CF4D1BDE8F0810020BDE8F081C2
:100D20004FF0FF3070474FF0FF30BDE8F08100BF5B
:100D300090C7012094C701200C2805D1012903D1B7
:100D400008B5024B984708BD704700BF094C4000EA
:100D500070B582B04FF40042704B5A600B20704C5B
:100D6000A0470C20A0476F4C4FF080432361C4F88C
:100D7000A03063636C4D02232B61C5F8A0302B6358
:100D8000284601210A22694B9847694B009328465F
:100D90000C2101225923674EB0474FF48056664B11
:100DA0001E6028460C210022644B984728460121EA
:100DB000634B98474FF440732B66C5F890306B65D2
:100DC0006B62C5F880302A6F22F440722A676A6F1E
:100DD00022F440726A676B604FF400732366C4F8B4
:100DE000903063656362C4F88030226F22F4007231
:100DF0002267626F22F40072626763604FF480635F
:100E00002366C4F8903063656362C4F88030226F53
:100E100022F480622267626F22F4806262676360FC
:100E20004FF000732366C4F8903063656362C4F8C2
:100E30008030226F22F000722267626F22F000720F
:100E4000626763604FF080632366C4F89030636527
:100E50006362C4F88030226F22F080622267626F82
:100E600022F080626267636018232366C4F89030C2
:100E700063656362C4F88030226F22F01802226733
:100E8000626F22F01802626763602666C4F89060A1
:100E900066656662C4F88060236F23F4805323671D
:100EA000636F23F48053636766604FF400532366D7
:100EB000C4F8903063656362C4F88030226F22F416
:100EC00000522267626F22F40052626763604FF43F
:100ED00080432366C4F8903063656362C4F8803051
:100EE000226F22F480422267626F22F4804262679E
:100EF00063604FF400632366C4F8903063656362F7
:100F0000C4F88030226F22F400622267626F22F4FC
:100F100000626267636002B070BD00BF50140E4093
:100F20004D134000000E0E4000100E40ED1040002A
:100F3000390D40009D11400000E100E00512400025
:100F40003911400008B5EFF3108372B6BFF35F8F1D
:100F500000214A4A11704A490A7801320A702BB9B5
:100F60000122464B1A70BFF35F8F62B6454B984221
:100F70000DD10720444B98470720444B9847072042
:100F80000021434B98470720424B984708BD424BEE
:100F900098420DD116203C4B984707203B4B984771
:100FA000072000213A4B984707203A4B984708BD45
:100FB0003A4B98420DD11520334B98470720334BBD
:100FC000984707200021324B98470720314B98471C
:100FD00008BD334B98420DD114202B4B9847072066
:100FE0002A4B984707200021294B98470720294B77
:100FF000984708BD2B4B98420DD11320224B9847A0
:101000000620224B984706200021214B98470620B6
:10101000204B984708BD244B98420DD10E201A4B07
:1010200098470620194B984706200021184B9847EF
:101030000620184B984708BD1C4B98420DD109203B
:10104000114B98470620114B984706200021104B62
:10105000984706200F4B984708BD154B98420CD176
:101060000820094B98470620084B98470620002186
:10107000074B98470620074B984708BD0C000020F7
:1010800084C70120004003404D134000F513400089
:10109000A1134000E5134000000004400080004020
:1010A00000C00140008001400040024000000240BA
:1010B00000C00040016070470B4619B109688160AB
:1010C0005B68C3601AB1136883615368C36170477A
:1010D00021F0FE01C905C90D0162704721F4FE71BE
:1010E00021F001018905890D01627047C0F8841063
:1010F00052004FF40043B3FBF2F2013AC2F30D0287
:10110000C0F88C20704700BF12F0100F10D0C0F84C
:10111000B01012F0200F14BFC0F8D410C0F8D010D7
:1011200012F0400F14BFC0F8C010C0F8C4107047D0
:10113000C0F8B410704700BFC36C0164704700BFB3
:1011400041647047C06C7047806C70472DE9F04176
:10115000044688460E4B9847054620460D4B984757
:10116000054013D00C4C04F160062368434508D1B8
:101170006168294205D0E36840469847636825EADC
:101180000305B44202D01034002DEED1BDE8F08149
:101190004511400049114000D40F0020F8B50C4C17
:1011A0002468062C11D815460A4F2201BE18B950E2
:1011B0007560B360069AF2600134054A14602946EE
:1011C0001A46054B98470020F8BD0120F8BD00BF26
:1011D000D00F0020D40F00200911400008B50248AC
:1011E0000B21024B984708BD000E0E404D114000E8
:1011F00008B502480C21024B984708BD00100E406C
:101200004D114000F8B505460C461746184B984757
:10121000064628464FF0FF31164B98472846164B96
:101220009847E2B202F01F030121994063099B0035
:1012300003F1604303F56143C3F88010C3F88011E4
:10124000002C06DA02F00F023F01FFB20B48875470
:1012500007E03F01FFB204F1604404F5614484F803
:101260000073196028463146054B9847F8BD00BF0A
:1012700049114000411140004511400014ED00E0CB
:1012800039114000184A136B23F0700318431063A0
:10129000936E13F0080F03D009E0013B03D11EE069
:1012A0004FF4006310498A6E12F0080FF5D00E4A11
:1012B000136B23F0030343F002031363906E10F0EB
:1012C000080004D000207047013B03D109E04FF42F
:1012D000006305498A6E12F0080FF5D070470120AF
:1012E00070470120704700BF00040E40012806D15E
:1012F000054A936843F0254343F480139360034AFF
:10130000014B1A60704700BF10140E40080000A582
:10131000054B5B6913F0800F1DBF044B986EC0F343
:10132000C0100020704700BF10140E4000040E4093
:101330000022014B9A62704700040E40024B986EE7
:1013400000F00200704700BF00040E4032281ED893
:101350001F280CD8114B9A69012383401A409342ED
:1013600017D0012383400D4A1361002070470B4BB7
:10137000D3F808212038012383401A4093420AD031
:1013800001238340054AC2F8003100207047012044
:101390007047002070470020704700BF00040E40D7
:1013A00041F004010E4B00F1100243F822109B6E35
:1013B0004FF48071814011EA030004D0002070478F
:1013C000013B04D107E010B44FF40063044CA26E5B
:1013D0001142F5D000E001205DF8044B704700BFDA
:1013E00000040E404FF480738340014A136070473D
:1013F00000040E404FF480738340014A53607047ED
:1014000000040E4010B40B0193420FD91CE002F00F
:101410000702416841F40021416043EA024202624E
:1014200000201EE001201CE001201AE0D20002EBA7
:101430005302B2FBF3F2D3085C1E4FF6FE718C42EE
:10144000F0D802F00702E8E7C900D20002EB51022F
:10145000B2FBF1F2D3085C1E4FF6FE718C42D6D976
:10146000E2E75DF8044B7047084BC0F8E430002316
:1014700043604362836288230360242303604FF444
:10148000807303604FF4002303607047004153559D
:1014900070B505460C4616460F4B984700220F4B79
:1014A0001A609CB12846216832460D4B9847024687
:1014B00070B9A1686368194323691943E3680B4352
:1014C00006490B6069680B436B6002E0012200E093
:1014D0000122104670BD00BF691440004410002076
:1014E0000514400010B50446064B984738B902462B
:1014F000636823F00F0343F00203636000E00122FE
:10150000104610BD9114400040230360704700BF97
:1015100080230360704700BF10230360704700BF43
:1015200024230360704700BF4162704781607047A9
:10153000C1607047406970474FF4006303607047B3
:10154000436913F0020F1DBFC1F30801C161002000
:1015500001207047436913F0010F05D08369C3F37D
:1015600008030B600020704701207047184B984219
:101570001FD003F5A03398421DD003F58043984255
:101580001BD0A3F54043984219D003F580439842FD
:1015900017D0A3F5A033984215D003F560339842D5
:1015A00013D0A3F53F430B4A90420CBF18460020CE
:1015B000704709487047094870470948704709480B
:1015C000704709487047094870470948704700BF8D
:1015D00000C200400042034000C30040000302403C
:1015E000004302400083014000C3014000830040EB
:1015F00000030440FEE700BF08B52A4B2A4A9A427E
:1016000003D02A4B274A9A4204D3294B294A9A42AB
:1016100010D31BE023490A1D274B9B1A23F0030319
:101620000433214A134452F8040B41F8040B9A4244
:10163000F9D1EAE7214B224AD21A22F003021A44D6
:10164000043B002143F8041B9342FBD11D4B23F0C4
:101650007F011D4A9160EFF3108272B6BFF35F8F76
:1016600000201A4908701A48016841F470010160AD
:10167000BFF34F8FBFF36F8F2AB90121134A117047
:10168000BFF35F8F62B603F16043B3F5203F04D22E
:101690000D4A936843F0005393600E4B98470E4BEE
:1016A0009847FEE700000020C4894000940800200D
:1016B0006CDA0120000900209708002004090020AE
:1016C0006FDA01200000400000ED00E00C00002077
:1016D00088ED00E051504000394E4000314B1B6B0B
:1016E00003F00303012B0FD013B1022B29D042E0EA
:1016F0002D4B5B6913F0800F14BF4FF400424FF481
:10170000FA422A4B1A6036E0264B1B6A13F0807FA0
:1017100003D0274A254B1A602DE0264A234B1A6036
:10172000204B1B6A03F07003102B02D0202B04D037
:1017300021E0214A1D4B1A601DE0204A1B4B1A6014
:1017400019E0194B5B6913F0800F14BF4FF400428E
:101750004FF4FA42154B1A60124B1B6B03F0030354
:10176000022B08D10F4B9B6A1049C3F30C420B6844
:1017700002FB03330B600B4B1B6B03F07003702BEE
:1017800007D10A4A13680E49A1FB03135B081360D3
:101790007047044B1A6B0549C2F302120B68D34021
:1017A0000B60704700040E4010140E401000002023
:1017B000001BB70000127A000024F40000366E010E
:1017C000ABAAAAAA1D4B984204D84FF080621C4BCA
:1017D0001A6070471B4B984203D81B4A184B1A607B
:1017E00070471A4B984203D8194A154B1A60704734
:1017F000184B984203D8184A114B1A607047174B80
:10180000984204D84FF004220D4B1A607047144BD5
:10181000984203D8134A0A4B1A607047124B9842F9
:1018200003D8124A064B1A607047114B984294BF76
:10183000104A114A024B1A60704700BF7F9FD500C3
:10184000000A0E40FF3EAB01000100047FDE800273
:1018500000020004FF7D5603000300047F1D2C04DA
:10186000FFBC010500050004FFD7B8050006000411
:10187000FFF26F060007000400080004094B1B6814
:1018800013B9094A074B1A60064B1B681A18074917
:10189000914204DB1046034A1060184670474FF02F
:1018A000FF30704748100020700A0220FC7F0220A1
:1018B0004FF0FF30704700BF4FF400534B600020E3
:1018C000704700BF012070470020704700F10803F7
:1018D00043604FF0FF328260C36003610023036006
:1018E000704700BF00230361704700BF43685A6818
:1018F0004A6042688A605A68916059604160086134
:10190000036801330360704710B40C68B4F1FF3F03
:1019100001D103690AE000F10803C2681268944229
:1019200004D35B685A6812689442FAD25A684A60D3
:1019300091608B60596008610368013303605DF852
:10194000044B7047436882689A60836842685A60B3
:1019500003695A68824204BF82685A6000220261A9
:101960001A68013A1A601868704700BF0348006897
:10197000006880F3088862B600DF00BF08ED00E071
:10198000DFF80C00016841F470010160704700004D
:1019900088ED00E04FF0807340F8043C40F8081CEC
:1019A000002340F80C3C40F8202C6FF0020340F874
:1019B000243C4438704700BF054B19680868B0E8FC
:1019C000F04F80F309884FF0000080F311887047D2
:1019D000D89101204FF08052014B1A60704700BF30
:1019E00004ED00E0EFF311804FF0500181F3118816
:1019F0007047002008B5034B9847034A136801332A
:101A0000136008BDE51940001400002080F3118820
:101A1000704700BF08B5044A1368013B136013B94F
:101A20000020024B984708BD140000200D1A40000A
:101A3000EFF30980114B1A681EF0100F08BF20ED5C
:101A4000108A20E9F04F10602DE908404FF0500057
:101A500080F3118800F0D8FE4FF0000080F3118869
:101A6000BDE8084019680868B0E8F04F1EF0100F94
:101A700008BFB0EC108A80F309887047D891012024
:101A800008B54FF08052054B1A60054B9847054B3F
:101A900098470020044B984708BD00BF04ED00E0C4
:101AA000E51940004D2540000D1A4000034A044B43
:101AB0001A600722043B1A60704700BFBBD40100C4
:101AC00014E000E010B50C4B1A6842F470021A6082
:101AD0001A6842F070421A60084B98470024084B7D
:101AE0001C60084B9847084A136843F04043136052
:101AF000064B9847204610BD20ED00E0AD1A40008F
:101B0000140000208119400034EF00E06D194000FE
:101B1000134A00E01A4613688342FBD330B41146DF
:101B200054681519854203D168680444546010460E
:101B3000426884189C420CD10A4B1B689C4206D018
:101B400063681A4442600B681B68036002E004602B
:101B500000E00360814218BF086030BC704700BFDE
:101B6000549001205090012038B504462C4B9847E2
:101B70002C4B1B68ABB92C4A2C4B136000215160D5
:101B800003F5BF3202F5F870264D2860C2F8F41153
:101B9000C2F8F011264A5A601860264A1368103BB2
:101BA0001360002C36D004F1100212F0070F1CBF96
:101BB00022F007020832511E1F4B994227D81A49BA
:101BC0000C6801E021461C4663689A4202D92368EA
:101BD000002BF7D1134B1B689C4218D00D681035B1
:101BE00023680B6063689B1A202B04D9A0184360FC
:101BF0006260124B98470F4A136861685B1A136062
:101C00000F4B98474DB90F4B9847002505E00C4BFB
:101C10009847F8E70A4B9847F5E7284638BD00BFD4
:101C2000D5244000509001205490012050100020F5
:101C3000F07F010018000020FE7F0100111B400012
:101C400079264000814F400080B110B50446084B12
:101C50009847084A116854F80C3C0B441360A4F1EF
:101C60001000054B9847054B984710BD704700BFC3
:101C7000D524400018000020111B400079264000A8
:101C800010B50446036C3BB903681BBB4068134B9B
:101C90009847002363601DE06AB980681A46104BBC
:101CA0009847A268236C1344A3606268934211D3DF
:101CB0002368A3600EE0C0681A46094B9847236C5E
:101CC0005B42E2681A44E26021688A4202D262689A
:101CD0001344E360A36B0133A36310BDF52B4000F5
:101CE0006156400038B50346006858B11A6CDC688C
:101CF0001444DC605D68AC4228BFD8600846D968EF
:101D0000014B984738BD00BF61564000F8B5044606
:101D10001E4B9847A36C002B13DD636A1BB910E0C0
:101D2000636A23B90DE004F12406194D194F3046BA
:101D3000A84700B1B847A36C013BA364A36C002B78
:101D4000EEDC4FF0FF33A364134B98470F4B9847DB
:101D5000636C002B13DD23691BB910E0236923B9E1
:101D60000DE004F110060A4D0A4F3046A84700B1B5
:101D7000B847636C013B6364636C002BEEDC4FF08F
:101D8000FF336364044B9847F8BD00BFF51940006A
:101D9000DD294000212B4000151A400038B50D46C2
:101DA000044620B917484FF48F71174B9847174BCB
:101DB00098472268216CE36B03FB01F3D018606045
:101DC0000020A063A2605B1A1344E3604FF0FF336E
:101DD0006364A36455B923697BB104F110000C4B13
:101DE0009847012809D10B4B984706E004F11000F1
:101DF000094DA84704F12400A847084B9847012043
:101E000038BD00BFC0814000994F4000F519400027
:101E1000DD294000D5194000CD184000151A4000BA
:101E2000F8B5D0B10D461746064650200F4B9847DF
:101E3000044690B105FB06F001300C4B984720603A
:101E400040B1E663256420460121094B984784F898
:101E50004D7008E02046074B984707484FF4BA7189
:101E6000064B984700242046F8BD00BF691B400080
:101E70009D1D4000491C4000C0814000994F40001A
:101E80002DE9F04F85B08B4601920093044620B9AE
:101E90003A4840F24B213A4B9847BBF1000F06D12C
:101EA000236C23B135484FF41371354B98474FF0ED
:101EB0000009344DDFF8F4A0334EA847A26BE36B62
:101EC0009A4212D220465946009A304B9847636A8C
:101ED0003BB104F124002E4B9847012801D12D4B32
:101EE0009847294B9847012044E0019B1BB9264B9A
:101EF000984700203EE0B9F1000F03D102A8D04777
:101F00004FF00109B047244B9847A847636CB3F1E1
:101F1000FF3F04BF00236364A36CB3F1FF3F04BF22
:101F20000023A364B04702A801A91C4B9847D8B965
:101F3000A847D4F83880E76BB047B8450ED104F114
:101F400010000199164B98472046164B9847164BA0
:101F500098470028B1D10F4B9847AEE72046114B68
:101F60009847114B9847A8E720460E4B98470E4BD1
:101F70009847002005B0BDE8F08F00BFC081400049
:101F8000994F4000F5194000151A4000811C40008F
:101F9000DD294000D5194000D5244000952A400095
:101FA000F12840000D1D400079264000652A4000C0
:101FB0002DE9F0410D4617469846044620B91D48C4
:101FC00040F292311C4B984735B9236C23B1194824
:101FD00040F29331184B9847184B98470646A26B2E
:101FE000E36B9A4218D2204629464246144B984742
:101FF000A36CB3F1FF3F0AD1636A7BB104F1240003
:10200000104B984760B16FB101243C600BE0A36CAA
:102010000133A364012406E0002404E0012402E06B
:10202000012400E001243046074B98472046BDE8D4
:10203000F08100BFC0814000994F4000E519400089
:10204000811C4000DD2940000D1A40002DE9F04FB1
:1020500085B0894601929A46044620B9454840F227
:10206000CE31454B9847B9F1000F06D1236C23B10F
:10207000404840F2CF31404B984700273F4DDFF8B2
:102080002C813F4EA847A36B43B3E56820464946E1
:102090003C4B9847BAF1000F12D1A36B013BA363ED
:1020A000236813B9384B98476060236993B104F1F2
:1020B0001000364B984701280CD1354B984709E062
:1020C000E560636A33B104F12400304B984708B1EE
:1020D0002F4B98472A4B9847012048E0019B1BB99A
:1020E000274B9847002042E017B902A8C0470127B4
:1020F000B047284B9847A847636CB3F1FF3F04BF34
:1021000000236364A36CB3F1FF3F04BF0023A36407
:10211000B04702A801A9204B984710BBA847D4F8A4
:1021200038B0B047BBF1000F15D1236823B9A847D9
:1021300060681A4B9847B04704F124000199184B86
:1021400098472046174B9847174B9847002899D136
:102150000F4B984796E72046124B9847124B9847EB
:1021600090E720460F4B98470F4B9847002005B04B
:10217000BDE8F08FC0814000994F4000F519400044
:10218000151A4000E51C40002D2B4000DD294000C1
:10219000D5194000D5244000952A4000592B400015
:1021A000F12840000D1D400079264000652A4000BE
:1021B00038B504460D460D4B9847636CB3F1FF3FAD
:1021C00004BF00236364A36CB3F1FF3F04BF00238B
:1021D000A364074B9847A36B23B904F12400294655
:1021E000044B98472046044B984738BDF5194000EA
:1021F000151A4000752940000D1D400010B5044619
:102200000E4B1B6858600E4B1B68984207D20D4B53
:1022100018680A4B196804310B4B984710BD0B4BDB
:102220001868064B19680431074B9847084B1B6820
:102230009C423CBF064B1C6010BD00BFD8910120E2
:10224000649001209491012009194000AC91012073
:102250001C0000202DE9F04F83B0884615460193FD
:102260000C9FDDF834900E9E009020B95F484FF42B
:10227000F7715F4B98470E2F04D95C4840F2EF117D
:102280005B4B984750205B4B98470446002800F072
:10229000A780002E40F0A180A800564B98472063ED
:1022A00018B92046544B98479AE0A521AA00534BF1
:1022B000984705F18045013D236B03EB850525F02B
:1022C000070504F1340041460A224D4B98474FF070
:1022D000000A84F83DA03E460E2F28BF0E26E66277
:1022E000A66404F104084046DFF864B1D84704F15D
:1022F0001800D8472461C6F10F06A6616462C4F8CD
:102300004CA028460099019A3E4B98472060B9F1AD
:10231000000F01D0C9F800403B4B98473B4A136877
:10232000013313603A4B1B680BBB394B1C601368BD
:10233000012B26D1374D05F59679374E2846B04703
:1023400014354D45FAD1DFF80C914846324DA84777
:10235000324E3046A8473248A8473248A84732484C
:10236000A847324BC3F80090314B1E6009E0314B57
:102370001B6833B9264B1B68DB6A9F4224BF244B82
:102380001C60E06A2C4B1B68984284BF2A4B186083
:102390002A4A136823640133136029490A68012318
:1023A000834013430B6000EB80001A4B03EB80006B
:1023B0004146244B9847244B98471E4B1B6843B11A
:1023C000134B1B68DB6A9F4205D9204B98470120BD
:1023D00008E0012006E0012004E00663304664E7DF
:1023E0004FF0FF3003B0BDE8F08F00BF58824000CF
:1023F000994F4000691B4000491C40009557400020
:102400002D5A400095194000F5194000B091012067
:10241000D891012068900120CD184000049201203D
:10242000B491012098910120DC910120AC91012010
:1024300094910120C891012024920120D49101207F
:102440005C900120ED184000151A4000D51940009D
:10245000E5184000F091012010B584B000230093EE
:10246000019302930393104810498222104CA04715
:10247000012810D10F4B984701280CD10E4B9847DB
:1024800001220E4B1A6000220D4B1A600D4B98472B
:102490000D4B984705E020B90C4840F216510C4B03
:1024A000984704B010BD00BF8527400098824000C7
:1024B000552240000D2D4000E5194000C891012033
:1024C00064900120ED4F4000C51A40005882400042
:1024D000994F4000024A136801331360704700BFF0
:1024E0001892012010B5044B9847044B1C68044B0C
:1024F0009847204610BD00BFF519400064900120A8
:10250000151A400010B5044B9847044B1C68044B47
:102510009847204610BD00BFE51940006490012097
:102520000D1A400010B5044638B9054B1C6824B993
:10253000044840F2CC51044B984704F1340010BDDC
:10254000D891012058824000994F40003D4B1B68B4
:10255000002B6FD12DE9F0413B4B1A6801321A6014
:102560001B680BBB394B1B681B6823B1384840F212
:102570008F61384B9847354B1968374A1068186097
:10258000116036490A6801320A601B681B6823B96A
:102590004FF0FF32324B1A6006E02C4B1B68DB68B1
:1025A000DB685A682E4B1A60274B1A682C4B1B6845
:1025B0009A4244D3254B1B681B686BB1234B1B68A5
:1025C000DB68DC686368204A1268934213D8254FA1
:1025D000254EDFF8A08012E04FF0FF32204B1A604A
:1025E000BDE8F081194B1B68DB68DC686368164A3C
:1025F0001268934203D91A4A1360BDE8F081251D81
:102600002846B847A36A13B104F11800B847E06A36
:102610003268012383401343336000EB800008EBF2
:1026200080002946114B9847084B1B681B68002BFC
:10263000D8D1D1E70E4A1368013313607047BDE863
:10264000F08100BF1892012064900120AC9101201C
:1026500058824000994F400094910120209201201F
:102660001C000020451940005C900120ED1840003E
:102670001C920120689001202DE9F843314B1B6822
:1026800023B931484FF4AA61304B9847304B9847F3
:102690002C4B1A68013A1A601B68002B4AD12D4B4B
:1026A0001B680BBB002448E0F368DC6804F11800E9
:1026B000C847251D2846C847E06AD8F800200123EE
:1026C00083401343C8F8003000EB8000224B03EB3B
:1026D00080002946214B9847214B1B68E26ADB6A40
:1026E0009A4228BF012705E000271E4EDFF88C9094
:1026F000DFF88C803368002BD6D11B4B1B6863B18D
:10270000194B1B687BB1194D174CA8472368013B37
:1027100023602368002BF8D105E0012F03D0144B70
:102720001B68012B08D10022114B1A60114B9847EE
:10273000012402E0002400E000240F4B98472046CB
:10274000BDE8F8831892012058824000994F40005C
:10275000F5194000B091012068900120ED1840006B
:10276000D8910120B49101201C9201204D254000F8
:10277000D0910120D5194000151A4000451940009C
:102780005C90012080B5154D154EDFF87480154F13
:1027900019E0C0473468B847ACB1134B9847F368A9
:1027A000DC68201D114B9847114A1368013B1360E8
:1027B0002B68013B2B600F4B9847206BDFF8449050
:1027C000C8472046C8472B68002BE2D10A4B1B683C
:1027D000012BF8D9094B9847D7E700BF609001203B
:1027E0009891012079264000F519400045194000D4
:1027F000B0910120151A400068900120D5194000C1
:10280000D5244000491C400038B52D4B1B681BB136
:1028100001222C4B1A6038BD2B4B98472B4A146869
:102820002B49E36C0D685B1B0344E364086011688B
:1028300013680A681B6B9A4205D8244B18681968FC
:102840003431244B9847214B1B68186B22491422C2
:10285000224B984728B11D4B1868196834311D4B1D
:1028600098471F4B1C68B4FA84F4E4B2C4F11F0407
:1028700004EB84039B001B4AD35823B91A4840F247
:1028800041711A4B9847174BA200111903EB8101B4
:102890004868406848600B460833984206D1416852
:1028A00004EB84030F4A02EB8303596004EB8404B6
:1028B0000C4B03EB84046368DA68044B1A6038BD80
:1028C00018920120D0910120FD4F4000D8910120A5
:1028D000CC9101208D4F400000824000FD5540000A
:1028E0005C9001206890012058824000994F400080
:1028F00070B50D46064620B9144840F24C71144B91
:102900009847144C216830461831134B984720687B
:102910000430124B984740B9236811490A68D86AB5
:102920000123834022EA03030B60B5F1FF3F06D188
:10293000084B19680B4804310B4B984770BD0B4B83
:10294000186828440A4B984770BD00BF5882400061
:10295000994F4000D89101200919400045194000C5
:102960005C900120DC910120ED1840006490012072
:10297000FD21400070B50D46064620B90F4840F2D3
:1029800082710F4B98470F4C2168304618310E4B1F
:102990009847206804300D4B984740B923680C498C
:1029A0000A68D86A0123834022EA03030B60094BBB
:1029B00018682844084B984770BD00BF58824000F3
:1029C000994F4000D8910120ED1840004519400072
:1029D0005C90012064900120FD21400038B5C3685F
:1029E000DC6824B916484FF4F761164B984704F198
:1029F00018052846144B9847144B1B689BB9251D96
:102A00002846114B9847E06A11490A680123834020
:102A100013430B6000EB80000E4B03EB8000294654
:102A20000D4B984703E00D4829460B4B98470C4B3C
:102A30001B68E06ADB6A984234BF0020012038BD81
:102A400058824000994F40004519400018920120DB
:102A50005C90012068900120ED184000B4910120A5
:102A6000D891012010B5044620B9064840F2DA7129
:102A7000054B9847054B1B682360054B1B6863603B
:102A800010BD00BF58824000994F400020920120A5
:102A90006490012038B50C46054620B9194840F22B
:102AA000E471194B984724B9164840F2E571164B6A
:102AB0009847164B98472368B3F1FF3F19D0144A43
:102AC00012682968914204D0124A126869689142DA
:102AD00011D9104A12686968521A93420DD90D4AE9
:102AE0001268511A5B1A236028460B4B9847002442
:102AF00004E0002402E0012400E00124074B984791
:102B0000204638BD58824000994F4000F5194000DA
:102B10002092012064900120652A4000151A40008F
:102B20000122014B1A607047D0910120014B1868B7
:102B3000704700BFD8910120054B1B6833B1054B8E
:102B40001B68002B0CBF012002207047002070473B
:102B5000C891012018920120002840D038B5C36ADE
:102B60001F490968C96A8B4238D21D490968C96A78
:102B7000C1F10F01816103EB83031A4901EB830368
:102B80004169994226D10446051D2846164B9847AF
:102B900068B9E26A02EB82039B001249CB5833B951
:102BA000124801680123934021EA030303600C4BA0
:102BB0001B68D86AE0620D490A6801238340134309
:102BC0000B6000EB8000074B03EB80002946084BAD
:102BD000984738BD024B1B68DB6AC36238BD70473B
:102BE000D891012068900120451940005C90012097
:102BF000ED18400000282CD038B5C16A826C914293
:102C000026D00446051D2846124B984768B9E26A4B
:102C100002EB82039B001049CB5833B90F4801687F
:102C20000123934021EA03030360A36CE362C3F131
:102C30000F02A2610948016801229A400A4302601A
:102C400003EB8303044800EB83002946044B9847B9
:102C500038BD704745194000689001205C90012004
:102C6000ED18400010B504464160206191420AD839
:102C7000D21A83699A4211D20A4B1868211D0A4B55
:102C80009847002010BD9A4201D2994208D2074BC2
:102C90001868211D044B9847002010BD012010BD6D
:102CA000012010BD5C9201200919400028920120EA
:102CB00070B50D4B98470D4B1B688BB90C4D2846D2
:102CC0000C4EB0470C4C2046B0470C4B1D600C4BD3
:102CD0001C6005200C2100220A4B9847034B18600A
:102CE000094B984770BD00BFF5194000589201206C
:102CF0002C920120CD184000409201202892012002
:102D00005C920120211E4000151A400010B584B0CD
:102D10000D4B98470D4B1B686BB10E23009300239E
:102D20000193029303930A480A494FF443720A4CF1
:102D3000A047034620B90948DA21094B98470023E8
:102D4000184604B010BD00BFB12C400058920120BD
:102D5000CD2E4000A082400055224000A8824000B5
:102D6000994F40002DE9F04129B90F48E7210F4B59
:102D70009847002414E0804616461D460F4628203A
:102D80000B4B9847044658B10A4B9847C4F800804B
:102D9000A761E6612562069B6362201D064B98478A
:102DA0002046BDE8F08100BFA8824000994F400056
:102DB000691B4000B12C4000E518400030B585B0DB
:102DC0000F4C2568C5B10191029203906BB90D4B70
:102DD000984701280A4B186801A907BF089A0023E1
:102DE00000221346084CA04707E0284601A91A46CE
:102DF0000023064CA04700E0002005B030BD00BF16
:102E000058920120392B4000811E4000B11F400024
:102E10002DE9F04782B08146234B98478046234BEB
:102E20001B68984236D226E0DA68D2F800A0DB6848
:102E3000DC68251D2846B847636A20469847E36941
:102E4000012B1AD1A3695344534506D96360246109
:102E500030682946164B98470FE000230093204620
:102E600019465246134CA04738B9134840F2752111
:102E7000124B984701E0124E124F33681A68002A2D
:102E8000D2D1114A10680E49086013600123C9F8B5
:102E9000003002E00023C9F80030044BC3F8008082
:102EA000404602B0BDE8F087E5244000549201207E
:102EB00009194000BD2D4000A8824000994F4000F4
:102EC00028920120451940005C9201202DE9F04F25
:102ED00087B0DFF86CA1DFF86CB14E4EDFF8688187
:102EE000DAF800301A68002A00F08B80DB681D6871
:102EF000D84703A8484B98470446039B002B31D181
:102F0000854225D8454B9847DAF80030DB68DF6802
:102F1000381DC047FB69012B15D1B96938462944D2
:102F200022462B463E4CA04701280CD1002300939B
:102F3000384619462A463B4CA04720B93A484FF438
:102F4000A9713A4B98477B6A384698470CE00025B0
:102F50003068291B364B9847304B984720B9354B82
:102F6000984701E02D4B984702A82B4B98470746FE
:102F7000314DDFF8AC903CE0059C1CB163690BB1AE
:102F8000201DC047039B022B21D0032B2ED0002BEA
:102F90002FD1049BA169204619443A46C84701280D
:102FA00027D1636A20469847E369012B21D1A269A2
:102FB0000023009320461946049C2244194CA04744
:102FC000B8B9194840F22921184B984711E0049BE1
:102FD000A36123B9144840F23621144B9847A169E4
:102FE000204639443A463B46C84702E02046134B48
:102FF0009847306803A900221346A8470028BBD190
:103000006EE7D84703A8044B98470446039B002B60
:103010009DD0A7E758920120112E4000792640004C
:10302000652C4000BD2D4000A8824000994F400013
:10303000B1214000D51940004D204000491C4000FE
:1030400028920120D52440004519400010B586B0D3
:1030500000230293039304930593174B0093C0231B
:103060000193164C2046164B984720460121154BDC
:10307000984704F5007420466946134A134B984755
:10308000204640F2A171124B9847124BE02283F880
:1030900013234FF400221A60204640F201110E4B18
:1030A000984720460D4B984720460D4B98472046A1
:1030B0000C4B984706B010BDF0FA020000800140AA
:1030C000450F4000B5104000000027079114400054
:1030D0002915400000E100E02D15400039154000A1
:1030E000091540001915400010B582B00023019366
:1030F0002048214B984710F0010F12D01D48694617
:103100001E4B9847002833D11D4B1B8841F2873254
:1031100093422DD81A4A591C11801344009A9A7070
:1031200026E010F4807F14D0154B1A886AB11C4633
:10313000144819460232144B984700232380134A3F
:103140001068194601AA124CA0470A48114B98472B
:103150000EE010F0100F0BD0064C20460E4B984797
:103160004FF400710D4B9847204610210C4B9847A7
:1031700002B010BD008201403515400055154000D9
:103180000CA60120809201206156400098B90120D0
:10319000B11F4000391540006D154000DD104000A2
:1031A00031154000F0B583B007460E460A4C204664
:1031B0000A4B984705460097019669460022084B3E
:1031C000984728464FF48071064B984720461021B7
:1031D000054B984703B0F0BD008201406D154000DB
:1031E000B9104000D11040002D15400008B5094B22
:1031F000AA221A7010215970012199700021D970EA
:1032000018715A711F229A7118460721024B98476C
:1032100008BD00BF60920120A531400010B5124BDF
:1032200098470146114C12482288124B98476288F1
:1032300048F2CC039A4216D103200F4B98470F4C0B
:103240002046002141F246120D4B984720460D4979
:103250004FF48A520C4B984701220C4B1A702046AF
:1032600000210B4B984710BDE524400080920120BF
:1032700024834000A1504000ED31400098C7012058
:103280009557400086920120615640009CB901206C
:10329000F537400010B5094BAA221A7088245C70DB
:1032A00002249C700024DC70187159719A718F226D
:1032B000DA7118460821024B984710BD6092012030
:1032C000A531400008B50120002103220D4B98478D
:1032D0000D4B186038B100210A460B460B4CA04735
:1032E000094B1B6813B90A480A4B9847064E0A4D0A
:1032F0000A4C306800214FF0FF320B46A847A04728
:10330000F7E700BF211E400098B90120811E400050
:1033100030834000A15040004D2040001D3240004D
:103320001E4B1B78013B032B37D8DFE803F002224A
:103330002C121B4BDB6B13F0804F4FF08042184B6D
:1033400014BF5A631A63174A137883F0010313708A
:103350007047134BDB6B13F0804F4FF08042104BE4
:1033600014BF5A631A630F4A137883F00103137072
:1033700070474FF080420A4B5A630023094A13708A
:10338000064A137070474FF08042054B1A630122C2
:10339000044B1A700022014B1A707047290000205C
:1033A000000E0E4008BB0120F8B5064E02277763D9
:1033B000054D2846054CA0472846A04737632846B8
:1033C000A047F8BD00100E401E140D0001000020A3
:1033D00030B587B00546002303930493059300900E
:1033E000C02301934FF4006302931A4C20461A4BFA
:1033F000984720460121194B984704F50074204650
:103400006946174A174B98476D001749A1FB0531CC
:1034100020468909154B9847154BE02283F808236D
:103420004FF480721A60204640F20111114B984708
:10343000114A124B1A60124A124B1A602046124B64
:1034400098472046114B98472046114B984707B0A4
:1034500030BD00BF00C00040450F4000B510400027
:1034600000002707E5144000D34D621029154000E5
:1034700000E100E02D15400020BF012034C70120ED
:1034800024C3012030C70120391540000915400030
:103490001915400030B583B0002300932748284B0E
:1034A000984710F0010F12D0244801A9254B9847E6
:1034B000002840D1244B1B68B3F5806F3BD2234AD0
:1034C00012680199D15401331F4A136033E010F49C
:1034D000807F1AD01D4B1A681D4C2168196022602C
:1034E000194B1968C2F8001400251D601348194BC8
:1034F0009847194B186821466A462B46174CA04737
:10350000009BC3B1164B984715E010F0100F0CD07C
:103510000A4C2046134B98474FF40071124B9847C2
:1035200020461021114B984705E010F0080F02D0FB
:103530000F48104B984703B030BD00BF00C2004099
:103540003515400055154000C4B9012034C701208D
:1035500030C7012039154000A0B90120B11F40003B
:10356000D51940006D154000DD10400031154000B8
:1035700068834000A150400059B1431E013950FA00
:1035800081F1002013F8012F1044C0B28B42F9D111
:1035900070470020704700BF30B585B07A4B039369
:1035A0007A4B98477A4A137801331370794B9847CE
:1035B000794BDB6B13F0010F50D1754B1B78042B4B
:1035C00027D9764B1868D0B100214FF0FF320B4657
:1035D000734CA047734B984704460020724B9847A2
:1035E000024672482146724CA0477248A0476B4B76
:1035F000186800210A460B466F4CA04702E06D4850
:103600006B4B984700226D4B1A7003226C4B1A705B
:10361000B7E0624B1868D0B100214FF0FF320B4683
:103620005F4CA0475F4B9847044600205E4B98478D
:1036300002465E4821465E4CA0476248A047574B71
:10364000186800210A460B465B4CA04702E05D4823
:10365000574B98470122594B1A7092E0574B1B78F1
:10366000002B40D14D4B1868D0B100214FF0FF32F4
:103670000B464B4CA0474B4B9847044600204A4B07
:103680009847024649482146494CA0474E48A04722
:10369000424B186800210A460B46474CA04702E0FF
:1036A0004948434B98470123454A1370474C7E22B3
:1036B000227000256570A3700223E3702046042168
:1036C000434B984720710523424A1380039A1460A4
:1036D00004A951F8042D53603F4B18682A462B4625
:1036E000354CA04738E0012B36D12C4B1868D0B1AF
:1036F00000214FF0FF320B46294CA047294B984739
:1037000004460020284B9847024628482146284C6A
:10371000A0473248A047214B186800210A460B46B3
:10372000254CA0472AE02D48214B984726E002F877
:10373000013F0133B3F5806FF9D129490B68294A5C
:103740001A600B684FF4C8725A60234B18684FF424
:103750007A720023184CA0470C4B984700240C4B5E
:103760001C700C4B98470121144B19701E4B1868A4
:103770000094224623461D4CA04702E01C4A002329
:10378000D5E705B030BD00BFECBA0120F519400007
:103790002CC70120151A400000100E4048C7012018
:1037A0004D204000E524400025254000788340005E
:1037B000A150400084834000811E4000280000206A
:1037C0002900002098834000B4834000A8B901205C
:1037D000793540001CBF012038C70120CC83400050
:1037E0002C0000200CBB0120E8BA0120BD2D4000B8
:1037F0000BBB012038B5164B7E221A7000225A707E
:103800007C229A708A22DA70197148B10346104CF2
:103810007A22601D02FB01310E4B98477F3400E095
:103820000D4C0B4D611B2846C9B20C4B98472346E3
:1038300003F8010B0A490A6815600A685B1B5360AC
:10384000084B18684FF47A720023074CA04738BD24
:10385000DCB9012061564000E1B901207935400012
:103860002400002038C70120811E4000F0B583B03D
:10387000184B0193184C7E232370002363703D2363
:10388000A3702A23E370154D043405F130072E464A
:103890000FCE20606160A260E36035461034BE4206
:1038A000F5D107CD20606160A2600B4C204640211D
:1038B0000B4B984784F84000064B1C6041225A602D
:1038C000084B186801A94FF0FF320023064CA047AF
:1038D00003B0F0BDD0B90120E0D80120E88340005A
:1038E0007935400038C70120811E40002DE9F04F96
:1038F00087B004460D4601AFDFF800E2BEE80F00D6
:103900000FC7DEF800303B706A4800214FF4807228
:10391000694B9847802D02D82E460DB91DE07F26B1
:10392000664A274621468E46104611F8013B0DF1A6
:10393000180C0CEB131313F8143C02F8023C9EF81D
:10394000003003F00F03634413F8143C02F8013C09
:103950000232CB1B9E42E6D800E05648002303709B
:10396000574B186828B300214FF0FF320B46554ED5
:10397000B047554B984706460020544B984702469F
:1039800053483146534EB04753482946494AB047F9
:103990004B4B186800210A460B46504EB047032D8A
:1039A00040F2568721787E290CD14D4EDFF850A188
:1039B0004CE0494829463F4A464B9847EFE7217873
:1039C0007E2943D0474B1B78002B00F041873C4BAE
:1039D0001868D8B100214FF0FF320B46394DA84787
:1039E000394B984705460020384B984702463848DF
:1039F0002946384DA8473C482178A847304B1868DD
:103A000000210A460B46354CA04702E03648314BB0
:103A10009847364C7E23237002236370A023A37043
:103A20000123E370204604212D4B98472071304933
:103A30000B681C600B6805225A602E4B18684FF407
:103A40007A720023254CA04700F002BFA778033705
:103A5000FFB220463946B047804604EB0709E15DD6
:103A600081424FD0164B1868F0B100214FF0FF3261
:103A70000B46144CA047144B984704460020134BA8
:103A80009847024612482146124CA0471A4899F816
:103A900000104246A0470A4B186800210A460B4610
:103AA0000E4CA04700F0D4BE13484246094B98473D
:103AB00000F0CEBE60D901209557400062D90120A8
:103AC00048C701204D204000E52440002525400046
:103AD00078834000A150400028844000811E4000AF
:103AE00079354000F8BA01203C844000C8B9012073
:103AF0002000002038C7012060844000E08740009B
:103B0000000E0E40E778FB1EFB2B00F27386DFE809
:103B100013F0A8017106710671067106960671060A
:103B2000250157017106710671067106710671064D
:103B300071067106710671067106710671067106CD
:103B400071067106710671067106710671067106BD
:103B500071067106710671067106710671067106AD
:103B6000710671067106710671067106710671069D
:103B7000710671067106710671067106710671068D
:103B8000710671067106710671067106710671067D
:103B9000710671067106710671067106710671066D
:103BA000710671067106710671067106710671065D
:103BB000710671067106710671067106710671064D
:103BC000710671067106710671067106710671063D
:103BD000710671067106710671067106710671062D
:103BE000710671067106710671067106710671061D
:103BF000710671067106710671067106710671060D
:103C000071067106710671067106710671065B0513
:103C100071027106090671067106710671064D0280
:103C200071067106710671067106710671067106DC
:103C300071067106710671067106710671067106CC
:103C40007B01710671067106710671069606D00138
:103C500071067106710671069A0287032404D10465
:103C6000F50471067106710671067106710671061A
:103C7000710671067106710671067106710671068C
:103C8000710671067106710671067106710671067C
:103C9000710671067106710671067106710671066C
:103CA0007D059F05C1054F067106710671067106F7
:103CB000710671067106710671067106710671064C
:103CC000710671067106710671067106710671063C
:103CD000710671067106710671067106710671062C
:103CE000710671067106710671067106710671061C
:103CF0007106710671067106710671063905FC00C0
:103D0000F401710634030203E002904B1868D0B14D
:103D100000214FF0FF320B468D4FB8478D4B98472F
:103D2000074600208C4B984702468C4839468C4FFA
:103D3000B8478C48B847854B186800210A460B469F
:103D4000894FB84702E08748854B98470122874B47
:103D50001A700322864B1A7000F071BD7B4B1868F5
:103D6000D0B100214FF0FF320B46794FB847794B65
:103D7000984707460020784B9847024677483946CF
:103D8000774FB8477B48B847704B186800210A4600
:103D90000B46754FB84702E07648714B98470120B3
:103DA000DFF80482C0477448744FB8470220C04708
:103DB0007148B84700203221714B984700F03FBD51
:103DC000624B1868D8B100214FF0FF320B46604FAC
:103DD000B847604B9847074600205F4B984702461C
:103DE0005E4839465E4FB8476648B847574B186833
:103DF00000210A460B465C4FB84700F020BD6148E1
:103E0000574B984700F01BBD504B1868D0B10021AC
:103E10004FF0FF320B464E4FB8474E4B9847074680
:103E200000204D4B984702464C4839464C4FB84706
:103E30005548B847454B186800210A460B464A4F7B
:103E4000B84702E05048464B9847504B1978242910
:103E500000F2F5844A1C1A704D484E4B984700F00A
:103E6000EEBC2379032B40F0EA84384B1868D8B1B4
:103E700000214FF0FF320B46354FB847354B98477E
:103E800007460020344B9847024634483946344FA1
:103E9000B8474148B8472D4B186800210A460B46E1
:103EA000314FB84700F0CBBC3B482D4B984700F052
:103EB000C6BC264B1868D8B100214FF0FF320B4624
:103EC000234FB847234B984707460020224B98477B
:103ED000024622483946224FB8473048B8471B4B64
:103EE000186800210A460B461F4FB84700F0A7BCD0
:103EF0002A481B4B984700F0A2BC294A136801339B
:103F00001360124B1868D8B100214FF0FF320B46F6
:103F10000F4FB8470F4B9847074600200E4B984766
:103F200002460E4839460E4FB8471E48B847074B61
:103F3000186800210A460B460B4FB84700F07FBCBB
:103F40001848074B984700F07ABC00BF48C70120CB
:103F50004D204000E52440002525400078834000A6
:103F6000A15040009C844000811E4000F8BA01200E
:103F700029000020B4844000936441000100002027
:103F800095324000D8844000F88440009CB901205C
:103F900098C70120F537400014854000388540005F
:103FA00028C7012058854000ED3140008C4B18682F
:103FB000D8B100214FF0FF320B468A4FB8478A4BE9
:103FC000984707460020894B98470246884839465B
:103FD000884FB8478848B847814B186800210A467F
:103FE0000B46864FB84700F02ABC8348814B984760
:103FF00000F025BC4FF08043CAF830300122804BDE
:104000001A70774B1868D0B100214FF0FF320B4681
:10401000744FB847744B984707460020734B984736
:10402000024673483946734FB8477648B8476C4BD9
:10403000186800210A460B46704FB847FFE37148E5
:104040006C4B9847FBE323790BBB654B1868D0B1E9
:1040500000214FF0FF320B46624FB847624B984742
:1040600007460020614B9847024661483946614F38
:10407000B8476548B8475A4B186800210A460B46AE
:104080005E4FB847DBE360485A4B9847D7E3544B41
:104090001868D0B100214FF0FF320B46514FB8479E
:1040A000514B984707460020504B984702465048CE
:1040B0003946504FB8475548B847494B1868002112
:1040C0000A460B464D4FB847B9E35048494B98470D
:1040D000B5E3434B1868D0B100214FF0FF320B46D7
:1040E000404FB847404B9847074600203F4B984702
:1040F00002463F4839463F4FB8474548B847384BD6
:10410000186800210A460B463C4FB84797E34048E1
:10411000384B984793E304F1050840463D4B9847D8
:1041200083462F4B1868F8B100214FF0FF320B4641
:104130002C4FB8472C4B9847814600202B4B984773
:1041400002462B4849462B4FB8471FFA8BF20132E3
:10415000314841464244B847214B186800210A467D
:104160000B46264FB8476AE31FFA8BF201322A4802
:10417000414642441F4B984761E304F1050840461D
:10418000244B98478346164B1868F8B100214FF02E
:10419000FF320B46134FB847134B98478146002018
:1041A000124B9847024612484946124FB8471FFA29
:1041B0008BF20132194841464244B847084B18680F
:1041C00000210A460B460D4FB84738E31FFA8BF221
:1041D0000132124841464244064B98472FE300BF44
:1041E00048C701204D204000E5244000252540001F
:1041F00078834000A150400070854000811E40003F
:1042000008BB012084854000A0854000B0854000A7
:10421000C4854000D1594000DC854000FC85400049
:10422000237923BB944B1868D0B100214FF0FF32A3
:104230000B46924FB847924B984707460020914B48
:104240009847024690483946904FB8479048B8473B
:10425000894B186800210A460B468E4FB84702E08A
:104260008B488A4B984702228B4B1A70E7E2072B48
:1042700024D10322884B1A707F4B1868D0B10021DB
:104280004FF0FF320B467D4FB8477D4B98470746AE
:1042900000207C4B984702467B4839467B4FB84705
:1042A0007E48B847744B186800210A460B46794F80
:1042B000B847C4E27948754B9847C0E2082B24D12F
:1042C0000322754B1A706C4B1868D0B100214FF067
:1042D000FF320B46694FB847694B984707460020A5
:1042E000684B9847024668483946684FB8476C485B
:1042F000B847614B186800210A460B46654FB8471E
:104300009DE26748614B984799E2092B40F09782FC
:104310000322614B1A70584B1868D0B100214FF03E
:10432000FF320B46554FB847554B9847074600207C
:10433000544B9847024654483946544FB847594859
:10434000B8474D4B186800210A460B46514FB847F5
:1043500075E254484D4B984771E223790BBB464BAD
:104360001868D0B100214FF0FF320B46434FB847D9
:10437000434B984707460020424B98470246424825
:104380003946424FB8474848B8473B4B1868002168
:104390000A460B463F4FB84751E243483B4B9847CC
:1043A0004DE2072B21D1344B1868D0B100214FF0DA
:1043B000FF320B46314FB847314B98470746002034
:1043C000304B9847024630483946304FB84733485B
:1043D000B847294B186800210A460B462D4FB847AD
:1043E0002DE22E48294B984729E2082B21D1224B58
:1043F0001868D0B100214FF0FF320B461F4FB8476D
:104400001F4B9847074600201E4B984702461E4800
:1044100039461E4FB8472248B847174B1868002145
:104420000A460B461B4FB84709E21D48174B9847F1
:1044300005E2092B40F003820F4B1868002835D0A5
:1044400000214FF0FF320B460C4FB8470C4B9847FA
:10445000074600200B4B984702460B4839460B4F46
:10446000B8471048B847044B186800210A460B4665
:10447000084FB847E3E100BF48C701204D20400086
:10448000E52440002525400078834000A1504000ED
:1044900024864000811E4000290000203C86400008
:1044A00058864000788640009C8640008A488B4BA6
:1044B0009847C4E18A4B1868D0B100214FF0FF3211
:1044C0000B46884FB847884B984707460020874BD4
:1044D0009847024686483946804FB8478548B847CE
:1044E0007F4B186800210A460B46834FB84702E00D
:1044F00080487A4B9847814B9847A0E1784B1868E1
:10450000D0B100214FF0FF320B46764FB847764BC3
:10451000984707460020754B98470246744839462D
:104520006E4FB8477648B8476D4B186800210A4669
:104530000B46714FB84702E07148684B9847DFF867
:10454000E0910DF1180848F8149D6E4F7E233B70E2
:104550004FF0000B87F801B00123BB702123FB70E3
:1045600038460421B0473871C9F800700523C9F8EE
:104570000430654B186841464FF0FF325B465E4F92
:10458000B8475CE1564B1868D0B100214FF0FF32BC
:104590000B46544FB847544B984707460020534B9F
:1045A00098470246524839464C4FB8475748B84793
:1045B0004B4B186800210A460B464F4FB8473EE167
:1045C0005248464B98473AE1454B1868D0B1002114
:1045D0004FF0FF320B46434FB847434B98470746CF
:1045E0000020424B98470246414839463B4FB84766
:1045F0004748B8473A4B186800210A460B463E4FD9
:10460000B8471CE14248354B984718E1344B1868CD
:10461000D0B100214FF0FF320B46324FB847324B3A
:10462000984707460020314B9847024630483946A4
:104630002A4FB8473748B847294B186800210A461F
:104640000B462D4FB847FAE03248244B9847F6E026
:10465000234B1868D0B100214FF0FF320B46214F99
:10466000B847214B984707460020204B9847024601
:104670001F483946194FB8472748B847184B18689C
:1046800000210A460B461C4FB847D8E02248134B7E
:104690009847D4E0124B1868D0B100214FF0FF3298
:1046A0000B46104FB847104B9847074600200F4B5A
:1046B000984702460E483946084FB8471748B8474A
:1046C000074B186800210A460B460B4FB847B6E067
:1046D0001248024B9847B2E078864000A150400053
:1046E00048C701204D204000E5244000252540001A
:1046F00078834000B8864000811E40006D3840003D
:10470000D08640000CBF012038C70120F48640004D
:104710001087400030874000548740007487400075
:10472000FCBA012023790BBB4B4B1868D0B1002198
:104730004FF0FF320B46494FB847494B9847074661
:104740000020484B9847024647483946474FB847EC
:104750004748B847404B186800210A460B46454F6A
:10476000B8476CE04248414B984768E03A4B1868BC
:10477000D0B100214FF0FF320B46384FB847384BCD
:10478000984707460020374B984702463648394637
:10479000364FB8473848B8472F4B186800210A46AB
:1047A0000B46344FB8474AE03348304B984746E011
:1047B000294B1868D0B100214FF0FF320B46274F2C
:1047C000B847274B984707460020264B9847024694
:1047D00025483946254FB8472848B8471E4B186822
:1047E00000210A460B46234FB84728E023481F4BB9
:1047F000984724E0184B1868E8B100214FF0FF32C9
:104800000B46DFF858C0E047154B9847804600201C
:10481000144B9847024614484146DFF85080C04781
:1048200017483946C0470C4B186800210A460B460A
:10483000104FB84703E0124839460C4B9847A3780D
:104840000433DBB21C44ED1AEDB2032D3FF6B7A8DA
:1048500007B0BDE8F08F00BF48C701204D204000E1
:10486000E52440002525400078834000A150400009
:104870008C874000811E40009C874000AC87400030
:10488000C487400070B582B000230193184B98474D
:10489000184B1868D0B100214FF0FF320B46164C70
:1048A000A047164B984704460020154B98470246F0
:1048B00014482146144CA0471448A0470D4B1868D3
:1048C00000210A460B46124CA04702E00F480E4B4F
:1048D0009847104E084D104C306801A94FF0FF3238
:1048E0000023A847019B184693F80014A047F3E75C
:1048F000A933400048C701204D204000E524400076
:104900002525400078834000A1504000F4874000F6
:10491000811E4000A0B90120ED3840002DE9F04192
:1049200088B000230593894A009289484FF47A7130
:104930000122884CA047884B186000BB874B186841
:10494000D0B100214FF0FF320B46854CA047854B7C
:10495000984704460020844B9847024683482146E6
:10496000834CA0478348A0477C4B186800210A4627
:104970000B46814CA04702E07E487D4B98477F4B19
:1049800000937F4840F6C41101220023714CA047D8
:1049900004467C4B186048B1724B9847024600238E
:1049A000009320461946784CA04720E06B4B1868CE
:1049B000D0B100214FF0FF320B46694CA047694B44
:1049C000984704460020684B9847024667482146AE
:1049D000674CA0476D48A047604B186800210A4605
:1049E0000B46654CA04702E06848614B98475B4B1B
:1049F0001868D0B100214FF0FF320B46584CA04749
:104A0000584B984704460020574B98470246574852
:104A10002146574CA0475E48A047504B18680021DC
:104A20000A460B46544CA04702E05948504B984761
:104A3000012004210022574B9847574B186008BBB0
:104A4000464B1868D0B100214FF0FF320B46444C62
:104A5000A047444B984704460020434B98470246E2
:104A600042482146424CA0474C48A0473B4B18685F
:104A700000210A460B46404CA04702E047483C4B09
:104A80009847FEE7012004210022424B9847444BFF
:104A9000186008BB314B1868D0B100214FF0FF32CD
:104AA0000B462F4CA0472F4B9847044600202E4B17
:104AB000984702462D4821462D4CA0473948A0472B
:104AC000264B186800210A460B462B4CA04702E0F3
:104AD0003448274B9847FEE70523009300230193B2
:104AE00002930393304831494FF48062304CA04721
:104AF000304EDFF8C8802A4F3046C0470446386839
:104B000005A94FF0FF320023154DA847134B186835
:104B1000002855D000214FF0FF320B46A847114B1B
:104B2000984705460020104B984702460F482946F3
:104B30000F4DA8472048059B5968A847074B1868A0
:104B400000210A460B460C4DA8473EE0993540002F
:104B50000C884000652D4000E8BA012048C70120BC
:104B60004D204000E524400025254000788340008A
:104B7000A15040001C884000811E400021334000AD
:104B80003C884000A4B90120BD2D40004888400069
:104B900068884000211E4000A0B9012084884000A0
:104BA00038C70120A488400085484000C8884000DC
:104BB0005522400000C20040D08840006D154000E2
:104BC0000C48059B59680C4B9847059B1A68069240
:104BD0005B680793204606A90022084B98472046A9
:104BE0004FF48071064B984730461021054B98478B
:104BF00082E700BFD0884000A1504000B9104000BB
:104C0000D11040002D15400070B584B0002504ACD3
:104C100044F8045D084B1E68084B9847024600950F
:104C2000304629462346064CA047039B0BB1054B53
:104C3000984704B070BD00BFE8BA012005254000C8
:104C4000BD2D4000D5194000F0B583B004460E4696
:104C500000230193344B984209D11F46334D384607
:104C600001A9A8470028FAD1019B337019E0304B05
:104C7000984209D11F462D4D384601A9A847002862
:104C8000FAD1019B337019E02A4B984209D11F4693
:104C9000264D384601A9A8470028FAD1019B337058
:104CA00019E0254B9C4209D11F46204D384601A9E9
:104CB000A8470028FAD1019B337019E01F4B9C4292
:104CC00009D11F46194D384601A9A8470028FAD135
:104CD000019B337019E01A4B9C4209D11D46134CBD
:104CE000284601A9A0470028FAD1019B337018E09B
:104CF000144B9C4209D11D460C4C284601A9A047E3
:104D00000028FAD1019B33700BE00F4B9C4208D175
:104D10001D46064C284601A9A0470028FAD1019B50
:104D2000337003B0F0BD00BF00C200405515400015
:104D300000020240004202400082014000C20140E5
:104D400000820040000204400042034070B50C465F
:104D5000304B984208D11E462F4D30462146A84779
:104D60000028FAD1012070BD2C4B984208D11E4674
:104D7000294D30462146A8470028FAD1012070BDB0
:104D8000274B984208D11E46234D30462146A8475E
:104D90000028FAD1012070BD224B984208D11E464E
:104DA0001D4D30462146A8470028FAD1012070BD8C
:104DB0001D4B984208D11E46174D30462146A84744
:104DC0000028FAD1012070BD184B984208D11E4628
:104DD000114D30462146A8470028FAD1012070BD68
:104DE000134B984208D11E460B4D30462146A8472A
:104DF0000028FAD1012070BD0E4B984208D11E4602
:104E0000054D30462146A8470028FAD1012070BD43
:104E1000002070BD00C20040411540000002024069
:104E2000004202400082014000C201400082004076
:104E3000000204400042034080B58AB0324B9847DC
:104E4000324AD36823F4E0631B041B0C43F0BF63B6
:104E500043F40033D3602E4B984714202D4B9847D2
:104E60002D4D2E4B1D602E4A2E4B1A602E4A2F4B75
:104E70001A604FF4E1330493C02305934FF40066A6
:104E80000696002407940894294F3846294B9847E2
:104E900038460121284B9847284604A9274A284B21
:104EA00098472846274B98472846274B9847274F2F
:104EB0003B6898682146264DA8473B6858682146BC
:104EC000A847244B98474FF46110234B9847234839
:104ED000234B9847234B9847042300930194029453
:104EE00003942148214932462346214DA8470123F6
:104EF00000930194029403941E481F4932462346AE
:104F0000A8471E4B9847FEE7450C400000ED00E027
:104F1000510D40004D13400000C2014094C70120D4
:104F20004D4D400090C70120494C40008CC70120E6
:104F300000C00140450F4000B510400000002707A9
:104F40009114400009154000191540005804002034
:104F5000C95840004D304000D1334000E488400043
:104F600095584000C14F40001D4940003C89400019
:104F700055224000C5324000488940005924400075
:104F800008B5014B9847FEE7E519400008B5014B0D
:104F90009847FEE7E519400000B583B00023019370
:104FA0000091009B044B9847019B002BFCD0034BC6
:104FB000984703B05DF804FBF5194000151A40004E
:104FC00010B5012000210322054B9847054B1860BE
:104FD00020B100210A460B46034CA04710BD00BF7C
:104FE000211E400048C70120811E400042F6DF62BA
:104FF000014B1A60704700BF4CC7012038B50F4BFA
:105000001C680F4B984705460E4B98470E4B1B6884
:1050100013F0806F03D1C4F5EA33BB3305E00135EB
:10502000064B1B68C3F5EA33BB3305EB8505074A1E
:105030001068B3FBF0F000EB450038BD18E000E06D
:1050400005254000E519400004ED00E04CC70120B3
:1050500070B50F4E0F4D761BB61018BF002405D04B
:10506000013455F8043B9847A642F9D10A4E0B4D3E
:10507000761B03F091FCB61018BF002406D0013453
:1050800055F8043B9847A642F9D170BD70BD00BFEA
:10509000A4894000A4894000AC894000A489400054
:1050A0000FB400B5074983B004AB086853F8042B6C
:1050B0008168019300F02AFD03B05DF804EB04B0B1
:1050C000704700BF58040020024B0146186800F0EA
:1050D00003B800BF580400202DE9F04F01F10B0583
:1050E000162D83B0064627D935F0070500F1B680A6
:1050F000A94200F2B38000F09BFBB5F5FC7F22D201
:10510000C24FE80807EBC003DC689C4200F0C8818E
:105110006368E168A56823F00303234430465A68B6
:10512000E96042F001028D605A6000F083FB0834B0
:10513000204603B0BDE8F08F102900F28F8000F008
:1051400077FB1025DCE7680A00F08F80042800F266
:105150005481A80938304100AC4F07EB8101CC687D
:10516000A14206D10CE0002A80F28280E468A142CC
:1051700006D0636823F003035A1B0F2AF3DD0138BE
:105180000130A2493C6901F1080E744500F07D81AF
:10519000636823F003035A1B0F2A00F36381002A7C
:1051A000C1F814E0C1F810E073DAB3F5007F80F0C5
:1051B0003981DB0801EBC3084FEAA30C4A68D8F831
:1051C0000890C4F80890012303FA0CF31343C4F8C1
:1051D0000C804B60C8F80840C9F80C4082100124CC
:1051E00094409C4262D8234206D120F00300640020
:1051F000234200F10400FAD007EBC008C446814600
:10520000DCF80C309C4507D141E1002980F2518146
:10521000DB689C4500F03B815A6822F00302511B79
:105220000F29F2DD1C46D3F80CC054F8088F5A1928
:1052300045F0010941F00105C3F804903046C8F873
:105240000CC0CCF808807A613A61C2F80CE0C2F870
:1052500008E05560515000F0EDFA69E700240C2396
:105260002046336003B0BDE8F08F7E213F2073E716
:105270002344E1685A68A56842F00102E9603046BB
:105280008D605A6000F0D6FA0834204603B0BDE8BD
:10529000F08F234430465A6842F001025A6000F011
:1052A000C9FA0834204603B0BDE8F08FBC686368D3
:1052B00023F00308454504D8C5EB08030F2B00F382
:1052C0008C80534BDFF858A11A68DAF800300133AC
:1052D0002A4404EB080B00F0508102F580520F3293
:1052E00022F47F6222F00F0211463046019200F054
:1052F000D9FAB0F1FF3F8146019A00F0478183451A
:1053000000F2EE80434B1968CB451144196000F060
:105310004281DAF80000DFF808E101301BBFCBEB77
:10532000090B5944CEF80090196019F0070100F0FC
:105330000781C1F10800C1F58051814408314A4418
:10534000C2F30B02C2EB010A51463046019300F052
:10535000A9FA431C019B00F02C81C9EB00025244C6
:1053600042F001021968C7F808905144BC42C9F8DC
:1053700004201960DFF89CA016D0B8F10F0F40F29E
:10538000EE806268A8F10C0323F00703E01802F036
:1053900001024FF0050E1A430F2B6260C0F804E0C3
:1053A000C0F808E000F209811B4BBC681A68914202
:1053B00088BF1960194B1A689142626888BF1960EA
:1053C00022F003029542A2EB050301D80F2B04DC67
:1053D000304600F02FFA0024AAE6621943F00103D8
:1053E00045F0010565603046BA60536000F022FA6E
:1053F0000834204603B0BDE8F08F142868D954283B
:1054000000F29780280B6E304100A5E65C04002076
:1054100058C701205CC7012054C7012050C7012094
:10542000680800205A0A042A55D9142A00F2A780D5
:105430005B324FEA420C07EB8C0CDFF8BC81DCF8E6
:10544000081061457FD04A6822F00302934202D2DD
:1054500089688C45F7D1CA687B68E260A160946076
:10546000CC60BBE6631942F0010745F001056560B9
:1054700030464B610B61C3F80CE0C3F808E05F6095
:105480009A50083400F0D6F952E64B68A6E609F1C6
:10549000010919F0030F0CF1080C7FF4B1AE2CE0F8
:1054A00004F108036469A34208BF02303FF469AE07
:1054B0002EE61A441C465168DB6854F8085F41F038
:1054C000010151603046EB609D6000F0B3F92FE6BA
:1054D0005B30410040E69A0938324FEA420CAAE7B5
:1054E000BC42454B3FF40EAF9C68626822F0030259
:1054F00068E7D8F8008098457CD110F0030FA8F138
:10550000080300F1FF30F4D17B6823EA04037B60D9
:1055100064009C423FF6CAAE002C3FF4C7AE234263
:1055200048467FF469AE6400234200F10400FAD0DB
:1055300062E6B0F5AA7F18D8E80B773041000BE699
:105540004FF48051FBE6D8F8043092104FF0010C74
:105550000CFA02F21343C8F804300A467DE701232F
:10556000C9F804304C4600222CE740F254539842CC
:105570001CD8A80C7C304100EEE51032B4E6542A69
:1055800023D81A0B6E324FEA420C54E7BC686268AB
:1055900022F0030216E7CBF30B0000287FF4B9AE2C
:1055A0004244BB6842F001025A60FDE6FC217E20C5
:1055B000D2E501224FF0000AD4E604F1080130469A
:1055C00001F070FBDAF80010EEE6B2F5AA7F04D81D
:1055D000DA0B77324FEA420C2DE740F254518A42FF
:1055E00004D89A0C7C324FEA420C24E74FF0FC0CB2
:1055F0007E2220E77B688BE75C040020032A70B4DE
:1056000026D940EA01039B0711D004780D78AC42FB
:1056100022D10244431C05E013F8014B11F8015F4D
:10562000AC4219D19342F7D1002070BC70470C46B0
:1056300003461E682568AE421846214603F104035E
:1056400004F1040404D1043A032A18462146F0D890
:10565000002ADAD11046E8E7601B70BC704700BF33
:10566000844641EA000313F003036DD1403A41D36D
:1056700051F8043B40F8043B51F8043B40F8043B2C
:1056800051F8043B40F8043B51F8043B40F8043B1C
:1056900051F8043B40F8043B51F8043B40F8043B0C
:1056A00051F8043B40F8043B51F8043B40F8043BFC
:1056B00051F8043B40F8043B51F8043B40F8043BEC
:1056C00051F8043B40F8043B51F8043B40F8043BDC
:1056D00051F8043B40F8043B51F8043B40F8043BCC
:1056E00051F8043B40F8043B51F8043B40F8043BBC
:1056F000403ABDD2303211D351F8043B40F8043B5C
:1057000051F8043B40F8043B51F8043B40F8043B9B
:1057100051F8043B40F8043B103AEDD20C3205D36B
:1057200051F8043B40F8043B043AF9D2043208D063
:10573000D2071CBF11F8013B00F8013B01D30B88D5
:1057400003806046704700BF082A13D38B078DD0B3
:1057500010F003038AD0C3F10403D21ADB071CBF85
:1057600011F8013B00F8013B80D331F8023B20F8EF
:10577000023B7BE7043AD9D3013A11F8013B00F828
:10578000013BF9D20B7803704B7843708B788370B0
:105790006046704770B4840746D0541E002A41D03A
:1057A000CDB2034602E0621EE4B3144603F8015B87
:1057B0009A07F8D1032C2ED9CDB245EA05250F2C36
:1057C00045EA054519D903F110022646103E0F2E71
:1057D00042F8105C42F80C5C42F8085C42F8045C49
:1057E00002F11002F2D8A4F1100222F00F0204F02C
:1057F0000F041032032C13440DD91E462246043ADE
:10580000032A46F8045BFAD8221F22F0030204326E
:10581000134404F003042CB1C9B21C4403F8011B67
:10582000A342FBD170BC704714460346C2E700BFD9
:10583000704700BF704700BFF0B5044689B0084606
:105840000D4600F0C5F8A368114F9A89049502210E
:1058500000F1010E012604AD029191040590CDF8EE
:105860000CE006970796019506D4596E42F4005253
:1058700021F400519A8159662046194601AA01F087
:10588000E9FA002814BF4FF0FF300A2009B0F0BD3C
:1058900064834000024B01461868FFF7CDBF00BF8C
:1058A0005804002038B5074C0023054608462360FD
:1058B000FBF7E4FF431C00D038BD2368002BFBD06E
:1058C0002B6038BD68DA012000290CBF02220022BB
:1058D0004FF4806300F000B82DE9F0413A4C26689F
:1058E0000D46044690461F4616B1B36B002B3CD0C4
:1058F000B8F1020F2FD8002F2DDB2146304601F0E2
:1059000065F8A18900236360A3610B0627D421F009
:10591000830189B2B8F1020FA1812AD0002D36D0BF
:10592000B8F1010F11D089B201F00800274BF363E1
:1059300080B225602561676178B111F0030F18BF4F
:105940000027A7600020BDE8F08141F001017B4203
:10595000A181A361E7E74FF0FF30BDE8F081216945
:10596000304601F09FF9A189D1E7304601F0C2F835
:10597000BEE7002004F1430341F0020100250122AB
:10598000A181A560236023616261BDE8F081002FE1
:1059900008BF4FF480673846FFF796FB054628B1ED
:1059A000A18941F0800189B2A181B9E74FF48060FB
:1059B000FFF78AFB054618B9A1894FF0FF30D9E7F8
:1059C0004FF48067ECE700BF58040020F9694000FD
:1059D00020F0030110F00300C0F1000051F8043B77
:1059E00000F1040C4FEACC0C6FF000021CBF22FA4D
:1059F0000CF213434FF0010C4CEA0C2C4CEA0C4C0B
:105A0000A3EB0C0222EA030212EACC1204BF51F803
:105A1000043B0430F4D0C2F1000102EA0102B2FA00
:105A200082F2C2F11F0200EBD200704740EA01038C
:105A30009B0770B42BD1032A29D90C460346214673
:105A400054F8046BA6F1013525EA060515F0803FF0
:105A500005D1043A032A43F8046B2146EFD8A2B1DA
:105A60000C781C70013A013301313CB16AB111F874
:105A7000014B03F8014B013A002CF7D12AB11A442B
:105A8000002103F8011B9342FBD170BC7047034611
:105A9000E5E700BF4B6E2DE9F0479C040F469246A8
:105AA0002BD59368126833B3804602F1080919E9CF
:105AB0006000B60817D0043D002401E0A64210D0D3
:105AC000404655F8041F3A4601F08CF8431C04F197
:105AD0000104F3D10023CAF80830CAF80430BDE845
