:020000040040BA
:10000000D8C60120990A4000950A4000950A400090
:10001000950A4000950A4000950A40000000000043
:10002000000000000000000000000000590E400029
:10003000950A400000000000D10E4000210F400052
:10004000950A4000950A4000950A4000950A400034
:10005000950A4000950A4000950A4000950A400024
:10006000052A4000950A400000000000B10640004B
:10007000C5064000950A4000950A4000950A4000D8
:10008000950A4000950A4000950A4000950A4000F4
:10009000950A4000950A4000950A4000950A4000E4
:1000A000950A4000950A4000950A4000950A4000D4
:1000B000950A4000950A4000950A400000000000A3
:1000C0000000000000000000000000000000000030
:1000D0000000000000000000000000000000000020
:1000E0000000000000000000000000000000000010
:1000F000000000000000000000000000950A400021
:10010000950A4000950A4000000000000000000031
:1001100000000000000000000000000000000000DF
:1001200000000000000000000000000000000000CF
:1001300000000000000000000000000000000000BF
:10014000000000000000000010B5054C237833B912
:10015000044B13B10448AFF300800123237010BD9A
:100160009808002000000000347C4000084B10B5C7
:100170001BB108480849AFF300800848036803B979
:1001800010BD074B002BFBD0BDE81040184700BF47
:1001900000000000347C40009C080020347C4000BB
:1001A0000000000010B50E480E4B984700200E4B83
:1001B00098470E4CA0470028FCD00D4B98470D4A9D
:1001C0000D4B9A620D4CA0470028FCD000200C4B30
:1001D00098470C4B98470C48024B984710BD00BFFE
:1001E000000E2707650C4000C1074000E5074000EE
:1001F00005084000013F4D0E00040E40110840006C
:10020000590740007D0B400000002707A8B92DE9E1
:10021000F0410C469046002A0ADD8F18084E094D21
:10022000306821462B6898470134BC42F8D101E080
:100230004FF000084046BDE8F0814FF0FF307047B6
:1002400048950120409501200138022818D82DE951
:10025000F0410E46144682B10D46DFF838800C4F4F
:10026000D8F8000015F8011B3B68984700280ADB06
:10027000A81B013CF4D1BDE8F0810020BDE8F0816D
:100280004FF0FF3070474FF0FF30BDE8F08100BF06
:1002900044950120489501200B2805D1042903D15C
:1002A00008B5024B984708BD704700BF3D3E40006F
:1002B00030B583B04FF400424E4B5A600B204E4C89
:1002C000A0470C20A0474D4C40232361C4F8A03028
:1002D00023634FF000732361C4F8A03023634FF011
:1002E00000532361C4F8A0302363204604210A226E
:1002F000434B9847434B009320460B21042259233C
:10030000414DA8474FF40065404B1D6020460B212E
:1003100000223F4B9847204604213E4B98474FF020
:10032000C0532366C4F8903063656362C4F88030BC
:10033000226F1A432267626F22F0C05262676360C5
:100340004FF4C0632366C4F8903063656362C4F8F9
:100350008030226F22F4C0622267626F22F4C06292
:10036000626763604FF480532366C4F8903063651E
:100370006362C4F88030226F22F480522267626F79
:1003800022F48052626763604FF400532366C4F81E
:10039000903063656362C4F88030226F22F40052AB
:1003A0002267626F22F40052626763604FF48043F9
:1003B0002366C4F8903063656362C4F88030226FAE
:1003C00022F480422267626F22F480426267636097
:1003D0002566C4F8905065656562C4F88050236F47
:1003E00023F400632367636F23F40063636765602E
:1003F00003B030BD50140E4021084000000E0E40E6
:10040000C1054000990240007106400000E100E093
:10041000D90640000D06400008B5EFF3108372B610
:10042000BFF35F8F00214A4A11704A490A780132AE
:100430000A702BB90122464B1A70BFF35F8F62B668
:10044000454B98420DD10720444B98470720444B19
:10045000984707200021434B98470720424B984775
:1004600008BD424B98420DD116203C4B98470720BF
:100470003B4B9847072000213A4B984707203A4BBF
:10048000984708BD3A4B98420DD11520334B9847F9
:100490000720334B984707200021324B984707200D
:1004A000314B984708BD334B98420DD114202B4B4C
:1004B000984707202A4B984707200021294B984747
:1004C0000720294B984708BD2B4B98420DD113208C
:1004D000224B98470620224B984706200021214BAB
:1004E00098470620204B984708BD244B98420DD1D1
:1004F0000E201A4B98470620194B984706200021DA
:10050000184B98470620184B984708BD1C4B98423B
:100510000DD10920114B98470620114B9847062012
:100520000021104B984706200F4B984708BD154BEC
:1005300098420CD10820094B98470620084B984751
:1005400006200021074B98470620074B984708BD17
:100550000C00002038950120004003402108400095
:10056000C908400075084000B90840000000044078
:100570000080004000C00140008001400040024077
:100580000000024000C00040016070470B4619B1F6
:10059000096881605B68C3601AB11368836153683E
:1005A000C361704721F0FE01C905C90D01627047A2
:1005B00021F4FE7121F001018905890D0162704766
:1005C000C0F8841052004FF40043B3FBF2F2013A3A
:1005D000C2F30D02C0F88C20704700BF12F0100F5C
:1005E00010D0C0F8B01012F0200F14BFC0F8D41013
:1005F000C0F8D01012F0400F14BFC0F8C010C0F8FF
:10060000C4107047C0F8B410704700BFC36C0164D9
:10061000704700BF41647047C06C7047806C704782
:100620002DE9F041044688460E4B98470546204682
:100630000D4B9847054013D00C4C04F1600623681D
:10064000434508D16168294205D0E3684046984790
:10065000636825EA0305B44202D01034002DEED1C0
:10066000BDE8F081190640001D064000B8080020D2
:10067000F8B50C4C2468062C11D815460A4F2201F7
:10068000BE18B9507560B360069AF2600134054A2D
:10069000146029461A46054B98470020F8BD0120F2
:1006A000F8BD00BFB4080020B8080020DD054000F8
:1006B00008B502480B21024B984708BD000E0E40BA
:1006C0002106400008B502480C21024B984708BD9E
:1006D00000100E4021064000F8B505460C461746AE
:1006E000184B9847064628464FF0FF31164B98475F
:1006F0002846164B9847E2B202F01F0301219940A9
:1007000063099B0003F1604303F56143C3F8801064
:10071000C3F88011002C06DA02F00F023F01FFB28D
:100720000B48875407E03F01FFB204F1604404F531
:10073000614484F80073196028463146054B984798
:10074000F8BD00BF1D064000150640001906400018
:1007500014ED00E00D064000184A136B23F07003FF
:1007600018431063936E13F0080F03D009E0013BA8
:1007700003D11EE04FF4006310498A6E12F0080F97
:10078000F5D00E4A136B23F0030343F00203136307
:10079000906E10F0080004D000207047013B03D198
:1007A00009E04FF4006305498A6E12F0080FF5D096
:1007B0007047012070470120704700BF00040E40C1
:1007C000012806D1054A936843F0254343F480137A
:1007D0009360034A014B1A60704700BF10140E402B
:1007E000080000A5054B5B6913F0800F1DBF044B8B
:1007F000986EC0F3C0100020704700BF10140E4068
:1008000000040E400022014B9A62704700040E4023
:10081000024B986E00F00200704700BF00040E40CB
:1008200032281ED81F280CD8114B9A690123834007
:100830001A40934217D0012383400D4A13610020D0
:1008400070470B4BD3F808212038012383401A400E
:1008500093420AD001238340054AC2F800310020A8
:10086000704701207047002070470020704700BF8C
:1008700000040E4041F004010E4B00F1100243F859
:1008800022109B6E4FF48071814011EA030004D066
:1008900000207047013B04D107E010B44FF400631F
:1008A000044CA26E1142F5D000E001205DF8044B2B
:1008B000704700BF00040E404FF480738340014A2C
:1008C0001360704700040E404FF480738340014A68
:1008D0005360704700040E4010B40B0193420FD9CF
:1008E0001CE002F00702416841F40021416043EA44
:1008F0000242026200201EE001201CE001201AE0FA
:10090000D20002EB5302B2FBF3F2D3085C1E4FF6A7
:10091000FE718C42F0D802F00702E8E7C900D2006D
:1009200002EB5102B2FBF1F2D3085C1E4FF6FE71EE
:100930008C42D6D9E2E75DF8044B7047084BC0F80B
:10094000E4300023436043628362882303602423EE
:1009500003604FF4807303604FF40023036070471B
:100960000041535570B505460C4616460F4B984747
:1009700000220F4B1A609CB12846216832460D4B6D
:100980009847024670B9A1686368194323691943FF
:10099000E3680B4306490B6069680B436B6002E038
:1009A000012200E00122104670BD00BF3D09400059
:1009B00028090020D908400040230360704700BF89
:1009C00010230360704700BF416270478160704729
:1009D000C1607047406970474FF40063036070471F
:1009E000436913F0020F1DBFC1F30801C16100206C
:1009F00001207047436913F0010F05D08369C3F3E9
:100A000008030B600020704701207047184B984284
:100A10001FD003F5A03398421DD003F580439842C0
:100A20001BD0A3F54043984219D003F58043984268
:100A300017D0A3F5A033984215D003F56033984240
:100A400013D0A3F53F430B4A90420CBF1846002039
:100A50007047094870470948704709487047094876
:100A6000704709487047094870470948704700BFF8
:100A700000C200400042034000C3004000030240A7
:100A8000004302400083014000C301400083004056
:100A900000030440FEE700BF08B52A4B2A4A9A42E9
:100AA00003D02A4B274A9A4204D3294B294A9A4217
:100AB00010D31BE023490A1D274B9B1A23F0030385
:100AC0000433214A134452F8040B41F8040B9A42B0
:100AD000F9D1EAE7214B224AD21A22F003021A4442
:100AE000043B002143F8041B9342FBD11D4B23F030
:100AF0007F011D4A9160EFF3108272B6BFF35F8FE2
:100B000000201A4908701A48016841F47001016018
:100B1000BFF34F8FBFF36F8F2AB90121134A1170B2
:100B2000BFF35F8F62B603F16043B3F5203F04D299
:100B30000D4A936843F0005393600E4B98470E4B59
:100B40009847FEE700000020347C40009408002015
:100B5000D896012098080020970800209C080020C3
:100B6000DB9601200000400000ED00E00C000020BA
:100B700088ED00E0214340006D404000314B1B6B8D
:100B800003F00303012B0FD013B1022B29D042E055
:100B90002D4B5B6913F0800F14BF4FF400424FF4EC
:100BA000FA422A4B1A6036E0264B1B6A13F0807F0C
:100BB00003D0274A254B1A602DE0264A234B1A60A2
:100BC000204B1B6A03F07003102B02D0202B04D0A3
:100BD00021E0214A1D4B1A601DE0204A1B4B1A6080
:100BE00019E0194B5B6913F0800F14BF4FF40042FA
:100BF0004FF4FA42154B1A60124B1B6B03F00303C0
:100C0000022B08D10F4B9B6A1049C3F30C420B68AF
:100C100002FB03330B600B4B1B6B03F07003702B59
:100C200007D10A4A13680E49A1FB03135B0813603E
:100C30007047044B1A6B0549C2F302120B68D3408C
:100C40000B60704700040E4010140E40100000208E
:100C5000001BB70000127A000024F40000366E0179
:100C6000ABAAAAAA1D4B984204D84FF080621C4B35
:100C70001A6070471B4B984203D81B4A184B1A60E6
:100C800070471A4B984203D8194A154B1A6070479F
:100C9000184B984203D8184A114B1A607047174BEB
:100CA000984204D84FF004220D4B1A607047144B41
:100CB000984203D8134A0A4B1A607047124B984265
:100CC00003D8124A064B1A607047114B984294BFE2
:100CD000104A114A024B1A60704700BF7F9FD5002F
:100CE000000A0E40FF3EAB01000100047FDE8002DF
:100CF00000020004FF7D5603000300047F1D2C0446
:100D0000FFBC010500050004FFD7B805000600047C
:100D1000FFF26F060007000400080004094B1B687F
:100D200013B9094A074B1A60064B1B681A18074982
:100D3000914204DB1046034A1060184670474FF09A
:100D4000FF3070472C090020D8C60120FC7F02200C
:100D50004FF0FF30704700BF4FF400534B6000204E
:100D6000704700BF012070470020704700F1080362
:100D700043604FF0FF328260C36003610023036071
:100D8000704700BF00230361704700BF43685A6883
:100D90004A6042688A605A6891605960416008619F
:100DA000036801330360704710B40C68B4F1FF3F6F
:100DB00001D103690AE000F10803C2681268944295
:100DC00004D35B685A6812689442FAD25A684A603F
:100DD00091608B60596008610368013303605DF8BE
:100DE000044B7047436882689A60836842685A601F
:100DF00003695A68824204BF82685A600022026115
:100E00001A68013A1A601868704700BF0348006802
:100E1000006880F3088862B600DF00BF08ED00E0DC
:100E2000DFF80C00016841F47001016070470000B8
:100E300088ED00E04FF0807340F8043C40F8081C57
:100E4000002340F80C3C40F8202C6FF0020340F8DF
:100E5000243C4438704700BF054B19680868B0E867
:100E6000F04F80F309884FF0000080F3118870473D
:100E7000B88A01204FF08052014B1A60704700BFC2
:100E800004ED00E0EFF311804FF0500181F3118881
:100E90007047002008B5034B9847034A1368013395
:100EA000136008BD850E40001400002080F31188F7
:100EB000704700BF08B5044A1368013B136013B9BB
:100EC0000020024B984708BD14000020AD0E4000E2
:100ED000EFF30980114B1A681EF0100F08BF20EDC8
:100EE000108A20E9F04F10602DE908404FF05000C3
:100EF00080F3118800F0D8FE4FF0000080F31188D5
:100F0000BDE8084019680868B0E8F04F1EF0100FFF
:100F100008BFB0EC108A80F309887047B88A0120B6
:100F200008B54FF08052054B1A60054B9847054BAA
:100F300098470020044B984708BD00BF04ED00E02F
:100F4000850E4000ED194000AD0E4000034A044BF1
:100F50001A600722043B1A60704700BFBBD401002F
:100F600014E000E010B50C4B1A6842F470021A60ED
:100F70001A6842F070421A60084B98470024084BE8
:100F80001C60084B9847084A136843F040431360BD
:100F9000064B9847204610BD20ED00E04D0F400065
:100FA00014000020210E400034EF00E00D0E400040
:100FB000134A00E01A4613688342FBD330B411464B
:100FC00054681519854203D168680444546010467A
:100FD000426884189C420CD10A4B1B689C4206D084
:100FE00063681A4442600B681B68036002E0046097
:100FF00000E00360814218BF086030BC704700BF4A
:10100000348901203089012038B504462C4B98479B
:101010002C4B1B68ABB92C4A2C4B13600021516040
:1010200003F5BF3202F5F870264D2860C2F8F411BE
:10103000C2F8F011264A5A601860264A1368103B1D
:101040001360002C36D004F1100212F0070F1CBF01
:1010500022F007020832511E1F4B994227D81A4925
:101060000C6801E021461C4663689A4202D9236855
:10107000002BF7D1134B1B689C4218D00D6810351C
:1010800023680B6063689B1A202B04D9A018436067
:101090006260124B98470F4A136861685B1A1360CD
:1010A0000F4B98474DB90F4B9847002505E00C4B67
:1010B0009847F8E70A4B9847F5E7284638BD00BF40
:1010C0007519400030890120348901203009002041
:1010D000F07F010018000020FE7F0100B10F4000EA
:1010E000191B40008941400080B110B50446084BEF
:1010F0009847084A116854F80C3C0B441360A4F15B
:101100001000054B9847054B984710BD704700BF2E
:101110007519400018000020B10F4000191B400055
:1011200010B50446036C3BB903681BBB4068134B06
:101130009847002363601DE06AB980681A46104B27
:101140009847A268236C1344A3606268934211D34A
:101150002368A3600EE0C0681A46094B9847236CC9
:101160005B42E2681A44E26021688A4202D2626805
:101170001344E360A36B0133A36310BD95204000CB
:10118000FD43400038B50346006858B11A6CDC686E
:101190001444DC605D68AC4228BFD8600846D9685A
:1011A000014B984738BD00BFFD434000F8B50446E9
:1011B0001E4B9847A36C002B13DD636A1BB910E02C
:1011C000636A23B90DE004F12406194D194F304626
:1011D000A84700B1B847A36C013BA364A36C002BE4
:1011E000EEDC4FF0FF33A364134B98470F4B984747
:1011F000636C002B13DD23691BB910E0236923B94D
:101200000DE004F110060A4D0A4F3046A84700B120
:10121000B847636C013B6364636C002BEEDC4FF0FA
:10122000FF336364044B9847F8BD00BF950E400040
:101230007D1E4000C11F4000B50E400038B50D4670
:10124000044620B917484FF48F71174B9847174B36
:1012500098472268216CE36B03FB01F3D0186060B0
:101260000020A063A2605B1A1344E3604FF0FF33D9
:101270006364A36455B923697BB104F110000C4B7E
:101280009847012809D10B4B984706E004F110005C
:10129000094DA84704F12400A847084B98470120AE
:1012A00038BD00BF1474400069424000950E4000F4
:1012B0007D1E4000750E40006D0D4000B50E4000D3
:1012C000F8B5D0B10D461746064650200F4B98474B
:1012D000044690B105FB06F001300C4B98472060A6
:1012E00040B1E663256420460121094B984784F804
:1012F0004D7008E02046074B984707484FF4BA71F5
:10130000064B984700242046F8BD00BF0910400056
:101310003D124000E9104000147440006942400052
:101320002DE9F04F85B08B4601920093044620B919
:101330003A4840F24B213A4B9847BBF1000F06D197
:10134000236C23B135484FF41371354B98474FF058
:101350000009344DDFF8F4A0334EA847A26BE36BCD
:101360009A4212D220465946009A304B9847636AF7
:101370003BB104F124002E4B9847012801D12D4B9D
:101380009847294B9847012044E0019B1BB9264B05
:10139000984700203EE0B9F1000F03D102A8D047E2
:1013A0004FF00109B047244B9847A847636CB3F14D
:1013B000FF3F04BF00236364A36CB3F1FF3F04BF8E
:1013C0000023A364B04702A801A91C4B9847D8B9D1
:1013D000A847D4F83880E76BB047B8450ED104F180
:1013E00010000199164B98472046164B9847164B0C
:1013F00098470028B1D10F4B9847AEE72046114BD4
:101400009847114B9847A8E720460E4B98470E4B3C
:101410009847002005B0BDE8F08F00BF147440006D
:1014200069424000950E4000B50E40002111400079
:101430007D1E4000750E400075194000351F4000AC
:10144000911D4000AD114000191B4000051F4000D8
:101450002DE9F0410D4617469846044620B91D482F
:1014600040F292311C4B984735B9236C23B119488F
:1014700040F29331184B9847184B98470646A26B99
:10148000E36B9A4218D2204629464246144B9847AD
:10149000A36CB3F1FF3F0AD1636A7BB104F124006E
:1014A000104B984760B16FB101243C600BE0A36C16
:1014B0000133A364012406E0002404E0012402E0D7
:1014C000012400E001243046074B98472046BDE840
:1014D000F08100BF1474400069424000850E400056
:1014E000211140007D1E4000AD0E40002DE9F04F5F
:1014F00085B0894601929A46044620B9454840F293
:10150000CE31454B9847B9F1000F06D1236C23B17A
:10151000404840F2CF31404B984700273F4DDFF81D
:101520002C813F4EA847A36B43B3E568204649464C
:101530003C4B9847BAF1000F12D1A36B013BA36358
:10154000236813B9384B98476060236993B104F15D
:101550001000364B984701280CD1354B984709E0CD
:10156000E560636A33B104F12400304B984708B159
:101570002F4B98472A4B9847012048E0019B1BB905
:10158000274B9847002042E017B902A8C04701271F
:10159000B047284B9847A847636CB3F1FF3F04BF9F
:1015A00000236364A36CB3F1FF3F04BF0023A36473
:1015B000B04702A801A9204B984710BBA847D4F810
:1015C00038B0B047BBF1000F15D1236823B9A84745
:1015D00060681A4B9847B04704F124000199184BF2
:1015E00098472046174B9847174B9847002899D1A2
:1015F0000F4B984796E72046124B9847124B984757
:1016000090E720460F4B98470F4B9847002005B0B6
:10161000BDE8F08F1474400069424000950E400010
:10162000B50E400085114000CD1F40007D1E4000DA
:10163000750E400075194000351F4000F91F40002D
:10164000911D4000AD114000191B4000051F4000D6
:1016500038B504460D460D4B9847636CB3F1FF3F18
:1016600004BF00236364A36CB3F1FF3F04BF0023F6
:10167000A364074B9847A36B23B904F124002946C0
:10168000044B98472046044B984738BD950E4000C0
:10169000B50E4000151E4000AD11400010B50446C7
:1016A0000E4B1B6858600E4B1B68984207D20D4BBF
:1016B00018680A4B196804310B4B984710BD0B4B47
:1016C0001868064B19680431074B9847084B1B688C
:1016D0009C423CBF064B1C6010BD00BFB88A012075
:1016E00044890120748A0120A90D40008C8A0120C0
:1016F0001C0000202DE9F04F83B088461546019369
:101700000C9FDDF834900E9E009020B95F484FF496
:10171000F7715F4B98470E2F04D95C4840F2EF11E8
:101720005B4B984750205B4B98470446002800F0DD
:10173000A780002E40F0A180A800564B9847206358
:1017400018B92046544B98479AE0A521AA00534B5C
:10175000984705F18045013D236B03EB850525F096
:10176000070504F1340041460A224D4B98474FF0DB
:10177000000A84F83DA03E460E2F28BF0E26E662E2
:10178000A66404F104084046DFF864B1D84704F1C8
:101790001800D8472461C6F10F06A6616462C4F838
:1017A0004CA028460099019A3E4B98472060B9F119
:1017B000000F01D0C9F800403B4B98473B4A1368E3
:1017C000013313603A4B1B680BBB394B1C60136829
:1017D000012B26D1374D05F59679374E2846B0476F
:1017E00014354D45FAD1DFF80C914846324DA847E3
:1017F000324E3046A8473248A8473248A8473248B8
:10180000A847324BC3F80090314B1E6009E0314BC2
:101810001B6833B9264B1B68DB6A9F4224BF244BED
:101820001C60E06A2C4B1B68984284BF2A4B1860EE
:101830002A4A136823640133136029490A68012383
:10184000834013430B6000EB80001A4B03EB8000D6
:101850004146244B9847244B98471E4B1B6843B185
:10186000134B1B68DB6A9F4205D9204B9847012028
:1018700008E0012006E0012004E00663304664E74A
:101880004FF0FF3003B0BDE8F08F00BFAC744000F4
:101890006942400009104000E91040003145400015
:1018A0009D474000350E4000950E4000908A012073
:1018B000B88A0120488901206D0D4000E48A01208A
:1018C000948A0120788A0120BC8A01208C8A012018
:1018D000748A0120A88A0120048B0120B48A012087
:1018E0003C8901208D0D4000B50E4000750E400072
:1018F000850D4000D08A012010B584B000230093EC
:10190000019302930393104810498222104CA04780
:10191000012810D10F4B984701280CD10E4B984746
:1019200001220E4B1A6000220D4B1A600D4B984796
:101930000D4B984705E020B90C4840F216510C4B6E
:10194000984704B010BD00BF251C4000EC74400057
:10195000F5164000AD214000850E4000A88A012008
:1019600044890120BD424000650F4000AC74400036
:1019700069424000024A136801331360704700BF98
:10198000F88A012010B5044B9847044B1C68044B9F
:101990009847204610BD00BF950E400044890120A5
:1019A000B50E400010B5044B9847044B1C68044B1F
:1019B0009847204610BD00BF850E40004489012095
:1019C000AD0E400010B5044638B9054B1C6824B96B
:1019D000044840F2CC51044B984704F1340010BD48
:1019E000B88A0120AC744000694240003D4B1B683E
:1019F000002B6FD12DE9F0413B4B1A6801321A6080
:101A00001B680BBB394B1B681B6823B1384840F27D
:101A10008F61384B9847354B1968374A1068186002
:101A2000116036490A6801320A601B681B6823B9D5
:101A30004FF0FF32324B1A6006E02C4B1B68DB681C
:101A4000DB685A682E4B1A60274B1A682C4B1B68B0
:101A50009A4244D3254B1B681B686BB1234B1B6810
:101A6000DB68DC686368204A1268934213D8254F0C
:101A7000254EDFF8A08012E04FF0FF32204B1A60B5
:101A8000BDE8F081194B1B68DB68DC686368164AA7
:101A90001268934203D91A4A1360BDE8F081251DEC
:101AA0002846B847A36A13B104F11800B847E06AA2
:101AB0003268012383401343336000EB800008EB5E
:101AC00080002946114B9847084B1B681B68002B68
:101AD000D8D1D1E70E4A1368013313607047BDE8CF
:101AE000F08100BFF88A0120448901208C8A0120FE
:101AF000AC74400069424000748A0120008B0120D0
:101B00001C000020E50D40003C8901208D0D4000A7
:101B1000FC8A0120488901202DE9F843314B1B68DC
:101B200023B931484FF4AA61304B9847304B98475E
:101B30002C4B1A68013A1A601B68002B4AD12D4BB6
:101B40001B680BBB002448E0F368DC6804F1180054
:101B5000C847251D2846C847E06AD8F80020012359
:101B600083401343C8F8003000EB8000224B03EBA6
:101B700080002946214B9847214B1B68E26ADB6AAB
:101B80009A4228BF012705E000271E4EDFF88C90FF
:101B9000DFF88C803368002BD6D11B4B1B6863B1F8
:101BA000194B1B687BB1194D174CA8472368013BA3
:101BB00023602368002BF8D105E0012F03D0144BDC
:101BC0001B68012B08D10022114B1A60114B98475A
:101BD000012402E0002400E000240F4B9847204637
:101BE000BDE8F883F88A0120AC74400069424000E7
:101BF000950E4000908A0120488901208D0D4000FB
:101C0000B88A0120948A0120FC8A0120ED19400045
:101C1000B08A0120750E4000B50E4000E50D400071
:101C20003C89012080B5154D154EDFF87480154FA5
:101C300019E0C0473468B847ACB1134B9847F36814
:101C4000DC68201D114B9847114A1368013B136053
:101C50002B68013B2B600F4B9847206BDFF84490BB
:101C6000C8472046C8472B68002BE2D10A4B1B68A7
:101C7000012BF8D9094B9847D7E700BF40890120CD
:101C8000788A0120191B4000950E4000E50D4000A8
:101C9000908A0120B50E400048890120750E400051
:101CA00075194000E910400038B52D4B1B681BB179
:101CB00001222C4B1A6038BD2B4B98472B4A1468D5
:101CC0002B49E36C0D685B1B0344E36408601168F7
:101CD00013680A681B6B9A4205D8244B1868196868
:101CE0003431244B9847214B1B68186B224914222E
:101CF000224B984728B11D4B1868196834311D4B89
:101D000098471F4B1C68B4FA84F4E4B2C4F11F0472
:101D100004EB84039B001B4AD35823B91A4840F2B2
:101D200041711A4B9847174BA200111903EB81011F
:101D30004868406848600B460833984206D14168BD
:101D400004EB84030F4A02EB8303596004EB840421
:101D50000C4B03EB84046368DA68044B1A6038BDEB
:101D6000F88A0120B08A0120CD424000B88A0120C3
:101D7000AC8A0120F941400054744000994340006E
:101D80003C89012048890120AC7440006942400030
:101D900070B50D46064620B9144840F24C71144BFC
:101DA0009847144C216830461831134B98472068E7
:101DB0000430124B984740B9236811490A68D86A21
:101DC0000123834022EA03030B60B5F1FF3F06D1F4
:101DD000084B19680B4804310B4B984770BD0B4BEF
:101DE000186828440A4B984770BD00BFAC74400087
:101DF00069424000B88A0120A90D4000E50D40006D
:101E00003C890120BC8A01208D0D400044890120BD
:101E10009D16400070B50D46064620B90F4840F2A9
:101E200082710F4B98470F4C2168304618310E4B8A
:101E30009847206804300D4B984740B923680C49F7
:101E40000A68D86A0123834022EA03030B60094B26
:101E500018682844084B984770BD00BFAC74400018
:101E600069424000B88A01208D0D4000E50D400018
:101E70003C890120448901209D16400038B5C36883
:101E8000DC6824B916484FF4F761164B984704F103
:101E900018052846144B9847144B1B689BB9251D01
:101EA0002846114B9847E06A11490A68012383408C
:101EB00013430B6000EB80000E4B03EB80002946C0
:101EC0000D4B984703E00D4829460B4B98470C4BA8
:101ED0001B68E06ADB6A984234BF0020012038BDED
:101EE000AC74400069424000E50D4000F88A0120D2
:101EF0003C890120488901208D0D4000948A0120F1
:101F0000B88A012010B5044620B9064840F2DA71BB
:101F1000054B9847054B1B682360054B1B686360A6
:101F200010BD00BFAC74400069424000008B01202E
:101F30004489012038B50C46054620B9194840F2BD
:101F4000E471194B984724B9164840F2E571164BD5
:101F50009847164B98472368B3F1FF3F19D0144AAE
:101F600012682968914204D0124A12686968914245
:101F700011D9104A12686968521A93420DD90D4A54
:101F80001268511A5B1A236028460B4B98470024AD
:101F900004E0002402E0012400E00124074B9847FC
:101FA000204638BDAC74400069424000950E4000A8
:101FB000008B012044890120051F4000B50E400020
:101FC0000122014B1A607047B08A0120014B18684A
:101FD000704700BFB88A0120054B1B6833B1054B21
:101FE0001B68002B0CBF01200220704700207047A7
:101FF000A88A0120F88A0120002840D038B5C36A99
:102000001F490968C96A8B4238D21D490968C96AE3
:10201000C1F10F01816103EB83031A4901EB8303D3
:102020004169994226D10446051D2846164B98471A
:1020300068B9E26A02EB82039B001249CB5833B9BC
:10204000124801680123934021EA030303600C4B0B
:102050001B68D86AE0620D490A6801238340134374
:102060000B6000EB8000074B03EB80002946084B18
:10207000984738BD024B1B68DB6AC36238BD7047A6
:10208000B88A012048890120E50D40003C890120E3
:102090008D0D400000282CD038B5C16A826C914269
:1020A00026D00446051D2846124B984768B9E26AB7
:1020B00002EB82039B001049CB5833B90F480168EB
:1020C0000123934021EA03030360A36CE362C3F19D
:1020D0000F02A2610948016801229A400A43026086
:1020E00003EB8303044800EB83002946044B984725
:1020F00038BD7047E50D4000488901203C8901202A
:102100008D0D400010B504464160206191420AD80F
:10211000D21A83699A4211D20A4B1868211D0A4BC0
:102120009847002010BD9A4201D2994208D2074B2D
:102130001868211D044B9847002010BD012010BDD8
:10214000012010BD3C8B0120A90D4000088B01200F
:1021500070B50D4B98470D4B1B688BB90C4D28463D
:102160000C4EB0470C4C2046B0470C4B1D600C4B3E
:102170001C6005200C2100220A4B9847034B186075
:10218000094B984770BD00BF950E4000388B012069
:102190000C8B01206D0D4000208B0120088B01204D
:1021A0003C8B0120C1124000B50E400010B584B038
:1021B0000D4B98470D4B1B686BB10E23009300230A
:1021C0000193029303930A480A494FF443720A4C5D
:1021D000A047034620B90948DA21094B9847002354
:1021E000184604B010BD00BF51214000388B0120BB
:1021F0006D234000F4744000F5164000FC7440006C
:10220000694240002DE9F04129B90F48E7210F4B01
:102210009847002414E0804616461D460F462820A5
:102220000B4B9847044658B10A4B9847C4F80080B6
:10223000A761E6612562069B6362201D064B9847F5
:102240002046BDE8F08100BFFC74400069424000B8
:102250000910400051214000850D400030B585B087
:102260000F4C2568C5B10191029203906BB90D4BDB
:10227000984701280A4B186801A907BF089A00234C
:1022800000221346084CA04707E0284601A91A4639
:102290000023064CA04700E0002005B030BD00BF81
:1022A000388B0120D91F40002113400051144000F9
:1022B0002DE9F04782B08146234B98478046234B57
:1022C0001B68984236D226E0DA68D2F800A0DB68B4
:1022D000DC68251D2846B847636A20469847E369AD
:1022E000012B1AD1A3695344534506D96360246175
:1022F00030682946164B98470FE00023009320468C
:1023000019465246134CA04738B9134840F275217C
:10231000124B984701E0124E124F33681A68002A98
:10232000D2D1114A10680E49086013600123C9F820
:10233000003002E00023C9F80030044BC3F80080ED
:10234000404602B0BDE8F08785194000348B01207B
:10235000A90D40005D224000FC744000694240002D
:10236000088B0120E50D40003C8B01202DE9F04F4A
:1023700087B0DFF86CA1DFF86CB14E4EDFF86881F2
:10238000DAF800301A68002A00F08B80DB681D68DC
:10239000D84703A8484B98470446039B002B31D1EC
:1023A000854225D8454B9847DAF80030DB68DF686E
:1023B000381DC047FB69012B15D1B969384629443E
:1023C00022462B463E4CA04701280CD10023009307
:1023D000384619462A463B4CA04720B93A484FF4A4
:1023E000A9713A4B98477B6A384698470CE000251C
:1023F0003068291B364B9847304B984720B9354BEE
:10240000984701E02D4B984702A82B4B9847074669
:10241000314DDFF8AC903CE0059C1CB163690BB119
:10242000201DC047039B022B21D0032B2ED0002B55
:102430002FD1049BA169204619443A46C847012878
:1024400027D1636A20469847E369012B21D1A2690D
:102450000023009320461946049C2244194CA047AF
:10246000B8B9194840F22921184B984711E0049B4C
:10247000A36123B9144840F23621144B9847A1694F
:10248000204639443A463B46C84702E02046134BB3
:102490009847306803A900221346A8470028BBD1FB
:1024A0006EE7D84703A8044B98470446039B002BCC
:1024B0009DD0A7E7388B0120B1224000191B4000B6
:1024C000052140005D224000FC744000694240004C
:1024D00051164000750E4000ED144000E910400018
:1024E000088B012075194000E50D40001D4B1B783D
:1024F000013B032B35D8DFE803F002222B121A4BE5
:10250000DB6B13F0400F4FF04002174B14BF5A63C0
:102510001A63164A137883F0010313707047124B45
:10252000DB6B13F0400F4FF040020F4B14BF5A63A8
:102530001A630E4A137883F0010313707047402228
:10254000094B1A630023094A1370064A1370704737
:102550004022054B5A630122044B1A700022014BA2
:102560001A707047488B0120000E0E40A58C012088
:1025700010B50C4B7E221A7002225A709870D970D6
:1025800080F080000144197107490A6813600B68E4
:1025900005225A60054B18684FF47A720023044CE8
:1025A000A04710BD508B012024000020EC94012096
:1025B000211340002DE9F04186B006460C46154631
:1025C000984601AFDFF868E0BEE80F000FC7DEF8FD
:1025D00000303B70284600214246144B9847B8EB28
:1025E000440F3CBF08F1FF346408CCB1A91C32464B
:1025F0003019164612F8013B06AF07EB131313F818
:10260000143C01F8023C337803F00F033B4413F809
:10261000143C01F8013C02318242EAD105EB440549
:1026200000232B70600006B0BDE8F081314540000A
:102630003C75400038B514461B4B7E221A700022B0
:102640005A70621C9A70D87039B144B1174D28463F
:102650002246174B98472C4402E0144C00E0134CE0
:10266000114D601B10F0FF000BD06A1E013855FAA7
:1026700080F0002312F8011F0B44DBB28242F9D133
:1026800000E00023224602F8013B0A490B68064895
:1026900018600B68521B5A60074B18684FF47A7227
:1026A0000023064CA04738BD708B0120748B01209D
:1026B000FD43400028000020EC940120211340003D
:1026C00070B516461D467E232B7000236B70531C7D
:1026D000AB702C1DE87021B11AB120460C4B984705
:1026E0003444601B10F0FF000BD06A1E013855FA0D
:1026F00080F0002312F8011F0B44DBB28242F9D1B3
:1027000000E0002304F8013B601B80B270BD00BFF5
:10271000FD43400030B585B0634B0393634B98474E
:10272000634A137801331370624B9847624BDB6B3B
:1027300013F0040F2FD15E4B1B78042B27D95F4B6E
:102740001868D0B100214FF0FF320B465C4CA04717
:102750005C4B9847044600205B4B984702465B4819
:1027600021465B4CA0475B48A047544B18680021AA
:102770000A460B46584CA04702E05648544B98472F
:102780000022564B1A700322554B1A708AE0012220
:10279000524B1A7086E0514B1B78002B39D1474BB6
:1027A0001868D0B100214FF0FF320B46444CA047CF
:1027B000444B984704460020434B98470246434801
:1027C0002146434CA0474748A0473C4B186800218E
:1027D0000A460B46404CA04702E042483C4B984713
:1027E00001223F4B1A70404C022000210A4623462A
:1027F0003E4DA8473E4B1880039B1C6004A951F82E
:10280000043D58603B4B186800221346324CA047E9
:1028100037E0012B35D1294B1868D0B100214FF09A
:10282000FF320B46264CA047264B98470446002013
:10283000254B9847024625482146254CA0472E485F
:10284000A0471E4B186800210A460B46224CA047A1
:1028500002E029481E4B9847284B0293284C092038
:10286000284905222346214DA847029B1C6004A944
:1028700051F8083D58601F4B186800221346164C4B
:10288000A0470A4B98470024094B1C70094B9847F6
:102890000121124B19701C4B1868009422462346E4
:1028A0001A4CA04705B030BD648B0120950E400046
:1028B000B48C0120B50E4000000E0E40FC940120A7
:1028C000ED14400085194000C519400050754000C6
:1028D000714340005C75400021134000200000203F
:1028E000488B012070754000CC940120C126400027
:1028F000848C0120EC94012088754000F094012024
:10290000708C0120CC960120808C01205D2240003B
:10291000F8B5074E4FF000777763064D2846064C12
:10292000A0472846A04737632846A047F8BD00BF08
:10293000000E0E401E140D000100002030B587B0BF
:10294000044600230393049305930090C02301934E
:102950004FF4006302931B4D28461B4B98472846B3
:1029600001211A4B984705F5007528466946184A13
:10297000184B984704EB840464001749A1FB043109
:1029800028468909154B9847154BE02283F8082300
:102990004FF480721A60284640F20111114B98479B
:1029A000114A124B1A60124A124B1A602846124BF7
:1029B00098472846114B98472846114B984707B02F
:1029C00030BD00BF00C00040190440008905400030
:1029D0000000270765094000D34D6210C909400077
:1029E00000E100E0CD094000B88C0120E89401200E
:1029F000BC900120C8940120D9094000B9094000C9
:102A0000C109400030B583B0002300932348244B14
:102A1000984710F0010F12D0204801A9214B984788
:102A2000002839D1204B1B68B3F5806F34D21F4A80
:102A300012680199D15401331B4A13602CE010F441
:102A4000807F1AD0194B1A68194C216819602260CE
:102A5000154B1968C2F8001400251D600F48154B6E
:102A60009847154B186821466A462B46134CA047D9
:102A7000009B8BB1124B98470EE010F0100F0BD05B
:102A8000064C20460F4B98474FF400710E4B984769
:102A9000204610210D4B984703B030BD00C20040C6
:102AA000D5094000F50940004C8B0120E894012035
:102AB000C8940120D9094000408B012051144000E6
:102AC000750E40000D0A4000B1054000D1094000DC
:102AD00030B583B00B4B01930B4C2A200B493C22A1
:102AE00023460B4DA847019B1C6002A951F8043DE9
:102AF0005860084B18684FF0FF320023064CA0477F
:102B000003B030BDDC9401204C950120A475400039
:102B1000C1264000EC940120211340002DE9F04F24
:102B200083B004460D46B64A4FF48073B54EB047A5
:102B3000B54B186830B300214FF0FF320B46B34E4F
:102B4000B047B34B984706460020B24B9847024621
:102B5000B1483146B14EB047B1482946A84AB047BE
:102B6000A94B186800210A460B46AE4EB047032D0C
:102B700040F27A8721787E290DD1A34EDFF8C482F6
:102B8000A94F35E0A64829469D4AA44B9847EEE751
:102B900021787E292CD0A54B1B78002B00F0648770
:102BA000994B1868D8B100214FF0FF320B46974D72
:102BB000A847974B984705460020964B98470246F2
:102BC00095482946954DA84799482178A8478E4BA6
:102BD000186800210A460B46924CA04702E0944830
:102BE0008E4B9847A0200121924B984700F03CBFA4
:102BF000A07800F1030E1EF0FF0E0DD0621E811CA6
:102C000054FA81F14FF0000912F8013F4B445FFA8A
:102C100083F98A42F8D101E04FF0000904EB0E0A73
:102C200014F80E1049452AD0774B1868E8B10021F6
:102C30004FF0FF320B46754CA047754B9847044642
:102C40000020744B9847024673482146734CA047B6
:102C500079489AF800104A46A0476B4B1868002143
:102C60000A460B466F4CA04703E073484A466B4B3D
:102C70009847A02002216F4B984700F0F5BE94F8CA
:102C80000390B9F1A80F00F0728437D8B9F1840F1E
:102C900000F0528618D8B9F10A0F00F0908009D8D8
:102CA000B9F1030F00F04781B9F1080F00F01A8164
:102CB00000F0ADBEB9F1810F00F08D85B9F1820F42
:102CC00000F06E8200F0A3BEB9F1A00F50D009D879
:102CD000B9F1890F00F03F82B9F18B0F00F0FA8053
:102CE00000F095BEB9F1A60F00F0848200F29E8339
:102CF000B9F1A10F00F0BC8100F089BEB9F1CD0F90
:102D000000F0628618D8B9F1CA0F00F0878509D89B
:102D1000B9F1A90F00F0DA84B9F1AA0F00F0FB8431
:102D200000F075BEB9F1CB0F00F09B85B9F1CC0F67
:102D300000F0BA8500F06BBEB9F1FA0F00F0E28145
:102D400009D8B9F1F80F00F02385B9F1F90F00F0B7
:102D5000478300F05CBEB9F1FD0F00F0B882B9F115
:102D6000FE0F00F09182B9F1FC0F40F05086E1E2D5
:102D70003068F0B100214FF0FF320B46DFF88CC015
:102D8000E047234B984781460020224B9847024654
:102D900021484946DFF88490C84728482179C84728
:102DA000306800210A460B46DFF878C0E04700F0A3
:102DB00052BE22482179194B984700F04CBE30682A
:102DC000002841D000214FF0FF320B46DFF83CC015
:102DD000E0470F4B9847814600200E4B984702462C
:102DE0000D484946DFF83490C8471548C847306851
:102DF00000210A460B46DFF82CC0E04727E000BF61
:102E0000CC950120B5254000FC940120ED14400034
:102E100085194000C51940005075400071434000BD
:102E2000E475400021134000000E0E40A48C0120E8
:102E3000F8754000712540001C764000587640002F
:102E400084764000B47840009C489D4B9847A27916
:102E50009C4B1A70E1795970217A9970617AD97016
:102E6000A17A197122B940233B63974B1A702AE06B
:102E7000012A04D140237B63934B1A7023E030680E
:102E8000E8B100214FF0FF320B46DFF870C2E04797
:102E90008E4B9847814600208D4B984702468D48BF
:102EA0004946DFF81C92C8478B482179C8473068EB
:102EB00000210A460B46DFF848C2E04703E0864897
:102EC00021797F4B98478A207E490522834B98477A
:102ED00000F0C1BD421E8A20211DD2B27F4B98470F
:102EE00000F0B9BD3068E0B100214FF0FF320B4671
:102EF000DFF808C2E047754B984781460020744BC5
:102F00009847024673484946DFF8B491C847744869
:102F1000C847306800210A460B46DFF8E4C1E047A5
:102F200002E06F48664B984788206E4902226B4B3F
:102F3000984700F090BD237923BB3068E8B10021A9
:102F40004FF0FF320B46DFF8B4C1E0475F4B9847C4
:102F5000814600205E4B984702465E484946DFF8AE
:102F60006091C8476048C847306800210A460B4650
:102F7000DFF88CC1E04700F06EBD5B48504B9847CE
:102F800000F069BD012B24D13068E8B100214FF079
:102F9000FF320B46DFF864C1E0474C4B984781464F
:102FA00000204B4B984702464A484946DFF81091AB
:102FB000C8474E48C847306800210A460B46DFF82C
:102FC00040C1E04700F047BD48483D4B984700F0FE
:102FD00042BD022B24D13068E8B100214FF0FF320E
:102FE0000B46DFF818C1E047384B98478146002070
:102FF000374B9847024637484946DFF8C490C847E0
:103000003B48C847306800210A460B46DFF8F0C04D
:10301000E04700F020BD3648294B984700F01BBD23
:10302000032B40F018853068E8B100214FF0FF32E3
:103030000B46DFF8C8C0E047244B98478146002084
:10304000234B9847024623484946DFF87490C84707
:103050002848C847306800210A460B46DFF8A0C060
:10306000E04700F0F8BC2348154B984700F0F3BC4C
:103070003068E8B100214FF0FF320B46DFF87CC02A
:10308000E047124B984781460020114B9847024673
:1030900010484946DFF82890C8471748C8473068A5
:1030A00000210A460B46DFF858C0E04700F0D3BCC9
:1030B0001148034B984700F0CEBC00BF8476400017
:1030C00071434000CC960120A58C01208519400059
:1030D000C519400050754000A076400035264000DC
:1030E000C4764000C4940120DC764000F0764000B5
:1030F00010774000387740005C774000ED144000C6
:1031000021134000A54A1368013313603068E8B109
:1031100000214FF0FF320B46DFF8BCC2E047A04B66
:103120009847814600209F4B984702469E48494653
:10313000DFF87C92C8479D48C847306800210A469E
:103140000B46DFF898C2E04700F085BC9748984BE3
:10315000984700F080BC3068E8B100214FF0FF32A2
:103160000B46DFF874C2E0478D4B9847814600203C
:103170008C4B984702468C484946DFF83492C84742
:103180008C48C847306800210A460B46DFF84CC21D
:10319000E04700F060BC8748854B984700F05BBC77
:1031A00040237B630122844B1A703068E8B1002110
:1031B0004FF0FF320B46DFF820C2E047784B9847CC
:1031C00081460020774B9847024677484946DFF80A
:1031D000E091C8477948C847306800210A460B4645
:1031E000DFF8F8C1E04700F036BC7448704B9847F0
:1031F00000F031BC237923BB3068E8B100214FF0E7
:10320000FF320B46DFF8D0C1E047654B9847814657
:103210000020644B9847024663484946DFF8909186
:10322000C8476748C847306800210A460B46DFF8A0
:10323000ACC1E04700F00FBC61485D4B984700F01F
:103240000ABC3068E0B100214FF0FF320B46DFF8D6
:1032500088C1E047524B984781460020514B984720
:10326000024651484946DFF84891C8475548C84783
:10327000306800210A460B46DFF860C1E047EAE308
:1032800050484B4B9847E6E33068E0B100214FF0DF
:10329000FF320B46DFF840C1E047414B984781467B
:1032A0000020404B984702463F484946DFF80091CE
:1032B000C8474548C847306800210A460B46DFF832
:1032C0001CC1E047C7E34048394B9847C3E304F1CA
:1032D000050A50463D4B98478146306808B30021A7
:1032E0004FF0FF320B46DFF8F0C0E0472C4B984719
:1032F000834600202B4B984702462B485946DFF85F
:10330000B0B0D8471FFA89F20132314851465244D1
:10331000D847306800210A460B46DFF8C0C0E047B6
:1033200099E31FFA89F20132294851465244204B51
:10333000984790E304F1050A5046244B984781468C
:10334000306808B300214FF0FF320B46DFF888C029
:10335000E047134B984783460020124B984702469C
:1033600011485946DFF848B0D8471FFA89F20132B0
:10337000184851465244D847306800210A460B4647
:10338000DFF858C0E04766E31FFA89F201321148BE
:1033900051465244064B98475DE300BFC09401205C
:1033A00085194000C5194000507540007C774000E9
:1033B0007143400094774000A58C0120A87740001D
:1033C000C4774000D4774000E87740004147400090
:1033D0000078400020784000ED14400021134000A8
:1033E0003068E0B100214FF0FF320B46DFF888C2B1
:1033F000E047964B984781460020954B98470246F8
:1034000094484946DFF85492C8479348C847306803
:1034100000210A460B46DFF864C2E04702E08E480E
:103420008E4B984701228E4B1A7014E323792BBBE5
:103430003068E0B100214FF0FF320B46DFF838C2B0
:10344000E047824B984781460020814B98470246CF
:1034500080484946DFF80492C8478248C847306828
:1034600000210A460B46DFF814C2E04702E07D481F
:103470007A4B984702227C4B1A70ECE2072B25D13D
:103480000322794B1A703068E0B100214FF0FF320F
:103490000B46DFF8E4C1E0476C4B984781460020BB
:1034A0006B4B984702466B484946DFF8B091C847D6
:1034B0006E48C847306800210A460B46DFF8BCC199
:1034C000E047C8E26948654B9847C4E2082B25D11C
:1034D0000322654B1A703068E0B100214FF0FF32D3
:1034E0000B46DFF894C1E047584B984781460020CF
:1034F000574B9847024657484946DFF86091C847FE
:103500005B48C847306800210A460B46DFF86CC1AB
:10351000E047A0E25648514B98479CE2092B40F007
:103520009A820322504B1A703068E0B100214FF0AC
:10353000FF320B46DFF840C1E047444B98478146D5
:103540000020434B9847024642484946DFF80C9119
:10355000C8474046C847306800210A460B46DFF896
:103560001CC1E04777E240463C4B984773E2237921
:1035700013BB3068E0B100214FF0FF320B46DFF89B
:10358000F8C0E047314B984781460020304B9847C0
:10359000024630484946DFF8C490C8473548C84716
:1035A000306800210A460B46DFF8D0C0E04752E2FF
:1035B00030482A4B98474EE2072B22D13068E0B1C1
:1035C00000214FF0FF320B46DFF8ACC0E0471F4B45
:1035D0009847814600201E4B984702461D484946A1
:1035E000DFF87890C8472148C847306800210A466C
:1035F0000B46DFF888C0E0472DE21C48174B984780
:1036000029E2082B3CD13068E0B100214FF0FF32B5
:103610000B46DFF864C0E0470C4B9847814600201A
:103620000B4B984702460B484946DFF83090C84795
:103630000F48C847306800210A460B46DFF83CC0F7
:10364000E04708E20A48054B984704E28519400024
:10365000C519400050754000487840007143400053
:10366000A48C012060784000488B012078784000CD
:1036700094784000D8784000ED14400021134000B9
:10368000092B40F0E8813068E0B100214FF0FF32B3
:103690000B46DFF894C2E047954B984781460020DF
:1036A000944B9847024694484946DFF85092C847E1
:1036B0004046C847306800210A460B46DFF86CC216
:1036C000E047C8E140468D4B9847C4E13068E0B11F
:1036D00000214FF0FF320B46DFF84CC2E047844B2D
:1036E000984781460020834B9847024682484946C6
:1036F000DFF80892C8478248C847306800210A4668
:103700000B46DFF828C2E04702E07D487B4B984734
:103710007C4B98479FE13068E0B100214FF0FF32C9
:103720000B46DFF804C2E047714B98478146002002
:10373000704B9847024670484946DFF8C091C84729
:103740007148C847306800210A460B46DFF8DCC1E3
:10375000E04702E06C48694B98476C4B0193DFF8F7
:10376000D091212000210A464B46DFF8C8C1E0472E
:10377000019BC3F8009002A951F8043D5860644BC6
:1037800018684FF0FF320023DFF8A0C1E04762E184
:103790003068E0B100214FF0FF320B46DFF888C1FE
:1037A000E047534B984781460020524B98470246CA
:1037B00051484946DFF84491C8475648C8473068E1
:1037C00000210A460B46DFF864C1E04743E1514857
:1037D0004A4B98473FE13068E0B100214FF0FF329B
:1037E0000B46DFF844C1E047414B98478146002033
:1037F000404B9847024640484946DFF80091C84789
:103800004548C847306800210A460B46DFF81CC10E
:10381000E04720E14048394B98471CE13068E0B16F
:1038200000214FF0FF320B46DFF8FCC0E047304B81
:103830009847814600202F4B984702462E4849461C
:10384000DFF8B890C8473548C847306800210A46B5
:103850000B46DFF8D8C0E047FDE03048274B9847DB
:10386000F9E03068E0B100214FF0FF320B46DFF89D
:10387000B8C0E0471E4B9847814600201D4B984733
:1038800002461D484946DFF87490C8472448C84797
:10389000306800210A460B46DFF890C0E047DAE0C6
:1038A0001F48164B9847D6E03068E0B100214FF032
:1038B000FF320B46DFF870C0E0470D4B984781465A
:1038C00000200C4B984702460B484946DFF82C90E5
:1038D000C8471448C847306800210A460B46DFF83D
:1038E0004CC0E047B7E00F48044B9847B3E000BF37
:1038F00085194000C51940005075400071434000D3
:10390000F4784000D12A40000C794000588B012007
:10391000EC940120307940004C7940006C794000F3
:1039200090794000B0794000ED1440002113400030
:10393000948C0120C1264000237913BB3068E0B18C
:1039400000214FF0FF320B46DFF844C1E047484BFF
:10395000984781460020474B9847024646484946CB
:10396000DFF81C91C8474548C847306800210A461F
:103970000B46DFF820C1E0476DE04048404B9847D8
:1039800069E03068E0B100214FF0FF320B46DFF80C
:1039900000C1E047364B984781460020354B984799
:1039A000024635484946DFF8D890C8473548C847E9
:1039B000306800210A460B46DFF8D8C0E0474AE0ED
:1039C00030482F4B984746E03068E0B100214FF077
:1039D000FF320B46DFF8B8C0E047254B98478146D9
:1039E0000020244B9847024623484946DFF8909030
:1039F000C8472548C847306800210A460B46DFF80B
:103A000094C0E04727E020481D4B984723E03068EA
:103A1000E8B100214FF0FF320B46DFF874C0E047F9
:103A2000134B984782460020124B98470246124893
:103A30005146DFF84CA0D04714484946D04730687B
:103A400000210A460B46DFF84CC0E04703E00F4870
:103A500049460B4B9847A3780433DBB21C44ED1A5C
:103A6000EDB2032D3FF694A803B0BDE8F08F00BF80
:103A700085194000C519400050754000C8794000C4
:103A800071434000D8794000E8794000007A400056
:103A9000ED1440002113400070B582B00023019363
:103AA000184B9847184B1868D0B100214FF0FF32DF
:103AB0000B46164CA047164B984704460020154B62
:103AC0009847024614482146144CA0471448A04782
:103AD0000D4B186800210A460B46124CA04702E025
:103AE0000F480E4B9847104E084D104C306801A9F6
:103AF0004FF0FF320023A847019B184693F80014AB
:103B0000A047F3E711294000FC940120ED14400088
:103B100085194000C51940005075400071434000B0
:103B20001C7A400021134000408B01201D2B4000D7
:103B30002DE9F041A8B0002325938F4A00928F48C9
:103B40004FF47A7101228E4CA0478E4B186000BB57
:103B50008D4B1868D0B100214FF0FF320B468B4CD3
:103B6000A0478B4B9847044600208A4B9847024653
:103B700089482146894CA0478948A047824B18684C
:103B800000210A460B46874CA04702E08448834B3D
:103B90009847854B00938548FA2101220023784CF1
:103BA000A0470446824B186048B1794B98470246BB
:103BB00000230093204619467E4CA04720E0724B1C
:103BC0001868D0B100214FF0FF320B466F4CA04770
:103BD0006F4B9847044600206E4B984702466E484C
:103BE00021466E4CA0477448A047674B18680021D7
:103BF0000A460B466B4CA04702E06F48674B98475C
:103C0000614B1868D0B100214FF0FF320B465F4C7A
:103C1000A0475F4B9847044600205E4B98470246FA
:103C20005D4821465D4CA0476448A047564B186844
:103C300000210A460B465B4CA04702E05F48574B09
:103C400098474FF416505E4B9847012004210022FC
:103C50005C4B98475C4B186008BB4B4B1868D0B165
:103C600000214FF0FF320B46484CA047484B984785
:103C700004460020474B9847024647482146474C98
:103C8000A0475248A047404B186800210A460B46FF
:103C9000444CA04702E04D48404B9847FEE70120C6
:103CA00004210022474B9847494B186008BB364B0C
:103CB0001868D0B100214FF0FF320B46334CA047BB
:103CC000334B984704460020324B9847024632480F
:103CD0002146324CA0473F48A0472B4B1868002193
:103CE0000A460B462F4CA04702E03A482B4B984718
:103CF000FEE70523009300230193029303933648C4
:103D000036494FF48062364CA047364EDFF8E080EB
:103D10002F4F3046C0470446386825A94FF0FF3280
:103D200000231A4DA847259B1868596805AA8023C7
:103D30002D4DA847144B186800285BD000214FF088
:103D4000FF320B46114DA847114B984705460020FE
:103D5000104B9847024610482946104DA847234863
:103D6000259B596805AAA847074B186800210A46F1
:103D70000B460C4DA84743E015274000387A400019
:103D800005224000808C0120FC940120ED144000AD
:103D900085194000C519400050754000714340002E
:103DA000487A400021134000ED244000687A40002A
:103DB000448B01205D224000747A4000947A4000D8
:103DC0003D294000C1124000408B0120B07A4000E4
:103DD000EC940120D07A4000993A4000F47A4000F7
:103DE000F516400000C20040B5254000007B4000B1
:103DF0000D0A40000C48259B596805AA0B4B9847B3
:103E0000259B1A6826925B682793204626A90022E4
:103E1000074B984720464FF48071064B9847304631
:103E20001021054B984774E7007B40007143400028
:103E30008D054000A5054000CD09400070B584B057
:103E4000002504AC44F8045D084B1E68084B9847F5
:103E500002460095304629462346064CA047039B60
:103E60000BB1054B984704B070BD00BF808C01209A
:103E7000A51940005D224000750E4000F0B583B0EA
:103E800004460E4600230193344B984209D11F4645
:103E9000334D384601A9A8470028FAD1019B337059
:103EA00019E0304B984209D11F462D4D384601A9E3
:103EB000A8470028FAD1019B337019E02A4B984299
:103EC00009D11F46264D384601A9A8470028FAD136
:103ED000019B337019E0254B9C4209D11F46204DB0
:103EE000384601A9A8470028FAD1019B337019E090
:103EF0001F4B9C4209D11F46194D384601A9A847BE
:103F00000028FAD1019B337019E01A4B9C4209D169
:103F10001D46134C284601A9A0470028FAD1019B51
:103F2000337018E0144B9C4209D11D460C4C2846B6
:103F300001A9A0470028FAD1019B33700BE00F4B79
:103F40009C4208D11D46064C284601A9A0470028DE
:103F5000FAD1019B337003B0F0BD00BF00C2004036
:103F6000F509400000020240004202400082014088
:103F700000C20140008200400002044000420340B1
:103F800070B50C46304B984208D11E462F4D304636
:103F90002146A8470028FAD1012070BD2C4B984239
:103FA00008D11E46294D30462146A8470028FAD19F
:103FB000012070BD274B984208D11E46234D304644
:103FC0002146A8470028FAD1012070BD224B984213
:103FD00008D11E461D4D30462146A8470028FAD17B
:103FE000012070BD1D4B984208D11E46174D30462A
:103FF0002146A8470028FAD1012070BD184B9842ED
:1040000008D11E46114D30462146A8470028FAD156
:10401000012070BD134B984208D11E460B4D30460F
:104020002146A8470028FAD1012070BD0E4B9842C6
:1040300008D11E46054D30462146A8470028FAD132
:10404000012070BD002070BD00C20040E1094000A9
:1040500000020240004202400082014000C20140D2
:1040600000820040000204400042034000B58BB0D3
:104070002B4B98472B4AD36823F4E0631B041B0C9B
:1040800043F0BF6343F40033D360274B98470720C6
:10409000264B9847264D274B1D60274A274B1A6011
:1040A000274A284B1A604FF4E1330493C023059349
:1040B0004FF400630693002407940894224E304680
:1040C000224B984730460121214B9847284604A9A6
:1040D000204A214B98472846204B98472846204B9A
:1040E0009847204E3368986821461F4DA84733688B
:1040F00058682146A8471D481D4B98471D4B9847B7
:10410000032300930194029403941B481B494FF42A
:10411000806223461A4CA0471A4B9847FEE700BF1F
:10412000A501400000ED00E0B10240002108400080
:104130000042034048950120813F40004495012002
:104140007D3E40004095012000400340190440009E
:10415000890540000000270765094000B9094000B3
:10416000C10940005804002039464000187B400037
:104170002946400091424000313B4000787B40009E
:10418000F5164000F918400008B5124B1868D0B178
:1041900000214FF0FF320B460F4CA0470F4B9847C2
:1041A000044600200E4B984702460E4821460E4C0E
:1041B000A0470E48A047074B186800210A460B4647
:1041C0000B4CA04702E00948074B9847094B98471A
:1041D000FEE700BFFC940120ED144000851940006B
:1041E000C51940005075400071434000847B400079
:1041F00021134000850E400008B5124B1868D0B15D
:1042000000214FF0FF320B460F4CA0470F4B984751
:10421000044600200E4B984702460E4821460E4C9D
:10422000A0470E48A047074B186800210A460B46D6
:104230000B4CA04702E00948074B9847094B9847A9
:10424000FEE700BFFC940120ED14400085194000FA
:10425000C51940005075400071434000A47B4000E8
:1042600021134000850E400000B583B00023019368
:104270000091009B044B9847019B002BFCD0034B03
:10428000984703B05DF804FB950E4000B50E400062
:1042900010B5012000210322054B9847054B1860FB
:1042A00020B100210A460B46034CA04710BD00BFB9
:1042B000C1124000FC9401202113400042F6DF624D
:1042C000014B1A60704700BF0095012038B50F4BB5
:1042D0001C680F4B984705460E4B98470E4B1B68C2
:1042E00013F0806F03D1C4F5EA33BB3305E0013529
:1042F000064B1B68C3F5EA33BB3305EB8505074A5C
:104300001068B3FBF0F000EB450038BD18E000E0AA
:10431000A5194000850E400004ED00E00095012045
:1043200070B50F4E0F4D761BB61018BF002405D088
:10433000013455F8043B9847A642F9D10A4E0B4D7B
:10434000761B03F061FCB61018BF002406D00134C0
:1043500055F8043B9847A642F9D170BD70BD00BF27
:10436000147C4000147C40001C7C4000147C400005
:104370000FB400B5074983B004AB086853F8042BA9
:104380008168019300F07AFA03B05DF804EB04B0A1
:10439000704700BF58040020032A70B426D940EAB1
:1043A00001039B0711D004780D78AC4222D102445E
:1043B000431C05E013F8014B11F8015FAC4219D121
:1043C0009342F7D1002070BC70470C4603461E682C
:1043D0002568AE421846214603F1040304F10404A3
:1043E00004D1043A032A18462146F0D8002ADAD12B
:1043F0001046E8E7601B70BC704700BF844641EA86
:10440000000313F003036DD1403A41D351F8043B4C
:1044100040F8043B51F8043B40F8043B51F8043B9E
:1044200040F8043B51F8043B40F8043B51F8043B8E
:1044300040F8043B51F8043B40F8043B51F8043B7E
:1044400040F8043B51F8043B40F8043B51F8043B6E
:1044500040F8043B51F8043B40F8043B51F8043B5E
:1044600040F8043B51F8043B40F8043B51F8043B4E
:1044700040F8043B51F8043B40F8043B51F8043B3E
:1044800040F8043B51F8043B40F8043B403ABDD2AD
:10449000303211D351F8043B40F8043B51F8043B4F
:1044A00040F8043B51F8043B40F8043B51F8043B0E
:1044B00040F8043B103AEDD20C3205D351F8043BDE
:1044C00040F8043B043AF9D2043208D0D2071CBFAA
:1044D00011F8013B00F8013B01D30B8803806046D3
:1044E000704700BF082A13D38B078DD010F0030349
:1044F0008AD0C3F10403D21ADB071CBF11F8013BB9
:1045000000F8013B80D331F8023B20F8023B7BE707
:10451000043AD9D3013A11F8013B00F8013BF9D232
:104520000B7803704B7843708B78837060467047CC
:1045300070B4840746D0541E002A41D0CDB2034641
:1045400002E0621EE4B3144603F8015B9A07F8D157
:10455000032C2ED9CDB245EA05250F2C45EA054599
:1045600019D903F110022646103E0F2E42F8105CB6
:1045700042F80C5C42F8085C42F8045C02F110025C
:10458000F2D8A4F1100222F00F0204F00F0410324E
:10459000032C13440DD91E462246043A032A46F83A
:1045A000045BFAD8221F22F003020432134404F001
:1045B00003042CB1C9B21C4403F8011BA342FBD174
:1045C00070BC704714460346C2E700BFF0B504460E
:1045D00089B008460D4600F0B3F8A368114F9A89D8
:1045E0000495022100F1010E012604AD029191040F
:1045F0000590CDF80CE006970796019506D4596E04
:1046000042F4005221F400519A815966204619461D
:1046100001AA01F0D7FA002814BF4FF0FF300A209A
:1046200009B0F0BD5C784000024B01461868FFF706
:10463000CDBF00BF5804002000290CBF0222002279
:104640004FF4806300F000B82DE9F0413A4C266841
:104650000D46044690461F4616B1B36B002B3CD066
:10466000B8F1020F2FD8002F2DDB2146304601F084
:1046700065F8A18900236360A3610B0627D421F0AC
:10468000830189B2B8F1020FA1812AD0002D36D062
:10469000B8F1010F11D089B201F00800274BF36384
:1046A00080B225602561676178B111F0030F18BFF2
:1046B0000027A7600020BDE8F08141F001017B42A6
:1046C000A181A361E7E74FF0FF30BDE8F0812169E8
:1046D000304601F09FF9A189D1E7304601F0C2F8D8
:1046E000BEE7002004F1430341F00201002501224E
:1046F000A181A560236023616261BDE8F081002F84
:1047000008BF4FF48067384601F08CFC054628B19D
:10471000A18941F0800189B2A181B9E74FF480609D
:1047200001F080FC054618B9A1894FF0FF30D9E7A8
:104730004FF48067ECE700BF580400206957400041
:1047400020F0030110F00300C0F1000051F8043B19
:1047500000F1040C4FEACC0C6FF000021CBF22FAEF
:104760000CF213434FF0010C4CEA0C2C4CEA0C4CAD
:10477000A3EB0C0222EA030212EACC1204BF51F8A6
:10478000043B0430F4D0C2F1000102EA0102B2FAA3
:1047900082F2C2F11F0200EBD200704740EA01032F
:1047A0009B0770B42BD1032A29D90C460346214616
:1047B00054F8046BA6F1013525EA060515F0803F93
:1047C00005D1043A032A43F8046B2146EFD8A2B17D
:1047D0000C781C70013A013301313CB16AB111F817
:1047E000014B03F8014B013A002CF7D12AB11A44CE
:1047F000002103F8011B9342FBD170BC70470346B4
:10480000E5E700BF4B6E2DE9F0479C040F4692464A
:104810002BD59368126833B3804602F1080919E971
:104820006000B60817D0043D002401E0A64210D075
:10483000404655F8041F3A4601F08CF8431C04F139
:104840000104F3D10023CAF80830CAF80430BDE8E7
:10485000F087DAF80830A3EB8603CAF8083009F1CC
:104860000809002BDBD10020ECE701F0ABF90023B5
:10487000CAF80830CAF80430BDE8F0872DE9F04FD7
:10488000ABB01C46009193460493019018B1836B22
:10489000002B00F0E380009B99898AB2900408D431
:1048A00018465B6E41F4005223F400538281436644
:1048B00092B2110740F1B280009B1B69002B00F0FF
:1048C000AD8002F01A020A2A00F0B48000230DF134
:1048D000680A09930F930E930293CDF834A05446BF
:1048E0009BF80030002B00F0A384252B00F0A0845F
:1048F0005A4601E0252B03D012F8013F002BF9D1D5
:10490000CBEB0206154696B10E9B0F9AC4F800B089
:1049100001333244072B66600F920E9379DD002A33
:1049200040F0AF84029B0E923344544602932B789E
:10493000002B00F0608300214FF000034FF0FF3C9C
:104940008DF82F30681C6B7888460D46664600F15E
:10495000010BA3F12002582A00F2AB82DFE812F02B
:104960009B02A902A902A302A902A902A902A90203
:10497000A902A90255026202A9020D016E02A90252
:1049800029012F012F012F012F012F012F012F01AD
:104990002F012F01A902A902A902A902A902A902B5
:1049A000A902A902A902A9023D01A902A902A9021C
:1049B000A902A902A902A902A902A902A9027401D5
:1049C000A902A902A902A902A9028B01A902A902AE
:1049D000A301A902A902A902A902A902A902A90286
:1049E000A902A902A902C701DA01A902A902A90222
:1049F0002301DA01A902A9024C02A9028A021301C9
:104A0000F3010702A9020D02A9028100A902A9026D
:104A100033020834029B3344029388E701980099DB
:104A200000F070FDA8B9009B9A8902F01A020A2AC8
:104A30007FF44CAF009BB3F90E30002BFFF646AF6E
:104A4000019800995A46234600F020FD2BB0BDE89E
:104A5000F08F4FF0FF302BB0BDE8F08F00F002FF79
:104A600019E718F0200F0395B44600F00C81049B61
:104A7000073323F0070303F10802D3E90067049228
:104A800001234FF000028DF82F20E1460025BCF1F4
:104A9000000FA8BF28F0800856EA070240F0C48043
:104AA000BCF1000F00F08183012B00F0C580022BC8
:104AB00000F087835146F20842EA4772F80806F090
:104AC000070307461646303356EA070201F8013D50
:104AD000F1D118F0010F079140F0FC83C1EB0A09F6
:104AE000E1454E46B8BF664605B1013618F00203EF
:104AF000059318BF023618F08403069340F0FA813C
:104B0000039B9D1B002D40F3F581102D40F38C84F9
:104B1000DDF838E00F9AC64F2046102364467146F0
:104B2000844607E001F1020E0CF1080C0146103D2D
:104B3000102D13DD481C103207280F92CCF800709E
:104B4000CCF804300E90EDDD002A40F0C381103D1A
:104B5000102D11464FF0010ED446EBDC6346714632
:104B6000A4461C462A4407290F92276065600E91CF
:104B700000F346830834481CBFE1584648F0040857
:104B80009BF80030E3E618F020030395B44662D0AA
:104B9000049B073323F0070303F10802D3E90067FE
:104BA000049200236DE748F040089BF80030584617
:104BB000CDE648F080089BF800305846C7E6A3F1E0
:104BC000300200251BF8013B05EB850502EB45058E
:104BD000A3F13002092AF5D9BBE648F0100818F015
:104BE000200F0395B4468DF82F1000F09B80049998
:104BF000073121F00701D1E900230831049116465D
:104C00001F46002A73F10003C0F2A683BCF1000F17
:104C1000A8BF28F0800856EA07029DF82F50E14609
:104C20004FF001033FF43CAF012B7FF440AF002F66
:104C300008BF0A2E80F034832AAB303603F8416D6A
:104C4000C3EB0A0907934BE748F0100818F020035C
:104C50000395B4469CD118F0100240F0F78218F08A
:104C6000400300F0F382049913460A4604320E888A
:104C70000492002705E748F0100818F0200F03956C
:104C8000B4467FF4F4AE049A18F0100F134640F0C7
:104C9000E48218F0400F00F0E0821688043200270A
:104CA00001230492EDE6634A039518F0200FB44601
:104CB0008DF82F10099200F09080049A073222F0AC
:104CC0000702D2E9006702F10801049118F0010F10
:104CD00000F0908256EA070200F08C8230228DF8B4
:104CE000313048F002088DF830200223C9E6049ADA
:104CF000039513688DF840301346043301264FF0B6
:104D00000001049310AB8DF82F10B14607934FF0BC
:104D1000000CEBE618F0200F0395B4468DF82F1029
:104D20007FF465AF18F0100F40F0A28218F0400F2A
:104D300000F09E820499B1F900600431F717324601
:104D40003B4604915DE70499039530230A468DF8AC
:104D50003030782304328DF83130374B0993B44624
:104D600048F002080E6804920027022389E648F002
:104D700020089BF800305846E9E5049A039513682B
:104D800007934FF00001B4468DF82F10161D002B2D
:104D900000F05083BCF1000FC0F22A83079DCDF8CC
:104DA00010C062462846002101F0D6FBDDF810C095
:104DB000002800F05083C5EB000904969DF82F50A1
:104DC0004FF0000C8CE61C4A039518F0200FB446F7
:104DD00009928DF82F107FF470AF049918F0100F1E
:104DE0000A4640F0408218F0400F00F03C82043246
:104DF0000E880492002769E79BF800306C2B00F0C6
:104E0000EA8248F010085846A1E5049A156813464E
:104E1000002D03F10403C0F2E68204939BF80030F6
:104E2000584694E59BF8003058462B218FE500BF8B
:104E3000F87B4000DC7B40003C7540009BF8003074
:104E40002A2B0BF1010000F00F83A3F13002092A95
:104E500083464FF000063FF67CAD1BF8013B06EBA6
:104E6000860602EB4606A3F13002092AF5D946EA86
:104E7000E6766EE518F0200F8DF82F1000F0838293
:104E8000049A02991368CF170846043239460492EF
:104E9000C3E9000124E558469BF8003000297FF45F
:104EA00056AD202153E548F0010858469BF80030E4
:104EB0004DE503958DF82F10002B00F09C808DF8A8
:104EC00040304FF0000301268DF82F3010ABB14673
:104ED00007931CE70198009908930DAAFFF792FC2D
:104EE000002840F08F800E990F9A089B01F1010E67
:104EF000D4461CE60E990F9A481C9DF82F306BB1D2
:104F000001320DF12F03012107280F920E9023602B
:104F1000616000F33481014608340130059B63B1C0
:104F200002320CA9022307280F920E9084E80A008F
:104F300000F33481014608340130069B802B00F0D9
:104F4000D480C9EB0C07002F2BDD102FAA4D1FDDDD
:104F5000A6461023019C07E001F1020C0EF1080E99
:104F60000146103F102F11DD481C103207280F9208
:104F7000CEF80050CEF804300E90EDDD6ABB103F45
:104F8000102F4FF0010C1146D646EDDC74466046FA
:104F90003A4407280F9284E8A0000E903BDC0834C6
:104FA000013002EB0903079A0F93072884E80402F3
:104FB0000E903DDD002B40F03E8118F0040F0E9363
:104FC00040F02F81029B039A9642ACBF9B199B181D
:104FD000029300230E93544682E4204600990593E1
:104FE0000DAAFFF70FFC68B90E990F9A059B01F106
:104FF000010CD646B5E70F9B23B1019800990DAA85
:10500000FFF700FC009B9B895B063FF522AD0298F1
:105010002BB0BDE8F08F002A40F091810122079962
:10502000CDF86C904B46CDF83C901A910E925446B8
:1050300004F1080218F0040F39D003998D1B002DDC
:1050400035DD102D40F302820E986C4FDDF80480A0
:10505000DDF80090102406E000F1020E0832084648
:10506000103D102D10DD411C103307290F931760E0
:1050700054600E91F0DD002B2AD1103D102D4FF021
:10508000010E18465246EEDC2B44BEF1070F0F937B
:1050900017605560CDF838E009DD002B92D00198FB
:1050A00000990DAAFFF7AEFB0028ABD10F9B029A27
:1050B00003998E42ACBF921952180292002B88D0ED
:1050C000019800990DAAFFF79DFB002881D099E770
:1050D000404649460DAAFFF795FB002892D10E984D
:1050E0000F9B00F1010E5246BAE7039B9F1B002F56
:1050F0007FF727AF102F404D40F3B4812046102397
:105100006446844607E001F1020E0CF1080C0146EA
:10511000103F102F11DD481C103207280F92CCF8D9
:105120000050CCF804300E90EDDDC2B9103F102FC6
:105130004FF0010E1146D446EDDC6346A4461C46F2
:105140003A44BEF1070F0F9284E8A000CDF838E092
:1051500000F3EF8008340EF101007146F1E601988A
:10516000009905930DAAFFF74DFB00287FF44AAF85
:105170000E990F9A059B01F1010ED446C8E7002A4B
:1051800040F0C680059B002B00F086800CAA02230D
:105190001A9208461B931A465446CBE6002A40F062
:1051A000A680012011465446C7E603BB18F0010F44
:1051B0001DD02AAB302203F8412DC3EB0A09079317
:1051C0008EE40998D146330906F00F0143EA0773CC
:1051D0003A091E461746435C09F8013D56EA0703A3
:1051E000F1D14B46CDF81C90C3EB0A0978E4CDF819
:1051F0001CA075E4022344E4CC7B4000F87B400013
:10520000002A40F0D7809DF82F30002B00F0AE80B0
:1052100001230DF12F0118461B931A461A9154468B
:1052200079E6039A951B002D52463FF70AAFC9E66F
:105230005D46FFF77CBB019800990DAAFFF7E2FAE3
:1052400000287FF4DFAE0F9B5246F3E604990A462E
:1052500004320E680492002713E404321E6804929C
:10526000012300270DE416680432049200272DE57F
:10527000049A166813460433F717049332463B46E4
:10528000BFE4019800990DAAFFF7BCFA00287FF44B
:10529000B9AE5446FFF7BEBB0846544611464CE62D
:1052A000D146CDF814C0304639460A22002301F019
:1052B000E3FD30323046394609F8012D00230A2239
:1052C00001F0DAFD06460F4656EA0703EBD1DDF89A
:1052D00014C086E7302B079B86D0013B1A46079304
:1052E0003023C2EB0A0901F8013CFFF7F9BB019832
:1052F0000099CDF814C00DAAFFF784FA00287FF4B6
:1053000081AE0E990F9ADDF814C0481C544614E67D
:1053100001980099CDF820C00DAAFFF773FA002874
:105320007FF470AE0E990F9ADDF820C0481C5446E9
:10533000F4E5002A67D101201146544601E60198A0
:1053400000990DAAFFF75EFA00287FF45BAE0E9875
:105350000F9A0130544624E62D25764267EB470725
:105360008DF82F50E1460123FFF791BB059B1146B5
:1053700001205446002B3FF4E4AD0CAA02238AE836
:105380000C001A46D6E518F0100F0BD118F0400F9C
:1053900008D0049A136804320492BDF808201A80D9
:1053A000FFF79EBA049A136804320492029A1A60B4
:1053B000FFF796BA01980099CDF820C00DAAFFF723
:1053C00021FA00287FF41EAE0E990F9ADDF820C056
:1053D000481C544691E548F020080BF101009BF869
:1053E0000130FFF7B4BA6D4204935846FFF7C6BBCD
:1053F00007980496FFF7A4F99DF82F5081464FF0C7
:10540000000CFFF76DBB01980099CDF814C00DAAF0
:10541000FFF7F8F900287FF4F5AD0E990F9ADDF843
:1054200014C0481C54468CE50E990F9A154F013153
:10543000FFF798BBBCF1060F28BF4FF0060C124BCC
:105440000496E1462CEAEC76079360E40E990D4F42
:1054500001F1010E18E6E1469DF82F5004968446AE
:10546000FFF73EBB86466BE6049A9BF80130166850
:105470000432002E0492BFF66AAA4FF0FF36FFF7FF
:1054800066BA00BFF87B4000F07B40002DE9F04297
:105490000C46ADF58D6DB1F80CE0E769496EB4F8D6
:1054A0000E9019911AAD4FF480662EF0020E4FF057
:1054B000000C07976946676A009504950296059661
:1054C000ADF80CE0ADF80E900997CDF818C006467F
:1054D000FFF7D4F9051E07DB3046694600F02EF9C8
:1054E000002818BF4FF0FF35BDF80C305B0603D520
:1054F000A38943F04003A38128460DF58D6DBDE8D7
:10550000F08200BF38B52F4B1B6805460C4613B11F
:105510009A6B002A36D0A28993B218070CD520695D
:10552000A8B113F001021ED0636900225B42A3619F
:10553000A260F0B1002038BDD9063BD5580725D46C
:10554000206942F00803A3819BB20028E9D103F44B
:105550002072B2F5007FE4D02846214600F0F2FC2C
:10556000A3892069DDE7990758BF6269A260002816
:10557000E0D1A3891A06DED543F04003A3814FF0A2
:10558000FF3038BD184600F06DF9C4E7216B49B112
:1055900004F14003994203D0284600F03BFAA28967
:1055A0000023236322F0240200232069636092B267
:1055B0002060C6E742F0400209232B604FF0FF3025
:1055C000A28138BD58040020024B13B1024800F0FC
:1055D00005B87047000000007958400001460020DF
:1055E0000246034601F054BB8B899AB22DE9F04183
:1055F0000D46110780463CD46A6843F40063002AD4
:10560000AB8165DDAE6A002E4BD09BB203F48052B5
:10561000002192B2D8F80040C8F80010002A5BD0F0
:105620002A6D5F0705D569682B6B521A0BB1EB6BBE
:10563000D21A4046E9690023B047461C56D0AB89D0
:105640002A692A6023F400639BB200226A60DA04AC
:10565000AB813BD4296BC8F8004011B305F140037E
:10566000994202D0404600F0D5F900202863BDE8F9
:10567000F0812E69AEB12C682E6091070CBF6B696A
:105680000023A41BAB600AE0324623466F6AE96937
:105690004046B8470028A4EB0004064404DD002C73
:1056A000F2DC0020BDE8F081AB8943F04003AB8120
:1056B0004FF0FF30BDE8F081AB892A69696023F4BF
:1056C00000639BB2AB81DB042A60C3D52865C1E7C8
:1056D000EA6B002A96DCE4E701234046E969B0471B
:1056E000431C024619D0AB89AE6A9AE7D8F800107D
:1056F0000029E1D01D2907D0162905D0AB8943F038
:105700004003AB81BDE8F081AB892A692A6023F4AC
:1057100000630022AB816A609CE7D8F80030002B60
:10572000E1D01D2B07D0162B05D0AB8943F04003E9
:10573000AB81BDE8F081C8F80040B2E710B504467F
:1057400082B008B1836B53B1B1F90C0008B902B053
:1057500010BD204602B0BDE81040FFF745BF0191E3
:1057600000F080F80199EFE7014900F0B7BB00BFF6
:10577000596D40002DE9F04F354B4568C363002457
:10578000074600F53B7204230321C0F8E412C0F879
:10579000E822C0F8E04283B02C606C60AC606C66BC
:1057A000EC812C616C61AC61AB81214605F15C0040
:1057B0000822FEF7BDFEBE68DFF898B0DFF898A0BB
:1057C000DFF89890DFF89880C5F820B0012309220F
:1057D000C5F824A0C5F82890C5F82C80ED612146B5
:1057E000F381B28106F15C0034607460B460746669
:1057F00034617461B46108220193FEF799FEFD687B
:10580000F66112200222C6F820B0C6F824A0C6F81D
:105810002890C6F82C802146A881EA812C606C6013
:10582000AC606C662C616C61AC6105F15C000822B7
:10583000FEF77EFE019BED61C5F820B0C5F824A0FF
:10584000C5F82890C5F82C80BB6303B0BDE8F08F85
:1058500069574000CD6A4000F16A4000296B400062
:10586000496B4000836B03B17047FFF783BF00BFF4
:10587000704700BF704700BF38B5084B084DED1AA0
:10588000AC1018BFED1805D0013C55F8043D984701
:10589000002CF9D1BDE8384002F0C0B9287C4000A6
:1058A0002C7C40002DE9F04182B007460E4614469C
:1058B00000F042FB012841D0384601A9324604F1EC
:1058C0005C0301F099F9B0F1FF3F80462FD000282A
:1058D0003CD09DF80410002509E023681970236866
:1058E000013323600135A84530D901AB595DA36868
:1058F000013B002BA360F0DAA269934207DB236827
:105900001970236819780A2903F10103E9D138468F
:10591000224601F01DF9A0F1FF30B0FA80F04009F5
:105920000028DFD04FF0FF3002B0BDE8F081A3893E
:1059300043F04003A38102B0BDE8F081731EFE2B4B
:10594000BAD8F1B280468DF80410C4E7304602B0F0
:10595000BDE8F081938913F4005F0BD110B4546E4D
:1059600043F4005344F40054546693815DF8044BAF
:10597000FFF798BFFFF796BFF8B5234F0C460646D2
:1059800000F098FEBB685D6825F00305291B01F651
:10599000EF7121F47F6121F00F01A1F58054B4F57E
:1059A000805F07DB3046002101F07EF8BB682B44A6
:1059B000984204D0304600F07FFE0020F8BD30460B
:1059C000614201F071F801300DD0104BBA681968CE
:1059D0002D1B45F001053046091B5560196000F08C
:1059E0006BFE0120F8BD3046002101F05DF8BA6879
:1059F000831A0F2BDEDD064C0449246843F00103B3
:105A0000001B53600860D5E780040020109501203A
:105A10008C08002000294ED02DE9F0410C4680462C
:105A200000F048FE54F8047C624927F00102A4F11A
:105A30000805AB188E6858689E4220F003005AD0C3
:105A4000FE0758600BD454F8087CED1B01F1080EDA
:105A5000AC6874453A4467D0EF68E760BC601C18D6
:105A60006468E4070CD4544F9C68BC4202447CD068
:105A7000D868E06042F0010384606B60AA5003E0E4
:105A800042F001036B60AA50B2F5007F14D2D20835
:105A900001EBC20348689F68AF609210012404FACA
:105AA00002F21043EB6048609D60FD604046BDE837
:105AB000F04100F001BE7047530A042B47D8930908
:105AC00003F13804600001EB80003A4983688342A7
:105AD00043D0596821F00301914202D99B68984252
