:020000040040BA
:10000000E0110220B90A4000B50A4000B50A4000DC
:10001000B50A4000B50A4000B50A400000000000E3
:10002000000000000000000000000000790E400009
:10003000B50A400000000000F10E4000410F4000F2
:10004000B50A4000B50A4000B50A4000B50A4000B4
:10005000B50A4000B50A4000B50A4000B50A4000A4
:1000600025304000B50A400000000000D1064000E5
:10007000E5064000B50A4000B50A4000B50A400058
:10008000B50A4000B50A4000B50A400015264000F8
:10009000B50A4000B50A4000B50A4000B50A400064
:1000A000B50A4000B50A4000B50A4000B50A400054
:1000B000B50A4000B50A4000B50A40000000000043
:1000C0000000000000000000000000000000000030
:1000D0000000000000000000000000000000000020
:1000E0000000000000000000000000000000000010
:1000F000000000000000000000000000B50A400001
:10010000B50A4000B50A40000000000000000000F1
:1001100000000000000000000000000000000000DF
:1001200000000000000000000000000000000000CF
:1001300000000000000000000000000000000000BF
:10014000000000000000000010B5054C237833B912
:10015000044B13B10448AFF300800123237010BD9A
:10016000A00800200000000038804000084B10B5B7
:100170001BB108480849AFF300800848036803B979
:1001800010BD074B002BFBD0BDE81040184700BF47
:100190000000000038804000A408002038804000A3
:1001A0000000000010B50E480E4B984700200E4B83
:1001B00098470E4CA0470028FCD00D4B98470D4A9D
:1001C0000D4B9A620D4CA0470028FCD000200C4B30
:1001D00098470C4B98470C48024B984710BD00BFFE
:1001E000000E2707850C4000E1074000050840008D
:1001F00025084000013F4D0E00040E40310840002C
:10020000790740009D0B400000002707A8B92DE9A1
:10021000F0410C469046002A0ADD8F18084E094D21
:10022000306821462B6898470134BC42F8D101E080
:100230004FF000084046BDE8F0814FF0FF307047B6
:10024000B8BC0120B0BC01200138022818D82DE923
:10025000F0410E46144682B10D46DFF838800C4F4F
:10026000D8F8000015F8011B3B68984700280ADB06
:10027000A81B013CF4D1BDE8F0810020BDE8F0816D
:100280004FF0FF3070474FF0FF30BDE8F08100BF06
:10029000B4BC0120B8BC01200C2805D1012903D130
:1002A00008B5024B984708BD704700BF594240004F
:1002B00070B582B04FF40042554B5A600B20554C3C
:1002C000A0470C20A047544C4FF080432361C4F852
:1002D000A0306363514D02232B61C5F8A0302B631E
:1002E000284601210A224E4B98474E4B0093284640
:1002F0000C21012259234C4EB0474FF480564B4BF2
:100300001E6028460C210022494B984728460121AF
:10031000484B98474FF440732B66C5F890306B6597
:100320006B62C5F880302A6F22F440722A676A6FC8
:1003300022F440726A676B604FF4C0632366C4F8AE
:10034000903063656362C4F88030226F22F4C0622B
:100350002267626F22F4C0626267636018232366BB
:10036000C4F8903063656362C4F88030226F22F075
:1003700018022267626F22F01802626763602666C5
:10038000C4F8906066656662C4F88060236F23F4E9
:1003900080532367636F23F48053636766604FF471
:1003A00000532366C4F8903063656362C4F88030FC
:1003B000226F22F400522267626F22F400526267B9
:1003C00063604FF480432366C4F8903063656362D2
:1003D000C4F88030226F22F480422267626F22F4D8
:1003E0008042626763604FF400632366C4F8903014
:1003F00063656362C4F88030226F22F40062226772
:10040000626F22F400626267636002B070BD00BF79
:1004100050140E4041084000000E0E4000100E40E7
:10042000E1054000990240009106400000E100E033
:10043000F90640002D06400008B5EFF3108372B6B0
:10044000BFF35F8F00214A4A11704A490A7801328E
:100450000A702BB90122464B1A70BFF35F8F62B648
:10046000454B98420DD10720444B98470720444BF9
:10047000984707200021434B98470720424B984755
:1004800008BD424B98420DD116203C4B984707209F
:100490003B4B9847072000213A4B984707203A4B9F
:1004A000984708BD3A4B98420DD11520334B9847D9
:1004B0000720334B984707200021324B98470720ED
:1004C000314B984708BD334B98420DD114202B4B2C
:1004D000984707202A4B984707200021294B984727
:1004E0000720294B984708BD2B4B98420DD113206C
:1004F000224B98470620224B984706200021214B8B
:1005000098470620204B984708BD244B98420DD1B0
:100510000E201A4B98470620194B984706200021B9
:10052000184B98470620184B984708BD1C4B98421B
:100530000DD10920114B98470620114B98470620F2
:100540000021104B984706200F4B984708BD154BCC
:1005500098420CD10820094B98470620084B984731
:1005600006200021074B98470620074B984708BDF7
:100570000C000020A8BC01200040034041084000BE
:10058000E908400095084000D908400000000440F8
:100590000080004000C00140008001400040024057
:1005A0000000024000C00040016070470B4619B1D6
:1005B000096881605B68C3601AB11368836153681E
:1005C000C361704721F0FE01C905C90D0162704782
:1005D00021F4FE7121F001018905890D0162704746
:1005E000C0F8841052004FF40043B3FBF2F2013A1A
:1005F000C2F30D02C0F88C20704700BF12F0100F3C
:1006000010D0C0F8B01012F0200F14BFC0F8D410F2
:10061000C0F8D01012F0400F14BFC0F8C010C0F8DE
:10062000C4107047C0F8B410704700BFC36C0164B9
:10063000704700BF41647047C06C7047806C704762
:100640002DE9F041044688460E4B98470546204662
:100650000D4B9847054013D00C4C04F160062368FD
:10066000434508D16168294205D0E3684046984770
:10067000636825EA0305B44202D01034002DEED1A0
:10068000BDE8F081390640003D064000C00800206A
:10069000F8B50C4C2468062C11D815460A4F2201D7
:1006A000BE18B9507560B360069AF2600134054A0D
:1006B000146029461A46054B98470020F8BD0120D2
:1006C000F8BD00BFBC080020C0080020FD054000A8
:1006D00008B502480B21024B984708BD000E0E409A
:1006E0004106400008B502480C21024B984708BD5E
:1006F00000100E4041064000F8B505460C4617466E
:10070000184B9847064628464FF0FF31164B98473E
:100710002846164B9847E2B202F01F030121994088
:1007200063099B0003F1604303F56143C3F8801044
:10073000C3F88011002C06DA02F00F023F01FFB26D
:100740000B48875407E03F01FFB204F1604404F511
:10075000614484F80073196028463146054B984778
:10076000F8BD00BF3D064000350640003906400098
:1007700014ED00E02D064000184A136B23F07003BF
:1007800018431063936E13F0080F03D009E0013B88
:1007900003D11EE04FF4006310498A6E12F0080F77
:1007A000F5D00E4A136B23F0030343F002031363E7
:1007B000906E10F0080004D000207047013B03D178
:1007C00009E04FF4006305498A6E12F0080FF5D076
:1007D0007047012070470120704700BF00040E40A1
:1007E000012806D1054A936843F0254343F480135A
:1007F0009360034A014B1A60704700BF10140E400B
:10080000080000A5054B5B6913F0800F1DBF044B6A
:10081000986EC0F3C0100020704700BF10140E4047
:1008200000040E400022014B9A62704700040E4003
:10083000024B986E00F00200704700BF00040E40AB
:1008400032281ED81F280CD8114B9A6901238340E7
:100850001A40934217D0012383400D4A13610020B0
:1008600070470B4BD3F808212038012383401A40EE
:1008700093420AD001238340054AC2F80031002088
:10088000704701207047002070470020704700BF6C
:1008900000040E4041F004010E4B00F1100243F839
:1008A00022109B6E4FF48071814011EA030004D046
:1008B00000207047013B04D107E010B44FF40063FF
:1008C000044CA26E1142F5D000E001205DF8044B0B
:1008D000704700BF00040E404FF480738340014A0C
:1008E0001360704700040E404FF480738340014A48
:1008F0005360704700040E4010B40B0193420FD9AF
:100900001CE002F00702416841F40021416043EA23
:100910000242026200201EE001201CE001201AE0D9
:10092000D20002EB5302B2FBF3F2D3085C1E4FF687
:10093000FE718C42F0D802F00702E8E7C900D2004D
:1009400002EB5102B2FBF1F2D3085C1E4FF6FE71CE
:100950008C42D6D9E2E75DF8044B7047084BC0F8EB
:10096000E4300023436043628362882303602423CE
:1009700003604FF4807303604FF4002303607047FB
:100980000041535570B505460C4616460F4B984727
:1009900000220F4B1A609CB12846216832460D4B4D
:1009A0009847024670B9A1686368194323691943DF
:1009B000E3680B4306490B6069680B436B6002E018
:1009C000012200E00122104670BD00BF5D09400019
:1009D00030090020F908400040230360704700BF41
:1009E00010230360704700BF416270478160704709
:1009F000C1607047406970474FF4006303607047FF
:100A0000436913F0020F1DBFC1F30801C16100204B
:100A100001207047436913F0010F05D08369C3F3C8
:100A200008030B600020704701207047184B984264
:100A30001FD003F5A03398421DD003F580439842A0
:100A40001BD0A3F54043984219D003F58043984248
:100A500017D0A3F5A033984215D003F56033984220
:100A600013D0A3F53F430B4A90420CBF1846002019
:100A70007047094870470948704709487047094856
:100A8000704709487047094870470948704700BFD8
:100A900000C200400042034000C300400003024087
:100AA000004302400083014000C301400083004036
:100AB00000030440FEE700BF08B52A4B2A4A9A42C9
:100AC00003D02A4B274A9A4204D3294B294A9A42F7
:100AD00010D31BE023490A1D274B9B1A23F0030365
:100AE0000433214A134452F8040B41F8040B9A4290
:100AF000F9D1EAE7214B224AD21A22F003021A4422
:100B0000043B002143F8041B9342FBD11D4B23F00F
:100B10007F011D4A9160EFF3108272B6BFF35F8FC1
:100B200000201A4908701A48016841F470010160F8
:100B3000BFF34F8FBFF36F8F2AB90121134A117092
:100B4000BFF35F8F62B603F16043B3F5203F04D279
:100B50000D4A936843F0005393600E4B98470E4B39
:100B60009847FEE700000020388040009C080020E5
:100B7000E0E10120A00800209F080020A408002038
:100B8000E3E101200000400000ED00E00C00002047
:100B900088ED00E0A946400089444000314B1B6BC2
:100BA00003F00303012B0FD013B1022B29D042E035
:100BB0002D4B5B6913F0800F14BF4FF400424FF4CC
:100BC000FA422A4B1A6036E0264B1B6A13F0807FEC
:100BD00003D0274A254B1A602DE0264A234B1A6082
:100BE000204B1B6A03F07003102B02D0202B04D083
:100BF00021E0214A1D4B1A601DE0204A1B4B1A6060
:100C000019E0194B5B6913F0800F14BF4FF40042D9
:100C10004FF4FA42154B1A60124B1B6B03F003039F
:100C2000022B08D10F4B9B6A1049C3F30C420B688F
:100C300002FB03330B600B4B1B6B03F07003702B39
:100C400007D10A4A13680E49A1FB03135B0813601E
:100C50007047044B1A6B0549C2F302120B68D3406C
:100C60000B60704700040E4010140E40100000206E
:100C7000001BB70000127A000024F40000366E0159
:100C8000ABAAAAAA1D4B984204D84FF080621C4B15
:100C90001A6070471B4B984203D81B4A184B1A60C6
:100CA00070471A4B984203D8194A154B1A6070477F
:100CB000184B984203D8184A114B1A607047174BCB
:100CC000984204D84FF004220D4B1A607047144B21
:100CD000984203D8134A0A4B1A607047124B984245
:100CE00003D8124A064B1A607047114B984294BFC2
:100CF000104A114A024B1A60704700BF7F9FD5000F
:100D0000000A0E40FF3EAB01000100047FDE8002BE
:100D100000020004FF7D5603000300047F1D2C0425
:100D2000FFBC010500050004FFD7B805000600045C
:100D3000FFF26F060007000400080004094B1B685F
:100D400013B9094A074B1A60064B1B681A18074962
:100D5000914204DB1046034A1060184670474FF07A
:100D6000FF30704734090020E0110220FC7F022090
:100D70004FF0FF30704700BF4FF400534B6000202E
:100D8000704700BF012070470020704700F1080342
:100D900043604FF0FF328260C36003610023036051
:100DA000704700BF00230361704700BF43685A6863
:100DB0004A6042688A605A6891605960416008617F
:100DC000036801330360704710B40C68B4F1FF3F4F
:100DD00001D103690AE000F10803C2681268944275
:100DE00004D35B685A6812689442FAD25A684A601F
:100DF00091608B60596008610368013303605DF89E
:100E0000044B7047436882689A60836842685A60FE
:100E100003695A68824204BF82685A6000220261F4
:100E20001A68013A1A601868704700BF03480068E2
:100E3000006880F3088862B600DF00BF08ED00E0BC
:100E4000DFF80C00016841F4700101607047000098
:100E500088ED00E04FF0807340F8043C40F8081C37
:100E6000002340F80C3C40F8202C6FF0020340F8BF
:100E7000243C4438704700BF054B19680868B0E847
:100E8000F04F80F309884FF0000080F3118870471D
:100E9000C08A01204FF08052014B1A60704700BF9A
:100EA00004ED00E0EFF311804FF0500181F3118861
:100EB0007047002008B5034B9847034A1368013375
:100EC000136008BDA50E40001400002080F31188B7
:100ED000704700BF08B5044A1368013B136013B99B
:100EE0000020024B984708BD14000020CD0E4000A2
:100EF000EFF30980114B1A681EF0100F08BF20EDA8
:100F0000108A20E9F04F10602DE908404FF05000A2
:100F100080F3118800F0D8FE4FF0000080F31188B4
:100F2000BDE8084019680868B0E8F04F1EF0100FDF
:100F300008BFB0EC108A80F309887047C08A01208E
:100F400008B54FF08052054B1A60054B9847054B8A
:100F500098470020044B984708BD00BF04ED00E00F
:100F6000A50E40000D1A4000CD0E4000034A044B70
:100F70001A600722043B1A60704700BFBBD401000F
:100F800014E000E010B50C4B1A6842F470021A60CD
:100F90001A6842F070421A60084B98470024084BC8
:100FA0001C60084B9847084A136843F0404313609D
:100FB000064B9847204610BD20ED00E06D0F400025
:100FC00014000020410E400034EF00E02D0E4000E0
:100FD000134A00E01A4613688342FBD330B411462B
:100FE00054681519854203D168680444546010465A
:100FF000426884189C420CD10A4B1B689C4206D064
:1010000063681A4442600B681B68036002E0046076
:1010100000E00360814218BF086030BC704700BF29
:101020003C8901203889012038B504462C4B98476B
:101030002C4B1B68ABB92C4A2C4B13600021516020
:1010400003F5BF3202F5F870264D2860C2F8F4119E
:10105000C2F8F011264A5A601860264A1368103BFD
:101060001360002C36D004F1100212F0070F1CBFE1
:1010700022F007020832511E1F4B994227D81A4905
:101080000C6801E021461C4663689A4202D9236835
:10109000002BF7D1134B1B689C4218D00D681035FC
:1010A00023680B6063689B1A202B04D9A018436047
:1010B0006260124B98470F4A136861685B1A1360AD
:1010C0000F4B98474DB90F4B9847002505E00C4B47
:1010D0009847F8E70A4B9847F5E7284638BD00BF20
:1010E00095194000388901203C89012038090020E9
:1010F000F07F010018000020FE7F0100D10F4000AA
:10110000391B4000D945400080B110B50446084B5A
:101110009847084A116854F80C3C0B441360A4F13A
:101120001000054B9847054B984710BD704700BF0E
:101130009519400018000020D10F4000391B4000D5
:1011400010B50446036C3BB903681BBB4068134BE6
:101150009847002363601DE06AB980681A46104B07
:101160009847A268236C1344A3606268934211D32A
:101170002368A3600EE0C0681A46094B9847236CA9
:101180005B42E2681A44E26021688A4202D26268E5
:101190001344E360A36B0133A36310BDB52040008B
:1011A0008547400038B50346006858B11A6CDC68C2
:1011B0001444DC605D68AC4228BFD8600846D9683A
:1011C000014B984738BD00BF85474000F8B504463D
:1011D0001E4B9847A36C002B13DD636A1BB910E00C
:1011E000636A23B90DE004F12406194D194F304606
:1011F000A84700B1B847A36C013BA364A36C002BC4
:10120000EEDC4FF0FF33A364134B98470F4B984726
:10121000636C002B13DD23691BB910E0236923B92C
:101220000DE004F110060A4D0A4F3046A84700B100
:10123000B847636C013B6364636C002BEEDC4FF0DA
:10124000FF336364044B9847F8BD00BFB50E400000
:101250009D1E4000E11F4000D50E400038B50D46F0
:10126000044620B917484FF48F71174B9847174B16
:1012700098472268216CE36B03FB01F3D018606090
:101280000020A063A2605B1A1344E3604FF0FF33B9
:101290006364A36455B923697BB104F110000C4B5E
:1012A0009847012809D10B4B984706E004F110003C
:1012B000094DA84704F12400A847084B984701208E
:1012C00038BD00BF9C774000F1454000B50E40009E
:1012D0009D1E4000950E40008D0D4000D50E400033
:1012E000F8B5D0B10D461746064650200F4B98472B
:1012F000044690B105FB06F001300C4B9847206086
:1013000040B1E663256420460121094B984784F8E3
:101310004D7008E02046074B984707484FF4BA71D4
:10132000064B984700242046F8BD00BF2910400016
:101330005D124000091140009C774000F1454000DB
:101340002DE9F04F85B08B4601920093044620B9F9
:101350003A4840F24B213A4B9847BBF1000F06D177
:10136000236C23B135484FF41371354B98474FF038
:101370000009344DDFF8F4A0334EA847A26BE36BAD
:101380009A4212D220465946009A304B9847636AD7
:101390003BB104F124002E4B9847012801D12D4B7D
:1013A0009847294B9847012044E0019B1BB9264BE5
:1013B000984700203EE0B9F1000F03D102A8D047C2
:1013C0004FF00109B047244B9847A847636CB3F12D
:1013D000FF3F04BF00236364A36CB3F1FF3F04BF6E
:1013E0000023A364B04702A801A91C4B9847D8B9B1
:1013F000A847D4F83880E76BB047B8450ED104F160
:1014000010000199164B98472046164B9847164BEB
:1014100098470028B1D10F4B9847AEE72046114BB3
:101420009847114B9847A8E720460E4B98470E4B1C
:101430009847002005B0BDE8F08F00BF9C774000C2
:10144000F1454000B50E4000D50E4000411140006E
:101450009D1E4000950E400095194000551F40000C
:10146000B11D4000CD114000391B4000251F400038
:101470002DE9F0410D4617469846044620B91D480F
:1014800040F292311C4B984735B9236C23B119486F
:1014900040F29331184B9847184B98470646A26B79
:1014A000E36B9A4218D2204629464246144B98478D
:1014B000A36CB3F1FF3F0AD1636A7BB104F124004E
:1014C000104B984760B16FB101243C600BE0A36CF6
:1014D0000133A364012406E0002404E0012402E0B7
:1014E000012400E001243046074B98472046BDE820
:1014F000F08100BF9C774000F1454000A50E400000
:10150000411140009D1E4000CD0E40002DE9F04FDE
:1015100085B0894601929A46044620B9454840F272
:10152000CE31454B9847B9F1000F06D1236C23B15A
:10153000404840F2CF31404B984700273F4DDFF8FD
:101540002C813F4EA847A36B43B3E568204649462C
:101550003C4B9847BAF1000F12D1A36B013BA36338
:10156000236813B9384B98476060236993B104F13D
:101570001000364B984701280CD1354B984709E0AD
:10158000E560636A33B104F12400304B984708B139
:101590002F4B98472A4B9847012048E0019B1BB9E5
:1015A000274B9847002042E017B902A8C0470127FF
:1015B000B047284B9847A847636CB3F1FF3F04BF7F
:1015C00000236364A36CB3F1FF3F04BF0023A36453
:1015D000B04702A801A9204B984710BBA847D4F8F0
:1015E00038B0B047BBF1000F15D1236823B9A84725
:1015F00060681A4B9847B04704F124000199184BD2
:1016000098472046174B9847174B9847002899D181
:101610000F4B984796E72046124B9847124B984736
:1016200090E720460F4B98470F4B9847002005B096
:10163000BDE8F08F9C774000F1454000B50E4000BA
:10164000D50E4000A5114000ED1F40009D1E40003A
:10165000950E400095194000551F4000192040008C
:10166000B11D4000CD114000391B4000251F400036
:1016700038B504460D460D4B9847636CB3F1FF3FF8
:1016800004BF00236364A36CB3F1FF3F04BF0023D6
:10169000A364074B9847A36B23B904F124002946A0
:1016A000044B98472046044B984738BDB50E400080
:1016B000D50E4000351E4000CD11400010B5044647
:1016C0000E4B1B6858600E4B1B68984207D20D4B9F
:1016D00018680A4B196804310B4B984710BD0B4B27
:1016E0001868064B19680431074B9847084B1B686C
:1016F0009C423CBF064B1C6010BD00BFC08A01204D
:101700004C8901207C8A0120C90D4000948A012067
:101710001C0000202DE9F04F83B088461546019348
:101720000C9FDDF834900E9E009020B95F484FF476
:10173000F7715F4B98470E2F04D95C4840F2EF11C8
:101740005B4B984750205B4B98470446002800F0BD
:10175000A780002E40F0A180A800564B9847206338
:1017600018B92046544B98479AE0A521AA00534B3C
:10177000984705F18045013D236B03EB850525F076
:10178000070504F1340041460A224D4B98474FF0BB
:10179000000A84F83DA03E460E2F28BF0E26E662C2
:1017A000A66404F104084046DFF864B1D84704F1A8
:1017B0001800D8472461C6F10F06A6616462C4F818
:1017C0004CA028460099019A3E4B98472060B9F1F9
:1017D000000F01D0C9F800403B4B98473B4A1368C3
:1017E000013313603A4B1B680BBB394B1C60136809
:1017F000012B26D1374D05F59679374E2846B0474F
:1018000014354D45FAD1DFF80C914846324DA847C2
:10181000324E3046A8473248A8473248A847324897
:10182000A847324BC3F80090314B1E6009E0314BA2
:101830001B6833B9264B1B68DB6A9F4224BF244BCD
:101840001C60E06A2C4B1B68984284BF2A4B1860CE
:101850002A4A136823640133136029490A68012363
:10186000834013430B6000EB80001A4B03EB8000B6
:101870004146244B9847244B98471E4B1B6843B165
:10188000134B1B68DB6A9F4205D9204B9847012008
:1018900008E0012006E0012004E00663304664E72A
:1018A0004FF0FF3003B0BDE8F08F00BF3478400048
:1018B000F14540002910400009114000B94840009E
:1018C000254B4000550E4000B50E4000988A01207F
:1018D000C08A0120508901208D0D4000EC8A012032
:1018E0009C8A0120808A0120C48A0120948A0120D8
:1018F0007C8A0120B08A01200C8B0120BC8A012047
:1019000044890120AD0D4000D50E4000950E4000E9
:10191000A50D4000D88A012010B584B000230093A3
:10192000019302930393104810498222104CA04760
:10193000012810D10F4B984701280CD10E4B984726
:1019400001220E4B1A6000220D4B1A600D4B984776
:101950000D4B984705E020B90C4840F216510C4B4E
:10196000984704B010BD00BF451C4000747840008B
:1019700015174000CD214000A50E4000B08A01207F
:101980004C89012045464000850F400034784000D6
:10199000F1454000024A136801331360704700BFED
:1019A000008B012010B5044B9847044B1C68044B76
:1019B0009847204610BD00BFB50E40004C8901205D
:1019C000D50E400010B5044B9847044B1C68044BDF
:1019D0009847204610BD00BFA50E40004C8901204D
:1019E000CD0E400010B5044638B9054B1C6824B92B
:1019F000044840F2CC51044B984704F1340010BD28
:101A0000C08A012034784000F14540003D4B1B68FE
:101A1000002B6FD12DE9F0413B4B1A6801321A605F
:101A20001B680BBB394B1B681B6823B1384840F25D
:101A30008F61384B9847354B1968374A10681860E2
:101A4000116036490A6801320A601B681B6823B9B5
:101A50004FF0FF32324B1A6006E02C4B1B68DB68FC
:101A6000DB685A682E4B1A60274B1A682C4B1B6890
:101A70009A4244D3254B1B681B686BB1234B1B68F0
:101A8000DB68DC686368204A1268934213D8254FEC
:101A9000254EDFF8A08012E04FF0FF32204B1A6095
:101AA000BDE8F081194B1B68DB68DC686368164A87
:101AB0001268934203D91A4A1360BDE8F081251DCC
:101AC0002846B847A36A13B104F11800B847E06A82
:101AD0003268012383401343336000EB800008EB3E
:101AE00080002946114B9847084B1B681B68002B48
:101AF000D8D1D1E70E4A1368013313607047BDE8AF
:101B0000F08100BF008B01204C890120948A0120C4
:101B100034784000F14540007C8A0120088B012088
:101B20001C000020050E400044890120AD0D40003E
:101B3000048B0120508901202DE9F843314B1B68AB
:101B400023B931484FF4AA61304B9847304B98473E
:101B50002C4B1A68013A1A601B68002B4AD12D4B96
:101B60001B680BBB002448E0F368DC6804F1180034
:101B7000C847251D2846C847E06AD8F80020012339
:101B800083401343C8F8003000EB8000224B03EB86
:101B900080002946214B9847214B1B68E26ADB6A8B
:101BA0009A4228BF012705E000271E4EDFF88C90DF
:101BB000DFF88C803368002BD6D11B4B1B6863B1D8
:101BC000194B1B687BB1194D174CA8472368013B83
:101BD00023602368002BF8D105E0012F03D0144BBC
:101BE0001B68012B08D10022114B1A60114B98473A
:101BF000012402E0002400E000240F4B9847204617
:101C0000BDE8F883008B012034784000F1454000A6
:101C1000B50E4000988A012050890120AD0D40008A
:101C2000C08A01209C8A0120048B01200D1A4000EB
:101C3000B88A0120950E4000D50E4000050E4000E8
:101C40004489012080B5154D154EDFF87480154F7D
:101C500019E0C0473468B847ACB1134B9847F368F4
:101C6000DC68201D114B9847114A1368013B136033
:101C70002B68013B2B600F4B9847206BDFF844909B
:101C8000C8472046C8472B68002BE2D10A4B1B6887
:101C9000012BF8D9094B9847D7E700BF48890120A5
:101CA000808A0120391B4000B50E4000050E40001F
:101CB000988A0120D50E400050890120950E4000E1
:101CC000951940000911400038B52D4B1B681BB118
:101CD00001222C4B1A6038BD2B4B98472B4A1468B5
:101CE0002B49E36C0D685B1B0344E36408601168D7
:101CF00013680A681B6B9A4205D8244B1868196848
:101D00003431244B9847214B1B68186B224914220D
:101D1000224B984728B11D4B1868196834311D4B68
:101D200098471F4B1C68B4FA84F4E4B2C4F11F0452
:101D300004EB84039B001B4AD35823B91A4840F292
:101D400041711A4B9847174BA200111903EB8101FF
:101D50004868406848600B460833984206D141689D
:101D600004EB84030F4A02EB8303596004EB840401
:101D70000C4B03EB84046368DA68044B1A6038BDCB
:101D8000008B0120B88A012055464000C08A0120FE
:101D9000B48A0120E5454000DC774000214740003F
:101DA000448901205089012034784000F1454000E9
:101DB00070B50D46064620B9144840F24C71144BDC
:101DC0009847144C216830461831134B98472068C7
:101DD0000430124B984740B9236811490A68D86A01
:101DE0000123834022EA03030B60B5F1FF3F06D1D4
:101DF000084B19680B4804310B4B984770BD0B4BCF
:101E0000186828440A4B984770BD00BF34784000DA
:101E1000F1454000C08A0120C90D4000050E400078
:101E200044890120C48A0120AD0D40004C89012065
:101E3000BD16400070B50D46064620B90F4840F269
:101E400082710F4B98470F4C2168304618310E4B6A
:101E50009847206804300D4B984740B923680C49D7
:101E60000A68D86A0123834022EA03030B60094B06
:101E700018682844084B984770BD00BF347840006C
:101E8000F1454000C08A0120AD0D4000050E400024
:101E9000448901204C890120BD16400038B5C36833
:101EA000DC6824B916484FF4F761164B984704F1E3
:101EB00018052846144B9847144B1B689BB9251DE1
:101EC0002846114B9847E06A11490A68012383406C
:101ED00013430B6000EB80000E4B03EB80002946A0
:101EE0000D4B984703E00D4829460B4B98470C4B88
:101EF0001B68E06ADB6A984234BF0020012038BDCD
:101F000034784000F1454000050E4000008B012070
:101F10004489012050890120AD0D40009C8A012098
:101F2000C08A012010B5044620B9064840F2DA7193
:101F3000054B9847054B1B682360054B1B68636086
:101F400010BD00BF34784000F1454000088B0120EF
:101F50004C89012038B50C46054620B9194840F295
:101F6000E471194B984724B9164840F2E571164BB5
:101F70009847164B98472368B3F1FF3F19D0144A8E
:101F800012682968914204D0124A12686968914225
:101F900011D9104A12686968521A93420DD90D4A34
:101FA0001268511A5B1A236028460B4B984700248D
:101FB00004E0002402E0012400E00124074B9847DC
:101FC000204638BD34784000F1454000B50E400051
:101FD000088B01204C890120251F4000D50E4000B0
:101FE0000122014B1A607047B88A0120014B186822
:101FF000704700BFC08A0120054B1B6833B1054BF9
:102000001B68002B0CBF0120022070470020704786
:10201000B08A0120008B0120002840D038B5C36A67
:102020001F490968C96A8B4238D21D490968C96AC3
:10203000C1F10F01816103EB83031A4901EB8303B3
:102040004169994226D10446051D2846164B9847FA
:1020500068B9E26A02EB82039B001249CB5833B99C
:10206000124801680123934021EA030303600C4BEB
:102070001B68D86AE0620D490A6801238340134354
:102080000B6000EB8000074B03EB80002946084BF8
:10209000984738BD024B1B68DB6AC36238BD704786
:1020A000C08A012050890120050E4000448901208A
:1020B000AD0D400000282CD038B5C16A826C914229
:1020C00026D00446051D2846124B984768B9E26A97
:1020D00002EB82039B001049CB5833B90F480168CB
:1020E0000123934021EA03030360A36CE362C3F17D
:1020F0000F02A2610948016801229A400A43026066
:1021000003EB8303044800EB83002946044B984704
:1021100038BD7047050E40005089012044890120D8
:10212000AD0D400010B504464160206191420AD8CF
:10213000D21A83699A4211D20A4B1868211D0A4BA0
:102140009847002010BD9A4201D2994208D2074B0D
:102150001868211D044B9847002010BD012010BDB8
:10216000012010BD448B0120C90D4000108B0120BF
:1021700070B50D4B98470D4B1B688BB90C4D28461D
:102180000C4EB0470C4C2046B0470C4B1D600C4B1E
:102190001C6005200C2100220A4B9847034B186055
:1021A000094B984770BD00BFB50E4000408B012021
:1021B000148B01208D0D4000288B0120108B0120F5
:1021C000448B0120E1124000D50E400010B584B0D0
:1021D0000D4B98470D4B1B686BB10E2300930023EA
:1021E0000193029303930A480A494FF443720A4C3D
:1021F000A047034620B90948DA21094B9847002334
:10220000184604B010BD00BF71214000408B012072
:102210008D2340007C7840001517400084784000F2
:10222000F14540002DE9F04129B90F48E7210F4B56
:102230009847002414E0804616461D460F46282085
:102240000B4B9847044658B10A4B9847C4F8008096
:10225000A761E6612562069B6362201D064B9847D5
:102260002046BDE8F08100BF84784000F145400081
:102270002910400071214000A50D400030B585B007
:102280000F4C2568C5B10191029203906BB90D4BBB
:10229000984701280A4B186801A907BF089A00232C
:1022A00000221346084CA04707E0284601A91A4619
:1022B0000023064CA04700E0002005B030BD00BF61
:1022C000408B0120F91F4000411340007114400071
:1022D0002DE9F04782B08146234B98478046234B37
:1022E0001B68984236D226E0DA68D2F800A0DB6894
:1022F000DC68251D2846B847636A20469847E3698D
:10230000012B1AD1A3695344534506D96360246154
:1023100030682946164B98470FE00023009320466B
:1023200019465246134CA04738B9134840F275215C
:10233000124B984701E0124E124F33681A68002A78
:10234000D2D1114A10680E49086013600123C9F800
:10235000003002E00023C9F80030044BC3F80080CD
:10236000404602B0BDE8F087A51940003C8B012033
:10237000C90D40007D22400084784000F1454000B6
:10238000108B0120050E4000448B01202DE9F04FF9
:1023900087B0DFF86CA1DFF86CB14E4EDFF86881D2
:1023A000DAF800301A68002A00F08B80DB681D68BC
:1023B000D84703A8484B98470446039B002B31D1CC
:1023C000854225D8454B9847DAF80030DB68DF684E
:1023D000381DC047FB69012B15D1B969384629441E
:1023E00022462B463E4CA04701280CD100230093E7
:1023F000384619462A463B4CA04720B93A484FF484
:10240000A9713A4B98477B6A384698470CE00025FB
:102410003068291B364B9847304B984720B9354BCD
:10242000984701E02D4B984702A82B4B9847074649
:10243000314DDFF8AC903CE0059C1CB163690BB1F9
:10244000201DC047039B022B21D0032B2ED0002B35
:102450002FD1049BA169204619443A46C847012858
:1024600027D1636A20469847E369012B21D1A269ED
:102470000023009320461946049C2244194CA0478F
:10248000B8B9194840F22921184B984711E0049B2C
:10249000A36123B9144840F23621144B9847A1692F
:1024A000204639443A463B46C84702E02046134B93
:1024B0009847306803A900221346A8470028BBD1DB
:1024C0006EE7D84703A8044B98470446039B002BAC
:1024D0009DD0A7E7408B0120D1224000391B40004E
:1024E000252140007D22400084784000F1454000D5
:1024F00071164000950E40000D1540000911400076
:10250000108B012095194000050E400030B583B0B6
:10251000064B186800240094022132222346044D01
:10252000A847044B1C7003B030BD00BF6C8B01206A
:102530007D224000089F012010B50748074B9847AF
:10254000074B186800210A460B46064CA04701229B
:10255000054B1A7010BD00BFC4784000F94640001A
:10256000049F012041134000488B01200122014BB0
:102570001A707047708B012010B586B0002302934B
:10258000039304930593174B0093C0230193164CB8
:102590002046164B984720460121154B984704F5D5
:1025A000007420466946134A134B9847204640F270
:1025B000A171124B9847124BE02283F813234FF47A
:1025C00000221A60204640F201110E4B9847204627
:1025D0000D4B984720460D4B984720460C4B98478B
:1025E00006B010BDF0FA020000800140390440003E
:1025F000A90540000000270785094000E9094000BF
:1026000000E100E0ED094000F9094000D90940006F
:10261000E109400010B582B01748184B984710F0F8
:10262000010F11D0144801A9154B984710BB154B49
:102630001B8841F2873293421CD8124A591C1180E0
:102640001344019A9A7015E010F4807F03D00A4871
:102650000D4B98470EE010F0100F0BD0064C2046A3
:102660000A4B98474FF40071094B984720461021B8
:10267000084B984702B010BD00820140F5094000A8
:10268000150A4000788B0120F90940002D0A40000E
:10269000D1054000F10940002DE9F04182B07A4BAC
:1026A00098477A4D7A4E3288284631460232794B25
:1026B000984700243480784B9847784B18680094EA
:1026C000012122462346764CA047764B9847014687
:1026D00075482A88754B98472B88002B00F0C380DB
:1026E0000024734E06F592571437684B23449D78A7
:1026F000704B1B78072B00F2A880DFE803F0040B77
:102700001E232F3F46A9CC2D40F0A2800122694B09
:102710001A709DE0332D07D0992D05D0802D03D060
:102720009E2D01D0E12D04D135700222614B1A702B
:102730008EE000225F4B1A708AE0758003225D4BA9
:102740001A7085E01DB1738813FB05F373800422B2
:10275000584B1A700022584B1A8079E056490B8862
:102760005A1C92B20A80334403F592539D757388C4
:1027700093426DD805224F4B1A7069E0CC2D0CBFE7
:10278000062200224B4B1A7062E03378332B1DD1A6
:102790003F2D56D106F59253321D03F156011633E3
:1027A000D3F80080D3F804C0D3F808E0D868C2F8A2
:1027B0000080C2F804C0C2F808E0D06010331032C4
:1027C0008B42EDD107223B4B1A7041E0992B0DD182
:1027D0009F2D36D106F1440006F592511631802224
:1027E0002C4B98470722334B1A7031E0802B0ED1C7
:1027F0008F2D26D106F1C40006F5925116314FF403
:102800008A52244B984707222A4B1A7020E09E2BAD
:102810000BD19F2D15D1294800F1520172881D4B13
:1028200098470722234B1A7012E0E12B09D1EF2DB4
:1028300007D141F25623F35A3B8007221D4B1A70F1
:1028400006E000221B4B1A7002E00022194B1A709E
:102850001B482946154B98470134A4B20B4B1B88E3
:10286000A3423FF642AF1748104B98470B4B1C68EA
:102870000C4B984702460023009320461946084C0B
:10288000A04702B0BDE8F081B50E40000C9F0120CA
:10289000788B012085474000D50E400098B201207A
:1028A0007D224000A5194000F8784000F94640001C
:1028B000BCBC0120708B01209EB20120C0CE012043
:1028C00004794000AC794000F0B583B007460E466D
:1028D0000A4C20460A4B98470546009701966946E0
:1028E0000022084B984728464FF48071064B9847C2
:1028F00020461021054B984703B0F0BD00820140EF
:102900002D0A4000AD054000C5054000ED0940001E
:1029100008B5094BAA221A7010215970012199702B
:102920000021D97018715A711F229A711846072117
:10293000024B984708BD00BF4C8B0120C9284000BE
:1029400010B5094BAA221A7088245C7002249C706E
:102950000024DC70187159719A718F22DA7118464F
:102960000821024B984710BD4C8B0120C92840001C
:1029700080B582B0012000210322644B9847644B4C
:10298000186038B100210A460B46624CA047604BE4
:102990001B6813B96048614B9847614B00936148CD
:1029A000142100221346604CA047604B186010B9F8
:1029B0005F485A4B98475F4B00935F483221012292
:1029C0000023594CA0475D4B186010B95C48534B2D
:1029D00098475C4B00935C484CF250310022134600
:1029E000514CA047594B186010B955484B4B98476C
:1029F000474E574D574C584F306800214FF0FF322B
:102A00000B46A8472378002B5CD0002323703B782B
:102A1000042B55D8DFE803F0031C283F4A000120AF
:102A20004E4B9847DFF83C81C04701464C483B4B32
:102A3000984701233B70454BD3F80090C0470246AE
:102A40000023009348461946DFF838C1E04739E0D3
:102A50000220424B9847434B9847014642482F4B30
:102A6000984702233B702DE0002032213F4B9847CE
:102A70003C4B984701463E48284B984703233B7000
:102A80002E4B186800230093022141F28832DFF8B0
:102A9000F4C0E04716E000203221344B9847314B18
:102AA0009847014633481D4B98470BE003202B4BBA
:102AB00098472C4B984701462F48184B984701E000
:102AC00000233B702D4B1B78002B95D04FF0000856
:102AD0002A4B83F80080DFF874A0CDF80080DAF884
:102AE0000000012142464346DFF89890C847DAF8D3
:102AF00000A01C4B98470246CDF800805046414646
:102B00004346C8471E4B984776E700BFE112400096
:102B1000049F0120411340000C794000F946400019
:102B20006D254000447940002522400098B20120E4
:102B30004C794000392540007C7940006C8B0120A5
:102B4000847940000D254000B0794000748B01204D
:102B50000D154000488B0120089F012011294000DD
:102B6000BC794000A5194000D479400041294000BB
:102B7000F0794000187A40003C7A40009CB2012075
:102B8000992640007D22400059B1431E013950FA78
:102B900081F1002013F8012F1044C0B28B42F9D10B
:102BA00070470020704700BF1E4B1B78013B032B72
:102BB00037D8DFE803F002222C121B4BDB6B13F03B
:102BC000804F4FF08042184B14BF5A631A63174A64
:102BD000137883F0010313707047134BDB6B13F012
:102BE000804F4FF08042104B14BF5A631A630F4A54
:102BF000137883F00103137070474FF080420A4B43
:102C00005A630023094A1370064A137070474FF045
:102C10008042054B1A630122044B1A700022014BBB
:102C20001A70704728000020000E0E4038B30120B3
:102C300010B50D4C7E23237002236370A070E170E9
:102C400020460421094B9847207109490B681C60F4
:102C50000B6805225A60074B18684FF47A720023FC
:102C6000054CA04710BD00BFECB20120892B4000ED
:102C70002400002068BC01204113400070B51646B6
:102C80001D467E232B7000236B70531CAB702C1DD4
:102C9000E87021B11AB12046064B98473444611BB5
:102CA0002846C9B2044B984704F8010B601B80B258
:102CB00070BD00BF85474000892B40002DE9F041E1
:102CC00086B006460C461546984601AFDFF868E028
:102CD000BEE80F000FC7DEF800303B702846002129
:102CE0004246144B9847B8EB440F3CBF08F1FF3401
:102CF0006408CCB1A91C32463019164612F8013BC3
:102D000006AF07EB131313F8143C01F8023C3378B9
:102D100003F00F033B4413F8143C01F8013C02316B
:102D20008242EAD105EB440500232B70600006B017
:102D3000BDE8F081B9484000547A400030B585B014
:102D4000624B0393624B9847624A137801331370C6
:102D5000614B9847614BDB6B13F0010F2CD15D4B3E
:102D60001B78042B40F2AF805D4B1868D0B1002176
:102D70004FF0FF320B465B4CA0475B4B9847044635
:102D800000205A4B9847024659482146594CA047C3
:102D90005948A047524B186800210A460B46574C29
:102DA000A04702E05448534B98470022544B1A70F6
:102DB0000322544B1A7086E0514B1B78002B39D1FB
:102DC000474B1868D0B100214FF0FF320B46454CFD
:102DD000A047454B984704460020444B984702467D
:102DE00043482146434CA0474748A0473C4B1868FE
:102DF00000210A460B46414CA04702E042483D4BA9
:102E0000984701223F4B1A70404C022000210A468D
:102E100023463F4DA8473F4B1880039B1C6004A9E5
:102E200051F8043D58603C4B186800221346334C5F
:102E3000A04737E0012B35D1294B1868D0B10021CC
:102E40004FF0FF320B46274CA047274B98470446CC
:102E50000020264B9847024625482146254CA0478E
:102E60002E48A0471E4B186800210A460B46234CEB
:102E7000A04702E029481F4B9847294B0293294C51
:102E80000920294905222346214DA847029B1C60A1
:102E900004A951F8083D58601F4B186800221346DA
:102EA000164CA0470A4B984700240A4B1C700A4B4B
:102EB00098470121124B19701C4B18680094224648
:102EC00023461B4CA04705B030BD00BF0CB301200A
:102ED000B50E4000D2B20120D50E400000100E40C9
:102EE0006CBC01200D154000A5194000E5194000FB
:102EF000687A4000F9464000747A4000411340006F
:102F00003000002028000020887A400028B30120EB
:102F10007D2C4000D0B2012068BC0120A07A400086
:102F2000F4B20120BCB20120D4E10120B8B20120EA
:102F30007D224000F8B5064E02277763054D2846EE
:102F4000054CA0472846A04737632846A047F8BD50
:102F500000100E401E140D000100002030B587B097
:102F6000044600230393049305930090C023019328
:102F70004FF4006302931B4D28461B4B984728468D
:102F800001211A4B984705F5007528466946184AED
:102F9000184B984704EB840464001749A1FB0431E3
:102FA00028468909154B9847154BE02283F80823DA
:102FB0004FF480721A60284640F20111114B984775
:102FC000114A124B1A60124A124B1A602846124BD1
:102FD00098472846114B98472846114B984707B009
:102FE00030BD00BF00C0004039044000A9054000CA
:102FF0000000270785094000D34D6210E909400011
:1030000000E100E0ED09400048B3012064BC01206C
:103010004CB7012054BB0120F9094000D9094000F8
:10302000E109400030B583B0002300932348244BCE
:10303000984710F0010F12D0204801A9214B984762
:10304000002839D1204B1B68B3F5806F34D21F4A5A
:1030500012680199D15401331B4A13602CE010F41B
:10306000807F1AD0194B1A68194C216819602260A8
:10307000154B1968C2F8001400251D600F48154B48
:103080009847154B186821466A462B46134CA047B3
:10309000009B8BB1124B98470EE010F0100F0BD035
:1030A000064C20460F4B98474FF400710E4B984743
:1030B000204610210D4B984703B030BD00C20040A0
:1030C000F5094000150A4000CCB2012064BC012083
:1030D00054BB0120F9094000A0B201207114400046
:1030E000950E40002D0A4000D1054000F109400036
:1030F00030B583B00B4B01930B4C2A200B493C227B
:1031000023460B4DA847019B1C6002A951F8043DC2
:103110005860084B18684FF0FF320023064CA04758
:1031200003B030BDD8B2012054E00120BC7A400089
:103130007D2C400068BC0120411340002DE9F04F78
:1031400083B004468846B14A4FF48073B04DA84717
:10315000B04B186830B300214FF0FF320B46AE4D34
:10316000A847AE4B984705460020AD4B984702460E
:10317000AC482946AC4DA847AC484146A34AA847AD
:10318000A44B186800210A460B46A94DA847B8F180
:10319000030F40F2CD8621787E290CD1A54E9D4D9E
:1031A000A54F35E0A1484146984A9F4B9847EEE726
:1031B00021787E292CD0A14B1B78002B00F0B886FB
:1031C000944B1868D8B100214FF0FF320B46924D56
:1031D000A847924B984705460020914B98470246D6
:1031E00090482946904DA84795482178A847894B93
:1031F000186800210A460B468D4CA04702E0904813
:10320000894B9847A02001218E4B984700F090BE33
:1032100094F8029009F103095FFA89F920464946BA
:10322000B047824604EB090B14F8091081422AD0FA
:10323000784B1868E8B100214FF0FF320B46764C0E
:10324000A047764B984704460020754B98470246A6
:1032500074482146744CA0477B489BF800105246A6
:10326000A0476C4B186800210A460B46704CA047DB
:1032700003E0754852466C4B9847A0200221714BE1
:10328000984700F055BE94F80390B9F1A80F00F0EC
:10329000E78338D8B9F1820F00F0F38118D8B9F17B
:1032A0000A0F00F0938009D8B9F1030F00F04D81A7
:1032B000B9F1080F00F0208100F00ABEB9F10B0F40
:1032C00000F0F580B9F1810F00F0E48400F000BE59
:1032D000B9F1A00F00F0208609D8B9F1840F00F0F1
:1032E0008C85B9F1890F00F0A78100F0F1BDB9F12B
:1032F000A60F00F0F18100F2EF82B9F1A10F00F00A
:103300004D8100F0E5BDB9F1CD0F00F0BE8518D8B4
:10331000B9F1CA0F00F0088509D8B9F1A90F00F07A
:103320003484B9F1AA0F00F0558400F0D1BDB9F191
:10333000CB0F00F01C85B9F1CC0F00F03B8500F0FD
:10334000C7BDB9F1FA0F00F04E8108D8B9F1F80FF6
:1033500000F07D84B9F1F90F0ED000F0B9BDB9F1DC
:10336000FD0F00F05382B9F1FE0F00F02C82B9F18D
:10337000FC0F40F0AD857CE22868E0B100214FF001
:10338000FF320B46DFF890C0E047244B9847814658
:103390000020234B9847024622484946DFF8889090
:1033A000C8472A48C847286800210A460B46DFF864
:1033B00080C0E04702E025481B4B984701221F4B85
:1033C0001A700322224B1A7000F0A6BD286800284C
:1033D00042D000214FF0FF320B46DFF83CC0E047FF
:1033E0000E4B9847814600200D4B984702460D48EA
:1033F0004946DFF83490C8471648C8472868002176
:103400000A460B46DFF828C0E04728E0D4E0012058
:10341000BD2C40006CBC01200D154000A5194000DA
:10342000E5194000687A4000F9464000FC7A400007
:1034300041134000892B4000000E0E4024B30120B0
:10344000107B4000312C4000347B4000707B4000FA
:1034500028000020887B4000B148B24B9847DFF835
:1034600008937E2389F800304FF0000A89F801A004
:10347000022389F802308A2389F80330642389F80B
:10348000043048460521B04789F80500A6490B6875
:10349000C3F800900B6806225A60A44B18684FF4DA
:1034A0007A725346DFF8C4C2E04700F035BD2868A1
:1034B000E8B100214FF0FF320B46DFF8B4C2E0471D
:1034C0009B4B9847814600209A4B984702469A4862
:1034D0004946DFF85092C8479848C84728680021F5
:1034E0000A460B46DFF884C2E04700F015BD93485A
:1034F0008C4B984700F010BDDFF878927E2389F856
:1035000000304FF0000A89F801A0032389F8023047
:10351000882389F803308A4B1B88A9F80430484671
:103520000621B04789F8060086490B68C3F8009069
:103530000B6807225A607D4B18684FF47A72534625
:10354000DFF828C2E04700F0E7BC2379032B40F006
:10355000E3842868E8B100214FF0FF320B46DFF822
:1035600010C2E047724B984781460020714B984744
:10357000024671484946DFF8AC91C8477248C847CF
:10358000286800210A460B46DFF8E0C1E04700F05A
:10359000C3BC6D48634B984700F0BEBC2868E8B1D7
:1035A00000214FF0FF320B46DFF8C4C1E047604B0B
:1035B0009847814600205F4B984702465E4849463F
:1035C000DFF86091C8476148C847286800210A466B
:1035D0000B46DFF898C1E04700F09EBC5B48514BBA
:1035E000984700F099BC5A4A136801331360286861
:1035F000E8B100214FF0FF320B46DFF874C1E0471D
:103600004B4B9847814600204A4B984702464A4810
:103610004946DFF81091C8474E48C847286800213E
:103620000A460B46DFF844C1E04700F075BC494844
:103630003C4B984700F070BC2868E8B100214FF07F
:10364000FF320B46DFF828C1E047394B98478146E7
:103650000020384B9847024637484946DFF8C49067
:10366000C8473D48C847286800210A460B46DFF88E
:10367000FCC0E04700F050BC37482A4B984700F0A8
:103680004BBC4FF080433B630122344B1A702868D7
:10369000E8B100214FF0FF320B46DFF8D4C0E0471D
:1036A000234B984781460020224B984702462248E8
:1036B0004946DFF87090C8472948C8472868002164
:1036C0000A460B46DFF8A4C0E04700F025BC2448BA
:1036D000144B984700F020BC2379002B50D1286868
:1036E000002849D000214FF0FF320B46DFF880C0A0
:1036F000E0470F4B9847814600200E4B9847024603
:103700000D484946DFF81C90C8471648C847286846
:1037100000210A460B46DFF854C0E047FCE300BF37
:10372000887B4000F94640002000002068BC012052
:10373000A5194000E5194000687A4000AC7B4000C4
:10374000D4B201202C000020CC7B4000F07B400054
:1037500050BB0120107C4000287C400038B3012081
:103760003C7C4000587C4000E4B201204113400002
:103770000D15400064BB0120A648A74B9847CBE33A
:103780002868E0B100214FF0FF320B46DFF8C0C2DD
:10379000E047A24B984781460020A14B984702463C
:1037A000A0484946DFF87092C8479F48C847286834
:1037B00000210A460B46DFF89CC2E047ACE39A487A
:1037C000954B9847A8E32868E0B100214FF0FF32FD
:1037D0000B46DFF87CC2E047904B984781460020BB
:1037E0008F4B984702468F484946DFF82C92C847CE
:1037F0008E48C847286800210A460B46DFF854C2A5
:10380000E04789E38948844B984785E304F1050A3A
:103810005046874B98478146286808B300214FF0EF
:10382000FF320B46DFF828C2E0477C4B98478346BF
:1038300000207B4B984702467A485946DFF8D8B1BA
:10384000D8471FFA89F201327A4851465244D84784
:10385000286800210A460B46DFF8F8C1E0475BE321
:103860001FFA89F201327348514652446A4B984715
:1038700052E304F1050A50466D4B9847814628688B
:1038800008B300214FF0FF320B46DFF8C4C1E04718
:10389000624B984783460020614B98470246614837
:1038A0005946DFF874B1D8471FFA89F201326248ED
:1038B00051465244D847286800210A460B46DFF893
:1038C00094C1E04728E31FFA89F201325A48514671
:1038D0005244514B98471FE323792BBB2868E0B132
:1038E00000214FF0FF320B46DFF864C1E0474B4B3D
:1038F0009847814600204A4B984702464948494626
:10390000DFF81491C8474D48C847286800210A4687
:103910000B46DFF840C1E04702E048483E4B98477D
:103920000222474B1A70F7E2072B25D10322444BA2
:103930001A702868E0B100214FF0FF320B46DFF823
:1039400010C1E047354B984781460020344B9847DB
:10395000024634484946DFF8C090C8473948C8474E
:10396000286800210A460B46DFF8E8C0E047D3E2AA
:103970003448294B9847CFE2082B25D10322304BFE
:103980001A702868E0B100214FF0FF320B46DFF8D3
:10399000C0C0E047214B984781460020204B984704
:1039A000024620484946DFF87090C8472648C84775
:1039B000286800210A460B46DFF898C0E047ABE2D2
:1039C0002148154B9847A7E2092B40F0A582032216
:1039D0001B4B1A70286800283ED000214FF0FF32A0
:1039E0000B46DFF86CC0E0470C4B9847814600203F
:1039F0000B4B984702460B484946DFF81C90C847D6
:103A00001248C847286800210A460B46DFF844C020
:103A1000E04781E2587C4000F9464000A51940008B
:103A2000E5194000687A4000687C40007C7C4000DA
:103A3000C94A4000947C4000B47C4000DC7C4000DB
:103A400028000020F47C4000107D4000307D4000C4
:103A50000D15400041134000A048A14B98475BE280
:103A6000237913BB2868E0B100214FF0FF320B46E9
:103A7000DFF8A4C2E0479B4B9847814600209A4B51
:103A80009847024699484946DFF85492C8479848F3
:103A9000C847286800210A460B46DFF880C2E04785
:103AA0003AE293488E4B984736E2072B22D128689A
:103AB000E0B100214FF0FF320B46DFF85CC2E04777
:103AC000884B984781460020874B98470246874895
:103AD0004946DFF80C92C8478648C8472868002145
:103AE0000A460B46DFF834C2E04715E281487C4BBA
:103AF000984711E2082B22D12868E0B100214FF04D
:103B0000FF320B46DFF810C2E047764B98478146FC
:103B10000020754B9847024674484946DFF8C0912B
:103B2000C8477548C847286800210A460B46DFF891
:103B3000ECC1E047F0E17048694B9847ECE1092B94
:103B400040F0EA812868E0B100214FF0FF320B46D7
:103B5000DFF8C4C1E047634B984781460020624BC1
:103B60009847024661484946DFF87491C8475B4868
:103B7000C847286800210A460B46DFF8A0C1E04785
:103B8000CAE15648564B9847C6E12868E0B1002183
:103B90004FF0FF320B46DFF880C1E047514B9847AA
:103BA00081460020504B9847024650484946DFF86E
:103BB0003091C8475148C847286800210A460B463B
:103BC000DFF858C1E04702E04C48454B98474C4B62
:103BD0009847A1E12868E0B100214FF0FF320B4681
:103BE000DFF834C1E0473F4B9847814600203E4B09
:103BF000984702463D484946DFF8E490C8474148A7
:103C0000C847286800210A460B46DFF810C1E04784
:103C100002E03C48324B98473B4B0193DFF8009160
:103C2000212000210A464B46DFF8F8C0E047019BFF
:103C3000C3F8009002A951F8043D5860334B18684E
:103C40004FF0FF320023DFF8D4C0E04764E128687A
:103C5000E0B100214FF0FF320B46DFF8BCC0E04777
:103C6000204B9847814600201F4B984702461F482B
:103C70004946DFF86C90C8472548C84728680021A6
:103C80000A460B46DFF894C0E04745E12048144B54
:103C9000984741E12868E0B100214FF0FF320B4620
:103CA000DFF874C0E0470F4B9847814600200E4B69
:103CB000984702460D484946DFF82490C847154802
:103CC000C847286800210A460B46DFF850C0E04785
:103CD00022E11048024B98471EE100BF307D4000B2
:103CE000F9464000A5194000E5194000687A4000F7
:103CF000547D4000F47C4000107D4000707D400009
:103D0000F1304000887D400000B3012068BC0120F4
:103D1000AC7D4000C87D40000D15400041134000BF
:103D2000A8B201207D2C40002868E0B100214FF0AE
:103D3000FF320B46DFF82CC2E0477F4B98478146A5
:103D400000207E4B984702467D484946DFF8F891AF
:103D5000C8477C48C847286800210A460B46DFF858
:103D600008C2E047D8E07748774B9847D4E0286806
:103D7000E0B100214FF0FF320B46DFF8E8C1E04729
:103D80006D4B9847814600206C4B984702466C4823
:103D90004946DFF8B491C8476C48C84728680021F5
:103DA0000A460B46DFF8C0C1E047B5E06748664BFE
:103DB0009847B1E02868E0B100214FF0FF320B4690
:103DC000DFF8A0C1E0475C4B9847814600205B4B81
:103DD000984702465A484946DFF86C91C8475C4804
:103DE000C847286800210A460B46DFF87CC1E04737
:103DF00092E05748544B98478EE0237913BB2868CC
:103E0000E0B100214FF0FF320B46DFF858C1E04728
:103E1000494B984781460020484B984702464848FE
:103E20004946DFF82491C8474A48C8472868002116
:103E30000A460B46DFF830C1E0476DE04548424B8B
:103E4000984769E02868E0B100214FF0FF320B4647
:103E5000DFF810C1E047384B984781460020374BC8
:103E60009847024636484946DFF8DC90C8473A484A
:103E7000C847286800210A460B46DFF8ECC0E04737
:103E80004AE03548304B984746E02868E0B10021C9
:103E90004FF0FF320B46DFF8CCC0E047264B984787
:103EA00081460020254B9847024625484946DFF8C1
:103EB0009890C8472948C847286800210A460B46F9
:103EC000DFF8A4C0E04727E024481F4B984723E0D1
:103ED0002868E8B100214FF0FF320B46DFF884C0BC
:103EE000E047154B984782460020144B98470246FE
:103EF00013485146DFF850A0D04719484946D047EB
:103F0000286800210A460B46DFF85CC0E04703E062
:103F1000134849460C4B9847A1780431C9B20C4468
:103F2000C1EB08015FFA81F8B8F1030F3FF640A931
:103F300003B0BDE8F08F00BFA5194000E5194000AF
:103F4000687A4000E87D4000F94640000C7E400061
:103F50002C7E4000447E4000547E4000647E400041
:103F60007C7E40000D1540004113400070B582B0CA
:103F700000230193084B9847084E094D094C3068BF
:103F800001A94FF0FF320023A847019B184693F880
:103F90000014A047F3E700BF352F4000A0B2012076
:103FA0000D1540003D3140002DE9F041A8B000233F
:103FB0002593894A009289484FF47A710122884CEE
:103FC000A047884B186000BB874B1868D0B1002110
:103FD0004FF0FF320B46854CA047854B984704466F
:103FE0000020844B9847024683482146834CA047D3
:103FF0008348A0477C4B186800210A460B46814C39
:10400000A04702E07E487D4B98477F4B00937F4856
:10401000FA2101220023724CA04704467C4B186011
:1040200048B1734B98470246002300932046194637
:10403000784CA04720E06C4B1868D0B100214FF0BD
:10404000FF320B46694CA047694B98470446002055
:10405000684B9847024668482146684CA0476E481E
:10406000A047614B186800210A460B46654CA047E3
:1040700002E06948614B9847012004210022674B08
:104080009847674B186008BB574B1868D0B10021A0
:104090004FF0FF320B46554CA047554B984704460E
:1040A0000020544B9847024653482146534CA047A2
:1040B0005C48A0474C4B186800210A460B46514CFF
:1040C000A04702E057484D4B9847FEE701200421E6
:1040D0000022524B9847544B186008BB424B18685B
:1040E000D0B100214FF0FF320B46404CA047404B6F
:1040F0009847044600203F4B984702463E482146D9
:104100003E4CA0474948A047374B186800210A4653
:104110000B463C4CA04702E04448384B9847FEE72A
:1041200005230093002301930293039340484149E0
:104130004FF48062404CA047404EDFF818813A4F60
:104140003046C0470446386825A94FF0FF320023A7
:10415000264DA847259B1868596805AA8023384D25
:10416000A847214B1868E8B100214FF0FF320B46F9
:104170001E4DA8471E4B9847054600201D4B9847EB
:1041800002461D4829461D4DA8472E48259B5968C3
:1041900005AAA847144B186800210A460B46194D7A
:1041A000A84705E02748259B596805AA134B98475F
:1041B000259B1A6826925B682793204626A9002231
:1041C000214B984720464FF48071204B984730464A
:1041D00010211F4B9847B3E73D2D4000987E4000CB
:1041E00025224000B8B201206CBC01200D15400012
:1041F000A5194000E5194000687A4000F9464000E2
:10420000A87E400041134000A92B4000C87E40001A
:10421000A4B201207D224000D47E4000E112400083
:10422000A0B20120F47E400068BC0120147F400051
:104230006D3F4000387F40001517400000C200402D
:10424000BD2C4000407F4000AD054000C50540004A
:10425000ED0940002D0A400070B584B0002504AC83
:1042600044F8045D084B1E68084B984702460095C9
:10427000304629462346064CA047039B0BB1054B0D
:10428000984704B070BD00BFB8B20120C519400006
:104290007D224000950E4000F0B583B004460E46E6
:1042A00000230193344B984209D11F46334D3846C1
:1042B00001A9A8470028FAD1019B337019E0304BBF
:1042C000984209D11F462D4D384601A9A84700281C
:1042D000FAD1019B337019E02A4B984209D11F464D
:1042E000264D384601A9A8470028FAD1019B337012
:1042F00019E0254B9C4209D11F46204D384601A9A3
:10430000A8470028FAD1019B337019E01F4B9C424B
:1043100009D11F46194D384601A9A8470028FAD1EE
:10432000019B337019E01A4B9C4209D11D46134C76
:10433000284601A9A0470028FAD1019B337018E054
:10434000144B9C4209D11D460C4C284601A9A0479C
:104350000028FAD1019B33700BE00F4B9C4208D12F
:104360001D46064C284601A9A0470028FAD1019B0A
:10437000337003B0F0BD00BF00C20040150A40001A
:1043800000020240004202400082014000C201409F
:1043900000820040000204400042034070B50C4619
:1043A000304B984208D11E462F4D30462146A84733
:1043B0000028FAD1012070BD2C4B984208D11E462E
:1043C000294D30462146A8470028FAD1012070BD6A
:1043D000274B984208D11E46234D30462146A84718
:1043E0000028FAD1012070BD224B984208D11E4608
:1043F0001D4D30462146A8470028FAD1012070BD46
:104400001D4B984208D11E46174D30462146A847FD
:104410000028FAD1012070BD184B984208D11E46E1
:10442000114D30462146A8470028FAD1012070BD21
:10443000134B984208D11E460B4D30462146A847E3
:104440000028FAD1012070BD0E4B984208D11E46BB
:10445000054D30462146A8470028FAD1012070BDFD
:10446000002070BD00C20040010A4000000202406E
:10447000004202400082014000C201400082004030
:10448000000204400042034080B58AB0344B984794
:10449000344AD36823F4E0631B041B0C43F0BF636E
:1044A00043F40033D360304B984714202F4B984788
:1044B0002F4D304B1D60304A304B1A60304A314B23
:1044C0001A604FF4E1370497C02305934FF4006658
:1044D0000696002407940894DFF8F48040462A4B9F
:1044E000984740460121294B9847284604A9284A65
:1044F000284B98472846284B98472846274B9847EB
:10450000DFF8D080D8F8003098682146244DA847BD
:10451000D8F8003058682146A847224B98473846BB
:10452000214B98472148224B9847224B9847042318
:1045300000930194029403941F4820493246234675
:104540001F4DA847012300930194029403941D4832
:104550001D4932462346A8471C4B9847FEE700BF3B
:10456000A501400000ED00E0B1024000410840001C
:1045700000C20140B8BC01209D434000B4BC0120F2
:1045800099424000B0BC012039044000A905400018
:104590000000270785094000D9094000E1094000D3
:1045A000C1494000792540005D2F4000587F400000
:1045B000B149400019464000A93F4000B07F40008B
:1045C0001517400071294000BC7F400019194000B8
:1045D00000C001406004002008B5014B9847FEE789
:1045E000A50E400008B5014B9847FEE7A50E400018
:1045F00000B583B0002301930091009B044B9847C2
:10460000019B002BFCD0034B984703B05DF804FBE3
:10461000B50E4000D50E400010B501200021032248
:10462000054B9847054B186020B100210A460B4600
:10463000034CA04710BD00BFE11240006CBC01203C
:104640004113400042F6DF62014B1A60704700BF21
:1046500070BC012038B50F4B1C680F4B98470546BE
:104660000E4B98470E4B1B6813F0806F03D1C4F5B7
:10467000EA33BB3305E00135064B1B68C3F5EA336B
:10468000BB3305EB8505074A1068B3FBF0F000EB80
:10469000450038BD18E000E0C5194000A50E4000F7
:1046A00004ED00E070BC012070B50F4E0F4D761B7D
:1046B000B61018BF002405D0013455F8043B9847C4
:1046C000A642F9D10A4E0B4D761B03F09FFCB610A3
:1046D00018BF002406D0013455F8043B9847A64281
:1046E000F9D170BD70BD00BF188040001880400037
:1046F00020804000188040000FB400B5074983B007
:1047000004AB086853F8042B8168019300F07AFA2F
:1047100003B05DF804EB04B0704700BF60040020F4
:10472000032A70B426D940EA01039B0711D004780C
:104730000D78AC4222D10244431C05E013F8014B32
:1047400011F8015FAC4219D19342F7D1002070BC3F
:1047500070470C4603461E682568AE42184621463F
:1047600003F1040304F1040404D1043A032A1846B3
:104770002146F0D8002ADAD11046E8E7601B70BC69
:10478000704700BF844641EA000313F003036DD174
:10479000403A41D351F8043B40F8043B51F8043B04
:1047A00040F8043B51F8043B40F8043B51F8043B0B
:1047B00040F8043B51F8043B40F8043B51F8043BFB
:1047C00040F8043B51F8043B40F8043B51F8043BEB
:1047D00040F8043B51F8043B40F8043B51F8043BDB
:1047E00040F8043B51F8043B40F8043B51F8043BCB
:1047F00040F8043B51F8043B40F8043B51F8043BBB
:1048000040F8043B51F8043B40F8043B51F8043BAA
:1048100040F8043B403ABDD2303211D351F8043B4A
:1048200040F8043B51F8043B40F8043B51F8043B8A
:1048300040F8043B51F8043B40F8043B103AEDD2F9
:104840000C3205D351F8043B40F8043B043AF9D24A
:10485000043208D0D2071CBF11F8013B00F8013B1D
:1048600001D30B8803806046704700BF082A13D32A
:104870008B078DD010F003038AD0C3F10403D21A42
:10488000DB071CBF11F8013B00F8013B80D331F876
:10489000023B20F8023B7BE7043AD9D3013A11F8F6
:1048A000013B00F8013BF9D20B7803704B78437061
:1048B0008B7883706046704770B4840746D0541E6E
:1048C000002A41D0CDB2034602E0621EE4B3144692
:1048D00003F8015B9A07F8D1032C2ED9CDB245EA33
:1048E00005250F2C45EA054519D903F11002264686
:1048F000103E0F2E42F8105C42F80C5C42F8085C47
:1049000042F8045C02F11002F2D8A4F1100222F085
:104910000F0204F00F041032032C13440DD91E466D
:104920002246043A032A46F8045BFAD8221F22F0F2
:1049300003020432134404F003042CB1C9B21C4432
:1049400003F8011BA342FBD170BC70471446034619
:10495000C2E700BFF0B5044689B008460D4600F036
:10496000B3F8A368114F9A890495022100F1010E52
:10497000012604AD029191040590CDF80CE0069754
:104980000796019506D4596E42F4005221F4005165
:104990009A8159662046194601AA01F0D7FA0028E3
:1049A00014BF4FF0FF300A2009B0F0BD407940003D
:1049B000024B01461868FFF7CDBF00BF600400201E
:1049C00000290CBF022200224FF4806300F000B8DF
:1049D0002DE9F0413A4C26680D46044690461F46A4
:1049E00016B1B36B002B3CD0B8F1020F2FD8002FBB
:1049F0002DDB2146304601F065F8A1890023636074
:104A0000A3610B0627D421F0830189B2B8F1020F0C
:104A1000A1812AD0002D36D0B8F1010F11D089B272
:104A200001F00800274BF36380B2256025616761C0
:104A300078B111F0030F18BF0027A7600020BDE870
:104A4000F08141F001017B42A181A361E7E74FF0D2
:104A5000FF30BDE8F0812169304601F09FF9A1895E
:104A6000D1E7304601F0C2F8BEE7002004F143036D
:104A700041F0020100250122A181A560236023618C
:104A80006261BDE8F081002F08BF4FF480673846AF
:104A900001F08CFC054628B1A18941F0800189B262
:104AA000A181B9E74FF4806001F080FC054618B998
:104AB000A1894FF0FF30D9E74FF48067ECE700BFE2
:104AC00060040020F15A400020F0030110F00300C0
:104AD000C0F1000051F8043B00F1040C4FEACC0C8B
:104AE0006FF000021CBF22FA0CF213434FF0010CCE
:104AF0004CEA0C2C4CEA0C4CA3EB0C0222EA03020D
:104B000012EACC1204BF51F8043B0430F4D0C2F1D5
:104B1000000102EA0102B2FA82F2C2F11F0200EBC6
:104B2000D200704740EA01039B0770B42BD1032ADF
:104B300029D90C460346214654F8046BA6F10135E9
:104B400025EA060515F0803F05D1043A032A43F80B
:104B5000046B2146EFD8A2B10C781C70013A0133E6
:104B600001313CB16AB111F8014B03F8014B013A34
:104B7000002CF7D12AB11A44002103F8011B9342FB
:104B8000FBD170BC70470346E5E700BF4B6E2DE9D3
:104B9000F0479C040F4692462BD59368126833B3B6
:104BA000804602F1080919E96000B60817D0043DF3
:104BB000002401E0A64210D0404655F8041F3A46B2
:104BC00001F08CF8431C04F10104F3D10023CAF86E
:104BD0000830CAF80430BDE8F087DAF80830A3EBF3
:104BE0008603CAF8083009F10809002BDBD1002040
:104BF000ECE701F0ABF90023CAF80830CAF804303A
:104C0000BDE8F0872DE9F04FABB01C46009193460C
:104C10000493019018B1836B002B00F0E380009B9C
:104C200099898AB2900408D418465B6E41F4005208
:104C300023F400538281436692B2110740F1B2809F
:104C4000009B1B69002B00F0AD8002F01A020A2ABB
:104C500000F0B48000230DF1680A09930F930E93BE
:104C60000293CDF834A054469BF80030002B00F09E
:104C7000A384252B00F0A0845A4601E0252B03D005
:104C800012F8013F002BF9D1CBEB0206154696B185
:104C90000E9B0F9AC4F800B001333244072B6660B4
:104CA0000F920E9379DD002A40F0AF84029B0E92A2
:104CB0003344544602932B78002B00F0608300218C
:104CC0004FF000034FF0FF3C8DF82F30681C6B78DD
:104CD00088460D46664600F1010BA3F12002582AD2
:104CE00000F2AB82DFE812F09B02A902A902A30244
:104CF000A902A902A902A902A902A90255026202F7
:104D0000A9020D016E02A90229012F012F012F0115
:104D10002F012F012F012F012F012F01A902A9021D
:104D2000A902A902A902A902A902A902A902A9022B
:104D30003D01A902A902A902A902A902A902A90288
:104D4000A902A902A9027401A902A902A902A90241
:104D5000A9028B01A902A902A301A902A902A90221
:104D6000A902A902A902A902A902A902A902C701CE
:104D7000DA01A902A902A9022301DA01A902A90202
:104D80004C02A9028A021301F3010702A9020D02D3
:104D9000A9028100A902A90233020834029B33440C
:104DA000029388E70198009900F070FDA8B9009B74
:104DB0009A8902F01A020A2A7FF44CAF009BB3F9D9
:104DC0000E30002BFFF646AF019800995A46234655
:104DD00000F020FD2BB0BDE8F08F4FF0FF302BB07E
:104DE000BDE8F08F00F002FF19E718F0200F0395DF
:104DF000B44600F00C81049B073323F0070303F152
:104E00000802D3E90067049201234FF000028DF8F5
:104E10002F20E1460025BCF1000FA8BF28F0800834
:104E200056EA070240F0C480BCF1000F00F0818315
:104E3000012B00F0C580022B00F087835146F20859
:104E400042EA4772F80806F0070307461646303371
:104E500056EA070201F8013DF1D118F0010F079160
:104E600040F0FC83C1EB0A09E1454E46B8BF6646F7
:104E700005B1013618F00203059318BF023618F089
:104E80008403069340F0FA81039B9D1B002D40F3A1
:104E9000F581102D40F38C84DDF838E00F9AC64F71
:104EA0002046102364467146844607E001F1020E55
:104EB0000CF1080C0146103D102D13DD481C10327A
:104EC00007280F92CCF80070CCF804300E90EDDD7E
:104ED000002A40F0C381103D102D11464FF0010E05
:104EE000D446EBDC63467146A4461C462A44072997
:104EF0000F92276065600E9100F346830834481CCA
:104F0000BFE1584648F004089BF80030E3E618F08B
:104F100020030395B44662D0049B073323F00703B4
:104F200003F10802D3E90067049200236DE748F01B
:104F300040089BF800305846CDE648F080089BF8C2
:104F400000305846C7E6A3F1300200251BF8013BAC
:104F500005EB850502EB4505A3F13002092AF5D9D9
:104F6000BBE648F0100818F0200F0395B4468DF802
:104F70002F1000F09B800499073121F00701D1E93F
:104F800000230831049116461F46002A73F10003DE
:104F9000C0F2A683BCF1000FA8BF28F0800856EA33
:104FA00007029DF82F50E1464FF001033FF43CAF5C
:104FB000012B7FF440AF002F08BF0A2E80F034830E
:104FC0002AAB303603F8416DC3EB0A0907934BE770
:104FD00048F0100818F020030395B4469CD118F04F
:104FE000100240F0F78218F0400300F0F3820499B9
:104FF00013460A4604320E880492002705E748F05B
:10500000100818F0200F0395B4467FF4F4AE049A0C
:1050100018F0100F134640F0E48218F0400F00F033
:10502000E08216880432002701230492EDE6634AE9
:10503000039518F0200FB4468DF82F10099200F058
:105040009080049A073222F00702D2E9006702F149
:105050000801049118F0010F00F0908256EA07024F
:1050600000F08C8230228DF8313048F002088DF843
:1050700030200223C9E6049A039513688DF8403066
:105080001346043301264FF00001049310AB8DF852
:105090002F10B14607934FF0000CEBE618F0200FED
:1050A0000395B4468DF82F107FF465AF18F0100FFC
:1050B00040F0A28218F0400F00F09E820499B1F9EE
:1050C00000600431F71732463B4604915DE70499CE
:1050D000039530230A468DF83030782304328DF85A
:1050E0003130374B0993B44648F002080E680492F9
:1050F0000027022389E648F020089BF80030584634
:10510000E9E5049A0395136807934FF00001B4464C
:105110008DF82F10161D002B00F05083BCF1000FEE
:10512000C0F22A83079DCDF810C0624628460021B0
:1051300001F0D6FBDDF810C0002800F05083C5EB6D
:10514000000904969DF82F504FF0000C8CE61C4A85
:10515000039518F0200FB44609928DF82F107FF4B4
:1051600070AF049918F0100F0A4640F0408218F012
:10517000400F00F03C8204320E880492002769E759
:105180009BF800306C2B00F0EA8248F0100858467B
:10519000A1E5049A15681346002D03F10403C0F23B
:1051A000E68204939BF80030584694E59BF8003063
:1051B00058462B218FE500BFFC7F4000E07F400078
:1051C000547A40009BF800302A2B0BF1010000F0CC
:1051D0000F83A3F13002092A83464FF000063FF601
:1051E0007CAD1BF8013B06EB860602EB4606A3F1FD
:1051F0003002092AF5D946EAE6766EE518F0200F66
:105200008DF82F1000F08382049A02991368CF174B
:105210000846043239460492C3E9000124E55846A1
:105220009BF8003000297FF456AD202153E548F06B
:10523000010858469BF800304DE503958DF82F1076
:10524000002B00F09C808DF840304FF000030126C9
:105250008DF82F3010ABB14607931CE701980099E9
:1052600008930DAAFFF792FC002840F08F800E995A
:105270000F9A089B01F1010ED4461CE60E990F9A75
:10528000481C9DF82F306BB101320DF12F03012125
:1052900007280F920E902360616000F3348101466D
:1052A00008340130059B63B102320CA902230728A0
:1052B0000F920E9084E80A0000F33481014608340E
:1052C0000130069B802B00F0D480C9EB0C07002F27
:1052D0002BDD102FAA4D1FDDA6461023019C07E0F1
:1052E00001F1020C0EF1080E0146103F102F11DDE6
:1052F000481C103207280F92CEF80050CEF8043028
:105300000E90EDDD6ABB103F102F4FF0010C1146DF
:10531000D646EDDC744660463A4407280F9284E88E
:10532000A0000E903BDC0834013002EB0903079A21
:105330000F93072884E804020E903DDD002B40F017
:105340003E8118F0040F0E9340F02F81029B039AC8
:105350009642ACBF9B199B18029300230E935446B0
:1053600082E42046009905930DAAFFF70FFC68B967
:105370000E990F9A059B01F1010CD646B5E70F9BDC
:1053800023B1019800990DAAFFF700FC009B9B89AF
:105390005B063FF522AD02982BB0BDE8F08F002AE6
:1053A00040F0918101220799CDF86C904B46CDF8E1
:1053B0003C901A910E92544604F1080218F0040F22
:1053C00039D003998D1B002D35DD102D40F302825D
:1053D0000E986C4FDDF80480DDF80090102406E094
:1053E00000F1020E08320846103D102D10DD411C60
:1053F000103307290F93176054600E91F0DD002BD6
:105400002AD1103D102D4FF0010E18465246EEDC09
:105410002B44BEF1070F0F9317605560CDF838E0AD
:1054200009DD002B92D0019800990DAAFFF7AEFB81
:105430000028ABD10F9B029A03998E42ACBF921900
:1054400052180292002B88D0019800990DAAFFF7FC
:105450009DFB002881D099E7404649460DAAFFF7F9
:1054600095FB002892D10E980F9B00F1010E524639
:10547000BAE7039B9F1B002F7FF727AF102F404DEC
:1054800040F3B481204610236446844607E001F1CE
:10549000020E0CF1080C0146103F102F11DD481CC4
:1054A000103207280F92CCF80050CCF804300E9040
:1054B000EDDDC2B9103F102F4FF0010E1146D4465A
:1054C000EDDC6346A4461C463A44BEF1070F0F923A
:1054D00084E8A000CDF838E000F3EF8008340EF146
:1054E00001007146F1E60198009905930DAAFFF7B6
:1054F0004DFB00287FF44AAF0E990F9A059B01F1EE
:10550000010ED446C8E7002A40F0C680059B002B58
:1055100000F086800CAA02231A9208461B931A46B2
:105520005446CBE6002A40F0A6800120114654469E
:10553000C7E603BB18F0010F1DD02AAB302203F8D9
:10554000412DC3EB0A0907938EE40998D14633092C
:1055500006F00F0143EA07733A091E461746435CFB
:1055600009F8013D56EA0703F1D14B46CDF81C90EE
:10557000C3EB0A0978E4CDF81CA075E4022344E4E7
:10558000D07F4000FC7F4000002A40F0D7809DF88B
:105590002F30002B00F0AE8001230DF12F011846B3
:1055A0001B931A461A91544679E6039A951B002DCF
:1055B00052463FF70AAFC9E65D46FFF77CBB01984C
:1055C00000990DAAFFF7E2FA00287FF4DFAE0F9BE7
:1055D0005246F3E604990A4604320E680492002704
:1055E00013E404321E680492012300270DE41668B8
:1055F0000432049200272DE5049A166813460433FA
:10560000F717049332463B46BFE4019800990DAA70
:10561000FFF7BCFA00287FF4B9AE5446FFF7BEBBD3
:105620000846544611464CE6D146CDF814C03046E3
:1056300039460A22002301F0E3FD30323046394674
:1056400009F8012D00230A2201F0DAFD06460F4673
:1056500056EA0703EBD1DDF814C086E7302B079B31
:1056600086D0013B1A4607933023C2EB0A0901F8A2
:10567000013CFFF7F9BB01980099CDF814C00DAAC1
:10568000FFF784FA00287FF481AE0E990F9ADDF8B7
:1056900014C0481C544614E601980099CDF820C067
:1056A0000DAAFFF773FA00287FF470AE0E990F9AD7
:1056B000DDF820C0481C5446F4E5002A67D10120DB
:1056C0001146544601E6019800990DAAFFF75EFACB
:1056D00000287FF45BAE0E980F9A0130544624E602
:1056E0002D25764267EB47078DF82F50E1460123C1
:1056F000FFF791BB059B114601205446002B3FF458
:10570000E4AD0CAA02238AE80C001A46D6E518F08C
:10571000100F0BD118F0400F08D0049A1368043210
:105720000492BDF808201A80FFF79EBA049A136805
:1057300004320492029A1A60FFF796BA019800990F
:10574000CDF820C00DAAFFF721FA00287FF41EAE85
:105750000E990F9ADDF820C0481C544691E548F098
:1057600020080BF101009BF80130FFF7B4BA6D423D
:1057700004935846FFF7C6BB07980496FFF7A4F9B1
:105780009DF82F5081464FF0000CFFF76DBB01983C
:105790000099CDF814C00DAAFFF7F8F900287FF49E
:1057A000F5AD0E990F9ADDF814C0481C54468CE5EF
:1057B0000E990F9A154F0131FFF798BBBCF1060FF8
:1057C00028BF4FF0060C124B0496E1462CEAEC760B
:1057D000079360E40E990D4F01F1010E18E6E146C2
:1057E0009DF82F5004968446FFF73EBB86466BE635
:1057F000049A9BF8013016680432002E0492BFF61A
:105800006AAA4FF0FF36FFF766BA00BFFC7F400080
:10581000F47F40002DE9F0420C46ADF58D6DB1F8F6
:105820000CE0E769496EB4F80E9019911AAD4FF487
:1058300080662EF0020E4FF0000C07976946676AEB
:105840000095049502960596ADF80CE0ADF80E9023
:105850000997CDF818C00646FFF7D4F9051E07DBF7
:105860003046694600F02EF9002818BF4FF0FF358A
:10587000BDF80C305B0603D5A38943F04003A38138
:1058800028460DF58D6DBDE8F08200BF38B52F4B71
:105890001B6805460C4613B19A6B002A36D0A289C4
:1058A00093B218070CD52069A8B113F001021ED0DD
:1058B000636900225B42A361A260F0B1002038BDA1
:1058C000D9063BD5580725D4206942F00803A381A7
:1058D0009BB20028E9D103F42072B2F5007FE4D036
:1058E0002846214600F0F2FCA3892069DDE79907EC
:1058F00058BF6269A2600028E0D1A3891A06DED5EC
:1059000043F04003A3814FF0FF3038BD184600F04C
:105910006DF9C4E7216B49B104F14003994203D00A
:10592000284600F03BFAA2890023236322F02402D8
:1059300000232069636092B22060C6E742F0400213
:1059400009232B604FF0FF30A28138BD6004002096
:10595000024B13B1024800F005B870470000000088
:10596000015C4000014600200246034601F054BBA2
:105970008B899AB22DE9F0410D46110780463CD43F
:105980006A6843F40063002AAB8165DDAE6A002ECD
:105990004BD09BB203F48052002192B2D8F8004061
:1059A000C8F80010002A5BD02A6D5F0705D569682A
:1059B0002B6B521A0BB1EB6BD21A4046E9690023EC
:1059C000B047461C56D0AB892A692A6023F400638D
:1059D0009BB200226A60DA04AB813BD4296BC8F821
:1059E000004011B305F14003994202D0404600F057
:1059F000D5F900202863BDE8F0812E69AEB12C688E
:105A00002E6091070CBF6B690023A41BAB600AE0FA
:105A1000324623466F6AE9694046B8470028A4EB3E
:105A20000004064404DD002CF2DC0020BDE8F08117
:105A3000AB8943F04003AB814FF0FF30BDE8F0810C
:105A4000AB892A69696023F400639BB2AB81DB04F4
:105A50002A60C3D52865C1E7EA6B002A96DCE4E733
:105A600001234046E969B047431C024619D0AB897F
:105A7000AE6A9AE7D8F800100029E1D01D2907D0B6
:105A8000162905D0AB8943F04003AB81BDE8F08116
:105A9000AB892A692A6023F400630022AB816A6023
:105AA0009CE7D8F80030002BE1D01D2B07D0162B37
:105AB00005D0AB8943F04003AB81BDE8F081C8F865
:105AC0000040B2E710B5044682B008B1836B53B111
:105AD000B1F90C0008B902B010BD204602B0BDE813
